:1000000002008EE4F523F5247525FF7526FFE4F53F
:1000100027F5287529FF752AFFE4F52BF52CE4F563
:100020002DF52E220000000000000002069A0000BC
:10008000000000000000000000000002065375811F
:10009000BC12024BE58260030200FA780079007A14
:1000A000007B007C007D00EC4D601C88828983E42D
:1000B00093A3A882A9838A828B83F0A3AA82AB83AD
:1000C0001CBCFFE31D80E07582007583007C297DE8
:1000D00000EC4D600AE4F0A31CBCFFF51D80F27536
:1000E00082007583007C007D00EC4D600AE4F0A383
:1000F0001CBCFFF51D80F2120003120F9A80FE0453
:10010000040A110A04040000000011110E0000008E
:1001100000000E11110000436F6D6D616E643A2096
:10012000257300526573706F6E73653A2025730DE9
:100130000A0041542B44564944303030300D0A00F7
:10014000303132333435363738394142434445460D
:1001500000206600203D2000487A002044494D459B
:1001600000204E49434B454C00204C4F4F4E4945D3
:10017000000D0A45464D384C423132204A44592D33
:10018000343020536C61766520546573742E0D0AEB
:100190000041542B5645520D0A0041542B42415503
:1001A000440D0A0041542B524649440D0A00415463
:1001B0002B445649440D0A0041542B5246433132D8
:1001C000300D0A0041542B504F57450D0A00415441
:1001D0002B434C53530D0A0041542B44564944467B
:1001E0004646460D0A00256C640041006D6963684F
:1001F000656C6C6520616E642078696E7969207326
:10020000697474696E6720696E2061207472656517
:100210000A0D005300746869732073686F756C640D
:1002200020626520746865206D6F746F722066753A
:100230006E6374696F6E00532564542564000A0070
:100240003C4E4F20464C4F41543E0075A7007597D9
:10025000DE7597AD75FF8075EF0675A71075C12027
:1002600075A70075A90075A900E5A930E7FB75A978
:100270000375A903E5A930E7FB43A41143A6017563
:10028000E10175E20075E341439C8575E341439CC0
:1002900085759810758DE6858D8B53890F43892060
:1002A000D28ED29975A71075980043A60175A2A8A1
:1002B00075A3FD75A4FF75A5FF43F304D29AD2AFD1
:1002C00075C800438E1075CAA875CBFD75CEFF7535
:1002D000CFFFD2ADD2CA75A70075820022AA824391
:1002E0008E407592B87593FF85929485939575911C
:1002F000047B00C3EB9A500BE59130E7FB53917FF1
:100300000B80F075910022AA82AB837C007D00C334
:10031000EC9AED9B502B7E00BE0400501D7582FAB6
:10032000C002C003C004C005C0061202DDD006D062
:1003300005D004D003D0020E80DE0CBC00D10D80AD
:10034000CE22AA82AB83ACF0FD75A72075930C7505
:10035000C8107594008A188B198C1A8D1B90A200F6
:1003600075F04A7404121425AA82AB83ACF0FD75B3
:100370001818E4F519F51AF51B8A828B838CF0EDB9
:10038000121425AA82AB83ACF0FDE4C39AFAE49B75
:10039000FB74019CE49D8A958B96D2C94394407569
:1003A000A70022AA8275A72010C90280FB8A927535
:1003B000A70022AA82AB83ACF08A828B838CF012D6
:1003C000139BFD60188D82C002C003C0041203A3FA
:1003D000D004D003D0020ABA00DF0B80DC2275A75C
:1003E0002010C80280FB53C83F85928275A7002267
:1003F00075A7207A007B0020C82675A70075821497
:10040000C002C0031202DDD003D00275A7200ABAD1
:1004100000010BBAA8E1BB61DE75A70075820A2254
:10042000C2C853C83F85928275A70022AA82AB83B7
:10043000ACF07D008A068B078C00C002C003C004AC
:10044000C005C006C007C0001203F0A982D000D0CA
:1004500007D006D005D004D003D002B90A0A8A8298
:100460008B838CF0E402187FC3ED953050180D8E0D
:10047000828F8388F0E912187FA3AE82AF838E0249
:100480008F03880480B48A828B838CF0E402187F07
:1004900075A720A2C875A70022AA82AB837C007D25
:1004A00000C3EC9AED9B50477E00BE04005039C05B
:1004B00002C003C004C005C006120490E433D00695
:1004C000D005D004D003D0026001227582FAC002A8
:1004D000C003C004C005C0061202DDD006D005D09E
:1004E00004D003D0020E80C20CBC00B50D80B22235
:1004F000AA82AB83ACF0C002C003C004C002C00338
:10050000C0047417C0E07401C0E07480C0E012172A
:10051000E2E58124FAF581C2A0900005120307D01C
:1005200004D003D0028A828B838CF01203B375301F
:100530001390007F75F04012042C90000A120307FC
:10054000D2A0747FC0E07400C0E07440C0E07423A7
:10055000C0E07401C0E07480C0E01217E2E58124BD
:10056000FAF58122C2A090000A12030790013275A9
:10057000F0801203B390000A12030753C83FD2A0C1
:10058000225389F0438901C28C2275A700C2EF75FE
:10059000B28075BC2075B91E75E80075DF3F75B374
:1005A00000D2EF22AA828518F005F074018002259E
:1005B000E0D5F0FBFB75A720BA0002800ABA010261
:1005C000800FBA021E8014EBF4FA52F1EB42D48091
:1005D00012EBF4FA52F2EB42D58008EBF4FA52F344
:1005E000EB42CC75A700228582BBC2EDD2EC30ED88
:1005F000FD85BD8285BE83221205E71214EEAA8214
:10060000AB83ACF0FDC002C003C004C005906C8B8E
:1006100075F053744012166CAA82AB83ACF0FDE502
:100620008124FCF581E4C0E074FCC0E0747FC0E08C
:100630007446C0E08A828B838CF0ED12194FAA8237
:10064000AB83ACF0FDE58124FCF5818A828B838C41
:10065000F0ED22C0E0C0D075D00075A710C29F8514
:10066000232374012524F5247401B52B06E4B52C4D
:10067000028002800BC3E5239525E524952692B0E0
:10068000E52B452C700BC3E5239525E52495269293
:10069000A5E52BE52CD0D0D0E032C0E0C0D075D09D
:1006A0000075A700C2CF85272774012528F5287477
:1006B00001B52B06E4B52C028002800BC3E527951B
:1006C00029E528952A92B2E52B452C700BC3E52726
:1006D0009529E528952A92B7E52BE52CD0D0D0E0D6
:1006E00032AA82AB838A18EBF5193395E0F51AF537
:1006F0001B90FFFFE4F5F01213B77518FF7519038F
:10070000751A00751B00021425AA82AB83E53124FB
:1007100004F539E53234FEF53AEA2408F582EB3483
:10072000FEF58312170FAA82AB83853982853A833F
:10073000C002C00312170FAE82AF83D003D002C332
:10074000EA9403EB64809480E433F86041C3EE9450
:1007500003EF64809480503685333B85343C853587
:100760003D853B82853C83853DF0E412187FA3E400
:1007700012187F85363B85373C85383D853B828521
:100780003C83853DF0E412187FA3E402187FC0008B
:10079000853982853A83C002C003C006C00712199A
:1007A0002DA982AC83ADF0F8E4C0E0C0E074FEC0D7
:1007B000E07443C0E089828C838DF0E812194FAC5D
:1007C00082AD83A8F0F9E58124FCF581900000EC6E
:1007D000F0A3EDF0A3E8F0A3E9F0C000E4C0E0C0AE
:1007E000E07480C0E0743FC0E08C828D8388F0E9C3
:1007F0001214FAAC82E58124FCF581D000D007D038
:1008000006D003D002D000EC600F900000E4F0A30B
:10081000F0A37480F0A3743FF0C0008A828B83C081
:1008200002C003C006C00712192DAC82AD83A9F027
:10083000F8900000E0C0E0A3E0C0E0A3E0C0E0A3C7
:10084000E0C0E08C828D8389F0E812166CAC82AD3A
:1008500083A8F0F9E58124FCF5818C828D8388F0F2
:10086000E9C00012152AAC82AD83D000D007D006B3
:10087000D003D002EAC39CF8EB9DF9900004E8F0A5
:10088000A3E9F0EC2AF53BED3BF53C900006E53B97
:10089000F0A3E53CF0C374FB98748189F063F080A9
:1008A00095F0D000500A90000474FBF0A37401F09E
:1008B000900004E0FAA3E0FB30E707900004E4F0C6
:1008C000A3F0C374FB953B7481853CF063F0809585
:1008D000F0500A90000674FBF0A37401F09000063B
:1008E000E0FAA3E0FB30E707900006E4F0A3F0E8AD
:1008F0007003020980C374039EE464808FF063F088
:100900008095F0507B74FBC39539FA7401953AFBDE
:10091000900004EAF0A3EBF074FB2539FC74013578
:100920003AFD900006ECF0A3EDF0C374FB9A7481DD
:100930008BF063F08095F0500A90000474FBF0A3F4
:100940007401F0900004E0FAA3E0FB30E7079000A8
:1009500004E4F0A3F0C374FB9C74818DF063F08019
:1009600095F0500A90000674FBF0A37401F090001B
:1009700006E0FAA3E0FB30E707900006E4F0A3F0FE
:10098000AA33AB34AC35900004E0FDA3E08D18F53C
:10099000193395E0F51AF51B9003FFE4F5F0C0025A
:1009A000C003C0041213B77518FB751901751A003E
:1009B000751B0012177BAD82AE83D004D003D0022A
:1009C0008A828B838CF0ED12187FA3EE12187FAA17
:1009D00036AB37AC38900006E0FDA3E08D18F51972
:1009E0003395E0F51AF51B9003FFE4F5F0C002C063
:1009F00003C0041213B77518FB751901751A007539
:100A00001B0012177BAD82AE83D004D003D0028AC4
:100A1000828B838CF0ED12187FA3EE02187FAA82DE
:100A2000AB83C28C5389F0438901C28C758A0075EF
:100A30008C00C28DD28CC28C758A00758C00C28DE0
:100A4000D28C7C007D00309719108D0280F80CBC90
:100A500000010DBC0AF0BD00EDC28C900000E4F571
:100A6000F022C28C758A00758C00C28DD28C7C00FD
:100A70007D00209719108D0280F80CBC00010DBC80
:100A80000AF0BD00EDC28C900000E4F5F022C28CAB
:100A9000758A00758C00C28D7C007D00D28C7E0032
:100AA0008E077800C3EF9AE864808BF063F080953E
:100AB000F050298C078D0030970C108D0280F80FB4
:100AC000BF00F40880F120970C108D0280F80FBF52
:100AD00000F40880F18F0488050E80C4C28C8D0359
:100AE0008C027D007C00AF8C7E00EF3395E0F8F93E
:100AF000EE2CFCEF3DFDE83AFAE93BFBAE8AE4FF61
:100B00003395E0F8F9EE2CFCEF3DFDE83AFAE93BCD
:100B10008C828D838AF022AA82AB83ACF08A828B8E
:100B2000838CF012139BFD60188D82C002C003C03D
:100B30000412193AD004D003D0020ABA00DF0B80A5
:100B4000DC2285824285834385F044F54590002868
:100B5000E4F0E54530E71B75822D12193AC3E495A0
:100B600042F542E49543F543E49544F544E4954564
:100B7000F54575461FE4F547A840A941C3E49542F1
:100B8000E49543E49544E464808545F063F0809502
:100B9000F0E433FEC3E498E4648089F063F0809568
:100BA000F0E433FF4E7003020C3CAE46AF471546EF
:100BB00074FFB546021547EE2408F548EF3400F5FA
:100BC00049853E4AE53FF54B3395E0F54CF54D85BB
:100BD0004A18854B19854C1A854D1B8542828543E1
:100BE000838544F0E545C000C001121803AE82AF12
:100BF00083EE2440F582EF3401F583E49385488247
:100C0000854983F0854A18854B19854C1A854D1BFB
:100C10008542828543838544F0E54512177B8582B2
:100C20004285834385F044F545D001D000E8497002
:100C300003020B7C18B8FF0119020B7CE546042463
:100C400008FAE43400FB7C008A828B838CF0020B70
:100C500017AA82AB83ACF0FD7E007F00780079009C
:100C6000C3E49AE49BE49CE464808DF063F0809597
:100C7000F04003020D338A188B198C1A8D1B9000DB
:100C80000CE4F5F01213B7121852AA82AB83ACF041
:100C9000FDC002C003C004C0059093A475F0567453
:100CA0005012194FAA82AB83ACF0FDE58124FCF50C
:100CB000818A828B838CF0ED12158EAE82AF83A871
:100CC000F0F990015175F080C006C007C000C00166
:100CD000120B17AA4EE54FFB3395E0FCFD753E0A5B
:100CE000E4F53F754001E4F5418A828B838CF0ED99
:100CF000120B4290015475F080120B17D001D000F6
:100D0000D007D006753E0AE4F53F754007E4F5418B
:100D10008E828F8388F0E9C006C007C000C0011230
:100D20000B4290015875F080120B17D001D000D003
:100D300007D0068E828F8388F0E922AA82AB83AC2B
:100D4000F0FD752B03E4F52CD2B7C2B2C2B0D2A528
:100D500074CDC0E074CCC0E0C0E0743DC0E08A82D5
:100D60008B838CF0ED12155EAA82E58124FCF5815F
:100D7000EA704AC2B7D2B2D2B0C2A59005DC120363
:100D800007E52D452E7015C2B7D2B2C2B0C2A590EC
:100D900005DC120307752D01E4F52E227401B52D33
:100DA00006E4B52E0280028014C2B7C2B2D2B0C22D
:100DB000A59005DC120307E4F52DF52E2274CDC0B5
:100DC000E074CCC0E0C0E0743DC0E0855082855145
:100DD000838552F0E55312155EAA82E58124FCF565
:100DE00081EA702EE52D452E700EC2B7D2B2C2B088
:100DF000C2A59005DC0203077401B52D06E4B52EEB
:100E000002800122C2B7C2B2D2B0C2A59005DC02F4
:100E1000030722D2A07582281202DDC2A022AA8274
:100E20008AE0A2E79290A2E69291A2E59292A2E4D1
:100E30009293C002120E137582281202DDD0028A2C
:100E4000E0A2E39290A2E29291A2E19292A2E092B9
:100E500093020E13AA82D2828A82120E1E90000280
:100E6000020307AA82C2828A82120E1E9000050225
:100E70000307C2A0900014120307758233120E6399
:100E8000758233120E63758232120E6375822812D8
:100E90000E6375820C120E63758201120E63900050
:100EA00014020307AA82AB83ACF0FDC3EA94ECEB17
:100EB00094DBEC9400ED648094805003020F96C3A1
:100EC000EA9488EB94DBEC9400ED648094804027F6
:100ED000EA9450EB94DCEC9400ED6480948050171D
:100EE000745BC0E07401C0E07480C0E01217E215CA
:100EF0008115811581804DC3EA9450EB94DCEC940C
:100F000000ED648094804027EA947CEB94DDEC94BF
:100F100000ED6480948050177461C0E07401C0E0FB
:100F20007480C0E01217E215811581158180157457
:100F300069C0E07401C0E07480C0E01217E215815E
:100F400015811581758289120E63758200120E5407
:100F500075828B120E63758200120E547582CA124E
:100F60000E63758201120E549003E8120307758216
:100F700089120E63758202120E5475828B120E63F3
:100F8000758202120E547582CA120E6375820112A6
:100F90000E5490000122900000229001F4120307E9
:100FA0007471C0E07401C0E07480C0E01217E215F3
:100FB0008115811581902580E4F5F0120342120518
:100FC00064120E721205817518017582021205A451
:100FD0007518037582021205A412058A9001917595
:100FE000F0801204F090019A75F0801204F09001E4
:100FF000A475F0801204F09001AE75F0801204F038
:101000009001B875F0801204F09001C475F0801260
:1010100004F09001CE75F0801204F09001D875F0C4
:10102000801204F0758240120E63758200120E5415
:10103000758200120E54758200120E5475821112C0
:101040000E54758215120E5475820A120E54758252
:1010500000120E54758200120E54758248120E63EF
:10106000758200120E5475820E120E54758219127A
:101070000E54758219120E5475821F120E54758209
:1010800017120E5475820E120E54758200120E54F1
:10109000758256120E637A007B00C3EA9408EB64F3
:1010A0008094805020EA24FFF582EB3400F583E43D
:1010B00093F582C002C003120E54D003D0020ABAC4
:1010C00000D80B80D5758289120E63758200120ECE
:1010D0005475828B120E63758200120E547582CA8B
:1010E000120E63758201120E54758264120E637AB9
:1010F000007B00C3EA9408EB648094805020EA24CB
:1011000007F582EB3401F583E493F582C002C00356
:10111000120E54D003D0020ABA00D80B80D57582C3
:1011200072120E637A007B00C3EA9408EB64809429
:10113000805020EA240FF582EB3401F583E493F527
:1011400082C002C003120E54D003D0020ABA00D8E3
:101150000B80D59000C8120A1EAA82AB83ACF0FDAA
:10116000754E01E4F54F8A828B838CF0ED120C51A1
:1011700085825C85835D85F05EF55F120EA4C05CA0
:10118000C05DC05EC05F74E6C0E07401C0E0748002
:10119000C0E07493C0E07400C0E07440C0E0121876
:1011A000E7E58124F6F58190009375F0401203B3D2
:1011B00075820E1205F8AE82AF83AAF0FB8E608FA7
:1011C000618A628B637582101205F8AA82AB83ACC8
:1011D000F0FD8A648B658C668D67C05CC05DC05E07
:1011E000C05F74E6C0E07401C0E07480C0E0121714
:1011F000E2E58124F9F581120490400302138F7512
:10120000301490007F75F04012042C7518EA75199F
:1012100001751A8090007F75F04012171EE58285D7
:1012200083F045F060030212EF9001F4120307759A
:101230002B03E4F52C75820E1205F8AA82AB83AC61
:10124000F0FD8A608B618C628D637582101205F8E7
:10125000AA82AB83ACF0FD8A648B658C668D678A4D
:10126000508B518C528D538560828561838562F0ED
:10127000E563120D3B74ECC0E07401C0E07480C003
:10128000E01217E215811581158112049050A075A6
:10129000301490007F75F04012042C7518EA75190F
:1012A00001751A8090007F75F04012171EE5828547
:1012B00083F045F0600302122F751813751902753B
:1012C0001A8090007F75F04012171EE5828583F02A
:1012D00045F0701B7415C0E07402C0E07480C0E07B
:1012E0001217E21581158115819001F4120307741C
:1012F00054C0E07400C0E07440C0E07456C0E074B4
:1013000000C0E07440C0E07437C0E07402C0E07414
:1013100080C0E0747FC0E07400C0E07440C0E012A0
:1013200014C0E58124F4F581C3E55494E0E55564E7
:10133000809481500CC2A5C2B7752B01E4F52C80B6
:1013400009C2B2C2B0E4F52BF52C753358753400E0
:1013500075354075365A7537007538408556318574
:1013600057328554828555831207098558828559DD
:10137000831206E1858225858326855A82855B83D3
:101380001206E185822985832A90000512030790C1
:10139000023E75F080120B1702115320F71430F63D
:1013A000148883A88220F507E6A88375830022E2CB
:1013B00080F7E49322E022AAF0FBE5828518F0A4EE
:1013C000FCADF0E5838518F0A42DFDE435F0FEE5D5
:1013D000828519F0A42DFDE5F03EFEE433FFEA8599
:1013E00018F0A42EFEE5F03FFFE5838519F0A42E4A
:1013F000FEE5F03FFFE582851AF0A42EFEE5F03F02
:10140000FFEB8518F0A42FFFEA8519F0A42FFFE564
:1014100083851AF0A42FFFE582851BF0A42F8EF0A0
:101420008D838C8222FB7A20E4FCFDFEFFE5822581
:1014300082F582E58333F583E5F033F5F0EB33FB9A
:101440004017DAE98042E5822582F582E58333F5AB
:1014500083E5F033F5F0EB33FBEC33FCED33FDEEDD
:1014600033FEEF33FFEC9518ED9519EE951AEF95D5
:101470001B4013EC9518FCED9519FDEE951AFEEF47
:10148000951BFF438201DABEEB22AA08AB09AC0A26
:101490008A828B838CF012139BFA0508E4B508024C
:1014A00005098A822285820885830985F00A850BD1
:1014B00078850C79850D7A850E7B90148A021C7EC6
:1014C000C00F85810FE50F24F8F57BE50F24FBF8AD
:1014D000860808860908860AE50F24F8F886780841
:1014E000867908867A90148A121C7ED00F22E4AC8A
:1014F00083AB82FAF9748E02202FFFA8811818128C
:101500002057D2D133E6400730E70B758201222005
:10151000E70675820022C2D1122039E97003F582F4
:101520002230D101B3E433F5822212158E700AE520
:1015300082458345F0700122E430D112F4700BE54E
:10154000F0F47006E58330E7012290800022700AF3
:10155000E5F07006E58320E70122907FFF22FFA8D7
:10156000811818122057D2D133E6400730E70B75A7
:1015700082002220E70675820122C2D1122039E9B9
:101580007003F5822220D101B3E433F582221220C8
:1015900082C3749E95824039790012209430D126FE
:1015A000E9F42401F582EAF43400F583EBF4340025
:1015B000F5F0ECF43400700AE582458345F07001E3
:1015C00022E430E70F22EC20E71489828A838BF033
:1015D0002230D10AE4F582F583F5F074802274FF9D
:1015E000F582F583F5F0747F22F9E5184519451A5F
:1015F000451B60777800C308E51B20E73BE518250D
:10160000E0F518E51933F519E51A33F51AE51B333A
:10161000F51BE5829518E5839519E5F0951AE9958E
:101620001B50D4C3E51B13F51BE51A13F51AE51976
:1016300013F519E51813F518E5829518FCE583955F
:1016400019FDE5F0951AFEE9951B4007F98EF08D1E
:10165000838C82C3E51B13F51BE51A13F51AE519F4
:1016600013F519E51813F518D8CEE922122159BC43
:1016700000030220F8EF60FA30D502B2D1E583B45E
:10168000FF0302210EE582B4FF0302210E258340F1
:10169000072482400B0220F8248314500302210EF9
:1016A000F582EA8DF0A4A8F0EA8EF0A428F8E435DB
:1016B000F0F9EB8DF0A428E935F0F9E433CA8FF0A6
:1016C000A429F9EA35F0FAEBF88EF0A429F9EA3505
:1016D000F0FAE433FBEC8DF0A429F9EA35F0FAE4F2
:1016E0003BFBE88FF0A42AFAEB35F0FBE433CCFDAA
:1016F0008EF0A42AFAEB35F0FBE43CFCED8FF0A46D
:101700002BFBEC35F0FC20E7031221260220D7E565
:101710008330E709F4F583E582F4F582A322AA82F7
:10172000AB83ACF0AD18AE19AF1A8A828B838CF004
:1017300012139BF87900C002C003C0048D828E830F
:101740008FF012139BFA7B00E8C39AF8E99BF988A3
:101750001B891CD004D003D002E84970178D828EFB
:10176000838FF012139B600C0ABA00010B0DBD00B1
:10177000B90E80B6851B82851C8322FBC2D530E75B
:1017800015D2D5E4C39582F582E49583F583E4957B
:10179000F0F5F0E49BFBE51B30E717B2D5E4C39509
:1017A00018F518E49519F519E4951AF51AE4951B3E
:1017B000F51BEB12142530D513FBE4C39582F5829B
:1017C000E49583F583E495F0F5F0E49B2202193A61
:1017D00085827685837785F0788517799017CD0295
:1017E0002210C00F85810FE50F24FBF579E50F244A
:1017F000FBF886760886770886789017CD12221037
:10180000D00F22F9C2D530E715D2D5E4C39582F5C1
:1018100082E49583F583E495F0F5F0E499F9E51B0E
:1018200030E715E4C39518F518E49519F519E49512
:101830001AF51AE4951BF51BE91215E930D512E4E7
:10184000C39582F582E49583F583E495F0F5F0E4A1
:101850009922FCABF0AA83A982749EF582C2D1ECD6
:1018600030E716D2D1E9F42401F9EAF43400FAEBB6
:10187000F43400FBECF43400FC1221260220D720C3
:10188000F71030F6118883A88220F507F6A8837533
:10189000830022F280F7F022AA82AB10AC11AD12C5
:1018A0008B828C838DF0EA12187F0510E4B510024C
:1018B00005112285821085831185F01285137685A6
:1018C0001477851578851679901898122210AA82B7
:1018D000AB83AC10AD11AE128C828D838EF0E4120E
:1018E000187F8A828B8322C00F85810FE50F24F831
:1018F000F579E50F24FBF88610088611088612E5B5
:101900000F24F8F88676088677088678901898125B
:101910002210AA82AB83AC10AD11AE128C828D83E3
:101920008EF0E412187F8A828B83D00F22AC83ABB7
:10193000827A007900748E02185BAA82BA0A0810B3
:10194000990280FB75990D10990280FB8A992212E9
:10195000215930D502B2D1BF0009BC000302211BBE
:1019600002210EBC00030220F8E583B4FF0BE582E0
:10197000B4FF0302211B0220F8E582B4FF03022119
:101980000EC395835007247F400B0220F824801457
:10199000500302210EC0E0E4CCCBCAF98D188E1999
:1019A0008F1AEF54F0C4F51B758306851BF0EB848A
:1019B000F582E9C4F9EAC4FAEBC4FBEC540FC4782D
:1019C00003D6FC18EBD6FB18EAD6FA8582F0EDA414
:1019D000A8F0FD8582F0EEA428FEE435F0F88582BB
:1019E000F0EFA428FFE435F0F8E99DF9EA9EFAEB60
:1019F0009FFBEC98FCAD18AE19AF1A30E7101582BA
:101A0000E92DF9EA3EFAEB3FFBE43CFC80EDC082B5
:101A1000D58398C3E933F9EA33FAEB33FBEC33FCB3
:101A2000C3E99DEA9EEB9FEC9400B3E413F9D00266
:101A3000D0E0C44AFAD003D0E0C44BFBD004D0E0DD
:101A4000F5F0540FC44CFCD082158230F40FD3EC67
:101A500013FCEB13FBEA13FAE913F90582E930E70B
:101A60000A74012AFAE43BFBE43CFC0220EF85689F
:101A7000828569831227A7858277E577600A0571D9
:101A8000E4B5710605728002D203857782227A005E
:101A90007B0030030578AD760022C002C003121A25
:101AA0006EAC82D003D002BC0002802DBC08028044
:101AB00014BC09028023BC0A02801EBC0D028019DE
:101AC000BC20218014EA4B60D11ABAFF011B1571AA
:101AD00074FFB57102157280C1EA4B60BDEA24AD96
:101AE000F8760022EC7009EA24ADF87600D20322E1
:101AF000ECB57607EA24ADF8760022C3EA940FEB42
:101B0000940050968A058B060ABA00010BED24ADAD
:101B1000F8A604021A9AAA827B7FC3EA648094B072
:101B2000401174B98AF063F08095F04006EA24D041
:101B3000FB8030C3EA648094C1401174C68AF063AC
:101B4000F08095F0400674C92AFB8017C3EA6480D0
:101B500094E1400F74E68AF063F08095F0400474DD
:101B6000A92AFBC3EB957350038B822275827F22D7
:101B7000AA82756D00756E00756F007570008A0021
:101B8000E6FA60148A82C000121B16AB82D000C332
:101B9000EB957340030880E886038B82C000121B1C
:101BA00016AA82D000C3E5739A4050857318751940
:101BB00000751A00751B00856D82856E83856FF038
:101BC000E570C002C0001213B7AB82AC83ADF0FE6B
:101BD000D000D0028B6D8C6E8D6F8E70E4FBFCFD9F
:101BE000EA256DFAEB356EFBEC356FFCED3570FDDB
:101BF0008A6D8B6E8C6F8D7008809D856D82856E71
:101C000083856FF0E57022AA82756D00756E007590
:101C10006F007570008A00E6FB60228B82C003C0F3
:101C200000121B16AC82D000D003C3EC9573400D9C
:101C3000BB2D028008BB2B0280030880DA88028655
:101C400003BB2D03D38001C39206BB2D028003BBCF
:101C50002B010A8A82121B70300613C3E4956DFAB9
:101C6000E4956EFBE4956FFCE49570FD8008AA6D29
:101C7000AB6EAC6FAD708A828B838CF0ED22858267
:101C800068858369E4F571F572F575C203AA78ABCE
:101C900079AC7A8A828B838CF012139BFD74012AB3
:101CA000F578E43BF5798C7AEDFA700302201DBAE1
:101CB00025028003021FB6D202C20075730075743C
:101CC00000C204C205AB78AC79AD7A8B828C838D6F
:101CD000F012139BFAA3AB82AC838B788C798D7A4C
:101CE0008B828C838DF012139BF5768A06BE3000B2
:101CF00040168A06EE24C6400FE57475F00AA4FE6D
:101D0000EA24D02EF57480C38A06BE6100400A8A98
:101D100006EE248540035302DFBA250280ADBA2ABD
:101D2000028045BA42028036BA43028040BA440378
:101D3000021E31BA4903021E31BA4C028025BA4E46
:101D400003021E44BA4F03021E36BA53028020BA61
:101D50005503021E2FBA5803021E3D021E6CD2000C
:101D6000021CCBD201021CCBD204021CCBD2052018
:101D70000417E57B24FDF8887B8603088604088623
:101D80000518188B6A8C6B8D6CE574700B3005042C
:101D90007B0180027BFF8B74757300C3E5739574C0
:101DA0005005121A6EAA82300307E5737003021EF3
:101DB0006CEA601ABA2002800DBA09028008BA0DD6
:101DC000028003BA0A03300505E574B5731FE57395
:101DD00060C92004120575AB6AAC6BAD6C8B828C4C
:101DE000838DF0E412187F757300021E6CBA081C14
:101DF000E57360A7200411AB6AAC6BAD6C1BBBFF35
:101E0000011C8B6A8C6B8D6C1573808F20041BAB4F
:101E10006AAC6BAD6C8B828C838DF0EA12187F0BF1
:101E2000BB00010C8B6A8C6B8D6C0573021D9BC211
:101E30000275730A8036C202757308802FC202755C
:101E400073108028E57B24FDF8887B8603088604D0
:101E500008860518188B6A8C6B8D6C8B828C838D31
:101E6000F0E57112187FA3E57212187FE573700315
:101E7000021FB6121A8E78ADE67003021FB6300448
:101E800003021FB6E57B24FDF8887B8603088604E1
:101E900008860518188B6A8C6B8D6C0575200203FB
:101EA000021F2F300135856A7C856B7D856C7E75C0
:101EB00082AD121C07AE82AF83ABF0FC857C8285BD
:101EC0007D83857EF0EE12187FA3EF12187FA3EBBF
:101ED00012187FA3EC12187F021FB6300026856A05
:101EE0007C856B7D856C7E7582AD121C07AE82AFE2
:101EF00083ABF0FC857C82857D83857EF0EE1218B5
:101F00007F021FB6856A7C856B7D856C7E7582AD90
:101F1000121C07AE82AF83ABF0FC857C82857D838B
:101F2000857EF0EE12187FA3EF12187F021FB630E5
:101F30000134856A7C856B7D856C7E7582AD121B54
:101F400070AE82AF83ABF0FC857C82857D83857E1D
:101F5000F0EE12187FA3EF12187FA3EB12187FA3E5
:101F6000EC12187F8050300025856A7C856B7D855A
:101F70006C7E7582AD121B70AE82AF83ABF0FC85B8
:101F80007C82857D83857EF0EE12187F8028856AAD
:101F90007C856B7D856C7E7582AD121B70AE82AFC9
:101FA00083ABF0FC857C82857D83857EF0EE121804
:101FB0007FA3EF12187F200303021C8DAB78AC794E
:101FC000AD7A8B828C838DF012139BFEA3AB82AC17
:101FD000838B788C798D7AEEFA7003021C8DBA258A
:101FE000E18B828C838DF012139BFABA6E02800310
:101FF000BA4ECFE57B24FDF8887B8602088606086A
:10200000860718188A6A8E6B8F6C8A828E838FF08F
:10201000E57112187FA3E57212187F80A5AA757B5F
:10202000008A828B8322FCABF0AA83A982749EC2B1
:10203000D1F5821221260220D77901AA82E68F8269
:10204000B5821318E6B5F00E18E6B5830918E68ACE
:1020500082B58202790022B4800FE5F0700AE58330
:102060007006E58270027F00EFB6801518B600108A
:1020700018B6000B18B600060808087600220808F3
:102080000822AA82AB83A2F73392D16002D2F7F57D
:1020900082ACF0226040F82582500274FFF582E89D
:1020A00024F8501ECCCBCAF9E4CC24F85014CBCA87
:1020B000F9E4CB24F8500BCAF9E4CA24F8500379A8
:1020C000002224086010F8C3EC13FCEB13FBEA13A6
:1020D000FAE913F9D8F122B98003EA13B34010EA00
:1020E0002401FAE43BFBE43CFC50047C800582BC08
:1020F000000EBB000BBA0008E4F5F0F583F5822270
:10210000A2D1E582138CF092F78B838A8222E4F5C8
:1021100083F58275F080F4A2D11322E4F583F58271
:1021200075F0C0747F227804EC7011E58224F850B9
:102130000AF582E4C9CACBFCD8EF22EC78200582EC
:1021400020E713D5820122C3E933F9EA33FAEB33EE
:10215000FBEC33FCD8EA158222AA82AB83A2F733C8
:1021600092D16002D2F7F582ACF0E58124F9F8E66D
:10217000FD08E6FE0886F008E6A2F73392D5600275
:10218000D2F7F583AFF022AA827498C0E07421C020
:10219000E0C068C0698A8222056FE4B56F020570ED
:1021A00022AA8274302AFA24C6500A74072AFA3006
:1021B00007034302208A82022187E582FAC4540F72
:1021C000F582C0021221A1D002740F5AF5820221B9
:1021D000A1AA6AAB6BAC6CAD6DAE6E757520EE2EC0
:1021E000FEED235401FF4206EA2AFAEB33FBEC33FF
:1021F000FCED33FDC3EE95714008EEC39571FE43CF
:102200000201D575D98A6A8B6B8C6C8D6D8E6E22AE
:10221000858268858369E4F56FF570AA76AB77AC43
:10222000788A828B838CF012139BFD74012AF576D9
:10223000E43BF5778C78EDFA70030227A0BA25020B
:102240008003022798C20BC20CC20DC20EC20FC27D
:1022500010C211C212C208C209C20A757100757299
:10226000007573FFAB76AC77AD788B828C838DF085
:1022700012139BFAA3AB82AC838B768C778D78BAE2
:1022800025078A8212218780928A06BE3000402E5E
:102290008A06EE24C6402774FFB57313E57275F005
:1022A0000AA4FEEA24D02EF57270BFD20C80BBE5E2
:1022B0007375F00AA4FEEA24D02EF57380ACBA2E12
:1022C0000A74FFB573A4757300809F8A06BE61000F
:1022D000400E8A06EE248540075302DFD2078002B3
:1022E000C207BA20028075BA230302236BBA2A03FD
:1022F000022370BA2B02805FBA2D028055BA4202C7
:10230000805FBA43030223B5BA44030224F0BA45FE
:102310000302250ABA4603022506BA470302250E20
:10232000BA49030224F0BA4C02803BBA4E0302259C
:1023300012BA4F030224F7BA5003022489BA530396
:102340000223D9BA55030224FCBA5803022501021C
:10235000253CD20B02226AD20D02226AD20E022240
:102360006AD21002226AD21102226AD21202226AB0
:1023700074FFB5732030100BE57914F888798672F4
:1023800002226AE57924FEF888798606088607180D
:102390008E7202226A30100BE57914F88879867300
:1023A00002226AE57924FEF88879860608860718ED
:1023B0008E7302226A30100AE57914F88879860251
:1023C000800FE57924FEF888798603088604188B47
:1023D000028A82122187022541E57924FDF8887955
:1023E000860308860408860518188B6A8C6B8D6C2A
:1023F0008B828C838DF01227A9AB82AC838B747493
:10240000FFB57303857473200B1DC3E5749572507B
:1024100016E572C39574F572AB721572EB600875B0
:10242000822012218780F1856A82856B83856CF01A
:1024300012139BFBFA6029AB731573C3E464808BA2
:10244000F063F08095F050188A82122187AB6AAC55
:102450006BAD6C0BBB00010C8B6A8C6B8D6C80C7F9
:10246000200B03022541C3E5749572400302254108
:10247000E572C39574F572AB721572EB70030225A9
:102480004175822012218780EEE57924FDF8887954
:10249000860308860408860518188B6A8C6B8D6C79
:1024A000E56CFB30E7047A438013EB546060047AF8
:1024B00050800AEB30E6047A4980027A588A82C05A
:1024C0000212218775823A12218775823012218784
:1024D000758278122187D002BA4902800BBA500265
:1024E0008006856B821221BA856A821221BA8051D8
:1024F000D20F75710A804A757108804575710A801E
:1025000040757110803BD2088037D2098033D20ADF
:10251000802FE57924FDF8887986030886040886EB
:102520000518188B6A8C6B8D6C8B828C838DF0E513
:102530006F12187FA3E57012187F80058A8212211E
:1025400087200806200903300A5AE57924FCF88818
:102550007986030886040886050886061818188BED
:102560006A8C6B8D6C8E6D756A40756B02756C80B4
:10257000856A7A856B7B856C7C7401257AFEE435EF
:102580007BFFAB7C8E6A8F6B8B6C857A82857B83BD
:10259000857CF012139BFBFA700302221B8A8212C5
:1025A000218780CCE571700302221B7BAC30102B9D
:1025B000E57914F88879E6FC3395E0FDFEFF8C6A36
:1025C0008D6B8E6C8F6D200F5EAC6A7D007E007F00
:1025D000008C6A8D6B8E6C8F6D804C30111FE5798D
:1025E00024FCF8887986040886050886060886078C
:1025F0001818188C6A8D6B8E6C8F6D802AE5792483
:10260000FEF88879860408860518ED3395E0FEFF0C
:102610008C6A8D6B8E6C8F6D200F0CAC6AAD6B7EEF
:10262000007F008E6C8F6D301243E56A456B456C00
:10263000456D60397408B5710C758230C003122184
:1026400087D00380287410B57123758230C00312BF
:102650002187D00330070C758278C003122187D000
:1026600003800A758258C003122187D003300F25DA
:10267000AC6AAD6BAE6CE56DFF30E717C3E49CFC54
:10268000E49DFDE49EFEE49FFF8C6A8D6B8E6C8F53
:102690006D8002C20F757400D2138B00756E00C07E
:1026A000001221D1D00020130DE56EC4FCE6FD4CD4
:1026B000F61888038002A66E0574B213E56A456BAE
:1026C000456C456D70D68803E57270037572012004
:1026D0000C1A200B17E57404FCC39572500E75821A
:1026E00020C003122187D003157280E9300F0E75C8
:1026F000822DC003122187D00315728024E57460F7
:1027000020300D0E75822BC003122187D003157265
:10271000800F300E0C758220C003122187D0031564
:1027200072200B1EAC721572C3E5749C5027300CDE
:10273000047C3080027C208C82C003122187D0036D
:1027400080E2C3E57495725009E572C39574F57221
:1027500080037572008B00AB741574EB6022B213AA
:1027600020130A08E6C4540FFB8B6E80078603749F
:102770000F5BF56E856E82C0001221A1D00080D75C
:10278000200B0302221BAB721572EB700302221B9B
:1027900075822012218780EE8A8212218702221BF5
:1027A000856F8285708322E473AA82AB83ACF07D4F
:1027B000007E008A828B838CF012139BFFA3AA8277
:1027C000AB83EF60070DBD00EA0E80E78D828E833C
:1027D00022000000000000000000000000000000D7
:00000001FF
