:1000000002008EE4F523F5247525FF7526FFE4F53F
:1000100027F5287529FF752AFFE4F52BF52C22001A
:10002000000000000000000000000002062E00009A
:1000800000000000000000000000000205EB758188
:10009000991201E3E58260030200FA780079007AA0
:1000A000007B007C007D00EC4D601C88828983E42D
:1000B00093A3A882A9838A828B83F0A3AA82AB83AD
:1000C0001CBCFFE31D80E07582007583007C007D11
:1000D00000EC4D600AE4F0A31CBCFFF51D80F27536
:1000E00082007583007C007D00EC4D600AE4F0A383
:1000F0001CBCFFF51D80F212000312085780FE435E
:100100006F6D6D616E643A20257300526573706F78
:100110006E73653A2025730D0A0041542B445649ED
:1001200044303030300D0A000D0A45464D384C42FF
:100130003132204A44592D343020536C6176652089
:10014000546573742E0D0A0041542B5645520D0A06
:100150000041542B424155440D0A0041542B524654
:1001600049440D0A0041542B445649440D0A0041AC
:10017000542B5246433132300D0A0041542B504F1C
:1001800057450D0A0041542B434C53530D0A00416F
:10019000542B44564944464646460D0A00532564AE
:1001A0005425640064757479343D20257520647588
:1001B000747932203D20257520627566663D257371
:1001C0002073706565643D2575207374656572697B
:1001D0006E673D25750A0D003C4E4F20464C4F4141
:1001E000543E0075A7007597DE7597AD75FF807555
:1001F000EF0675A71075C12075A70075A90075A930
:1002000000E5A930E7FB75A90375A903E5A930E767
:10021000FB43A41143A60175E10175E20075E341BA
:10022000439C8575E341439C85759810758DE685E3
:100230008D8B53890F438920D28ED29975A7107563
:10024000980043A60175A2A875A3FD75A4FF75A526
:10025000FF43F304D29AD2AF75C800438E1075CA1B
:10026000A875CBFD75CEFF75CFFFD2ADD2CA75A7ED
:100270000075820022AA82438E407592B87593FF62
:100280008592948593957591047B00C3EB9A500BEE
:10029000E59130E7FB53917F0B80F075910022AA26
:1002A00082AB837C007D00C3EC9AED9B502B7E00DB
:1002B000BE0400501D7582FAC002C003C004C00510
:1002C000C006120275D006D005D004D003D0020EAD
:1002D00080DE0CBC00D10D80CE22AA82AB83ACF0B4
:1002E000FD75A72075930C75C8107594008A118B45
:1002F000128C138D1490A20075F04A7404120A38FF
:10030000AA82AB83ACF0FD751118E4F512F513F574
:10031000148A828B838CF0ED120A38AA82AB83ACEC
:10032000F0FDE4C39AFAE49BFB74019CE49D8A957A
:100330008B96D2C943944075A70022AA8275A72044
:1003400010C90280FB8A9275A70022AA82AB83ACF7
:10035000F08A828B838CF01209AEFD60188D82C00A
:1003600002C003C00412033BD004D003D0020ABA77
:1003700000DF0B80DC2275A72010C80280FB53C869
:100380003F85928275A7002275A7207A007B002006
:10039000C82675A700758214C002C003120275D06A
:1003A00003D00275A7200ABA00010BBAA8E1BB610D
:1003B000DE75A70075820A22C2C853C83F859282A3
:1003C00075A70022AA82AB83ACF07D008A068B075A
:1003D0008C00C002C003C004C005C006C007C00036
:1003E000120388A982D000D007D006D005D004D04F
:1003F00003D002B90A0A8A828B838CF0E4020C7B58
:10040000C3ED952E50180D8E828F8388F0E9120C63
:100410007BA3AE82AF838E028F03880480B48A826E
:100420008B838CF0E4020C7B75A720A2C875A70013
:1004300022AA82AB837C007D00C3EC9AED9B5047DF
:100440007E00BE04005039C002C003C004C005C015
:1004500006120428E433D006D005D004D003D0021D
:100460006001227582FAC002C003C004C005C00644
:10047000120275D006D005D004D003D0020E80C27F
:100480000CBC00B50D80B222AA82AB83ACF0C002D6
:10049000C003C004C002C003C00474FFC0E0740005
:1004A000C0E07480C0E0120C5AE58124FAF581C2E4
:1004B000A090000512029FD004D003D0028A828B44
:1004C000838CF012034B752E1390005C75F0401274
:1004D00003C490000A12029FD2A0745CC0E07400B2
:1004E000C0E07440C0E0740BC0E07401C0E07480F0
:1004F000C0E0120C5AE58124FAF58122C2A09000D6
:100500000A12029F90011A75F08012034B90000AA4
:1005100012029F53C83FD2A0225389F0438901C2DF
:100520008C2275A700C2EF75B28075BC2075B91E0C
:1005300075E80075DF3F75B300D2EF22AA828511FE
:10054000F005F07401800225E0D5F0FBFB75A720D3
:10055000BA0002800ABA0102800FBA021E8014EBB0
:10056000F4FA52F1EB42D48012EBF4FA52F2EB427D
:10057000D58008EBF4FA52F3EB42CC75A700228544
:1005800082BBC2EDD2EC30EDFD85BD8285BE8322FB
:1005900012057F120B01AA82AB83ACF0FDC002C032
:1005A00003C004C005906C8B75F0537440120B416E
:1005B000AA82AB83ACF0FDE58124FCF581E4C0E0C8
:1005C00074FCC0E0747FC0E07446C0E08A828B8314
:1005D0008CF0ED120CA1AA82AB83ACF0FDE5812476
:1005E000FCF5818A828B838CF0ED22C0E0C0D0754F
:1005F000D00075A710C29F85232374012524F524FC
:100600007401B52B06E4B52C028002800BC3E523F0
:100610009525E524952692B0E52B452C700BC3E576
:10062000239525E524952692A5D0D0D0E032C0E0D0
:10063000C0D075D00075A700C2CF852727740125CB
:1006400028F5287401B52B06E4B52C028002800B36
:10065000C3E5279529E528952A92B2E52B452C700C
:100660000BC3E5279529E528952A92B7D0D0D0E08D
:1006700032AA82AB838A11EBF5123395E0F513F5BC
:100680001490FFFFE4F5F01209CA7511FF7512030B
:10069000751300751400020A38AA82AB83E52F2473
:1006A00005FCE53034FEFDEA2408F582EB34FEF566
:1006B00083C004C005120BE4AA82AB83D005D0042A
:1006C000C3EA9405EB64809480502AAE31AF32A81F
:1006D000338E828F8388F0E4120C7BA3E4120C7BB0
:1006E000AE34AF35A8368E828F8388F0E4120C7B4F
:1006F000A3E4020C7B8C828D83C002C003120C9495
:10070000AC82AD83AEF0FFE4C0E07480C0E074FD65
:10071000C0E07443C0E08C828D838EF0EF120CA198
:1007200085823785833885F039F53AE58124FCF5F3
:1007300081D003D0028A828B83C002C003120C9442
:10074000A882A983ACF0FDC037C038C039C03A8850
:100750008289838CF0ED120B41AC82AD83AEF0FF49
:10076000E58124FCF5818C828D838EF0EF120B0DD8
:10077000AC82AD83D003D002EC2AFEED3BFFEAC38E
:100780009CF53BEB9DF53CC374FC9E74818FF0633C
:10079000F08095F050047EFB7F01EF30E7047E008F
:1007A0007F00C374FB953B7481853CF063F08095BA
:1007B000F05006753BFB753C01E53C30E705E4F580
:1007C0003BF53CAC31AD32A8338E11EFF5123395C9
:1007D000E0F513F5149003FFE4F5F0C004C005C084
:1007E000001209CA7511FB7512017513007514000A
:1007F000120BF3AA82AB83D000D005D0048C828D7B
:100800008388F0EA120C7BA3EB120C7BAA34AB3585
:10081000AC36853B11E53CF5123395E0F513F51444
:100820009003FFE4F5F0C002C003C0041209CA75CA
:1008300011FB751201751300751400120BF3AD82D4
:10084000AE83D004D003D0028A828B838CF0ED1269
:100850000C7BA3EE020C7B9001F412029F7428C063
:10086000E07401C0E07480C0E0120C5A158115815B
:100870001581902580E4F5F01202DA1204FC1205CD
:100880001990014875F08012048890015175F0802C
:1008900012048890015B75F08012048890016575E0
:1008A000F08012048890016F75F080120488900126
:1008B0007B75F08012048890018575F080120488A1
:1008C00090018F75F08012048812042850FB752E59
:1008D0001490005C75F0401203C4743FC0E07400D3
:1008E000C0E07440C0E0743DC0E07400C0E07440FB
:1008F000C0E0749DC0E07401C0E07480C0E0745C2E
:10090000C0E07400C0E07440C0E0120AD3E5812466
:10091000F4F581C3E53D94F7E53E64809481500C85
:10092000C2A5C2B7752B01E4F52C8009C2B2C2B0D2
:10093000E4F52BF52C753141753200753340753473
:1009400043753500753640853F2F854030853D82A3
:10095000853E831206998541828542831206718500
:10096000822585832685438285448312067185828C
:100970002985832AC043C044C041C042745CC0E0A2
:100980007400C0E07440C0E0C029C02AC025C02661
:1009900074A4C0E07401C0E07480C0E0120C5AE599
:1009A0008124F2F58190000512029F0208C920F708
:1009B0001430F6148883A88220F507E6A88375838F
:1009C0000022E280F7E49322E022AAF0FBE5828590
:1009D00011F0A4FCADF0E5838511F0A42DFDE43504
:1009E000F0FEE5828512F0A42DFDE5F03EFEE43335
:1009F000FFEA8511F0A42EFEE5F03FFFE5838512A6
:100A0000F0A42EFEE5F03FFFE5828513F0A42EFE54
:100A1000E5F03FFFEB8511F0A42FFFEA8512F0A46B
:100A20002FFFE5838513F0A42FFFE5828514F0A442
:100A30002F8EF08D838C8222FB7A20E4FCFDFEFF5A
:100A4000E5822582F582E58333F583E5F033F5F021
:100A5000EB33FB4017DAE98042E5822582F582E537
:100A60008333F583E5F033F5F0EB33FBEC33FCED4A
:100A700033FDEE33FEEF33FFEC9511ED9512EE955D
:100A800013EF95144013EC9511FCED9512FDEE95C6
:100A900013FEEF9514FF438201DABEEB22AA08ABE6
:100AA00009AC0A8A828B838CF01209AEFA0508E43D
:100AB000B5080205098A822285820885830985F0A6
:100AC0000A850B55850C56850D57850E58900A9D45
:100AD000020FD0C00F85810FE50F24F8F558E50F00
:100AE00024FBF8860808860908860AE50F24F8F82A
:100AF0008655088656088657900A9D120FD0D00F4B
:100B000022E4AC83AB82FAF9748E02138112138B48
:100B1000700AE582458345F0700122E430D112F479
:100B2000700BE5F0F47006E58330E7012290800059
:100B300022700AE5F07006E58320E70122907FFF2E
:100B400022121468BC0003021407EF60FA30D502C9
:100B5000B2D1E583B4FF0302141DE582B4FF0302A2
:100B6000141D258340072482400B0214072483149C
:100B7000500302141DF582EA8DF0A4A8F0EA8EF06D
:100B8000A428F8E435F0F9EB8DF0A428E935F0F964
:100B9000E433CA8FF0A429F9EA35F0FAEBF88EF0C5
:100BA000A429F9EA35F0FAE433FBEC8DF0A429F935
:100BB000EA35F0FAE43BFBE88FF0A42AFAEB35F0D3
:100BC000FBE433CCFD8EF0A42AFAEB35F0FBE43CD9
:100BD000FCED8FF0A42BFBEC35F0FC20E7031214A6
:100BE000350213E6E58330E709F4F583E582F4F591
:100BF00082A322FBC2D530E715D2D5E4C39582F596
:100C000082E49583F583E495F0F5F0E49BFBE5142D
:100C100030E717B2D5E4C39511F511E49512F5123A
:100C2000E49513F513E49514F514EB120A3830D556
:100C300013FBE4C39582F582E49583F583E495F094
:100C4000F5F0E49B22021AB685825385835485F021
:100C500055851056900C4502151FC00F85810FE574
:100C60000F24FBF556E50F24FBF88653088654083D
:100C70008655900C4512151FD00F2220F71030F624
:100C8000118883A88220F507F6A88375830022F2D5
:100C900080F7F022AC83AB827A007900748E021A5E
:100CA000D412146830D502B2D1BF0009BC000302CF
:100CB000142A02141DBC0003021407E583B4FF0BC1
:100CC000E582B4FF0302142A021407E582B4FF038D
:100CD00002141DC395835007247F400B0214072480
:100CE0008014500302141DC0E0E4CCCBCAF98D116E
:100CF0008E128F13EF54F0C4F5147583068514F02B
:100D0000EB84F582E9C4F9EAC4FAEBC4FBEC540FB6
:100D1000C47803D6FC18EBD6FB18EAD6FA8582F025
:100D2000EDA4A8F0FD8582F0EEA428FEE435F0F8ED
:100D30008582F0EFA428FFE435F0F8E99DF9EA9EFA
:100D4000FAEB9FFBEC98FCAD11AE12AF1330E7103D
:100D50001582E92DF9EA3EFAEB3FFBE43CFC80ED1D
:100D6000C082D58398C3E933F9EA33FAEB33FBEC5D
:100D700033FCC3E99DEA9EEB9FEC9400B3E413F9C6
:100D8000D002D0E0C44AFAD003D0E0C44BFBD00478
:100D9000D0E0F5F0540FC44CFCD082158230F40F33
:100DA000D3EC13FCEB13FBEA13FAE913F90582E920
:100DB00030E70A74012AFAE43BFBE43CFC0213FE30
:100DC000854582854683121AF8858254E554600A67
:100DD000054EE4B54E06054F8002D20385548222AB
:100DE0007A007B00300305788A760022C002C003B7
:100DF000120DC0AC82D003D002BC0002802DBC0812
:100E0000028014BC09028023BC0A02801EBC0D02B1
:100E10008019BC20218014EA4B60D11ABAFF011B53
:100E2000154E74FFB54E02154F80C1EA4B60BDEA06
:100E3000248AF8760022EC7009EA248AF87600D237
:100E40000322ECB55307EA248AF8760022C3EA9419
:100E50000FEB940050968A058B060ABA00010BED41
:100E6000248AF8A604020DECAA827B7FC3EA648080
:100E700094B0401174B98AF063F08095F04006EAAE
:100E800024D0FB8030C3EA648094C1401174C68AC8
:100E9000F063F08095F0400674C92AFB8017C3EA1E
:100EA000648094E1400F74E68AF063F08095F0402E
:100EB0000474A92AFBC3EB955050038B82227582E0
:100EC0007F22AA82754A00754B00754C00754D0053
:100ED0008A00E6FA60148A82C000120E68AB82D0E3
:100EE00000C3EB955040030880E886038B82C00066
:100EF000120E68AA82D000C3E5509A405085501166
:100F0000751200751300751400854A82854B838520
:100F10004CF0E54DC002C0001209CAAB82AC83ADF3
:100F2000F0FED000D0028B4A8C4B8D4C8E4DE4FBF2
:100F3000FCFDEA254AFAEB354BFBEC354CFCED3574
:100F40004DFD8A4A8B4B8C4C8D4D08809D854A8285
:100F5000854B83854CF0E54D22AA82754A00754B7E
:100F600000754C00754D008A00E6FB60228B82C044
:100F700003C000120E68AC82D000D003C3EC9550C1
:100F8000400DBB2D028008BB2B0280030880DA884D
:100F9000028603BB2D03D38001C39206BB2D0280C2
:100FA00003BB2B010A8A82120EC2300613C3E495DA
:100FB0004AFAE4954BFBE4954CFCE4954DFD800822
:100FC000AA4AAB4BAC4CAD4D8A828B838CF0ED22A0
:100FD000858245858346E4F54EF54FF552C203AA56
:100FE00055AB56AC578A828B838CF01209AEFD74D8
:100FF000012AF555E43BF5568C57EDFA70030213C0
:101000006FBA25028003021308D202C20075500095
:10101000755100C204C205AB55AC56AD578B828CDE
:10102000838DF01209AEFAA3AB82AC838B558C563C
:101030008D578B828C838DF01209AEF5538A06BED4
:10104000300040168A06EE24C6400FE55175F00ABE
:10105000A4FEEA24D02EF55180C38A06BE6100406A
:101060000A8A06EE248540035302DFBA250280ADCA
:10107000BA2A028045BA42028036BA43028040BA98
:101080004403021183BA4903021183BA4C0280253A
:10109000BA4E03021196BA4F03021188BA53028066
:1010A00020BA5503021181BA580302118F0211BEF2
:1010B000D20002101DD20102101DD20402101DD256
:1010C00005200417E55824FDF8885886030886048F
:1010D00008860518188B478C488D49E551700B30F0
:1010E00005047B0180027BFF8B51755000C3E550E6
:1010F00095515005120DC0AA82300307E5507003C8
:101100000211BEEA601ABA2002800DBA09028008F4
:10111000BA0D028003BA0A03300505E551B5501F28
:10112000E55060C92004120552AB47AC48AD498B6D
:10113000828C838DF0E4120C7B7550000211BEBAD4
:10114000081CE55060A7200411AB47AC48AD491B13
:10115000BBFF011C8B478C488D491550808F2004A4
:101160001BAB47AC48AD498B828C838DF0EA120CE7
:101170007B0BBB00010C8B478C488D49055002103E
:10118000EDC20275500A8036C202755008802FC227
:10119000027550108028E55824FDF8885886030809
:1011A000860408860518188B478C488D498B828CDD
:1011B000838DF0E54E120C7BA3E54F120C7BE550BE
:1011C0007003021308120DE0788AE6700302130818
:1011D000300403021308E55824FDF88858860308F4
:1011E000860408860518188B478C488D49055220BF
:1011F000020302128130013585475985485A8549D5
:101200005B75828A120F59AE82AF83ABF0FC8559B1
:1012100082855A83855BF0EE120C7BA3EF120C7B68
:10122000A3EB120C7BA3EC120C7B021308300026FC
:1012300085475985485A85495B75828A120F59AE90
:1012400082AF83ABF0FC855982855A83855BF0EED3
:10125000120C7B02130885475985485A85495B75EE
:10126000828A120F59AE82AF83ABF0FC855982851A
:101270005A83855BF0EE120C7BA3EF120C7B0213FA
:101280000830013485475985485A85495B75828AFB
:10129000120EC2AE82AF83ABF0FC855982855A83B1
:1012A000855BF0EE120C7BA3EF120C7BA3EB120C10
:1012B0007BA3EC120C7B8050300025854759854874
:1012C0005A85495B75828A120EC2AE82AF83ABF03B
:1012D000FC855982855A83855BF0EE120C7B802851
:1012E00085475985485A85495B75828A120EC2AE78
:1012F00082AF83ABF0FC855982855A83855BF0EE23
:10130000120C7BA3EF120C7B200303020FDFAB5503
:10131000AC56AD578B828C838DF01209AEFEA3AB19
:1013200082AC838B558C568D57EEFA7003020FDF1B
:10133000BA25E18B828C838DF01209AEFABA6E0267
:101340008003BA4ECFE55824FDF8885886020886F7
:101350000608860718188A478E488F498A828E8326
:101360008FF0E54E120C7BA3E54F120C7B80A5AAF3
:10137000527B008A828B8322FCABF0AA83A9827401
:101380009EC2D1F5821214350213E6121AFAC37402
:101390009E958240397900121B0C30D126E9F42445
:1013A00001F582EAF43400F583EBF43400F5F0EC57
:1013B000F43400700AE582458345F0700122E43080
:1013C000E70F22EC20E71489828A838BF02230D148
:1013D0000AE4F582F583F5F074802274FFF582F556
:1013E00083F5F0747F22B98003EA13B34010EA2436
:1013F00001FAE43BFBE43CFC50047C800582BC0029
:101400000EBB000BBA0008E4F5F0F583F58222A2CA
:10141000D1E582138CF092F78B838A8222E4F583E4
:10142000F58275F080F4A2D11322E4F583F582757C
:10143000F0C0747F227804EC7011E58224F8500A21
:10144000F582E4C9CACBFCD8EF22EC7820058220D3
:10145000E713D5820122C3E933F9EA33FAEB33FB10
:10146000EC33FCD8EA158222AA82AB83A2F733922E
:10147000D16002D2F7F582ACF0E58124F9F8E6FDFF
:1014800008E6FE0886F008E6A2F73392D56002D29D
:10149000F7F583AFF022AA8274A7C0E07414C0E00D
:1014A000C045C0468A8222054CE4B54C02054D2257
:1014B000AA8274302AFA24C6500A74072AFA30071E
:1014C000034302208A82021496E582FAC4540FF57F
:1014D00082C0021214B0D002740F5AF5820214B006
:1014E000AA47AB48AC49AD4AAE4B755220EE2EFE32
:1014F000ED235401FF4206EA2AFAEB33FBEC33FCFE
:10150000ED33FDC3EE954E4008EEC3954EFE43020B
:1015100001D552D98A478B488C498D4A8E4B2285FA
:101520008245858346E4F54CF54DAA53AB54AC5542
:101530008A828B838CF01209AEFD74012AF553E484
:101540003BF5548C55EDFA7003021AAFBA250280B0
:1015500003021AA7C20BC20CC20DC20EC20FC210E8
:10156000C211C212C208C209C20A754E00754F00EC
:101570007550FFAB53AC54AD558B828C838DF012FC
:1015800009AEFAA3AB82AC838B538C548D55BA252C
:10159000078A8212149680928A06BE3000402E8AF4
:1015A00006EE24C6402774FFB55013E54F75F00AC8
:1015B000A4FEEA24D02EF54F70BFD20C80BBE550BC
:1015C00075F00AA4FEEA24D02EF55080ACBA2E0A9B
:1015D00074FFB550A4755000809F8A06BE6100401C
:1015E0000E8A06EE248540075302DFD2078002C22E
:1015F00007BA20028075BA230302167ABA2A0302B8
:10160000167FBA2B02805FBA2D028055BA42028043
:101610005FBA43030216C4BA44030217FFBA450374
:10162000021819BA4603021815BA470302181DBA60
:1016300049030217FFBA4C02803BBA4E030218213D
:10164000BA4F03021806BA5003021798BA5303029E
:1016500016E8BA550302180BBA58030218100218FC
:101660004BD20B021579D20D021579D20E021579E3
:10167000D210021579D211021579D212021579749D
:10168000FFB5502030100BE55614F88856864F02EF
:101690001579E55624FEF888568606088607188EC2
:1016A0004F02157930100BE55614F8885686500213
:1016B0001579E55624FEF888568606088607188EA2
:1016C0005002157930100AE55614F88856860280C3
:1016D0000FE55624FEF888568603088604188B0208
:1016E0008A82121496021850E55624FDF888568610
:1016F0000308860408860518188B478C488D498B8B
:10170000828C838DF0121B4FAB82AC838B5174FFA4
:10171000B55003855150200B1DC3E551954F501610
:10172000E54FC39551F54FAB4F154FEB60087582F0
:101730002012149680F18547828548838549F012EE
:1017400009AEFBFA6029AB501550C3E464808BF0FE
:1017500063F08095F050188A82121496AB47AC481B
:10176000AD490BBB00010C8B478C488D4980C720CD
:101770000B03021850C3E551954F4003021850E582
:101780004FC39551F54FAB4F154FEB7003021850F7
:1017900075822012149680EEE55624FDF888568650
:1017A0000308860408860518188B478C488D49E580
:1017B00049FB30E7047A438013EB546060047A50AD
:1017C000800AEB30E6047A4980027A588A82C002A5
:1017D00012149675823A1214967582301214967508
:1017E0008278121496D002BA4902800BBA50028055
:1017F000068548821214C98547821214C98051D2C5
:101800000F754E0A804A754E088045754E0A804015
:10181000754E10803BD2088037D2098033D20A80BF
:101820002FE55624FDF888568603088604088605A9
:1018300018188B478C488D498B828C838DF0E54C32
:10184000120C7BA3E54D120C7B80058A8212149644
:10185000200806200903300A5AE55624FCF8885669
:1018600086030886040886050886061818188B471C
:101870008C488D498E4A7547D875480175498085D1
:10188000475785485885495974012557FEE435580E
:10189000FFAB598E478F488B498557828558838582
:1018A00059F01209AEFBFA700302152A8A8212144B
:1018B0009680CCE54E700302152A7B8930102BE50B
:1018C0005614F88856E6FC3395E0FDFEFF8C478DF4
:1018D000488E498F4A200F5EAC477D007E007F0016
:1018E0008C478D488E498F4A804C30111FE5562415
:1018F000FCF88856860408860508860608860718B8
:1019000018188C478D488E498F4A802AE55624FE48
:10191000F88856860408860518ED3395E0FEFF8C9E
:10192000478D488E498F4A200F0CAC47AD487E004A
:101930007F008E498F4A301243E547454845494567
:101940004A60397408B54E0C758230C00312149683
:10195000D00380287410B54E23758230C003121452
:1019600096D00330070C758278C003121496D0030A
:10197000800A758258C003121496D003300F25AC2C
:1019800047AD48AE49E54AFF30E717C3E49CFCE4A5
:101990009DFDE49EFEE49FFF8C478D488E498F4A53
:1019A0008002C20F755100D2138B00754B00C0002E
:1019B0001214E0D00020130DE54BC4FCE6FD4CF6FC
:1019C0001888038002A64B0551B213E547454845E8
:1019D00049454A70D68803E54F7003754F01200CC6
:1019E0001A200B17E55104FCC3954F500E75822049
:1019F000C003121496D003154F80E9300F0E758284
:101A00002DC003121496D003154F8024E551602099
:101A1000300D0E75822BC003121496D003154F8023
:101A20000F300E0C758220C003121496D003154F90
:101A3000200B1EAC4F154FC3E5519C5027300C04B2
:101A40007C3080027C208C82C003121496D00380EC
:101A5000E2C3E551954F5009E54FC39551F54F80CD
:101A600003754F008B00AB511551EB6022B2132070
:101A7000130A08E6C4540FFB8B4B80078603740FD0
:101A80005BF54B854B82C0001214B0D00080D7208C
:101A90000B0302152AAB4F154FEB700302152A7585
:101AA000822012149680EE8A8212149602152A85DC
:101AB0004C82854D8322AA82BA0A0810990280FBC3
:101AC00075990D10990280FB8A9922FCABF0AA83CC
:101AD000A982749EF582C2D1EC30E716D2D1E9F426
:101AE0002401F9EAF43400FAEBF43400FBECF434AA
:101AF00000FC1214350213E6E473AA82AB83A2F74A
:101B00003392D16002D2F7F582ACF0226040F82522
:101B100082500274FFF582E824F8501ECCCBCAF93B
:101B2000E4CC24F85014CBCAF9E4CB24F8500BCA07
:101B3000F9E4CA24F8500379002224086010F8C39D
:101B4000EC13FCEB13FBEA13FAE913F9D8F122AA20
:101B500082AB83ACF07D007E008A828B838CF01296
:101B600009AEFFA3AA82AB83EF60070DBD00EA0EAA
:101B700080E78D828E8322000000000000000000BC
:00000001FF
