:10000000020003758164120186E582600302006FBD
:10001000780079007A007B007C007D00EC4D601C4C
:1000200088828983E493A3A882A9838A828B83F040
:10003000A3AA82AB831CBCFFE31D80E07582007520
:1000400083007C007D00EC4D600AE4F0A31CBCFF43
:10005000F51D80F27582007583007C007D00EC4DFB
:10006000600AE4F0A31CBCFFF51D80F212018512AA
:10007000048080FE436F6D6D616E643A20257300CD
:10008000526573706F6E73653A2025730D0A0041D7
:10009000542B44564944303030300D0A000D0A4587
:1000A000464D384C423132204A44592D3430205389
:1000B0006C61766520546573742E0D0A0041542BD3
:1000C0005645520D0A0041542B424155440D0A0039
:1000D00041542B524649440D0A0041542B44564981
:1000E000440D0A0041542B5246430D0A0041542B43
:1000F000504F57450D0A0041542B434C53530D0AA2
:100100000041542B44564944414242410D0A0031BA
:10011000007265633100003200726563320A003399
:1001200000726563330A003400726563340A003577
:1001300000726563350A005300726563530A004616
:1001400000726563460A004200726563420A004C11
:10015000007265634C0A005200726563520A0050D7
:1001600000726563500A004400726563440A0058D7
:1001700000726563580A006B0A003C4E4F20464CE3
:100180004F41543E002275A7007597DE7597AD75F7
:10019000FF8075EF0675A71075C12075A70075A9BA
:1001A0000075A900E5A930E7FB75A90375A903E56A
:1001B000A930E7FB43A41143A60175E10175E200F4
:1001C00075E341759810758DE6858D8B53890F43C6
:1001D0008920D28ED299D2A075820022AA82438E23
:1001E000407592B87593FF859294859395759104A7
:1001F0007B00C3EB9A500BE59130E7FB53917F0BEB
:1002000080F075910022AA82AB837C007D00C3EC54
:100210009AED9B502B7E00BE0400501D7582FAC0E3
:1002200002C003C004C005C0061201DCD006D00520
:10023000D004D003D0020E80DE0CBC00D10D80CEE5
:1002400022AA82AB83ACF0FD75A72075930C75C80C
:10025000107594008A128B138C148D1590A2007562
:10026000F04A74041208A8AA82AB83ACF0FD7512A0
:1002700018E4F513F514F5158A828B838CF0ED12D2
:1002800008A8AA82AB83ACF0FDE4C39AFAE49BFB16
:1002900074019CE49D8A958B96D2C943944075A7BE
:1002A0000022AA8275A72010C90280FB8A9275A736
:1002B0000022AA82AB83ACF08A828B838CF0120876
:1002C0008CFD60188D82C002C003C0041202A2D04F
:1002D00004D003D0020ABA00DF0B80DC2275A7200D
:1002E00010C80280FB53C83F85928275A700227513
:1002F000A7207A007B0020C82675A700758214C04D
:1003000002C0031201DCD003D00275A7200ABA0094
:10031000010BBAA8E1BB61DE75A70075820A22C293
:10032000C853C83F85928275A70022AA82AB83ACCE
:10033000F07D008A068B078C00C002C003C004C099
:1003400005C006C007C0001202EFA982D000D00786
:10035000D006D005D004D003D002B90A0A8A828B15
:10036000838CF0E40209A0C3ED950950180D8E822C
:100370008F8388F0E91209A0A3AE82AF838E028F2B
:1003800003880480B48A828B838CF0E40209A07510
:10039000A720A2C875A70022AA82AB837C007D009B
:1003A000C3EC9AED9B50477E00BE04005039C0025A
:1003B000C003C004C005C00612038FE433D006D0CA
:1003C00005D004D003D0026001227582FAC002C0B9
:1003D00003C004C005C0061201DCD006D005D0045D
:1003E000D003D0020E80C20CBC00B50D80B222AA90
:1003F00082AB83ACF0C002C003C004C002C003C023
:10040000047474C0E07400C0E07480C0E012097F1E
:10041000E58124FAF581C2A0900005120206D004FD
:10042000D003D0028A828B838CF01202B27509133A
:1004300090003775F04012032B90000A120206D28A
:10044000A07437C0E07400C0E07440C0E07480C0A5
:10045000E07400C0E07480C0E012097FE58124FAF6
:10046000F58122C2A090000A12020690008F75F05A
:10047000801202B290000A12020653C83FD2A02294
:100480009001F4120206749DC0E07400C0E0748014
:10049000C0E012097F158115811581902580E4F552
:1004A000F01202411204639000BD75F0801203EF58
:1004B0009000C675F0801203EF9000D075F08012A6
:1004C00003EF9000DA75F0801203EF9000E475F00E
:1004D000801203EF9000ED75F0801203EF9000F7AB
:1004E00075F0801203EF90010175F0801203EF1296
:1004F000038F50FB75091490003775F04012032BE1
:1005000075120F75130175148090003775F0401245
:10051000090DE5828583F045F070247411C0E07404
:1005200001C0E07480C0E0744BC0E07400C0E074AF
:1005300040C0E0120A08E58124FAF58102087A75C4
:10054000121775130175148090003775F040120969
:100550000DE5828583F045F070247419C0E07401C4
:10056000C0E07480C0E0744BC0E07400C0E0744030
:10057000C0E0120A08E58124FAF58102087A7512B2
:100580001F75130175148090003775F04012090D26
:10059000E5828583F045F070247421C0E07401C0C9
:1005A000E07480C0E0744BC0E07400C0E07440C0F0
:1005B000E0120A08E58124FAF58102087A7512270B
:1005C00075130175148090003775F04012090DE520
:1005D000828583F045F070247429C0E07401C0E086
:1005E0007480C0E0744BC0E07400C0E07440C0E0B0
:1005F000120A08E58124FAF58102087A75122F752E
:10060000130175148090003775F04012090DE582D2
:100610008583F045F070247431C0E07401C0E0744B
:1006200080C0E0744BC0E07400C0E07440C0E012D1
:100630000A08E58124FAF58102087A7512377513E4
:100640000175148090003775F04012090DE5828520
:1006500083F045F0702CC2B7C2B2C2B0C2A57439E3
:10066000C0E07401C0E07480C0E0744BC0E074006E
:10067000C0E07440C0E0120A08E58124FAF5810266
:10068000087A75123F75130175148090003775F064
:100690004012090DE5828583F045F0702CD2B7C277
:1006A000B2D2B0C2A57441C0E07401C0E07480C091
:1006B000E0744BC0E07400C0E07440C0E0120A086F
:1006C000E58124FAF58102087A75124775130175E0
:1006D000148090003775F04012090DE5828583F093
:1006E00045F0702CC2B7D2B2C2B0D2A57449C0E0F6
:1006F0007401C0E07480C0E0744BC0E07400C0E0DE
:100700007440C0E0120A08E58124FAF58102087AF3
:1007100075124F75130175148090003775F04012F3
:10072000090DE5828583F045F0702CC2B7C2B2D2C4
:10073000B0C2A57451C0E07401C0E07480C0E07420
:100740004BC0E07400C0E07440C0E0120A08E581CC
:1007500024FAF58102087A75125775130175148011
:1007600090003775F04012090DE5828583F045F061
:10077000702CD2B7C2B2C2B0C2A57459C0E0740125
:10078000C0E07480C0E0744BC0E07400C0E074400E
:10079000C0E0120A08E58124FAF58102087A751290
:1007A0005F75130175148090003775F04012090DC4
:1007B000E5828583F045F070247461C0E07401C067
:1007C000E07480C0E0744BC0E07400C0E07440C0CE
:1007D000E0120A08E58124FAF58102087A751267A9
:1007E00075130175148090003775F04012090DE5FE
:1007F000828583F045F070237469C0E07401C0E025
:100800007480C0E0744BC0E07400C0E07440C0E08D
:10081000120A08E58124FAF581805F75126F75135D
:100820000175148090003775F04012090DE582853E
:1008300083F045F070237471C0E07401C0E07480EF
:10084000C0E0744BC0E07400C0E07440C0E0120A25
:1008500008E58124FAF58180217477C0E07401C035
:10086000E07480C0E0744BC0E07400C0E07440C02D
:10087000E0120A08E58124FAF58190004B75F040FA
:100880001202B29000051202060204EF20F71430A3
:10089000F6148883A88220F507E6A88375830022D2
:1008A000E280F7E49322E022FB7A20E4FCFDFEFFE5
:1008B000E5822582F582E58333F583E5F033F5F0B3
:1008C000EB33FB4017DAE98042E5822582F582E5C9
:1008D0008333F583E5F033F5F0EB33FBEC33FCEDDC
:1008E00033FDEE33FEEF33FFEC9512ED9513EE95ED
:1008F00014EF95154013EC9512FCED9513FDEE9554
:1009000014FEEF9515FF438201DABEEB22AA82ABFB
:1009100083ACF0AD12AE13AF148A828B838CF012CD
:10092000088CF87900C002C003C0048D828E838FCA
:10093000F012088CFA7B00E8C39AF8E99BF9881555
:100940008916D004D003D002E84970178D828E83B7
:100950008FF012088C600C0ABA00010B0DBD00B9B3
:100960000E80B68515828516832202106E85823030
:1009700085833185F03285113390096A020AD7C028
:1009800008858108E50824FBF533E50824FBF88693
:100990003008863108863290096A120AD7D00822B8
:1009A00020F71030F6118883A88220F507F6A88377
:1009B00075830022F280F7F022AA82AB0AAC0BAD5D
:1009C0000C8B828C838DF0EA1209A0050AE4B50A2B
:1009D00002050B2285820A85830B85F00C850D307C
:1009E000850E31850F328510339009B9120AD7AAC6
:1009F00082AB83AC0AAD0BAE0C8C828D838EF0E49F
:100A00001209A08A828B8322C008858108E5082408
:100A1000F8F533E50824FBF8860A08860B08860CEF
:100A2000E50824F8F886300886310886329009B93E
:100A3000120AD7AA82AB83AC0AAD0BAE0C8C828DA6
:100A4000838EF0E41209A08A828B83D00822AA82C6
:100A5000745FC0E0740AC0E0C022C0238A8222050D
:100A600029E4B52902052A22AA8274302AFA24C66A
:100A7000500A74072AFA3000034302208A82020ACD
:100A80004EE582FAC4540FF582C002120A68D00201
:100A9000740F5AF582020A68AA24AB25AC26AD274A
:100AA000AE28752F20EE2EFEED235401FF4206EAFC
:100AB0002AFAEB33FBEC33FCED33FDC3EE952B4010
:100AC00008EEC3952BFE430201D52FD98A248B252E
:100AD0008C268D278E2822858222858323E4F52982
:100AE000F52AAA30AB31AC328A828B838CF01208A3
:100AF0008CFD74012AF530E43BF5318C32EDFA704F
:100B000003021067BA2502800302105FC204C20507
:100B1000C206C207C208C209C20AC20BC201C2028F
:100B2000C203752B00752C00752DFFAB30AC31ADB9
:100B3000328B828C838DF012088CFAA3AB82AC834B
:100B40008B308C318D32BA25078A82120A4E809200
:100B50008A06BE3000402E8A06EE24C6402774FF67
:100B6000B52D13E52C75F00AA4FEEA24D02EF52C41
:100B700070BFD20580BBE52D75F00AA4FEEA24D033
:100B80002EF52D80ACBA2E0A74FFB52DA4752D005C
:100B9000809F8A06BE6100400E8A06EE24854007CB
:100BA0005302DFD2008002C200BA20028075BA234D
:100BB00003020C32BA2A03020C37BA2B02805FBA46
:100BC0002D028055BA4202805FBA4303020C7CBA00
:100BD0004403020DB7BA4503020DD1BA4603020D14
:100BE000CDBA4703020DD5BA4903020DB7BA4C027C
:100BF000803BBA4E03020DD9BA4F03020DBEBA5064
:100C000003020D50BA5303020CA0BA5503020DC3E0
:100C1000BA5803020DC8020E03D204020B31D206E9
:100C2000020B31D207020B31D209020B31D20A0278
:100C30000B31D20B020B3174FFB52D2030090BE5BF
:100C40003314F88833862C020B31E53324FEF88800
:100C5000338606088607188E2C020B3130090BE507
:100C60003314F88833862D020B31E53324FEF888DF
:100C7000338606088607188E2D020B3130090AE5E7
:100C80003314F888338602800FE53324FEF8883366
:100C90008603088604188B028A82120A4E020E0806
:100CA000E53324FDF8883386030886040886051892
:100CB000188B248C258D268B828C838DF0121083CB
:100CC000AB82AC838B2E74FFB52D03852E2D2004B3
:100CD0001DC3E52E952C5016E52CC3952EF52CAB97
:100CE0002C152CEB6008758220120A4E80F18524A9
:100CF000828525838526F012088CFBFA6029AB2DAE
:100D0000152DC3E464808BF063F08095F050188A51
:100D100082120A4EAB24AC25AD260BBB00010C8B16
:100D2000248C258D2680C7200403020E08C3E52EDF
:100D3000952C4003020E08E52CC3952EF52CAB2C08
:100D4000152CEB7003020E08758220120A4E80EEFD
:100D5000E53324FDF88833860308860408860518E1
:100D6000188B248C258D26E526FB30E7047A4380FA
:100D700013EB546060047A50800AEB30E6047A4941
:100D800080027A588A82C002120A4E75823A120A8A
:100D90004E758230120A4E758278120A4ED002BA0F
:100DA0004902800BBA50028006852582120A81858D
:100DB0002482120A818051D208752B0A804A752B31
:100DC000088045752B0A8040752B10803BD201802E
:100DD00037D2028033D203802FE53324FDF88833E5
:100DE000860308860408860518188B248C258D2612
:100DF0008B828C838DF0E5291209A0A3E52A1209C4
:100E0000A080058A82120A4E2001062002033003C8
:100E10005AE53324FCF888338603088604088605DF
:100E20000886061818188B248C258D268E27752485
:100E30007A752501752680852434852535852636E5
:100E400074012534FEE43535FFAB368E248F258BB7
:100E5000268534828535838536F012088CFBFA703E
:100E600003020AE28A82120A4E80CCE52B7003024A
:100E70000AE27B6430092BE53314F88833E6FC334F
:100E800095E0FDFEFF8C248D258E268F2720085EA1
:100E9000AC247D007E007F008C248D258E268F273C
:100EA000804C300A1FE53324FCF88833860408861A
:100EB000050886060886071818188C248D258E26A6
:100EC0008F27802AE53324FEF888338604088605B8
:100ED00018ED3395E0FEFF8C248D258E268F27207C
:100EE000080CAC24AD257E007F008E268F27300BAA
:100EF00043E52445254526452760397408B52B0C64
:100F0000758230C003120A4ED00380287410B52BAE
:100F100023758230C003120A4ED00330000C758254
:100F200078C003120A4ED003800A758258C003129B
:100F30000A4ED003300825AC24AD25AE26E527FFA8
:100F400030E717C3E49CFCE49DFDE49EFEE49FFFB4
:100F50008C248D258E268F278002C208752E00D204
:100F60000C8B00752800C000120A98D000200C0DD0
:100F7000E528C4FCE6FD4CF61888038002A6280587
:100F80002EB20CE52445254526452770D68803E575
:100F90002C7003752C0120051A200417E52E04FC83
:100FA000C3952C500E758220C003120A4ED0031533
:100FB0002C80E930080E75822DC003120A4ED00332
:100FC000152C8024E52E602030060E75822BC00380
:100FD000120A4ED003152C800F30070C758220C0EA
:100FE00003120A4ED003152C20041EAC2C152CC362
:100FF000E52E9C50273005047C3080027C208C82BA
:10100000C003120A4ED00380E2C3E52E952C50098E
:10101000E52CC3952EF52C8003752C008B00AB2E90
:10102000152EEB6022B20C200C0A08E6C4540FFB0C
:101030008B2880078603740F5BF528852882C00003
:10104000120A68D00080D7200403020AE2AB2C15F4
:101050002CEB7003020AE2758220120A4E80EE8A9F
:1010600082120A4E020AE2852982852A8322AA82F6
:10107000BA0A0810990280FB75990D10990280FB3D
:101080008A9922AA82AB83ACF07D007E008A828B93
:10109000838CF012088CFFA3AA82AB83EF60070D4C
:1010A000BD00EA0E80E78D828E83220000000000E2
:00000001FF
