:100000000200960000000000000000000000000058
:100020000000000000000000000000020715E4F5D9
:1000300023F5247525FF7526FFE4F527F528752996
:10004000FF752AFFE4F52BF52CE4F52DF52E752F21
:10005000FA7530FAE4F531F53222000000000000B4
:1000800000000000000000000000000206CE00009A
:100090000000000202F97581B7120251E582600387
:1000A000020102780079007A007B007C007D00EC80
:1000B0004D601C88828983E493A3A882A9838A82E5
:1000C0008B83F0A3AA82AB831CBCFFE31D80E07589
:1000D00082007583007C217D00EC4D600AE4F0A372
:1000E0001CBCFFF51D80F27582007583007C007DCD
:1000F00000EC4D600AE4F0A31CBCFFF51D80F21279
:10010000002E120DE880FE0E04000011150A0000FA
:100110000E19191F170E000E04000E11110E000407
:10012000040A110A040400040E15140E05150E0E1F
:100130000400150A0A0E00436F6D6D616E643A206B
:10014000257300526573706F6E73653A2025730DC9
:100150000A0041542B44564944303030300D0A00D7
:1001600030313233343536373839414243444546ED
:1001700000204E4F205349474E414C202020202044
:10018000202020202020202020202020202020206F
:100190000D002530356C640A0D000D0A45464D38BA
:1001A0004C423132204A44592D343020536C617610
:1001B0006520546573742E0D0A0041542B56455228
:1001C0000D0A0041542B424155440D0A0041542B65
:1001D000524649440D0A0041542B445649440D0AE5
:1001E0000041542B5246433132300D0A0041542B0A
:1001F000504F57450D0A0041542B434C53530D0AA1
:100200000041542B44564944464646460D0A004197
:100210000068656C6C6F00530074686973207368C4
:100220006F756C6420626520746865206D6F746FF3
:10023000722066756E6374696F6E004B2575572565
:10024000754725640A003C4E4F20464C4F41543EB2
:100250000075A7007597DE7597AD75FF8075EF0681
:1002600075A71075C12075A70075A90075A900E5CF
:10027000A930E7FB75A90375A903E5A930E7FB439E
:10028000A41143A60175E10175E20075E341439CA9
:100290008575E341439C85759810758DE6858D8B3A
:1002A00053890F438920D28ED29975A71075980073
:1002B00043A60175A2A875A3FD75A4FF75A5FF430C
:1002C000F304D29AD2AF75C800438E1075CAA875D0
:1002D000CBFD75CEFF75CFFFD2ADD2CA75A7007525
:1002E000A71075C00075D4FF75D5FF43F308D2C2BF
:1002F000D2AF75A70075820022C0E0C002C003C063
:10030000D075D00075A710C2C775D2C475D3FF745D
:1003100001252DF52DE4352EF52E74D0B52D0A745A
:1003200007B52E05E4F52DF52EAA2F7B00C3EA951F
:100330002DEB952E4004D2938002C293AA307B000D
:10034000C3EA952DEB952E4004D2948002C294D03E
:10035000D0D003D002D0E032AA82438E407592B84A
:100360007593FF8592948593957591047B00C3EBFB
:100370009A500BE59130E7FB53917F0B80F075911C
:100380000022AA82AB837C007D00C3EC9AED9B50D7
:100390002B7E00BE0400501D7582FAC002C003C04F
:1003A00004C005C006120358D006D005D004D003FF
:1003B000D0020E80DE0CBC00D10D80CE22AA82AB12
:1003C00083ACF0FD75A72075930C75C8107594006B
:1003D0008A188B198C1A8D1B90A20075F04A740430
:1003E0001212CCAA82AB83ACF0FD751818E4F51993
:1003F000F51AF51B8A828B838CF0ED1212CCAA823F
:10040000AB83ACF0FDE4C39AFAE49BFB74019CE47B
:100410009D8A958B96D2C943944075A70022AA82E3
:1004200075A72010C90280FB8A9275A70022AA82B4
:10043000AB83ACF08A828B838CF0121242FD601881
:100440008D82C002C003C00412041ED004D003D0A9
:10045000020ABA00DF0B80DC2275A72010C80280D8
:10046000FB53C83F85928275A7002275A7207A00AA
:100470007B0020C82675A700758214C002C0031235
:100480000358D003D00275A7200ABA00010BBAA8FE
:10049000E1BB61DE75A70075820A22C2C853C83F5E
:1004A00085928275A70022AA82AB83ACF07D008A78
:1004B000068B078C00C002C003C004C005C006C084
:1004C00007C00012046BA982D000D007D006D00567
:1004D000D004D003D002B90A0A8A828B838CF0E45C
:1004E0000216B3C3ED953450180D8E828F8388F0B9
:1004F000E91216B3A3AE82AF838E028F0388048005
:10050000B48A828B838CF0E40216B375A720A2C84C
:1005100075A70022AA82AB837C007D00C3EC9AED14
:100520009B50477E00BE04005039C002C003C00487
:10053000C005C00612050BE433D006D005D004D0A8
:1005400003D0026001227582FAC002C003C004C059
:1005500005C006120358D006D005D004D003D0023F
:100560000E80C20CBC00B50D80B222AA82AB83AC57
:10057000F0C002C003C004C002C003C0047437C08E
:10058000E07401C0E07480C0E0121616E58124FA20
:10059000F581C2A0900005120382D004D003D002DE
:1005A0008A828B838CF012042E75341390007A7536
:1005B000F0401204A790000A120382D2A0747AC0FD
:1005C000E07400C0E07440C0E07443C0E07401C057
:1005D000E07480C0E0121616E58124FAF58122C28B
:1005E000A090000A12038290015275F08012042E2E
:1005F00090000A12038253C83FD2A0225389F043CD
:100600008901C28C2275A700C2EF75B28075BC202B
:1006100075B91E75E80075DF3F75B300D2EF22AAE9
:10062000828518F005F07401800225E0D5F0FBFB0F
:1006300075A720BA0002800ABA0102800FBA021E12
:100640008014EBF4FA52F1EB42D48012EBF4FA523C
:10065000F2EB42D58008EBF4FA52F3EB42CC75A7EB
:1006600000228582BBC2EDD2EC30EDFD85BD8285D6
:10067000BE8322120662121395AA82AB83ACF0FDF0
:10068000C002C003C004C005906C8B75F053744069
:100690001214AFAA82AB83ACF0FDE58124FCF58196
:1006A000E4C0E074FCC0E0747FC0E07446C0E08A3F
:1006B000828B838CF0ED121776AA82AB83ACF0FDAF
:1006C000E58124FCF5818A828B838CF0ED22C0E0E9
:1006D000C0D075D00075A710C29F85232374012553
:1006E00024F5247401B52B06E4B52C028002800B9E
:1006F000C3E5239525E524952692B0E52B452C707E
:100700000BC3E5239525E524952692A5E52BE52C3D
:10071000D0D0D0E032C0E0C0D075D00075A700C204
:10072000CF85272774012528F5287401B52B06E409
:10073000B52C028002800BC3E5279529E528952A70
:1007400092B2E52B452C700BC3E5279529E528953A
:100750002A92B7E52BE52CD0D0D0E032AA82AB8329
:10076000C28C5389F0438901C28C758A00758C0054
:10077000C28DD28CC28C758A00758C00C28DD28CD1
:100780007C007D00308619108D0280F80CBC0001C1
:100790000DBC0AF0BD00EDC28C900000E4F5F02223
:1007A000C28C758A00758C00C28DD28C7C007D0055
:1007B000208619108D0280F80CBC00010DBC0AF0D7
:1007C000BD00EDC28C900000E4F5F022C28C758A69
:1007D00000758C00C28D7C007D00D28C7E008E075F
:1007E0007800C3EF9AE864808BF063F08095F05056
:1007F000298C078D0030860C108D0280F80FBF0009
:10080000F40880F120860C108D0280F80FBF00F4F0
:100810000880F18F0488050E80C4C28C8D038C0281
:100820007D007C00AF8C7E00EF3395E0F8F9EE2C74
:10083000FCEF3DFDE83AFAE93BFBAE8AE4FF339575
:10084000E0F8F9EE2CFCEF3DFDE83AFAE93B8C824A
:100850008D838AF022AA82AB83ACF08A828B838C50
:10086000F0121242FD60188D82C002C003C0041253
:100870001761D004D003D0020ABA00DF0B80DC225B
:1008800085823985833A85F03BF53C900020E4F081
:10089000E53C30E71B75822D121761C3E49539F5ED
:1008A00039E4953AF53AE4953BF53BE4953CF53C63
:1008B000753D1FE4F53EA837A938C3E49539E495A2
:1008C0003AE4953BE46480853CF063F08095F0E485
:1008D00033FEC3E498E4648089F063F08095F0E42B
:1008E00033FF4E700302097AAE3DAF3E153D74FFF3
:1008F000B53D02153EEE2400F53FEF3400F540858E
:100900003541E536F5423395E0F543F54485411828
:1009100085421985431A85441B853982853A83852A
:100920003BF0E53CC000C001121637AE82AF83EE4B
:100930002460F582EF3401F583E493853F8285409E
:1009400083F085411885421985431A85441B8539F2
:1009500082853A83853BF0E53C1215AF8582398567
:10096000833A85F03BF53CD001D000E849700302A2
:1009700008BA18B8FF01190208BAE53D042400FAC4
:10098000E43400FB7C008A828B838CF0020855AA39
:1009900082AB83ACF0FD7E007F0078007900C3E479
:1009A0009AE49BE49CE464808DF063F08095F050C1
:1009B0004E8A188B198C1A8D1B90000CE4F5F012DE
:1009C000125E121686AA82AB83ACF0FDC002C00391
:1009D000C004C0059093A475F0567450121776AAFF
:1009E00082AB83ACF0FDE58124FCF5818A828B83A8
:1009F0008CF0ED1213D1AE82AF83A8F0F98019907C
:100A0000017175F080C006C007C000C00112085512
:100A1000D001D000D007D0068E828F8388F0E922E3
:100A2000D2A6758228120358C2A622AA828AE0A200
:100A3000E79287A2E69290A2E59291A2E49292C0F8
:100A400002120A20758228120358D0028AE0A2E31B
:100A50009287A2E29290A2E19291A2E09292020A7F
:100A600020AA82D2A28A82120A2B9000020203825A
:100A7000AA82C2A28A82120A2B900005020382C2B5
:100A8000A6900014120382758233120A70758233A5
:100A9000120A70758232120A70758228120A7075F5
:100AA000820C120A70758201120A709000140203FF
:100AB00082758240120A707A007B00C3EA9408EBC8
:100AC000648094805020EA2407F582EB3401F5839A
:100AD000E493F582C002C003120A61D003D0020A77
:100AE000BA00D80B80D5758248120A707A007B0054
:100AF000C3EA9408EB648094805020EA240FF582C6
:100B0000EB3401F583E493F582C002C003120A615D
:100B1000D003D0020ABA00D80B80D5758250120AD1
:100B2000707A007B00C3EA9408EB648094805020C4
:100B3000EA2417F582EB3401F583E493F582C002D1
:100B4000C003120A61D003D0020ABA00D80B80D5C4
:100B5000758258120A707A007B00C3EA9408EB642D
:100B60008094805020EA241FF582EB3401F583E461
:100B700093F582C002C003120A61D003D0020ABA00
:100B800000D80B80D5758260120A707A007B00C392
:100B9000EA9408EB648094805020EA2427F582EBE5
:100BA0003401F583E493F582C002C003120A61D0D8
:100BB00003D0020ABA00D80B80D5758268120A7079
:100BC0007A007B00C3EA9408EB648094805020EAAA
:100BD000242FF582EB3401F583E493F582C002C043
:100BE00003120A61D003D0020ABA00D80B80D5756F
:100BF0008287120A70758203120A61758289120A4D
:100C000070758203120A617582C9120A70758202B8
:100C1000120A619001F4120382752F9690006412FB
:100C20000382D2957AFAEA244B50128A309000144B
:100C3000C002120382D002EA24FBFA80E99003E8A2
:100C40001203827A96BAFA0050128A2F900014C0CA
:100C500002120382D00274052AFA80E99003E81296
:100C600003827AB4EA24A550128A30900014C0029C
:100C7000120382D002EA24FBFA80E9C29590009622
:100C8000120382752FFA7530FAC295C3E5319414B8
:100C9000E53294004013752B01E4F52CC2B7D2B2B3
:100CA000D2B0C2A5E4F531F532758287120A7075AB
:100CB0008201120A61758288120A70758201120A15
:100CC000617582C9120A70758200020A61AA82AB3C
:100CD00083ACF0FD752B03E4F52CC002C003C00407
:100CE000C005C049C04AC04BC04C7492C0E07401FA
:100CF000C0E07480C0E0748EC0E07400C0E0744056
:100D0000C0E012171BE58124F6F58190008E75F086
:100D10004012042E900032120382D005D004D0037A
:100D2000D002D2B7C2B2C2B0D2A5C3E5499432E56F
:100D30004A94FAE54B9400E54C648094804034C2B8
:100D4000B7D2B2D2B0C2A5900096C002C003C00410
:100D5000C005120382C2B7C2B2C2B0C2A5120AB1A4
:100D6000D005D004D003D00274012531F531E4352B
:100D700032F53274CDC0E074CCC0E0C0E0743DC048
:100D8000E08A828B838CF0ED1213A1AA82E5812484
:100D9000FCF581EA701CC2B7D2B2D2B0C2A59001F4
:100DA0002C120382C2B7D2B2C2B0C2A59002EE0228
:100DB000038274CDC0E074CCC0E0C0E0743DC0E0FC
:100DC0008545828546838547F0E5481213A1AA82AE
:100DD000E58124FCF581EA700EC2B7D2B2C2B0C27E
:100DE000A59002EE020382229001F4120382749A0B
:100DF000C0E07401C0E07480C0E0121616158115C1
:100E0000811581902580E4F5F01203BD1205DF12F3
:100E10000A7F1205FC75180175820212061F7518EB
:100E20000375820212061F1206059001BA75F08042
:100E300012056B9001C375F08012056B9001CD75A2
:100E4000F08012056B9001D775F08012056B900150
:100E5000E175F08012056B9001ED75F08012056B65
:100E60009001F775F08012056B90020175F0801209
:100E7000056B758240120A707A007B00C3EA940801
:100E8000EB648094805020EA2407F582EB3401F56E
:100E900083E493F582C002C003120A61D003D0023A
:100EA0000ABA00D80B80D5758248120A707A007B86
:100EB00000C3EA9408EB648094805020EA240FF584
:100EC00082EB3401F583E493F582C002C003120A79
:100ED00061D003D0020ABA00D80B80D575825012B7
:100EE0000A707A007B00C3EA9408EB648094805017
:100EF00020EA2417F582EB3401F583E493F582C0F0
:100F000002C003120A61D003D0020ABA00D80B80D3
:100F1000D5758258120A707A007B00C3EA9408EBF8
:100F2000648094805020EA241FF582EB3401F5831D
:100F3000E493F582C002C003120A61D003D0020A12
:100F4000BA00D80B80D5758260120A707A007B00D7
:100F5000C3EA9408EB648094805020EA2427F58249
:100F6000EB3401F583E493F582C002C003120A61F9
:100F7000D003D0020ABA00D80B80D5758268120A55
:100F8000707A007B00C3EA9408EB64809480502060
:100F9000EA242FF582EB3401F583E493F582C00255
:100FA000C003120A61D003D0020ABA00D80B80D560
:100FB000758287120A70758201120A617582881221
:100FC0000A70758201120A617582C9120A707582EF
:100FD00000120A61C295C2959000C812075C1209FE
:100FE0008F85825385835485F055F556C053C05480
:100FF000C055C0567492C0E07401C0E07480C0E077
:10100000748EC0E07400C0E07440C0E012171BE5AD
:101010008124F6F58190008E75F04012042E900028
:101020003212038275820E12067385825F85836099
:1010300085F061F562855F578560588561598562E5
:101040005A75821012067385825F85836085F06110
:10105000F562855F5B85605C85615D85625E12051A
:101060000B4003020FD675341490007A75F04012CD
:1010700004A775180F751902751A8090007A75F01B
:1010800040121552E5828583F045F060030211514C
:101090009001F4120382900005120382752B03E481
:1010A000F52C75820E12067385825F85836085F04C
:1010B00061F562855F5785605885615985625A750B
:1010C000821012067385825F85836085F061F56208
:1010D000855F5B85605C85615D85625E9000C8129E
:1010E000075C12098F85824985834A85F04BF54C50
:1010F000855B45855C46855D47855E48855782856D
:1011000058838559F0E55A120CCD12050B400302A5
:1011100010967411C0E07402C0E07480C0E0121632
:101120001615811581158175341490007A75F0407B
:101130001204A775180F751902751A8090007A7538
:10114000F040121552E5828583F045F060030210ED
:1011500096751817751902751A8090007A75F04007
:10116000121552E5828583F045F0701E120AB174A3
:1011700019C0E07402C0E07480C0E0121616158138
:10118000158115819001F41203827451C0E074003E
:10119000C0E07440C0E0744FC0E07400C0E0744030
:1011A000C0E0744DC0E07400C0E07440C0E0743B27
:1011B000C0E07402C0E07480C0E0747AC0E07400E3
:1011C000C0E07440C0E0121367E58124F1F581E5C9
:1011D000514552700CC2A5C2B7752B01E4F52C80A5
:1011E00009C2B2C2B0E4F52BF52C854F25855026F7
:1011F000749FB54D0B7415B54E06754DFF754EFFBA
:1012000074DEB54D0B7413B54E06754DFF754EFF6C
:101210007417B54D0B7402B54E06754DFF754EFF34
:101220007456B54D06E4B54E0280028006754DFF3A
:10123000754EFF854D29854E2A90000512038202C6
:101240000FD620F71430F6148883A88220F507E61D
:10125000A88375830022E280F7E49322E022AAF0BB
:10126000FBE5828518F0A4FCADF0E5838518F0A4B9
:101270002DFDE435F0FEE5828519F0A42DFDE5F0A5
:101280003EFEE433FFEA8518F0A42EFEE5F03FFFB2
:10129000E5838519F0A42EFEE5F03FFFE582851A6F
:1012A000F0A42EFEE5F03FFFEB8518F0A42FFFEA37
:1012B0008519F0A42FFFE583851AF0A42FFFE5829E
:1012C000851BF0A42F8EF08D838C8222FB7A20E484
:1012D000FCFDFEFFE5822582F582E58333F583E59B
:1012E000F033F5F0EB33FB4017DAE98042E5822575
:1012F00082F582E58333F583E5F033F5F0EB33FBDC
:10130000EC33FCED33FDEE33FEEF33FFEC9518EDDF
:101310009519EE951AEF951B4013EC9518FCED9579
:1013200019FDEE951AFEEF951BFF438201DABEEB25
:1013300022AA08AB09AC0A8A828B838CF012124273
:10134000FA0508E4B5080205098A82228582088523
:10135000830985F00A850B73850C74850D75850EE0
:1013600076901331021AA5C00F85810FE50F24F87E
:10137000F576E50F24FBF8860808860908860AE555
:101380000F24F8F886730886740886759013311256
:101390001AA5D00F22E4AC83AB82FAF9748E021E38
:1013A00056FFA8811818121E7ED2D133E6400730AE
:1013B000E70B7582002220E70675820122C2D11256
:1013C0001E60E97003F5822220D101B3E433F58277
:1013D00022121EA9C3749E958240397900121EBB49
:1013E00030D126E9F42401F582EAF43400F583EBE8
:1013F000F43400F5F0ECF43400700AE582458345DE
:10140000F0700122E430E70F22EC20E71489828A91
:10141000838BF02230D10AE4F582F583F5F07480F5
:101420002274FFF582F583F5F0747F22F9E5184503
:1014300019451A451B60777800C308E51B20E73B78
:10144000E51825E0F518E51933F519E51A33F51A0D
:10145000E51B33F51BE5829518E5839519E5F095B5
:101460001AE9951B50D4C3E51B13F51BE51A13F5B8
:101470001AE51913F519E51813F518E5829518FC06
:10148000E5839519FDE5F0951AFEE9951B4007F9EE
:101490008EF08D838C82C3E51B13F51BE51A13F5C3
:1014A0001AE51913F519E51813F518D8CEE9221223
:1014B0001F80BC0003021F1FEF60FA30D502B2D1BB
:1014C000E583B4FF03021F35E582B4FF03021F3535
:1014D000258340072482400B021F1F2483145003DE
:1014E000021F35F582EA8DF0A4A8F0EA8EF0A42858
:1014F000F8E435F0F9EB8DF0A428E935F0F9E433A0
:10150000CA8FF0A429F9EA35F0FAEBF88EF0A42995
:10151000F9EA35F0FAE433FBEC8DF0A429F9EA3569
:10152000F0FAE43BFBE88FF0A42AFAEB35F0FBE499
:1015300033CCFD8EF0A42AFAEB35F0FBE43CFCED55
:101540008FF0A42BFBEC35F0FC20E703121F4D02BB
:101550001EFEAA82AB83ACF0AD18AE19AF1A8A8218
:101560008B838CF0121242F87900C002C003C004D1
:101570008D828E838FF0121242FA7B00E8C39AF8B4
:10158000E99BF9881B891CD004D003D002E849707C
:10159000178D828E838FF0121242600C0ABA0001FE
:1015A0000B0DBD00B90E80B6851B82851C8322FB06
:1015B000C2D530E715D2D5E4C39582F582E4958390
:1015C000F583E495F0F5F0E49BFBE51B30E717B2FB
:1015D000D5E4C39518F518E49519F519E4951AF5AD
:1015E0001AE4951BF51BEB1212CC30D513FBE4C3A8
:1015F0009582F582E49583F583E495F0F5F0E49B1C
:101600002202176185827185837285F07385177454
:10161000901601022037C00F85810FE50F24FBF5DE
:1016200074E50F24FBF8867108867208867390169D
:1016300001122037D00F22F9C2D530E715D2D5E4F8
:10164000C39582F582E49583F583E495F0F5F0E4A3
:1016500099F9E51B30E715E4C39518F518E49519D9
:10166000F519E4951AF51AE4951BF51BE912142CEB
:1016700030D512E4C39582F582E49583F583E49531
:10168000F0F5F0E49922FCABF0AA83A982749EF5F0
:1016900082C2D1EC30E716D2D1E9F42401F9EAF4A0
:1016A0003400FAEBF43400FBECF43400FC121F4D70
:1016B000021EFE20F71030F6118883A88220F5075D
:1016C000F6A88375830022F280F7F022AA82AB107D
:1016D000AC11AD128B828C838DF0EA1216B305101B
:1016E000E4B5100205112285821085831185F01260
:1016F0008513718514728515738516749016CC1236
:101700002037AA82AB83AC10AD11AE128C828D83D0
:101710008EF0E41216B38A828B8322C00F85810F6C
:10172000E50F24F8F574E50F24FBF8861008861100
:10173000088612E50F24F8F8867108867208867309
:101740009016CC122037AA82AB83AC10AD11AE122A
:101750008C828D838EF0E41216B38A828B83D00F35
:1017600022AA82BA0A0810990280FB75990D109975
:101770000280FB8A9922121F8030D502B2D1BF00AD
:1017800009BC0003021F42021F35BC0003021F1FD9
:10179000E583B4FF0BE582B4FF03021F42021F1F63
:1017A000E582B4FF03021F35C395835007247F40B1
:1017B0000B021F1F2480145003021F35C0E0E4CC2D
:1017C000CBCAF98D188E198F1AEF54F0C4F51B751A
:1017D0008306851BF0EB84F582E9C4F9EAC4FAEBD1
:1017E000C4FBEC540FC47803D6FC18EBD6FB18EA04
:1017F000D6FA8582F0EDA4A8F0FD8582F0EEA4284B
:10180000FEE435F0F88582F0EFA428FFE435F0F827
:10181000E99DF9EA9EFAEB9FFBEC98FCAD18AE1936
:10182000AF1A30E7101582E92DF9EA3EFAEB3FFBDB
:10183000E43CFC80EDC082D58398C3E933F9EA33F8
:10184000FAEB33FBEC33FCC3E99DEA9EEB9FEC948F
:1018500000B3E413F9D002D0E0C44AFAD003D0E0D8
:10186000C44BFBD004D0E0F5F0540FC44CFCD08244
:10187000158230F40FD3EC13FCEB13FBEA13FAE9F7
:1018800013F90582E930E70A74012AFAE43BFBE424
:101890003CFC021F168563828564831225CE8582F7
:1018A00072E572600A056CE4B56C06056D8002D2C3
:1018B00003857282227A007B0030030578A87600C7
:1018C00022C002C003121895AC82D003D002BC0023
:1018D00002802DBC08028014BC09028023BC0A02CD
:1018E000801EBC0D028019BC20218014EA4B60D1FF
:1018F0001ABAFF011B156C74FFB56C02156D80C11F
:10190000EA4B60BDEA24A8F8760022EC7009EA24CC
:10191000A8F87600D20322ECB57107EA24A8F8767D
:101920000022C3EA940FEB940050968A058B060AB6
:10193000BA00010BED24A8F8A6040218C1AA827B04
:101940007FC3EA648094B0401174B98AF063F08078
:1019500095F04006EA24D0FB8030C3EA648094C14D
:10196000401174C68AF063F08095F0400674C92A6D
:10197000FB8017C3EA648094E1400F74E68AF06349
:10198000F08095F0400474A92AFBC3EB956E5003D8
:101990008B822275827F22AA827568007569007524
:1019A0006A00756B008A00E6FA60148A82C0001231
:1019B000193DAB82D000C3EB956E40030880E886EA
:1019C000038B82C00012193DAA82D000C3E56E9A33
:1019D0004050856E18751900751A00751B008568D2
:1019E00082856983856AF0E56BC002C00012125ED1
:1019F000AB82AC83ADF0FED000D0028B688C698DD9
:101A00006A8E6BE4FBFCFDEA2568FAEB3569FBECBA
:101A1000356AFCED356BFD8A688B698C6A8D6B08C5
:101A2000809D856882856983856AF0E56B22AA823C
:101A3000756800756900756A00756B008A00E6FBC1
:101A400060228B82C003C00012193DAC82D000D04E
:101A500003C3EC956E400DBB2D028008BB2B0280AA
:101A6000030880DA88028603BB2D03D38001C3926A
:101A700006BB2D028003BB2B010A8A821219973004
:101A80000613C3E49568FAE49569FBE4956AFCE4FF
:101A9000956BFD8008AA68AB69AC6AAD6B8A828BD6
:101AA000838CF0ED22858263858364E4F56CF56DAB
:101AB000F570C203AA73AB74AC758A828B838CF009
:101AC000121242FD74012AF573E43BF5748C75ED36
:101AD000FA7003021E44BA25028003021DDDD20201
:101AE000C200756E00756F00C204C205AB73AC74A2
:101AF000AD758B828C838DF0121242FAA3AB82AC4F
:101B0000838B738C748D758B828C838DF012124253
:101B1000F5718A06BE300040168A06EE24C6400FD4
:101B2000E56F75F00AA4FEEA24D02EF56F80C38A13
:101B300006BE6100400A8A06EE248540035302DF98
:101B4000BA250280ADBA2A028045BA42028036BA6E
:101B500043028040BA4403021C58BA4903021C588D
:101B6000BA4C028025BA4E03021C6BBA4F03021C0A
:101B70005DBA53028020BA5503021C56BA580302BC
:101B80001C64021C93D200021AF2D201021AF2D291
:101B900004021AF2D205200417E57624FDF88876AF
:101BA000860308860408860518188B658C668D6781
:101BB000E56F700B3005047B0180027BFF8B6F7536
:101BC0006E00C3E56E956F5005121895AA8230031A
:101BD00007E56E7003021C93EA601ABA2002800DBA
:101BE000BA09028008BA0D028003BA0A033005055B
:101BF000E56FB56E1FE56E60C92004120570AB6518
:101C0000AC66AD678B828C838DF0E41216B3756E73
:101C100000021C93BA081CE56E60A7200411AB6596
:101C2000AC66AD671BBBFF011C8B658C668D6715B1
:101C30006E808F20041BAB65AC66AD678B828C8396
:101C40008DF0EA1216B30BBB00010C8B658C668D10
:101C500067056E021BC2C202756E0A8036C202752B
:101C60006E08802FC202756E108028E57624FDF87C
:101C70008876860308860408860518188B658C66A6
:101C80008D678B828C838DF0E56C1216B3A3E56DA6
:101C90001216B3E56E7003021DDD1218B578A8E6C2
:101CA0007003021DDD300403021DDDE57624FDF81E
:101CB0008876860308860408860518188B658C6666
:101CC0008D670570200203021D563001358565774A
:101CD0008566788567797582A8121A2EAE82AF83E1
:101CE000ABF0FC8577828578838579F0EE1216B3A8
:101CF000A3EF1216B3A3EB1216B3A3EC1216B302A2
:101D00001DDD300026856577856678856779758263
:101D1000A8121A2EAE82AF83ABF0FC85778285784D
:101D2000838579F0EE1216B3021DDD856577856631
:101D3000788567797582A8121A2EAE82AF83ABF0D0
:101D4000FC8577828578838579F0EE1216B3A3EF50
:101D50001216B3021DDD30013485657785667885FE
:101D600067797582A8121997AE82AF83ABF0FC85B4
:101D700077828578838579F0EE1216B3A3EF121679
:101D8000B3A3EB1216B3A3EC1216B38050300025A8
:101D90008565778566788567797582A8121997AE0B
:101DA00082AF83ABF0FC8577828578838579F0EE0E
:101DB0001216B38028856577856678856779758280
:101DC000A8121997AE82AF83ABF0FC857782857835
:101DD000838579F0EE1216B3A3EF1216B320030336
:101DE000021AB4AB73AC74AD758B828C838DF01218
:101DF0001242FEA3AB82AC838B738C748D75EEFAAA
:101E00007003021AB4BA25E18B828C838DF0121212
:101E100042FABA6E028003BA4ECFE57624FDF88806
:101E200076860208860608860718188A658E668FE9
:101E3000678A828E838FF0E56C1216B3A3E56D126C
:101E400016B380A5AA707B008A828B8322FCABF03C
:101E5000AA83A982749EC2D1F582121F4D021EFE72
:101E60007901AA82E68F82B5821318E6B5F00E18C2
:101E7000E6B5830918E68A82B58202790022B48029
:101E80000FE5F0700AE5837006E58270027F00EFCF
:101E9000B6801518B6001018B6000B18B600060864
:101EA000080876002208080822AA82AB83A2F7332A
:101EB00092D16002D2F7F582ACF0226040F8258220
:101EC000500274FFF582E824F8501ECCCBCAF9E426
:101ED000CC24F85014CBCAF9E4CB24F8500BCAF93F
:101EE000E4CA24F8500379002224086010F8C3ECF7
:101EF00013FCEB13FBEA13FAE913F9D8F122B980CA
:101F000003EA13B34010EA2401FAE43BFBE43CFC8F
:101F100050047C800582BC000EBB000BBA0008E4B4
:101F2000F5F0F583F58222A2D1E582138CF092F7C9
:101F30008B838A8222E4F583F58275F080F4A2D146
:101F40001322E4F583F58275F0C0747F227804ECE7
:101F50007011E58224F8500AF582E4C9CACBFCD896
:101F6000EF22EC7820058220E713D5820122C3E915
:101F700033F9EA33FAEB33FBEC33FCD8EA1582226F
:101F8000AA82AB83A2F73392D16002D2F7F582AC7A
:101F9000F0E58124F9F8E6FD08E6FE0886F008E69B
:101FA000A2F73392D56002D2F7F583AFF022AA826E
:101FB00074BFC0E0741FC0E0C063C0648A822205A1
:101FC0006AE4B56A02056B22AA8274302AFA24C632
:101FD000500A74072AFA3007034302208A82021F3C
:101FE000AEE582FAC4540FF582C002121FC8D002B7
:101FF000740F5AF582021FC8AA65AB66AC67AD685C
:10200000AE69757020EE2EFEED235401FF4206EA04
:102010002AFAEB33FBEC33FCED33FDC3EE956C4059
:1020200008EEC3956CFE430201D570D98A658B66B4
:102030008C678D688E6922858263858364E4F56A86
:10204000F56BAA71AB72AC738A828B838CF012121F
:1020500042FD74012AF571E43BF5728C73EDFA7060
:10206000030225C7BA250280030225BFC20BC20C9A
:10207000C20DC20EC20FC210C211C212C208C209E2
:10208000C20A756C00756D00756EFFAB71AC72ADF8
:10209000738B828C838DF0121242FAA3AB82AC83D5
:1020A0008B718C728D73BA25078A82121FAE809253
:1020B0008A06BE3000402E8A06EE24C6402774FFF2
:1020C000B56E13E56D75F00AA4FEEA24D02EF56D09
:1020D00070BFD20C80BBE56E75F00AA4FEEA24D076
:1020E0002EF56E80ACBA2E0A74FFB56EA4756E0024
:1020F000809F8A06BE6100400E8A06EE2485400756
:102100005302DFD2078002C207BA20028075BA23C9
:1021100003022192BA2A03022197BA2B02805FBAE6
:102120002D028055BA4202805FBA43030221DCBA15
:102130004403022317BA4503022331BA460302239C
:102140002DBA4703022335BA4903022317BA4C02BA
:10215000803BBA4E03022339BA4F0302231EBA5002
:10216000030222B0BA5303022200BA55030223230A
:10217000BA5803022328022363D20B022091D20D06
:10218000022091D20E022091D210022091D211028F
:102190002091D21202209174FFB56E2030100BE511
:1021A0007414F88874866D022091E57424FEF88812
:1021B000748606088607188E6D02209130100BE594
:1021C0007414F88874866E022091E57424FEF888F1
:1021D000748606088607188E6E02209130100AE574
:1021E0007414F888748602800FE57424FEF88874ED
:1021F0008603088604188B028A82121FAE022368A7
:10220000E57424FDF888748603088604088605189A
:10221000188B658C668D678B828C838DF01225D030
:10222000AB82AC838B6F74FFB56E03856F6E200B32
:102230001DC3E56F956D5016E56DC3956FF56DABDC
:102240006D156DEB6008758220121FAE80F18565FB
:10225000828566838567F0121242FBFA6029AB6EB5
:10226000156EC3E464808BF063F08095F050188A9B
:1022700082121FAEAB65AC66AD670BBB00010C8B69
:10228000658C668D6780C7200B03022368C3E56FEA
:10229000956D4003022368E56DC3956FF56DAB6DD9
:1022A000156DEB7003022368758220121FAE80EE5D
:1022B000E57424FDF88874860308860408860518EA
:1022C000188B658C668D67E567FB30E7047A438081
:1022D00013EB546060047A50800AEB30E6047A49CC
:1022E00080027A588A82C002121FAE75823A121F8B
:1022F000AE758230121FAE758278121FAED002BA50
:102300004902800BBA50028006856682121FE18561
:102310006582121FE18051D20F756C0A804A756C7C
:10232000088045756C0A8040756C10803BD208802F
:1023300037D2098033D20A802FE57424FDF88874DF
:10234000860308860408860518188B658C668D67D9
:102350008B828C838DF0E56A1216B3A3E56B12169F
:10236000B380058A82121FAE200806200903300AB6
:102370005AE57424FCF888748603088604088605E8
:102380000886061818188B658C668D678E687565CB
:10239000467566027567808565758566768567779B
:1023A00074012575FEE43576FFAB778E658F668BFD
:1023B000678575828576838577F0121242FBFA7005
:1023C000030220428A82121FAE80CCE56C700302A9
:1023D00020427BA730102BE57414F88874E6FC3398
:1023E00095E0FDFEFF8C658D668E678F68200F5E21
:1023F000AC657D007E007F008C658D668E678F6882
:10240000804C30111FE57424FCF88874860408861B
:10241000050886060886071818188C658D668E676D
:102420008F68802AE57424FEF8887486040886057F
:1024300018ED3395E0FEFF8C658D668E678F682002
:102440000F0CAC65AD667E007F008E678F68301222
:1024500043E56545664567456860397408B56C0CA9
:10246000758230C003121FAED00380287410B56C83
:1024700023758230C003121FAED00330070C758263
:1024800078C003121FAED003800A758258C00312B1
:102490001FAED003300F25AC65AD66AE67E568FFB3
:1024A00030E717C3E49CFCE49DFDE49EFEE49FFF3F
:1024B0008C658D668E678F688002C20F756F00D243
:1024C000138B00756900C000121FF8D00020130D97
:1024D000E569C4FCE6FD4CF61888038002A6690590
:1024E0006FB213E56545664567456870D68803E5B4
:1024F0006D7003756D01200C1A200B17E56F04FC3D
:10250000C3956D500E758220C003121FAED0031507
:102510006D80E9300F0E75822DC003121FAED003FF
:10252000156D8024E56F6020300D0E75822BC00381
:10253000121FAED003156D800F300E0C758220C0B7
:1025400003121FAED003156D200B1EAC6D156DC3AD
:10255000E56F9C5027300C047C3080027C208C82FC
:10256000C003121FAED00380E2C3E56F956D500922
:10257000E56DC3956FF56D8003756D008B00AB6FD6
:10258000156FEB6022B21320130A08E6C4540FFB48
:102590008B6980078603740F5BF569856982C000CB
:1025A000121FC8D00080D7200B03022042AB6D154C
:1025B0006DEB7003022042758220121FAE80EE8AFE
:1025C00082121FAE022042856A82856B8322E473E9
:1025D000AA82AB83ACF07D007E008A828B838CF074
:1025E000121242FFA3AA82AB83EF60070DBD00EA7F
:1025F0000E80E78D828E8322000000000000000024
:00000001FF
