:100000000200960000000000000000000000000058
:1000200000000000000000000000000206DDE4F512
:1000300023F5247525FF7526FFE4F527F528752996
:10004000FF752AFFE4F52BF52CE4F52DF52EE4F5EC
:100050002FF5307531FA7532FA22000000000000E9
:1000800000000000000000000000000206960000D2
:100090000000000202C17581B7120219E5826003F7
:1000A000020102780079007A007B007C007D00EC80
:1000B0004D601C88828983E493A3A882A9838A82E5
:1000C0008B83F0A3AA82AB831CBCFFE31D80E07589
:1000D00082007583007C217D00EC4D600AE4F0A372
:1000E0001CBCFFF51D80F27582007583007C007DCD
:1000F00000EC4D600AE4F0A31CBCFFF51D80F21279
:10010000002E120BB580FE436F6D6D616E643A2058
:10011000257300526573706F6E73653A2025730DF9
:100120000A0041542B44564944303030300D0A0007
:10013000303132333435363738394142434445461D
:1001400000204E4F205349474E414C202020202074
:10015000202020202020202020202020202020209F
:100160000D00256C640A0D000D0A45464D384C42C1
:100170003132204A44592D343020536C6176652049
:10018000546573742E0D0A0041542B5645520D0AC6
:100190000041542B424155440D0A0041542B524614
:1001A00049440D0A0041542B445649440D0A00416C
:1001B000542B5246433132300D0A0041542B504FDC
:1001C00057450D0A0041542B434C53530D0A00412F
:1001D000542B44564944464646460D0A00410053B6
:1001E00000746869732073686F756C6420626520A1
:1001F000746865206D6F746F722066756E637469C4
:100200006F6E004B25755725754725640A003C4ED7
:100210004F20464C4F41543E0075A7007597DE7540
:1002200097AD75FF8075EF0675A71075C12075A78E
:100230000075A90075A900E5A930E7FB75A903754C
:10024000A903E5A930E7FB43A41143A60175E10129
:1002500075E20075E341439C8575E341439C8575D8
:100260009810758DE6858D8B53890F438920D28E2A
:10027000D29975A71075980043A60175A2A875A319
:10028000FD75A4FF75A5FF43F304D29AD2AF75C8DC
:1002900000438E1075CAA875CBFD75CEFF75CFFFD4
:1002A000D2ADD2CA75A70075A71075C00075D4FF6E
:1002B00075D5FF43F308D2C2D2AF75A7007582008F
:1002C00022C0E0C002C003C0D075D00075A710C224
:1002D000C775D2C475D3FF7401252FF52FE43530CF
:1002E000F53074D0B52F0A7407B53005E4F52FF555
:1002F00030AA317B00C3EA952FEB95304004D293AE
:100300008002C293AA327B00C3EA952FEB9530405E
:1003100004D2948002C294D0D0D003D002D0E03274
:10032000AA82438E407592B87593FF859294859307
:10033000957591047B00C3EB9A500BE59130E7FB78
:1003400053917F0B80F075910022AA82AB837C00D1
:100350007D00C3EC9AED9B502B7E00BE0400501D27
:100360007582FAC002C003C004C005C00612032093
:10037000D006D005D004D003D0020E80DE0CBC0025
:10038000D10D80CE22AA82AB83ACF0FD75A720757B
:10039000930C75C8107594008A118B128C138D14F0
:1003A00090A20075F04A7404120F12AA82AB83ACBB
:1003B000F0FD751118E4F512F513F5148A828B839C
:1003C0008CF0ED120F12AA82AB83ACF0FDE4C39A5D
:1003D000FAE49BFB74019CE49D8A958B96D2C943F9
:1003E000944075A70022AA8275A72010C90280FB3D
:1003F0008A9275A70022AA82AB83ACF08A828B8393
:100400008CF0120E88FD60188D82C002C003C004FB
:100410001203E6D004D003D0020ABA00DF0B80DC5E
:100420002275A72010C80280FB53C83F85928275B1
:10043000A7002275A7207A007B0020C82675A70098
:10044000758214C002C003120320D003D00275A726
:10045000200ABA00010BBAA8E1BB61DE75A70075DE
:10046000820A22C2C853C83F85928275A70022AA79
:1004700082AB83ACF07D008A068B078C00C002C083
:1004800003C004C005C006C007C000120433A9821F
:10049000D000D007D006D005D004D003D002B90ACE
:1004A0000A8A828B838CF0E40212F9C3ED953450F2
:1004B000180D8E828F8388F0E91212F9A3AE82AFF5
:1004C000838E028F03880480B48A828B838CF0E44D
:1004D0000212F975A720A2C875A70022AA82AB83D1
:1004E0007C007D00C3EC9AED9B50477E00BE04006B
:1004F0005039C002C003C004C005C0061204D3E4D2
:1005000033D006D005D004D003D00260012275821A
:10051000FAC002C003C004C005C006120320D00602
:10052000D005D004D003D0020E80C20CBC00B50DA3
:1005300080B222AA82AB83ACF0C002C003C004C068
:1005400002C003C0047407C0E07401C0E07480C03E
:10055000E012125CE58124FAF581C2A09000051238
:10056000034AD004D003D0028A828B838CF012031A
:10057000F675341390007A75F04012046F90000AFB
:1005800012034AD2A0747AC0E07400C0E07440C084
:10059000E07413C0E07401C0E07480C0E012125C2B
:1005A000E58124FAF58122C2A090000A12034A9044
:1005B000012275F0801203F690000A12034A53C814
:1005C0003FD2A0225389F0438901C28C2275A70033
:1005D000C2EF75B28075BC2075B91E75E80075DF75
:1005E0003F75B300D2EF22AA828511F005F07401A5
:1005F000800225E0D5F0FBFB75A720BA0002800A37
:10060000BA0102800FBA021E8014EBF4FA52F1EB29
:1006100042D48012EBF4FA52F2EB42D58008EBF4AC
:10062000FA52F3EB42CC75A700228582BBC2EDD211
:10063000EC30EDFD85BD8285BE832212062A120FA5
:10064000DBAA82AB83ACF0FDC002C003C004C005CE
:10065000906C8B75F05374401210F5AA82AB83AC8A
:10066000F0FDE58124FCF581E4C0E074FCC0E07499
:100670007FC0E07446C0E08A828B838CF0ED121359
:1006800027AA82AB83ACF0FDE58124FCF5818A8248
:100690008B838CF0ED22C0E0C0D075D00075A71020
:1006A000C29F85232374012524F5247401B52B06EC
:1006B000E4B52C028002800BC3E5239525E5249543
:1006C0002692B0E52B452C700BC3E5239525E52438
:1006D000952692A5E52BE52CD0D0D0E032C0E0C025
:1006E000D075D00075A700C2CF85272774012528B3
:1006F000F5287401B52B06E4B52C028002800BC3EB
:10070000E5279529E528952A92B2E52B452C700B13
:10071000C3E5279529E528952A92B7E52BE52CD046
:10072000D0D0E032AA82AB83C28C5389F0438901D6
:10073000C28C758A00758C00C28DD28CC28C758A71
:1007400000758C00C28DD28C7C007D003086191023
:100750008D0280F80CBC00010DBC0AF0BD00EDC29A
:100760008C900000E4F5F022C28C758A00758C0034
:10077000C28DD28C7C007D00208619108D0280F8FD
:100780000CBC00010DBC0AF0BD00EDC28C90000055
:10079000E4F5F022C28C758A00758C00C28D7C0055
:1007A0007D00D28C7E008E077800C3EF9AE86480CB
:1007B0008BF063F08095F050298C078D0030860C0B
:1007C000108D0280F80FBF00F40880F120860C1015
:1007D0008D0280F80FBF00F40880F18F0488050EA9
:1007E00080C4C28C8D038C027D007C00AF8C7E00A7
:1007F000EF3395E0F8F9EE2CFCEF3DFDE83AFAE92D
:100800003BFBAE8AE4FF3395E0F8F9EE2CFCEF3DBC
:10081000FDE83AFAE93B8C828D838AF022AA82AB0A
:1008200083ACF08A828B838CF0120E88FD60188D69
:1008300082C002C003C004121312D004D003D0023D
:100840000ABA00DF0B80DC2285823985833A85F085
:100850003BF53C900020E4F0E53C30E71B75822D31
:10086000121312C3E49539F539E4953AF53AE49553
:100870003BF53BE4953CF53C753D1FE4F53EA83760
:10088000A938C3E49539E4953AE4953BE46480855E
:100890003CF063F08095F0E433FEC3E498E46480B8
:1008A00089F063F08095F0E433FF4E700302094253
:1008B000AE3DAF3E153D74FFB53D02153EEE240042
:1008C000F53FEF3400F540853541E536F542339587
:1008D000E0F543F544854111854212854313854473
:1008E00014853982853A83853BF0E53CC000C00120
:1008F00012127DAE82AF83EE2430F582EF3401F523
:1009000083E493853F82854083F0854111854212BF
:10091000854313854414853982853A83853BF0E508
:100920003C1211F585823985833A85F03BF53CD040
:1009300001D000E849700302088218B8FF011902CB
:100940000882E53D042400FAE43400FB7C008A823E
:100950008B838CF002081DAA82AB83ACF0FD7E0075
:100960007F0078007900C3E49AE49BE49CE464800F
:100970008DF063F08095F0504E8A118B128C138DA0
:100980001490000CE4F5F0120EA41212CCAA82AB63
:1009900083ACF0FDC002C003C004C0059093A475F1
:1009A000F0567450121327AA82AB83ACF0FDE58198
:1009B00024FCF5818A828B838CF0ED121017AE82B5
:1009C000AF83A8F0F9801990014175F080C006C08E
:1009D00007C000C00112081DD001D000D007D0060A
:1009E0008E828F8388F0E9229001F412034A7531D8
:1009F0009690006412034AD2957AFAEA244B501278
:100A00008A32900014C00212034AD002EA24FBFA90
:100A100080E99003E812034A7A96BAFA0050128AE3
:100A200031900014C00212034AD00274052AFA80E1
:100A3000E99003E812034A7AB4EA24A550128A32F4
:100A4000900014C00212034AD002EA24FBFA80E9A3
:100A5000C29590009612034A7531FA7532FAC29522
:100A600022AA82AB83ACF0FD752B03E4F52CD2B740
:100A7000C2B2C2B0D2A5C002C003C004C005C04902
:100A8000C04AC04BC04C7462C0E07401C0E07480C6
:100A9000C0E012125CE58124F9F581E4C0E0C0E019
:100AA000747AC0E07447C0E0854982854A83854BEB
:100AB000F0E54C120FE7AE82E58124FCF581D0050C
:100AC000D004D003D002EE7029C2B7D2B2D2B0C2E5
:100AD000A5900096C002C003C004C00512034AC21C
:100AE000B7C2B2C2B0C2A51209E8D005D004D00383
:100AF000D00274CDC0E074CCC0E0C0E0743DC0E072
:100B00008A828B838CF0ED120FE7AA82E58124FCA8
:100B1000F581EA704AC2B7D2B2D2B0C2A590012C18
:100B200012034AE52D452E7015C2B7D2B2C2B0C22B
:100B3000A59002EE12034A752D01E4F52E227401F0
:100B4000B52D06E4B52E0280028014C2B7C2B2D21F
:100B5000B0C2A59002EE12034AE4F52DF52E2274E0
:100B6000CDC0E074CCC0E0C0E0743DC0E0854582FB
:100B70008546838547F0E548120FE7AA82E5812480
:100B8000FCF581EA702EE52D452E700EC2B7D2B26B
:100B9000C2B0C2A59002EE02034A7401B52D06E46C
:100BA000B52E02800122C2B7C2B2D2B0C2A5900255
:100BB000EE02034A229001F412034A7468C0E07402
:100BC00001C0E07480C0E012125C158115811581AE
:100BD000902580E4F5F01203851205A71205C4756F
:100BE00011017582021205E7751103758202120563
:100BF000E71205CD90018875F080120533900191C0
:100C000075F08012053390019B75F08012053390CA
:100C100001A575F0801205339001AF75F0801205C3
:100C2000339001BB75F0801205339001C575F080DB
:100C30001205339001CF75F080120533C295C2952D
:100C40009000C812072412095775820E12063B85C0
:100C5000825F85836085F061F562855F57856058A6
:100C600085615985625A75821012063B85825F85BF
:100C7000836085F061F562855F5B85605C85615DA1
:100C800085625E1204D350B675341490007A75F004
:100C90004012046F7511DD75120175138090007A92
:100CA00075F040121198E5828583F045F0600302EB
:100CB0000D979001F412034A90000512034A752B18
:100CC00003E4F52C75820E12063B85825F858360F6
:100CD00085F061F562855F57856058856159856249
:100CE0005A75821012063B85825F85836085F061AC
:100CF000F562855F5B85605C85615D85625E900005
:100D0000C812072412095785825385835485F055EC
:100D1000F55685575F855860855961855A62AC5B89
:100D2000AD5CAA5DAB5E8553828554838555F0E545
:100D300056C002C003C004C0051212CC858249858A
:100D4000834A85F04BF54CD005D004D003D0028CFB
:100D5000458D468A478B48855F828560838561F033
:100D6000E562120A611204D34003020CB875341410
:100D700090007A75F04012046F7511DD75120175DF
:100D8000138090007A75F040121198E5828583F007
:100D900045F06003020CB87511DF75120175138000
:100DA00090007A75F040121198E5828583F045F045
:100DB000701E1209E874E1C0E07401C0E07480C0E4
:100DC000E012125C1581158115819001F412034A1D
:100DD0007451C0E07400C0E07440C0E0744FC0E0E3
:100DE0007400C0E07440C0E0744DC0E07400C0E026
:100DF0007440C0E07403C0E07402C0E07480C0E0DE
:100E0000747AC0E07400C0E07440C0E0120FADE539
:100E10008124F1F581E5514552700CC2A5C2B77528
:100E20002B01E4F52C8009C2B2C2B0E4F52BF52CFD
:100E3000854F25855026749FB54D0B7415B54E060C
:100E4000754DFF754EFF74DEB54D0B7413B54E0630
:100E5000754DFF754EFF7417B54D0B7402B54E06F8
:100E6000754DFF754EFF7456B54D06E4B54E0280C4
:100E7000028006754DFF754EFF854D29854E2A90DF
:100E8000000512034A020C3E20F71430F614888342
:100E9000A88220F507E6A88375830022E280F7E4A4
:100EA0009322E022AAF0FBE5828511F0A4FCADF0CC
:100EB000E5838511F0A42DFDE435F0FEE582851271
:100EC000F0A42DFDE5F03EFEE433FFEA8511F0A429
:100ED0002EFEE5F03FFFE5838512F0A42EFEE5F03F
:100EE0003FFFE5828513F0A42EFEE5F03FFFEB8582
:100EF00011F0A42FFFEA8512F0A42FFFE5838513DC
:100F0000F0A42FFFE5828514F0A42F8EF08D838C42
:100F10008222FB7A20E4FCFDFEFFE5822582F58239
:100F2000E58333F583E5F033F5F0EB33FB4017DA77
:100F3000E98042E5822582F582E58333F583E5F099
:100F400033F5F0EB33FBEC33FCED33FDEE33FEEF2A
:100F500033FFEC9511ED9512EE9513EF95144013B8
:100F6000EC9511FCED9512FDEE9513FEEF9514FF37
:100F7000438201DABEEB22AA08AB09AC0A8A828B53
:100F8000838CF0120E88FA0508E4B5080205098A78
:100F9000822285820885830985F00A850B73850C7A
:100FA00074850D75850E76900F77021656C00F85E5
:100FB000810FE50F24F8F576E50F24FBF886080885
:100FC000860908860AE50F24F8F8867308867408EF
:100FD0008675900F77121656D00F22E4AC83AB8241
:100FE000FAF9748E021A07FFA8811818121A2FD264
:100FF000D133E6400730E70B7582002220E7067503
:10100000820122C2D1121A11E97003F5822220D185
:1010100001B3E433F58222121A5AC3749E958240BA
:10102000397900121A6C30D126E9F42401F582EAEC
:10103000F43400F583EBF43400F5F0ECF434007094
:101040000AE582458345F0700122E430E70F22EC87
:1010500020E71489828A838BF02230D10AE4F5825A
:10106000F583F5F074802274FFF582F583F5F07452
:101070007F22F9E51145124513451460777800C3C6
:1010800008E51420E73BE51125E0F511E51233F5FD
:1010900012E51333F513E51433F514E5829511E5E4
:1010A000839512E5F09513E9951450D4C3E5141314
:1010B000F514E51313F513E51213F512E51113F505
:1010C00011E5829511FCE5839512FDE5F09513FE7F
:1010D000E995144007F98EF08D838C82C3E51413D3
:1010E000F514E51313F513E51213F512E51113F5D5
:1010F00011D8CEE922121B31BC0003021AD0EF60D6
:10110000FA30D502B2D1E583B4FF03021AE6E582D4
:10111000B4FF03021AE6258340072482400B021A1B
:10112000D02483145003021AE6F582EA8DF0A4A8B5
:10113000F0EA8EF0A428F8E435F0F9EB8DF0A4285D
:10114000E935F0F9E433CA8FF0A429F9EA35F0FA69
:10115000EBF88EF0A429F9EA35F0FAE433FBEC8DD4
:10116000F0A429F9EA35F0FAE43BFBE88FF0A42A71
:10117000FAEB35F0FBE433CCFD8EF0A42AFAEB3524
:10118000F0FBE43CFCED8FF0A42BFBEC35F0FC20F5
:10119000E703121AFE021AAFAA82AB83ACF0AD11BC
:1011A000AE12AF138A828B838CF0120E88F879000E
:1011B000C002C003C0048D828E838FF0120E88FAA5
:1011C0007B00E8C39AF8E99BF988148915D004D00C
:1011D00003D002E84970178D828E838FF0120E883B
:1011E000600C0ABA00010B0DBD00B90E80B6851463
:1011F0008285158322FBC2D530E715D2D5E4C3958D
:1012000082F582E49583F583E495F0F5F0E49BFBA9
:10121000E51430E717B2D5E4C39511F511E4951242
:10122000F512E49513F513E49514F514EB120F126F
:1012300030D513FBE4C39582F582E49583F583E40E
:1012400095F0F5F0E49B220213128582718583727A
:1012500085F073851074901247021BE8C00F8581DA
:101260000FE50F24FBF574E50F24FBF88671088663
:1012700072088673901247121BE8D00F22F9C2D56C
:1012800030E715D2D5E4C39582F582E49583F583E2
:10129000E495F0F5F0E499F9E51430E715E4C39529
:1012A00011F511E49512F512E49513F513E4951474
:1012B000F514E912107230D512E4C39582F582E478
:1012C0009583F583E495F0F5F0E49922FCABF0AA60
:1012D00083A982749EF582C2D1EC30E716D2D1E99F
:1012E000F42401F9EAF43400FAEBF43400FBECF4F2
:1012F0003400FC121AFE021AAF20F71030F61188E3
:1013000083A88220F507F6A88375830022F280F770
:10131000F022AA82BA0A0810990280FB75990D1072
:10132000990280FB8A9922121B3130D502B2D1BFBB
:101330000009BC0003021AF3021AE6BC0003021AF9
:10134000D0E583B4FF0BE582B4FF03021AF3021A5F
:10135000D0E582B4FF03021AE6C395835007247FC9
:10136000400B021AD02480145003021AE6C0E0E4B5
:10137000CCCBCAF98D118E128F13EF54F0C4F51433
:101380007583068514F0EB84F582E9C4F9EAC4FAA2
:10139000EBC4FBEC540FC47803D6FC18EBD6FB1857
:1013A000EAD6FA8582F0EDA4A8F0FD8582F0EEA4DD
:1013B00028FEE435F0F88582F0EFA428FFE435F04C
:1013C000F8E99DF9EA9EFAEB9FFBEC98FCAD11AEB3
:1013D00012AF1330E7101582E92DF9EA3EFAEB3F20
:1013E000FBE43CFC80EDC082D58398C3E933F9EA85
:1013F00033FAEB33FBEC33FCC3E99DEA9EEB9FEC45
:101400009400B3E413F9D002D0E0C44AFAD003D078
:10141000E0C44BFBD004D0E0F5F0540FC44CFCD03A
:1014200082158230F40FD3EC13FCEB13FBEA13FAB2
:10143000E913F90582E930E70A74012AFAE43BFB73
:10144000E43CFC021AC785638285648312217F8590
:101450008272E572600A056CE4B56C06056D800267
:10146000D203857282227A007B0030030578A87649
:101470000022C002C003121446AC82D003D002BCCA
:101480000002802DBC08028014BC09028023BC0A23
:1014900002801EBC0D028019BC20218014EA4B6022
:1014A000D11ABAFF011B156C74FFB56C02156D8063
:1014B000C1EA4B60BDEA24A8F8760022EC7009EA84
:1014C00024A8F87600D20322ECB57107EA24A8F824
:1014D000760022C3EA940FEB940050968A058B069F
:1014E0000ABA00010BED24A8F8A604021472AA821D
:1014F0007B7FC3EA648094B0401174B98AF063F0D2
:101500008095F04006EA24D0FB8030C3EA648094E2
:10151000C1401174C68AF063F08095F0400674C92A
:101520002AFB8017C3EA648094E1400F74E68AF0D6
:1015300063F08095F0400474A92AFBC3EB956E50CC
:10154000038B822275827F22AA82756800756900EA
:10155000756A00756B008A00E6FA60148A82C00022
:101560001214EEAB82D000C3EB956E40030880E806
:1015700086038B82C0001214EEAA82D000C3E56EEF
:101580009A4050856E117512007513007514008510
:101590006882856983856AF0E56BC002C000120E1F
:1015A000A4AB82AC83ADF0FED000D0028B688C6916
:1015B0008D6A8E6BE4FBFCFDEA2568FAEB3569FB6E
:1015C000EC356AFCED356BFD8A688B698C6A8D6B36
:1015D00008809D856882856983856AF0E56B22AA0B
:1015E00082756800756900756A00756B008A00E68F
:1015F000FB60228B82C003C0001214EEAC82D000CC
:10160000D003C3EC956E400DBB2D028008BB2B02AE
:1016100080030880DA88028603BB2D03D38001C3D0
:101620009206BB2D028003BB2B010A8A8212154849
:10163000300613C3E49568FAE49569FBE4956AFC07
:10164000E4956BFD8008AA68AB69AC6AAD6B8A82D1
:101650008B838CF0ED22858263858364E4F56CF5E1
:101660006DF570C203AA73AB74AC758A828B838CE0
:10167000F0120E88FD74012AF573E43BF5748C7545
:10168000EDFA70030219F5BA2502800302198ED211
:1016900002C200756E00756F00C204C205AB73AC68
:1016A00074AD758B828C838DF0120E88FAA3AB8299
:1016B000AC838B738C748D758B828C838DF0120E42
:1016C00088F5718A06BE300040168A06EE24C640B0
:1016D0000FE56F75F00AA4FEEA24D02EF56F80C3E3
:1016E0008A06BE6100400A8A06EE24854003530242
:1016F000DFBA250280ADBA2A028045BA420280369E
:10170000BA43028040BA4403021809BA49030218D6
:1017100009BA4C028025BA4E0302181CBA4F0302C4
:10172000180EBA53028020BA5503021807BA58039C
:10173000021815021844D2000216A3D2010216A301
:10174000D2040216A3D205200417E57624FDF888FA
:1017500076860308860408860518188B658C668DC6
:1017600067E56F700B3005047B0180027BFF8B6F98
:10177000756E00C3E56E956F5005121446AA82304F
:101780000307E56E7003021844EA601ABA2002806B
:101790000DBA09028008BA0D028003BA0A033005A7
:1017A00005E56FB56E1FE56E60C92004120570ABCC
:1017B00065AC66AD678B828C838DF0E41212F9758F
:1017C0006E00021844BA081CE56E60A7200411AB35
:1017D00065AC66AD671BBBFF011C8B658C668D67B6
:1017E000156E808F20041BAB65AC66AD678B828C59
:1017F000838DF0EA1212F90BBB00010C8B658C662D
:101800008D67056E021773C202756E0A8036C202BA
:10181000756E08802FC202756E108028E57624FD53
:10182000F88876860308860408860518188B658C68
:10183000668D678B828C838DF0E56C1212F9A3E5BF
:101840006D1212F9E56E700302198E12146678A8F3
:10185000E6700302198E30040302198EE57624FD2A
:10186000F88876860308860408860518188B658C28
:10187000668D670570200203021907300135856502
:10188000778566788567797582A81215DFAE82AF95
:1018900083ABF0FC8577828578838579F0EE121230
:1018A000F9A3EF1212F9A3EB1212F9A3EC1212F939
:1018B00002198E300026856577856678856779758B
:1018C00082A81215DFAE82AF83ABF0FC85778285EC
:1018D00078838579F0EE1212F902198E8565778585
:1018E00066788567797582A81215DFAE82AF83AB03
:1018F000F0FC8577828578838579F0EE1212F9A362
:10190000EF1212F902198E300134856577856678F9
:101910008567797582A8121548AE82AF83ABF0FC5B
:101920008577828578838579F0EE1212F9A3EF121C
:1019300012F9A3EB1212F9A3EC1212F98050300045
:10194000258565778566788567797582A81215483B
:10195000AE82AF83ABF0FC8577828578838579F0A2
:10196000EE1212F980288565778566788567797526
:1019700082A8121548AE82AF83ABF0FC85778285D2
:1019800078838579F0EE1212F9A3EF1212F9200391
:1019900003021665AB73AC74AD758B828C838DF0CE
:1019A000120E88FEA3AB82AC838B738C748D75EEA4
:1019B000FA7003021665BA25E18B828C838DF012D2
:1019C0000E88FABA6E028003BA4ECFE57624FDF88F
:1019D0008876860208860608860718188A658E6645
:1019E0008F678A828E838FF0E56C1212F9A3E56D02
:1019F0001212F980A5AA707B008A828B8322FCAB2D
:101A0000F0AA83A982749EC2D1F582121AFE021A2C
:101A1000AF7901AA82E68F82B5821318E6B5F00E7F
:101A200018E6B5830918E68A82B58202790022B4E5
:101A3000800FE5F0700AE5837006E58270027F0092
:101A4000EFB6801518B6001018B6000B18B60006D1
:101A500008080876002208080822AA82AB83A2F7A9
:101A60003392D16002D2F7F582ACF0226040F825C3
:101A700082500274FFF582E824F8501ECCCBCAF9DC
:101A8000E4CC24F85014CBCAF9E4CB24F8500BCAA8
:101A9000F9E4CA24F8500379002224086010F8C33E
:101AA000EC13FCEB13FBEA13FAE913F9D8F122B9B2
:101AB0008003EA13B34010EA2401FAE43BFBE43C60
:101AC000FC50047C800582BC000EBB000BBA0008F1
:101AD000E4F5F0F583F58222A2D1E582138CF09231
:101AE000F78B838A8222E4F583F58275F080F4A275
:101AF000D11322E4F583F58275F0C0747F22780457
:101B0000EC7011E58224F8500AF582E4C9CACBFCD6
:101B1000D8EF22EC7820058220E713D5820122C37A
:101B2000E933F9EA33FAEB33FBEC33FCD8EA1582FC
:101B300022AA82AB83A2F73392D16002D2F7F58258
:101B4000ACF0E58124F9F8E6FD08E6FE0886F00829
:101B5000E6A2F73392D56002D2F7F583AFF022AA5E
:101B6000827470C0E0741BC0E0C063C0648A8222CB
:101B7000056AE4B56A02056B22AA8274302AFA2447
:101B8000C6500A74072AFA3007034302208A8202E9
:101B90001B5FE582FAC4540FF582C002121B79D094
:101BA00002740F5AF582021B79AA65AB66AC67AD69
:101BB00068AE69757020EE2EFEED235401FF4206DB
:101BC000EA2AFAEB33FBEC33FCED33FDC3EE956C04
:101BD0004008EEC3956CFE430201D570D98A658B2F
:101BE000668C678D688E6922858263858364E4F5DF
:101BF0006AF56BAA71AB72AC738A828B838CF0121C
:101C00000E88FD74012AF571E43BF5728C73EDFAD0
:101C10007003022178BA25028003022170C20BC230
:101C20000CC20DC20EC20FC210C211C212C208C233
:101C300009C20A756C00756D00756EFFAB71AC72F0
:101C4000AD738B828C838DF0120E88FAA3AB82ACBD
:101C5000838B718C728D73BA25078A82121B5F8009
:101C6000928A06BE3000402E8A06EE24C6402774B3
:101C7000FFB56E13E56D75F00AA4FEEA24D02EF5CB
:101C80006D70BFD20C80BBE56E75F00AA4FEEA242D
:101C9000D02EF56E80ACBA2E0A74FFB56EA4756EA8
:101CA00000809F8A06BE6100400E8A06EE248540B1
:101CB000075302DFD2078002C207BA20028075BA3A
:101CC0002303021D43BA2A03021D48BA2B02805F78
:101CD000BA2D028055BA4202805FBA4303021D8DBD
:101CE000BA4403021EC8BA4503021EE2BA46030202
:101CF0001EDEBA4703021EE6BA4903021EC8BA4CEA
:101D000002803BBA4E03021EEABA4F03021ECFBA4C
:101D10005003021E61BA5303021DB1BA5503021EDD
:101D2000D4BA5803021ED9021F14D20B021C42D28D
:101D30000D021C42D20E021C42D210021C42D211D1
:101D4000021C42D212021C4274FFB56E2030100BEE
:101D5000E57414F88874866D021C42E57424FEF85C
:101D600088748606088607188E6D021C4230100B98
:101D7000E57414F88874866E021C42E57424FEF83B
:101D800088748606088607188E6E021C4230100A78
:101D9000E57414F888748602800FE57424FEF888D0
:101DA000748603088604188B028A82121B5F021F46
:101DB00019E57424FDF888748603088604088605EE
:101DC00018188B658C668D678B828C838DF0122141
:101DD00081AB82AC838B6F74FFB56E03856F6E2011
:101DE0000B1DC3E56F956D5016E56DC3956FF56DD1
:101DF000AB6D156DEB6008758220121B5F80F1855D
:101E000065828566838567F0120E88FBFA6029ABD0
:101E10006E156EC3E464808BF063F08095F050180B
:101E20008A82121B5FAB65AC66AD670BBB00010C11
:101E30008B658C668D6780C7200B03021F19C3E575
:101E40006F956D4003021F19E56DC3956FF56DAB7E
:101E50006D156DEB7003021F19758220121B5F80D8
:101E6000EEE57424FDF88874860308860408860568
:101E700018188B658C668D67E567FB30E7047A433D
:101E80008013EB546060047A50800AEB30E6047AE9
:101E90004980027A588A82C002121B5F75823A1208
:101EA0001B5F758230121B5F758278121B5FD00238
:101EB000BA4902800BBA50028006856682121B92D4
:101EC000856582121B928051D20F756C0A804A750B
:101ED0006C088045756C0A8040756C10803BD20898
:101EE0008037D2098033D20A802FE57424FDF88828
:101EF00074860308860408860518188B658C668D21
:101F0000678B828C838DF0E56A1212F9A3E56B1260
:101F100012F980058A82121B5F200806200903300F
:101F20000A5AE57424FCF888748603088604088637
:101F3000050886061818188B658C668D678E68757F
:101F4000650E756602756780856575856676856739
:101F50007774012575FEE43576FFAB778E658F6665
:101F60008B678575828576838577F0120E88FBFAFC
:101F70007003021BF38A82121B5F80CCE56C700336
:101F8000021BF37BA730102BE57414F88874E6FC71
:101F90003395E0FDFEFF8C658D668E678F68200FA0
:101FA0005EAC657D007E007F008C658D668E678FE0
:101FB00068804C30111FE57424FCF888748604088E
:101FC00086050886060886071818188C658D668EA3
:101FD000678F68802AE57424FEF888748604088672
:101FE0000518ED3395E0FEFF8C658D668E678F6872
:101FF000200F0CAC65AD667E007F008E678F683069
:102000001243E56545664567456860397408B56CF7
:102010000C758230C003121B5FD00380287410B58A
:102020006C23758230C003121B5FD00330070C7520
:102030008278C003121B5FD003800A758258C003E8
:10204000121B5FD003300F25AC65AD66AE67E56847
:10205000FF30E717C3E49CFCE49DFDE49EFEE49F93
:10206000FF8C658D668E678F688002C20F756F006A
:10207000D2138B00756900C000121BA9D000201379
:102080000DE569C4FCE6FD4CF61888038002A669DC
:10209000056FB213E56545664567456870D68803E8
:1020A000E56D7003756D01200C1A200B17E56F04A8
:1020B000FCC3956D500E758220C003121B5FD003C8
:1020C000156D80E9300F0E75822DC003121B5FD095
:1020D00003156D8024E56F6020300D0E75822BC0D6
:1020E00003121B5FD003156D800F300E0C7582201C
:1020F000C003121B5FD003156D200B1EAC6D156D58
:10210000C3E56F9C5027300C047C3080027C208C0F
:1021100082C003121B5FD00380E2C3E56F956D5050
:1021200009E56DC3956FF56D8003756D008B00AB90
:102130006F156FEB6022B21320130A08E6C4540F28
:10214000FB8B6980078603740F5BF569856982C024
:1021500000121B79D00080D7200B03021BF3AB6D5C
:10216000156DEB7003021BF3758220121B5F80EE6E
:102170008A82121B5F021BF3856A82856B8322E4CD
:1021800073AA82AB83ACF07D007E008A828B838C45
:10219000F0120E88FFA3AA82AB83EF60070DBD008B
:1021A000EA0E80E78D828E8322000000000000008E
:00000001FF
