:10000000020096E4F523F5247525FF7526FFE4F537
:1000100027F5287529FF752AFFE4F52BF52CE4F563
:100020002DF52E752FFA7530FA220002071B0000FD
:1000800000000000000000000000000206D4000094
:100090000000000202FF7581B5120257E58260037D
:1000A000020102780079007A007B007C007D00EC80
:1000B0004D601C88828983E493A3A882A9838A82E5
:1000C0008B83F0A3AA82AB831CBCFFE31D80E07589
:1000D00082007583007C217D00EC4D600AE4F0A372
:1000E0001CBCFFF51D80F27582007583007C007DCD
:1000F00000EC4D600AE4F0A31CBCFFF51D80F21279
:100100000003120DBD80FE0E04000011150A000050
:100110000E19191F170E000E04000E11110E000407
:10012000040A110A040400040E15140E05150E0E1F
:100130000400150A0A0E00436F6D6D616E643A206B
:10014000257300526573706F6E73653A2025730DC9
:100150000A0041542B44564944303030300D0A00D7
:1001600030313233343536373839414243444546ED
:1001700000204E4F205349474E414C202020202044
:10018000202020202020202020202020202020206F
:100190000D00256C640A0D000D0A45464D384C4291
:1001A0003132204A44592D343020536C6176652019
:1001B000546573742E0D0A0041542B5645520D0A96
:1001C0000041542B424155440D0A0041542B5246E4
:1001D00049440D0A0041542B445649440D0A00413C
:1001E000542B5246433132300D0A0041542B504FAC
:1001F00057450D0A0041542B434C53530D0A0041FF
:10020000542B44564944464646460D0A002530358F
:100210006C640A0D00410068656C6C6F00530074DB
:100220006869732073686F756C64206265207468F8
:1002300065206D6F746F722066756E6374696F6E82
:10024000004B25755725754725640A003C4E4F2005
:10025000464C4F41543E0075A7007597DE7597AD2B
:1002600075FF8075EF0675A71075C12075A700751D
:10027000A90075A900E5A930E7FB75A90375A903D5
:10028000E5A930E7FB43A41143A60175E10175E23E
:100290000075E341439C8575E341439C8575981047
:1002A000758DE6858D8B53890F438920D28ED29927
:1002B00075A71075980043A60175A2A875A3FD75D2
:1002C000A4FF75A5FF43F304D29AD2AF75C80043CB
:1002D0008E1075CAA875CBFD75CEFF75CFFFD2AD58
:1002E000D2CA75A70075A71075C00075D4FF75D563
:1002F000FF43F308D2C2D2AF75A70075820022C0B7
:10030000E0C002C003C0D075D00075A710C2C77589
:10031000D2C475D3FF7401252DF52DE4352EF52EAD
:1003200074D0B52D0A7407B52E05E4F52DF52EAA67
:100330002F7B00C3EA952DEB952E4004D2938002CB
:10034000C293AA307B00C3EA952DEB952E4004D2D0
:10035000948002C294D0D0D003D002D0E032AA82DE
:10036000438E407592B87593FF85929485939575E9
:1003700091047B00C3EB9A500BE59130E7FB53915E
:100380007F0B80F075910022AA82AB837C007D00F8
:10039000C3EC9AED9B502B7E00BE0400501D75826D
:1003A000FAC002C003C004C005C00612035ED00636
:1003B000D005D004D003D0020E80DE0CBC00D10DDD
:1003C00080CE22AA82AB83ACF0FD75A72075930C7A
:1003D00075C8107594008A188B198C1A8D1B90A201
:1003E0000075F04A74041212DAAA82AB83ACF0FDF5
:1003F000751818E4F519F51AF51B8A828B838CF0B1
:10040000ED1212DAAA82AB83ACF0FDE4C39AFAE4EF
:100410009BFB74019CE49D8A958B96D2C9439440C2
:1004200075A70022AA8275A72010C90280FB8A92B4
:1004300075A70022AA82AB83ACF08A828B838CF0F2
:10044000121250FD60188D82C002C003C004120455
:1004500024D004D003D0020ABA00DF0B80DC22755E
:10046000A72010C80280FB53C83F85928275A70061
:100470002275A7207A007B0020C82675A700758208
:1004800014C002C00312035ED003D00275A7200A75
:10049000BA00010BBAA8E1BB61DE75A70075820A3C
:1004A00022C2C853C83F85928275A70022AA82AB98
:1004B00083ACF07D008A068B078C00C002C003C0AD
:1004C00004C005C006C007C000120471A982D00094
:1004D000D007D006D005D004D003D002B90A0A8ACA
:1004E000828B838CF0E40216C1C3ED953250180D57
:1004F0008E828F8388F0E91216C1A3AE82AF838EFD
:10050000028F03880480B48A828B838CF0E4021605
:10051000C175A720A2C875A70022AA82AB837C0060
:100520007D00C3EC9AED9B50477E00BE040050391D
:10053000C002C003C004C005C006120511E433D0D8
:1005400006D005D004D003D0026001227582FAC023
:1005500002C003C004C005C00612035ED006D00569
:10056000D004D003D0020E80C20CBC00B50D80B206
:1005700022AA82AB83ACF0C002C003C004C002C098
:1005800003C0047437C0E07401C0E07480C0E0129E
:100590001624E58124FAF581C2A090000512038893
:1005A000D004D003D0028A828B838CF0120434757D
:1005B000321390007875F0401204AD90000A1203D7
:1005C00088D2A07478C0E07400C0E07440C0E074C9
:1005D00043C0E07401C0E07480C0E0121624E581DD
:1005E00024FAF58122C2A090000A120388900152D9
:1005F00075F08012043490000A12038853C83FD269
:10060000A0225389F0438901C28C2275A700C2EF52
:1006100075B28075BC2075B91E75E80075DF3F7531
:10062000B300D2EF22AA828518F005F0740180028F
:1006300025E0D5F0FBFB75A720BA0002800ABA01BD
:1006400002800FBA021E8014EBF4FA52F1EB42D48E
:100650008012EBF4FA52F2EB42D58008EBF4FA5236
:10066000F3EB42CC75A700228582BBC2EDD2EC3001
:10067000EDFD85BD8285BE83221206681213A3AAF2
:1006800082AB83ACF0FDC002C003C004C005906C17
:100690008B75F05374401214BDAA82AB83ACF0FD8D
:1006A000E58124FCF581E4C0E074FCC0E0747FC007
:1006B000E07446C0E08A828B838CF0ED121784AA26
:1006C00082AB83ACF0FDE58124FCF5818A828B83CB
:1006D0008CF0ED22C0E0C0D075D00075A710C29F8D
:1006E00085232374012524F5247401B52B06E4B574
:1006F0002C028002800BC3E5239525E524952692E4
:10070000B0E52B452C700BC3E5239525E5249526F4
:1007100092A5E52BE52CD0D0D0E032C0E0C0D0755A
:10072000D00075A700C2CF85272774012528F5289A
:100730007401B52B06E4B52C028002800BC3E527BB
:100740009529E528952A92B2E52B452C700BC3E537
:10075000279529E528952A92B7E52BE52CD0D0D00E
:10076000E032AA82AB83C28C5389F0438901C28CE8
:10077000758A00758C00C28DD28CC28C758A00750A
:100780008C00C28DD28C7C007D00308619108D02C9
:1007900080F80CBC00010DBC0AF0BD00EDC28C90CD
:1007A0000000E4F5F022C28C758A00758C00C28DC1
:1007B000D28C7C007D00208619108D0280F80CBC44
:1007C00000010DBC0AF0BD00EDC28C900000E4F504
:1007D000F022C28C758A00758C00C28D7C007D0071
:1007E000D28C7E008E077800C3EF9AE864808BF08D
:1007F00063F08095F050298C078D0030860C108DA9
:100800000280F80FBF00F40880F120860C108D02E2
:1008100080F80FBF00F40880F18F0488050E80C4B3
:10082000C28C8D038C027D007C00AF8C7E00EF3388
:1008300095E0F8F9EE2CFCEF3DFDE83AFAE93BFBD8
:10084000AE8AE4FF3395E0F8F9EE2CFCEF3DFDE8CD
:100850003AFAE93B8C828D838AF022AA82AB83AC80
:10086000F08A828B838CF0121250FD60188D82C04A
:1008700002C003C00412176FD004D003D0020ABA1A
:1008800000DF0B80DC2285823785833885F039F5DF
:100890003A900020E4F0E53A30E71B75822D1217FC
:1008A0006FC3E49537F537E49538F538E49539F5B5
:1008B00039E4953AF53A753B1FE4F53CA835A9367D
:1008C000C3E49537E49538E49539E46480853AF0DB
:1008D00063F08095F0E433FEC3E498E4648089F02B
:1008E00063F08095F0E433FF4E7003020980AE3B65
:1008F000AF3C153B74FFB53B02153CEE2400F53DC3
:10090000EF3400F53E85333FE534F5403395E0F5AF
:1009100041F542853F1885401985411A85421B855E
:1009200037828538838539F0E53AC000C001121658
:1009300045AE82AF83EE2460F582EF3401F583E4A7
:1009400093853D82853E83F0853F1885401985411A
:100950001A85421B8537828538838539F0E53A123E
:1009600015BD85823785833885F039F53AD001D0B9
:1009700000E84970030208C018B8FF01190208C056
:10098000E53B042400FAE43400FB7C008A828B837C
:100990008CF002085BAA82AB83ACF0FD7E007F0086
:1009A00078007900C3E49AE49BE49CE464808DF0D1
:1009B00063F08095F0504E8A188B198C1A8D1B901D
:1009C000000CE4F5F012126C121694AA82AB83AC00
:1009D000F0FDC002C003C004C0059093A475F0569A
:1009E0007450121784AA82AB83ACF0FDE58124FC1D
:1009F000F5818A828B838CF0ED1213DFAE82AF8398
:100A0000A8F0F9801990017175F080C006C007C088
:100A100000C00112085BD001D000D007D0068E8242
:100A20008F8388F0E922D2A675822812035EC2A6BF
:100A300022AA828AE0A2E79287A2E69290A2E59299
:100A400091A2E49292C002120A2675822812035ED5
:100A5000D0028AE0A2E39287A2E29290A2E1929170
:100A6000A2E09292020A26AA82D2A28A82120A31B5
:100A7000900002020388AA82C2A28A82120A3190DE
:100A80000005020388C2A690001412038875823301
:100A9000120A76758233120A76758232120A7675D8
:100AA0008228120A7675820C120A76758201120A61
:100AB00076900014020388758240120A767A007BD1
:100AC00000C3EA9408EB648094805020EA2407F580
:100AD00082EB3401F583E493F582C002C003120A6D
:100AE00067D003D0020ABA00D80B80D575824812AD
:100AF0000A767A007B00C3EA9408EB648094805005
:100B000020EA240FF582EB3401F583E493F582C0EB
:100B100002C003120A67D003D0020ABA00D80B80C1
:100B2000D5758250120A767A007B00C3EA9408EBEE
:100B3000648094805020EA2417F582EB3401F58319
:100B4000E493F582C002C003120A67D003D0020A00
:100B5000BA00D80B80D5758258120A767A007B00CD
:100B6000C3EA9408EB648094805020EA241FF58245
:100B7000EB3401F583E493F582C002C003120A67E7
:100B8000D003D0020ABA00D80B80D5758260120A51
:100B9000767A007B00C3EA9408EB6480948050204E
:100BA000EA2427F582EB3401F583E493F582C00251
:100BB000C003120A67D003D0020ABA00D80B80D54E
:100BC000758268120A767A007B00C3EA9408EB64A7
:100BD0008094805020EA242FF582EB3401F583E4E1
:100BE00093F582C002C003120A67D003D0020ABA8A
:100BF00000D80B80D5758283120A76758203120A9B
:100C000067758285120A76758203120A677582C437
:100C1000120A76758202120A679001F4120388752F
:100C20002F96900064120388D2957AFAEA244B50EA
:100C3000128A30900014C002120388D002EA24FB0A
:100C4000FA80E99003E81203887A96BAFA00501203
:100C50008A2F900014C002120388D00274052AFA69
:100C600080E99003E81203887AB4EA24A550128A36
:100C700030900014C002120388D002EA24FBFA80EC
:100C8000E9C295900096120388752FFA7530FAC262
:100C900095758283120A76758201120A67758285BC
:100CA000120A76758201120A677582C4120A767575
:100CB0008200020A67AA82AB83ACF0FD752B03E4C5
:100CC000F52CD2B7C2B2C2B0D2A5C002C003C004D4
:100CD000C005C047C048C049C04A7492C0E0740112
:100CE000C0E07480C0E0121624E58124F9F581E4A7
:100CF000C0E07464C0E0747AC0E07447C0E0854727
:100D0000828548838549F0E54A1213AFAE82E581BA
:100D100024FCF581D005D004D003D002EE7029C2A6
:100D2000B7D2B2D2B0C2A5900096C002C003C00430
:100D3000C005120388C2B7C2B2C2B0C2A5120AB7B8
:100D4000D005D004D003D00274CDC0E074CCC0E094
:100D5000C0E0743DC0E08A828B838CF0ED1213AF4B
:100D6000AA82E58124FCF581EA701CC2B7D2B2D216
:100D7000B0C2A590012C120388C2B7D2B2C2B0C2D1
:100D8000A59002EE02038874CDC0E074CCC0E0C030
:100D9000E0743DC0E08543828544838545F0E546A7
:100DA0001213AFAA82E58124FCF581EA700EC2B766
:100DB000D2B2C2B0C2A59002EE020388229001F422
:100DC0001203887498C0E07401C0E07480C0E0121F
:100DD0001624158115811581902580E4F5F0120304
:100DE000C31205E5120A8512060275180175820202
:100DF00012062575180375820212062512060B903D
:100E000001B875F0801205719001C175F08012056E
:100E1000719001CB75F0801205719001D575F0804D
:100E20001205719001DF75F0801205719001EB756C
:100E3000F0801205719001F575F080120571900136
:100E4000FF75F080120571758240120A767A007B78
:100E500000C3EA9408EB648094805020EA2407F5EC
:100E600082EB3401F583E493F582C002C003120AD9
:100E700067D003D0020ABA00D80B80D57582481219
:100E80000A767A007B00C3EA9408EB648094805071
:100E900020EA240FF582EB3401F583E493F582C058
:100EA00002C003120A67D003D0020ABA00D80B802E
:100EB000D5758250120A767A007B00C3EA9408EB5B
:100EC000648094805020EA2417F582EB3401F58386
:100ED000E493F582C002C003120A67D003D0020A6D
:100EE000BA00D80B80D5758258120A767A007B003A
:100EF000C3EA9408EB648094805020EA241FF582B2
:100F0000EB3401F583E493F582C002C003120A6753
:100F1000D003D0020ABA00D80B80D5758260120ABD
:100F2000767A007B00C3EA9408EB648094805020BA
:100F3000EA2427F582EB3401F583E493F582C002BD
:100F4000C003120A67D003D0020ABA00D80B80D5BA
:100F5000758268120A767A007B00C3EA9408EB6413
:100F60008094805020EA242FF582EB3401F583E44D
:100F700093F582C002C003120A67D003D0020ABAF6
:100F800000D80B80D5758283120A76758201120A09
:100F900067758285120A76758201120A677582C4A6
:100FA000120A76758200120A67C295C2959000C82F
:100FB00012076212099585825185835285F053F597
:100FC00054C051C052C053C054740DC0E07402C02C
:100FD000E07480C0E0748CC0E07400C0E07440C075
:100FE000E0121729E58124F6F58190008C75F04018
:100FF00012043490003212038875820E120679852D
:10100000825D85835E85F05FF560855D55855E5602
:10101000855F5785605875821012067985825D85D7
:10102000835E85F05FF560855D59855E5A855F5BFF
:1010300085605C1205114003020FAB7532149000FD
:101040007875F0401204AD751815751902751A807F
:1010500090007875F040121560E5828583F045F0C8
:10106000600302115F9001F41203889000051203DF
:1010700088752B03E4F52C75820E12067985825D46
:1010800085835E85F05FF560855D55855E56855F7D
:101090005785605875821012067985825D85835E5A
:1010A00085F05FF560855D59855E5A855F5B85607B
:1010B0005C9000C81207621209958582518583529F
:1010C00085F053F55485555D85565E85575F855887
:1010D00060AE59AF5AAA5BAB5C855182855283855D
:1010E00053F0E554C002C003C006C0071216948531
:1010F000824785834885F049F54AD007D006D0035A
:10110000D0028E438F448A458B46855D82855E83FF
:10111000855FF0E560120CB5120511400302106BFB
:101120007417C0E07402C0E07480C0E01216241589
:10113000811581158175321490007875F040120484
:10114000AD751815751902751A8090007875F04004
:10115000121560E5828583F045F0600302106B751F
:10116000181D751902751A8090007875F0401215D7
:1011700060E5828583F045F0701E120AB7741FC0C7
:10118000E07402C0E07480C0E0121624158115815D
:1011900015819001F4120388744FC0E07400C0E020
:1011A0007440C0E0744DC0E07400C0E07440C0E022
:1011B000744BC0E07400C0E07440C0E07441C0E013
:1011C0007402C0E07480C0E07478C0E07400C0E0D5
:1011D0007440C0E0121375E58124F1F581E54F45B7
:1011E00050700CC2A5C2B7752B01E4F52C8009C262
:1011F000B2C2B0E4F52BF52C854D25854E26749FA3
:10120000B54B0B7415B54C06754BFF754CFF74DE72
:10121000B54B0B7413B54C06754BFF754CFF74172B
:10122000B54B0B7402B54C06754BFF754CFF7456ED
:10123000B54B06E4B54C0280028006754BFF754C39
:10124000FF854B29854C2A900005120388020FABBD
:1012500020F71430F6148883A88220F507E6A883C7
:1012600075830022E280F7E49322E022AAF0FBE5F6
:10127000828518F0A4FCADF0E5838518F0A42DFD5F
:10128000E435F0FEE5828519F0A42DFDE5F03EFE83
:10129000E433FFEA8518F0A42EFEE5F03FFFE58376
:1012A0008519F0A42EFEE5F03FFFE582851AF0A433
:1012B0002EFEE5F03FFFEB8518F0A42FFFEA85191D
:1012C000F0A42FFFE583851AF0A42FFFE582851B8C
:1012D000F0A42F8EF08D838C8222FB7A20E4FCFD1B
:1012E000FEFFE5822582F582E58333F583E5F03361
:1012F000F5F0EB33FB4017DAE98042E5822582F511
:1013000082E58333F583E5F033F5F0EB33FBEC3323
:10131000FCED33FDEE33FEEF33FFEC9518ED951940
:10132000EE951AEF951B4013EC9518FCED9519FD01
:10133000EE951AFEEF951BFF438201DABEEB22AA5F
:1013400008AB09AC0A8A828B838CF0121250FA0522
:1013500008E4B5080205098A822285820885830986
:1013600085F00A850B71850C72850D73850E74905E
:10137000133F021AB3C00F85810FE50F24F8F574EF
:10138000E50F24FBF8860808860908860AE50F247D
:10139000F8F8867108867208867390133F121AB3A4
:1013A000D00F22E4AC83AB82FAF9748E021E64FF84
:1013B000A8811818121E8CD2D133E6400730E70BF3
:1013C0007582002220E70675820122C2D1121E6EAC
:1013D000E97003F5822220D101B3E433F5822212B1
:1013E0001EB7C3749E958240397900121EC930D150
:1013F00026E9F42401F582EAF43400F583EBF434B1
:1014000000F5F0ECF43400700AE582458345F07095
:101410000122E430E70F22EC20E71489828A838BD3
:10142000F02230D10AE4F582F583F5F0748022745D
:10143000FFF582F583F5F0747F22F9E5184519452B
:101440001A451B60777800C308E51B20E73BE518C9
:1014500025E0F518E51933F519E51A33F51AE51BFA
:1014600033F51BE5829518E5839519E5F0951AE9A2
:10147000951B50D4C3E51B13F51BE51A13F51AE5AC
:101480001913F519E51813F518E5829518FCE5838D
:101490009519FDE5F0951AFEE9951B4007F98EF0C8
:1014A0008D838C82C3E51B13F51BE51A13F51AE532
:1014B0001913F519E51813F518D8CEE922121F8E65
:1014C000BC0003021F2DEF60FA30D502B2D1E583D4
:1014D000B4FF03021F43E582B4FF03021F432583C9
:1014E00040072482400B021F2D2483145003021F47
:1014F00043F582EA8DF0A4A8F0EA8EF0A428F8E47F
:1015000035F0F9EB8DF0A428E935F0F9E433CA8F12
:10151000F0A429F9EA35F0FAEBF88EF0A429F9EAFB
:1015200035F0FAE433FBEC8DF0A429F9EA35F0FA52
:10153000E43BFBE88FF0A42AFAEB35F0FBE433CC74
:10154000FD8EF0A42AFAEB35F0FBE43CFCED8FF0C5
:10155000A42BFBEC35F0FC20E703121F5B021F0CF1
:10156000AA82AB83ACF0AD18AE19AF1A8A828B8316
:101570008CF0121250F87900C002C003C0048D82B2
:101580008E838FF0121250FA7B00E8C39AF8E99B21
:10159000F9881B891CD004D003D002E84970178D4C
:1015A000828E838FF0121250600C0ABA00010B0D6C
:1015B000BD00B90E80B6851B82851C8322FBC2D577
:1015C00030E715D2D5E4C39582F582E49583F5839F
:1015D000E495F0F5F0E49BFBE51B30E717B2D5E4AA
:1015E000C39518F518E49519F519E4951AF51AE458
:1015F000951BF51BEB1212DA30D513FBE4C3958271
:10160000F582E49583F583E495F0F5F0E49B2202FE
:10161000176F85826F85837085F0718517729016BC
:101620000F022045C00F85810FE50F24FBF572E501
:101630000F24FBF8866F08867008867190160F12CB
:101640002045D00F22F9C2D530E715D2D5E4C39595
:1016500082F582E49583F583E495F0F5F0E499F959
:10166000E51B30E715E4C39518F518E49519F5194D
:10167000E4951AF51AE4951BF51BE912143A30D5D6
:1016800012E4C39582F582E49583F583E495F0F541
:10169000F0E49922FCABF0AA83A982749EF582C281
:1016A000D1EC30E716D2D1E9F42401F9EAF43400A0
:1016B000FAEBF43400FBECF43400FC121F5B021F65
:1016C0000C20F71030F6118883A88220F507F6A8C1
:1016D0008375830022F280F7F022AA82AB10AC114E
:1016E000AD128B828C838DF0EA1216C10510E4B521
:1016F000100205112285821085831185F012851351
:101700006F8514708515718516729016DA12204552
:10171000AA82AB83AC10AD11AE128C828D838EF099
:10172000E41216C18A828B8322C00F85810FE50FD8
:1017300024F8F572E50F24FBF88610088611088658
:1017400012E50F24F8F8866F0886700886719016E7
:10175000DA122045AA82AB83AC10AD11AE128C8296
:101760008D838EF0E41216C18A828B83D00F22AA59
:1017700082BA0A0810990280FB75990D10990280AF
:10178000FB8A9922121F8E30D502B2D1BF0009BC4C
:101790000003021F50021F43BC0003021F2DE583FC
:1017A000B4FF0BE582B4FF03021F50021F2DE58238
:1017B000B4FF03021F43C395835007247F400B02ED
:1017C0001F2D2480145003021F43C0E0E4CCCBCA79
:1017D000F98D188E198F1AEF54F0C4F51B75830616
:1017E000851BF0EB84F582E9C4F9EAC4FAEBC4FB8B
:1017F000EC540FC47803D6FC18EBD6FB18EAD6FAE3
:101800008582F0EDA4A8F0FD8582F0EEA428FEE428
:1018100035F0F88582F0EFA428FFE435F0F8E99D73
:10182000F9EA9EFAEB9FFBEC98FCAD18AE19AF1AE3
:1018300030E7101582E92DF9EA3EFAEB3FFBE43C74
:10184000FC80EDC082D58398C3E933F9EA33FAEB23
:1018500033FBEC33FCC3E99DEA9EEB9FEC9400B3B1
:10186000E413F9D002D0E0C44AFAD003D0E0C44B6C
:10187000FBD004D0E0F5F0540FC44CFCD0821582AC
:1018800030F40FD3EC13FCEB13FBEA13FAE913F972
:101890000582E930E70A74012AFAE43BFBE43CFCE8
:1018A000021F248561828562831225DC858270E5B2
:1018B00070600A056AE4B56A06056B8002D203858A
:1018C0007082227A007B0030030578A6760022C061
:1018D00002C0031218A3AC82D003D002BC00028065
:1018E0002DBC08028014BC09028023BC0A02801EA1
:1018F000BC0D028019BC20218014EA4B60D11ABAB9
:10190000FF011B156A74FFB56A02156B80C1EA4BB3
:1019100060BDEA24A6F8760022EC7009EA24A6F855
:101920007600D20322ECB56F07EA24A6F8760022EF
:10193000C3EA940FEB940050968A058B060ABA000E
:10194000010BED24A6F8A6040218CFAA827B7FC360
:10195000EA648094B0401174B98AF063F08095F025
:101960004006EA24D0FB8030C3EA648094C1401171
:1019700074C68AF063F08095F0400674C92AFB8033
:1019800017C3EA648094E1400F74E68AF063F08044
:1019900095F0400474A92AFBC3EB956C50038B822D
:1019A0002275827F22AA82756600756700756800BD
:1019B0007569008A00E6FA60148A82C00012194B29
:1019C000AB82D000C3EB956C40030880E886038BA4
:1019D00082C00012194BAA82D000C3E56C9A405015
:1019E000856C18751900751A00751B00856682854F
:1019F00067838568F0E569C002C00012126CAB8293
:101A0000AC83ADF0FED000D0028B668C678D688E03
:101A100069E4FBFCFDEA2566FAEB3567FBEC35680B
:101A2000FCED3569FD8A668B678C688D6908809D41
:101A30008566828567838568F0E56922AA82756676
:101A4000007567007568007569008A00E6FB602212
:101A50008B82C003C00012194BAC82D000D003C3EC
:101A6000EC956C400DBB2D028008BB2B0280030857
:101A700080DA88028603BB2D03D38001C39206BBA4
:101A80002D028003BB2B010A8A821219A53006138E
:101A9000C3E49566FAE49567FBE49568FCE4956910
:101AA000FD8008AA66AB67AC68AD698A828B838CBF
:101AB000F0ED22858261858362E4F56AF56BF56E4F
:101AC000C203AA71AB72AC738A828B838CF0121240
:101AD00050FD74012AF571E43BF5728C73EDFA70D8
:101AE00003021E52BA25028003021DEBD202C2007D
:101AF000756C00756D00C204C205AB71AC72AD733C
:101B00008B828C838DF0121250FAA3AB82AC838B44
:101B1000718C728D738B828C838DF0121250F56FE5
:101B20008A06BE300040168A06EE24C6400FE56DD8
:101B300075F00AA4FEEA24D02EF56D80C38A06BE95
:101B40006100400A8A06EE248540035302DFBA256D
:101B50000280ADBA2A028045BA42028036BA4302F8
:101B60008040BA4403021C66BA4903021C66BA4CA0
:101B7000028025BA4E03021C79BA4F03021C6BBACD
:101B800053028020BA5503021C64BA5803021C7227
:101B9000021CA1D200021B00D201021B00D20402CF
:101BA0001B00D205200417E57424FDF88874860311
:101BB00008860408860518188B638C648D65E56DAE
:101BC000700B3005047B0180027BFF8B6D756C0010
:101BD000C3E56C956D50051218A3AA82300307E582
:101BE0006C7003021CA1EA601ABA2002800DBA09C7
:101BF000028008BA0D028003BA0A03300505E56DBC
:101C0000B56C1FE56C60C9200412056EAB63AC6453
:101C1000AD658B828C838DF0E41216C1756C000269
:101C20001CA1BA081CE56C60A7200411AB63AC646E
:101C3000AD651BBBFF011C8B638C648D65156C80CF
:101C40008F20041BAB63AC64AD658B828C838DF0FD
:101C5000EA1216C10BBB00010C8B638C648D650509
:101C60006C021BD0C202756C0A8036C202756C0809
:101C7000802FC202756C108028E57424FDF88874EA
:101C8000860308860408860518188B638C648D65A6
:101C90008B828C838DF0E56A1216C1A3E56B121658
:101CA000C1E56C7003021DEB1218C378A6E6700341
:101CB000021DEB300403021DEBE57424FDF888746B
:101CC000860308860408860518188B638C648D6566
:101CD000056E200203021D6430013585637585643D
:101CE000768565777582A6121A3CAE82AF83ABF01B
:101CF000FC8575828576838577F0EE1216C1A3EF99
:101D00001216C1A3EB1216C1A3EC1216C1021DEBF1
:101D10003000268563758564768565777582A612A1
:101D20001A3CAE82AF83ABF0FC85758285768385E5
:101D300077F0EE1216C1021DEB856375856476851A
:101D400065777582A6121A3CAE82AF83ABF0FC8534
:101D500075828576838577F0EE1216C1A3EF121691
:101D6000C1021DEB30013485637585647685657726
:101D70007582A61219A5AE82AF83ABF0FC85758281
:101D80008576838577F0EE1216C1A3EF1216C1A3F4
:101D9000EB1216C1A3EC1216C180503000258563EA
:101DA000758564768565777582A61219A5AE82AFB2
:101DB00083ABF0FC8575828576838577F0EE12160D
:101DC000C180288563758564768565777582A612DE
:101DD00019A5AE82AF83ABF0FC85758285768385CD
:101DE00077F0EE1216C1A3EF1216C1200303021AF8
:101DF000C2AB71AC72AD738B828C838DF0121250BA
:101E0000FEA3AB82AC838B718C728D73EEFA700380
:101E1000021AC2BA25E18B828C838DF0121250FA1D
:101E2000BA6E028003BA4ECFE57424FDF88874863A
:101E30000208860608860718188A638E648F658AEA
:101E4000828E838FF0E56A1216C1A3E56B1216C16C
:101E500080A5AA6E7B008A828B8322FCABF0AA83CA
:101E6000A982749EC2D1F582121F5B021F0C7901F8
:101E7000AA82E68F82B5821318E6B5F00E18E6B591
:101E8000830918E68A82B58202790022B4800FE5C0
:101E9000F0700AE5837006E58270027F00EFB6807D
:101EA0001518B6001018B6000B18B600060808087A
:101EB00076002208080822AA82AB83A2F73392D1C7
:101EC0006002D2F7F582ACF0226040F82582500221
:101ED00074FFF582E824F8501ECCCBCAF9E4CC2478
:101EE000F85014CBCAF9E4CB24F8500BCAF9E4CA71
:101EF00024F8500379002224086010F8C3EC13FC86
:101F0000EB13FBEA13FAE913F9D8F122B98003EADB
:101F100013B34010EA2401FAE43BFBE43CFC500418
:101F20007C800582BC000EBB000BBA0008E4F5F013
:101F3000F583F58222A2D1E582138CF092F78B8390
:101F40008A8222E4F583F58275F080F4A2D113220F
:101F5000E4F583F58275F0C0747F227804EC70118B
:101F6000E58224F8500AF582E4C9CACBFCD8EF22F6
:101F7000EC7820058220E713D5820122C3E933F9EA
:101F8000EA33FAEB33FBEC33FCD8EA158222AA825F
:101F9000AB83A2F73392D16002D2F7F582ACF0E5C1
:101FA0008124F9F8E6FD08E6FE0886F008E6A2F7C7
:101FB0003392D56002D2F7F583AFF022AA8274CDB6
:101FC000C0E0741FC0E0C061C0628A82220568E47C
:101FD000B56802056922AA8274302AFA24C6500A1A
:101FE00074072AFA3007034302208A82021FBCE5E5
:101FF00082FAC4540FF582C002121FD6D002740FA9
:102000005AF582021FD6AA63AB64AC65AD66AE67B3
:10201000756E20EE2EFEED235401FF4206EA2AFAE9
:10202000EB33FBEC33FCED33FDC3EE956A4008EE79
:10203000C3956AFE430201D56ED98A638B648C65B1
:102040008D668E6722858261858362E4F568F56915
:10205000AA6FAB70AC718A828B838CF0121250FD28
:1020600074012AF56FE43BF5708C71EDFA70030290
:1020700025D5BA250280030225CDC20BC20CC20DA4
:10208000C20EC20FC210C211C212C208C209C20AD5
:10209000756A00756B00756CFFAB6FAC70AD718BC2
:1020A000828C838DF0121250FAA3AB82AC838B6FBB
:1020B0008C708D71BA25078A82121FBC80928A06A5
:1020C000BE3000402E8A06EE24C6402774FFB56C51
:1020D00013E56B75F00AA4FEEA24D02EF56B70BFF1
:1020E000D20C80BBE56C75F00AA4FEEA24D02EF574
:1020F0006C80ACBA2E0A74FFB56CA4756C00809F1E
:102100008A06BE6100400E8A06EE2485400753020F
:10211000DFD2078002C207BA20028075BA23030209
:1021200021A0BA2A030221A5BA2B02805FBA2D0290
:102130008055BA4202805FBA43030221EABA4403DF
:10214000022325BA450302233FBA460302233BBAC2
:102150004703022343BA4903022325BA4C02803BBA
:10216000BA4E03022347BA4F0302232CBA5003028C
:1021700022BEBA530302220EBA5503022331BA58C3
:1021800003022336022371D20B02209FD20D0220BC
:102190009FD20E02209FD21002209FD21102209FB8
:1021A000D21202209F74FFB56C2030100BE5721420
:1021B000F88872866B02209FE57224FEF88872868A
:1021C00006088607188E6B02209F30100BE57214EC
:1021D000F88872866C02209FE57224FEF888728669
:1021E00006088607188E6C02209F30100AE57214CC
:1021F000F888728602800FE57224FEF888728603E2
:10220000088604188B028A82121FBC022376E572AC
:1022100024FDF88872860308860408860518188B42
:10222000638C648D658B828C838DF01225DEAB828E
:10223000AC838B6D74FFB56C03856D6C200B1DC377
:10224000E56D956B5016E56BC3956DF56BAB6B1536
:102250006BEB6008758220121FBC80F1856382855C
:1022600064838565F0121250FBFA6029AB6C156C23
:10227000C3E464808BF063F08095F050188A82127A
:102280001FBCAB63AC64AD650BBB00010C8B638CF6
:10229000648D6580C7200B03022376C3E56D956BC3
:1022A0004003022376E56BC3956DF56BAB6B156B45
:1022B000EB7003022376758220121FBC80EEE5725C
:1022C00024FDF88872860308860408860518188B92
:1022D000638C648D65E565FB30E7047A438013EB1E
:1022E000546060047A50800AEB30E6047A49800238
:1022F0007A588A82C002121FBC75823A121FBC75BE
:102300008230121FBC758278121FBCD002BA4902FB
:10231000800BBA50028006856482121FEF856382AB
:10232000121FEF8051D20F756A0A804A756A0880C1
:1023300045756A0A8040756A10803BD2088037D2A2
:10234000098033D20A802FE57224FDF88872860353
:1023500008860408860518188B638C648D658B824B
:102360008C838DF0E5681216C1A3E5691216C18051
:10237000058A82121FBC200806200903300A5AE58C
:102380007224FCF88872860308860408860508868D
:10239000061818188B638C648D658E6675634C7592
:1023A00064027565808563738564748565757401E1
:1023B0002573FEE43574FFAB758E638F648B658582
:1023C00073828574838575F0121250FBFA700302D4
:1023D00020508A82121FBC80CCE56A700302205014
:1023E0007BA530102BE57214F88872E6FC3395E07B
:1023F000FDFEFF8C638D648E658F66200F5EAC637F
:102400007D007E007F008C638D648E658F66804CBE
:1024100030111FE57224FCF88872860408860508CE
:1024200086060886071818188C638D648E658F667B
:10243000802AE57224FEF88872860408860518ED65
:102440003395E0FEFF8C638D648E658F66200F0CE4
:10245000AC63AD647E007F008E658F66301243E50D
:102460006345644565456660397408B56A0C7582D4
:1024700030C003121FBCD00380287410B56A2375C6
:102480008230C003121FBCD00330070C758278C0A5
:1024900003121FBCD003800A758258C003121FBCF0
:1024A000D003300F25AC63AD64AE65E566FF30E761
:1024B00017C3E49CFCE49DFDE49EFEE49FFF8C6357
:1024C0008D648E658F668002C20F756D00D2138B8E
:1024D00000756700C000122006D00020130DE567CC
:1024E000C4FCE6FD4CF61888038002A667056DB2B1
:1024F00013E56345644565456670D68803E56B70F2
:1025000003756B01200C1A200B17E56D04FCC395B5
:102510006B500E758220C003121FBCD003156B8058
:10252000E9300F0E75822DC003121FBCD003156B4E
:102530008024E56D6020300D0E75822BC003121FC4
:10254000BCD003156B800F300E0C758220C00312B7
:102550001FBCD003156B200B1EAC6B156BC3E56D58
:102560009C5027300C047C3080027C208C82C0037D
:10257000121FBCD00380E2C3E56D956B5009E56B7B
:10258000C3956DF56B8003756B008B00AB6D156D9E
:10259000EB6022B21320130A08E6C4540FFB8B67CA
:1025A00080078603740F5BF567856782C000121F82
:1025B000D6D00080D7200B03022050AB6B156BEBFD
:1025C0007003022050758220121FBC80EE8A821296
:1025D0001FBC02205085688285698322E473AA8229
:1025E000AB83ACF07D007E008A828B838CF012126C
:1025F00050FFA3AA82AB83EF60070DBD00EA0E80F7
:10260000E78D828E832200000000000000000000A1
:00000001FF
