:1000000002008EE4F523F5247525FF7526FFE4F53F
:1000100027F5287529FF752AFFE4F52BF52CE4F563
:100020002DF52E22000000000000000206B700009F
:100080000000000000000000000000020670758102
:10009000BF120268E58260030200FA780079007AF4
:1000A000007B007C007D00EC4D601C88828983E42D
:1000B00093A3A882A9838A828B83F0A3AA82AB83AD
:1000C0001CBCFFE31D80E07582007583007C237DEE
:1000D00000EC4D600AE4F0A31CBCFFF51D80F27536
:1000E00082007583007C007D00EC4D600AE4F0A383
:1000F0001CBCFFF51D80F2120003120F3E80FE04AF
:10010000040A110A040400436F6D6D616E643A20A5
:10011000257300526573706F6E73653A2025730DF9
:100120000A0041542B44564944303030300D0A0007
:10013000303132333435363738394142434445461D
:1001400000206600203D2000487A002044494D45AB
:1001500000204E49434B454C00204C4F4F4E4945E3
:10016000000D0A45464D384C423132204A44592D43
:10017000343020536C61766520546573742E0D0AFB
:100180000041542B5645520D0A0041542B42415513
:10019000440D0A0041542B524649440D0A00415473
:1001A0002B445649440D0A0041542B5246433132E8
:1001B000300D0A0041542B504F57450D0A00415451
:1001C0002B434C53530D0A0041542B44564944468B
:1001D0004646460D0A00256C640041006D6963685F
:1001E000656C6C6520616E642078696E7969207336
:1001F000697474696E6720696E2061207472656528
:100200000A0D005325645425640070776D5F647592
:10021000747934203D2025752070776D5F64757486
:100220007933203D20257520616463776865656CAE
:10023000313D257520616463776865656C323D25C5
:1002400075207370656564203D2025642073746596
:100250006572696E67203D202564000A003C4E4FA0
:1002600020464C4F41543E0075A7007597DE7597A8
:10027000AD75FF8075EF0675A71075C12075A700D5
:1002800075A90075A900E5A930E7FB75A90375A953
:1002900003E5A930E7FB43A41143A60175E101750D
:1002A000E20075E341439C8575E341439C85759865
:1002B00010758DE6858D8B53890F438920D28ED2A0
:1002C0009975A71075980043A60175A2A875A3FD9E
:1002D00075A4FF75A5FF43F304D29AD2AF75C80089
:1002E000438E1075CAA875CBFD75CEFF75CFFFD2B2
:1002F000ADD2CA75A70075820022AA82438E4075CE
:1003000092B87593FF8592948593957591047B00BF
:10031000C3EB9A500BE59130E7FB53917F0B80F0D4
:1003200075910022AA82AB837C007D00C3EC9AED1C
:100330009B502B7E00BE0400501D7582FAC002C087
:1003400003C004C005C0061202FAD006D005D004CE
:10035000D003D0020E80DE0CBC00D10D80CE22AACC
:1003600082AB83ACF0FD75A72075930C75C8107532
:1003700094008A188B198C1A8D1B90A20075F04A74
:10038000740412135EAA82AB83ACF0FD751818E4F6
:10039000F519F51AF51B8A828B838CF0ED12135E2A
:1003A000AA82AB83ACF0FDE4C39AFAE49BFB740130
:1003B0009CE49D8A958B96D2C943944075A70022F0
:1003C000AA8275A72010C90280FB8A9275A7002215
:1003D000AA82AB83ACF08A828B838CF01212D4FD9C
:1003E00060188D82C002C003C0041203C0D004D0C4
:1003F00003D0020ABA00DF0B80DC2275A72010C8E8
:100400000280FB53C83F85928275A7002275A72002
:100410007A007B0020C82675A700758214C002C030
:10042000031202FAD003D00275A7200ABA00010B0A
:10043000BAA8E1BB61DE75A70075820A22C2C85363
:10044000C83F85928275A70022AA82AB83ACF07D5B
:10045000008A068B078C00C002C003C004C005C020
:1004600006C007C00012040DA982D000D007D00634
:10047000D005D004D003D002B90A0A8A828B838CBB
:10048000F0E40217B8C3ED953050180D8E828F83BB
:1004900088F0E91217B8A3AE82AF838E028F03886B
:1004A0000480B48A828B838CF0E40217B875A7208D
:1004B000A2C875A70022AA82AB837C007D00C3EC92
:1004C0009AED9B50477E00BE04005039C002C00325
:1004D000C004C005C0061204ADE433D006D005D078
:1004E00004D003D0026001227582FAC002C003C0AA
:1004F00004C005C0061202FAD006D005D004D0030D
:10050000D0020E80C20CBC00B50D80B222AA82AB14
:1005100083ACF0C002C003C004C002C003C00474B6
:1005200007C0E07401C0E07480C0E012171BE581D1
:1005300024FAF581C2A0900005120324D004D00350
:10054000D0028A828B838CF01203D0753013900016
:100550007A75F04012044990000A120324D2A07464
:100560007AC0E07400C0E07440C0E07413C0E0746E
:1005700001C0E07480C0E012171BE58124FAF58108
:1005800022C2A090000A12032490012275F080126A
:1005900003D090000A12032453C83FD2A0225389EB
:1005A000F0438901C28C2275A700C2EF75B2807535
:1005B000BC2075B91E75E80075DF3F75B300D2EF3A
:1005C00022AA828518F005F07401800225E0D5F09A
:1005D000FBFB75A720BA0002800ABA0102800FBA9D
:1005E000021E8014EBF4FA52F1EB42D48012EBF4C9
:1005F000FA52F2EB42D58008EBF4FA52F3EB42CC1C
:1006000075A700228582BBC2EDD2EC30EDFD85BD21
:100610008285BE8322120604121427AA82AB83AC01
:10062000F0FDC002C003C004C005906C8B75F05390
:1006300074401215A5AA82AB83ACF0FDE58124FCC1
:10064000F581E4C0E074FCC0E0747FC0E07446C093
:10065000E08A828B838CF0ED121888AA82AB83AC7F
:10066000F0FDE58124FCF5818A828B838CF0ED22FC
:10067000C0E0C0D075D00075A710C29F8523237439
:10068000012524F5247401B52B06E4B52C02800263
:10069000800BC3E5239525E524952692B0E52B45EF
:1006A0002C700BC3E5239525E524952692A5E52B13
:1006B000E52CD0D0D0E032C0E0C0D075D00075A716
:1006C00000C2CF85272774012528F5287401B52B92
:1006D00006E4B52C028002800BC3E5279529E528A6
:1006E000952A92B2E52B452C700BC3E5279529E599
:1006F00028952A92B7E52BE52CD0D0D0E032AA82FB
:10070000AB838A18EBF5193395E0F51AF51B90FFCA
:10071000FFE4F5F01212F07518FF751903751A0051
:10072000751B0002135EAA82AB8378A2E531240414
:10073000F6E53234FE08F6EA2408F582EB34FEF5DD
:1007400083121648AA82AB8378A28682088683C069
:1007500002C003121648AE82AF83D003D002C3EAB0
:100760009403EB64809480E433F5396041C3EE94E4
:1007700003EF64809480503685333A85343B853569
:100780003C853A82853B83853CF0E41217B8A3E4AC
:100790001217B885363A85373B85383C853A8285CD
:1007A0003B83853CF0E41217B8A3E40217B8C006F7
:1007B000C00778A28682088683C002C0031218662A
:1007C000AE82AF83ACF0FDC006C007E4C0E0C0E07D
:1007D00074FEC0E07443C0E08E828F838CF0ED1213
:1007E000188878A4A68208A68308A6F008F6E581F2
:1007F00024FCF581E4C0E0C0E07480C0E0743FC038
:10080000E078A486820886830886F008E61214330E
:10081000AC82E58124FCF581D007D006D003D0025C
:10082000D007D006EC600D78A47600087600087634
:100830008008763FC006C0078A828B83C002C0034F
:10084000121866AC82AD83AEF0FF78A4E6C0E00873
:10085000E6C0E008E6C0E008E6C0E08C828D838E4A
:10086000F0EF1215A5AC82AD83AEF0FFE58124FC5C
:10087000F5818C828D838EF0EFC006C00712146361
:10088000AC82AD83D007D006D003D002EC2AFEEDB7
:100890003BFF900000EEF0A3EFF078A8EAC39CF6CF
:1008A000EB9D08F6C374FB9E74818FF063F0809516
:1008B000F0D007D006500A90000074FBF0A374013A
:1008C000F0900000E0FAA3E0FB30E707900000E4BE
:1008D000F0A3F078A8C374FB9674810886F063F0E7
:1008E0008095F0500778A876FB08760178A9E63065
:1008F000E70678A8E4F608F6E5397003020981C333
:1009000074039EE464808FF063F08095F0507278F9
:10091000A274FB26FA74010836FB900000EAF0A3EB
:10092000EBF078A279A874FBC396F77401089609D6
:10093000F7C374FB9A74818BF063F08095F0500AD2
:1009400090000074FBF0A37401F0900000E0FAA3A3
:10095000E0FB30E707900000E4F0A3F078A8C37450
:10096000FB9674810886F063F08095F0500778A8B4
:1009700076FB08760178A9E630E70678A8E4F60861
:10098000F685333A85343B85353C900000E0FDA385
:10099000E08D18F5193395E0F51AF51B9003FFE487
:1009A000F5F01212F07518FB751901751A00751B18
:1009B000001216B4AA82AB83853A82853B83853CBC
:1009C000F0EA1217B8A3EB1217B885363A85373B11
:1009D00085383C78A88618088619E63395E0F51A1C
:1009E000F51B9003FFE4F5F01212F07518FB751972
:1009F00001751A00751B001216B4AA82AB83853AE2
:100A000082853B83853CF0EA1217B8A3EB0217B846
:100A1000AA82AB83C28C5389F0438901C28C758A48
:100A200000758C00C28DD28CC28C758A00758C00CA
:100A3000C28DD28C7C007D00308619108D0280F82A
:100A40000CBC00010DBC0AF0BD00EDC28C90000092
:100A5000E4F5F022C28C758A00758C00C28DD28CB0
:100A60007C007D00208619108D0280F80CBC0001EE
:100A70000DBC0AF0BD00EDC28C900000E4F5F02240
:100A8000C28C758A00758C00C28D7C007D00D28C72
:100A90007E008E077800C3EF9AE864808BF063F0E5
:100AA0008095F050298C078D0030860C108D0280C7
:100AB000F80FBF00F40880F120860C108D0280F83A
:100AC0000FBF00F40880F18F0488050E80C4C28C2B
:100AD0008D038C027D007C00AF8C7E00EF3395E0AF
:100AE000F8F9EE2CFCEF3DFDE83AFAE93BFBAE8A63
:100AF000E4FF3395E0F8F9EE2CFCEF3DFDE83AFA1F
:100B0000E93B8C828D838AF022AA82AB83ACF08A87
:100B1000828B838CF01212D4FD60188D82C002C0CB
:100B200003C004121873D004D003D0020ABA00DF45
:100B30000B80DC2285824185834285F043F5449019
:100B40000022E4F0E54430E71B75822D121873C3D0
:100B5000E49541F541E49542F542E49543F543E4DB
:100B60009544F54475451FE4F546A83FA940C3E404
:100B70009541E49542E49543E464808544F063F054
:100B80008095F0E433FEC3E498E4648089F063F078
:100B90008095F0E433FF4E7003020C2EAE45AF4655
:100BA000154574FFB545021546EE2402F547EF34AE
:100BB00000F548853D49E53EF54A3395E0F54BF5AE
:100BC0004C854918854A19854B1A854C1B854182ED
:100BD0008542838543F0E544C000C00112173CAE56
:100BE00082AF83EE2430F582EF3401F583E4938500
:100BF0004782854883F0854918854A19854B1A85AF
:100C00004C1B8541828542838543F0E5441216B42E
:100C100085824185834285F043F544D001D000E8C8
:100C2000497003020B6E18B8FF0119020B6EE545FF
:100C3000042402FAE43400FB7C008A828B838CF06B
:100C4000020B09AA82AB83ACF0FD7E007F00780026
:100C50007900C3E49AE49BE49CE464808DF063F043
:100C60008095F04003020D258A188B198C1A8D1B74
:100C700090000CE4F5F01212F012178BAA82AB83ED
:100C8000ACF0FDC002C003C004C0059093A475F091
:100C9000567450121888AA82AB83ACF0FDE581240B
:100CA000FCF5818A828B838CF0ED1214C7AE82AF83
:100CB00083A8F0F990014175F080C006C007C0001C
:100CC000C001120B09AA4DE54EFB3395E0FCFD7502
:100CD0003D0AE4F53E753F01E4F5408A828B838C42
:100CE000F0ED120B3490014475F080120B09D00125
:100CF000D000D007D006753D0AE4F53E753F07E405
:100D0000F5408E828F8388F0E9C006C007C000C01E
:100D100001120B3490014875F080120B09D001D0FC
:100D200000D007D0068E828F8388F0E922AA82AB9A
:100D300083ACF0FDC3EA94ECEB94DBEC9400ED643F
:100D40008094805003020DD1C3EA9488EB94DBECCD
:100D50009400ED648094804027EA9450EB94DCEC9E
:100D60009400ED648094805017744BC0E07401C00F
:100D7000E07480C0E012171B158115811581804D2C
:100D8000C3EA9450EB94DCEC9400ED6480948040D2
:100D900027EA947CEB94DDEC9400ED648094805021
:100DA000177451C0E07401C0E07480C0E012171BDA
:100DB00015811581158180157459C0E07401C0E05A
:100DC0007480C0E012171B158115811581900001F8
:100DD0002290000022AA82AB83ACF0FD752B03E4C5
:100DE000F52CD2B7C2B2C2B0D2A574CDC0E074CCDB
:100DF000C0E0C0E0743DC0E08A828B838CF0ED12CD
:100E00001497AA82E58124FCF581EA704AC2B7D220
:100E1000B2D2B0C2A59005DC120324E52D452E7098
:100E200015C2B7D2B2C2B0C2A59005DC12032475B8
:100E30002D01E4F52E227401B52D06E4B52E0280B5
:100E4000028014C2B7C2B2D2B0C2A59005DC1203B0
:100E500024E4F52DF52E2274CDC0E074CCC0E0C0A2
:100E6000E0743DC0E0854F828550838551F0E552A6
:100E7000121497AA82E58124FCF581EA702EE52DF3
:100E8000452E700EC2B7D2B2C2B0C2A59005DC0228
:100E900003247401B52D06E4B52E02800122C2B7E9
:100EA000C2B2D2B0C2A59005DC02032422D2A07542
:100EB00082281202FAC2A022AA828AE0A2E79290B5
:100EC000A2E69291A2E59292A2E49293C002120E3F
:100ED000AD7582281202FAD0028AE0A2E39290A2B3
:100EE000E29291A2E19292A2E09293020EADAA82C6
:100EF000D2978A82120EB8900002020324AA82C2FC
:100F0000978A82120EB8900005020324C2A09000B6
:100F100014120324758233120EFD758233120EFDF6
:100F2000758232120EFD758228120EFD75820C122A
:100F30000EFD758201120EFD900014020324900133
:100F4000F41203247461C0E07401C0E07480C0E056
:100F500012171B158115811581902580E4F5F0127B
:100F6000035F120581120F0C12059E751801758220
:100F7000021205C17518037582021205C11205A778
:100F800090018175F08012050D90018A75F0801234
:100F9000050D90019475F08012050D90019E75F07D
:100FA0008012050D9001A875F08012050D9001B416
:100FB00075F08012050D9001BE75F08012050D9040
:100FC00001C875F08012050D758240120EFD758204
:100FD00000120EEE758200120EEE758200120EEEF9
:100FE000758211120EEE758215120EEE75820A12BE
:100FF0000EEE758200120EEE758200120EEE7582F4
:1010000048120EFD758200120EEE75820E120EEE63
:10101000758219120EEE758219120EEE75821F126C
:101020000EEE758217120EEE75820E120EEE75829E
:1010300000120EEE758256120EFD7A007B00C3EA96
:101040009408EB648094805020EA24FFF582EB340E
:1010500000F583E493F582C002C003120EEED003C4
:10106000D0020ABA00D80B80D5758289120EFD75A0
:101070008200120EEE75828B120EFD758200120E2A
:10108000EE7582CA120EFD758201120EEE9000C836
:10109000120A10AA82AB83ACF0FD754D01E4F54E47
:1010A0008A828B838CF0ED120C43AA82AB83ACF066
:1010B000FDC002C003C004C005120D2DE58285836A
:1010C000F0D005D004D003D00245F06042EA2428D5
:1010D000FAEB3429FBEC34FFFCED34FFFDC002C019
:1010E00003C004C00574D6C0E07401C0E07480C0C1
:1010F000E0748EC0E07400C0E07440C0E0121820BC
:10110000E58124F6F58190008E75F0401203D075CC
:10111000820E120615AA82AB83ACF0FD8A5B8B5C53
:101120008C5D8D5E758210120615AA82AB83ACF0C1
:10113000FD8A5F8B608C618D621204AD40030212E8
:10114000C875301490007A75F0401204497518DAA9
:10115000751901751A8090007A75F040121657E5DE
:10116000828583F045F060030211FB9001F41203C5
:1011700024752B03E4F52C75820E120615AA82AB9A
:1011800083ACF0FD8A5B8B5C8C5D8D5E758210128A
:101190000615AA82AB83ACF0FD8A5F8B608C618DF3
:1011A000628A4F8B508C518D52855B82855C838522
:1011B0005DF0E55E120DD574DCC0E07401C0E07432
:1011C00080C0E012171B1581158115811204AD50E6
:1011D000A075301490007A75F0401204497518DA41
:1011E000751901751A8090007A75F040121657E54E
:1011F000828583F045F060030211717455C0E0747C
:1012000000C0E07440C0E07453C0E07400C0E074FB
:1012100040C0E07403C0E07402C0E07480C0E074B9
:101220007AC0E07400C0E07440C0E01213F9E581B8
:1012300024F4F581C3E55394F7E554648094815018
:101240000CC2A5C2B7752B01E4F52C8009C2B2C24D
:10125000B0E4F52BF52C75335775340075354075B2
:101260003659753700753840855531855632855366
:10127000828554831207268557828558831206FE7D
:10128000858225858326855982855A831206FE85A7
:10129000822985832AC055C056C053C054C059C046
:1012A0005AC057C058C029C02AC025C026740AC0D9
:1012B000E07402C0E07480C0E012171BE58124F1E5
:1012C000F58190000512032490025B75F080120BEB
:1012D0000902108D20F71430F6148883A88220F5B7
:1012E00007E6A88375830022E280F7E49322E022D8
:1012F000AAF0FBE5828518F0A4FCADF0E583851823
:10130000F0A42DFDE435F0FEE5828519F0A42DFD55
:10131000E5F03EFEE433FFEA8518F0A42EFEE5F08A
:101320003FFFE5838519F0A42EFEE5F03FFFE5823F
:10133000851AF0A42EFEE5F03FFFEB8518F0A42FF0
:10134000FFEA8519F0A42FFFE583851AF0A42FFF8B
:10135000E582851BF0A42F8EF08D838C8222FB7A90
:1013600020E4FCFDFEFFE5822582F582E58333F56E
:1013700083E5F033F5F0EB33FB4017DAE98042E523
:10138000822582F582E58333F583E5F033F5F0EBD2
:1013900033FBEC33FCED33FDEE33FEEF33FFEC9526
:1013A00018ED9519EE951AEF951B4013EC9518FC66
:1013B000ED9519FDEE951AFEEF951BFF438201DABC
:1013C000BEEB22AA08AB09AC0A8A828B838CF0128E
:1013D00012D4FA0508E4B5080205098A822285823A
:1013E0000885830985F00A850B73850C74850D7556
:1013F000850E769013C3021BB7C00F85810FE50FD2
:1014000024F8F576E50F24FBF88608088609088697
:101410000AE50F24F8F88673088674088675901319
:10142000C3121BB7D00F22E4AC83AB82FAF9748EDF
:10143000021F68FFA8811818121F90D2D133E6400E
:101440000730E70B7582012220E70675820022C271
:10145000D1121F72E97003F5822230D101B3E43357
:10146000F582221214C7700AE582458345F07001A7
:1014700022E430D112F4700BE5F0F47006E583300D
:10148000E7012290800022700AE5F07006E58320D3
:10149000E70122907FFF22FFA8811818121F90D227
:1014A000D133E6400730E70B7582002220E706754E
:1014B000820122C2D1121F72E97003F5822220D16B
:1014C00001B3E433F58222121FBBC3749E958240A0
:1014D000397900121FCD30D126E9F42401F582EAD2
:1014E000F43400F583EBF43400F5F0ECF4340070E0
:1014F0000AE582458345F0700122E430E70F22ECD3
:1015000020E71489828A838BF02230D10AE4F582A5
:10151000F583F5F074802274FFF582F583F5F0749D
:101520007F22F9E5184519451A451B60777800C3F5
:1015300008E51B20E73BE51825E0F518E51933F52C
:1015400019E51A33F51AE51B33F51BE5829518E505
:10155000839519E5F0951AE9951B50D4C3E51B1343
:10156000F51BE51A13F51AE51913F519E51813F526
:1015700018E5829518FCE5839519FDE5F0951AFEAE
:10158000E9951B4007F98EF08D838C82C3E51B1310
:10159000F51BE51A13F51AE51913F519E51813F5F6
:1015A00018D8CEE922122092BC0003022031EF604D
:1015B000FA30D502B2D1E583B4FF03022047E582B9
:1015C000B4FF03022047258340072482400B0220FA
:1015D000312483145003022047F582EA8DF0A4A839
:1015E000F0EA8EF0A428F8E435F0F9EB8DF0A428A9
:1015F000E935F0F9E433CA8FF0A429F9EA35F0FAB5
:10160000EBF88EF0A429F9EA35F0FAE433FBEC8D1F
:10161000F0A429F9EA35F0FAE43BFBE88FF0A42ABC
:10162000FAEB35F0FBE433CCFD8EF0A42AFAEB356F
:10163000F0FBE43CFCED8FF0A42BFBEC35F0FC2040
:10164000E70312205F022010E58330E709F4F583F9
:10165000E582F4F582A322AA82AB83ACF0AD18AE8A
:1016600019AF1A8A828B838CF01212D4F87900C0D9
:1016700002C003C0048D828E838FF01212D4FA7BD5
:1016800000E8C39AF8E99BF9881B891CD004D003B1
:10169000D002E84970178D828E838FF01212D460C9
:1016A0000C0ABA00010B0DBD00B90E80B6851B8275
:1016B000851C8322FBC2D530E715D2D5E4C39582C1
:1016C000F582E49583F583E495F0F5F0E49BFBE582
:1016D0001B30E717B2D5E4C39518F518E49519F552
:1016E00019E4951AF51AE4951BF51BEB12135E30FD
:1016F000D513FBE4C39582F582E49583F583E495E5
:10170000F0F5F0E49B22021873858271858372855F
:10171000F073851774901706022149C00F85810F59
:10172000E50F24FBF574E50F24FBF886710886723B
:10173000088673901706122149D00F22F9C2D530BE
:10174000E715D2D5E4C39582F582E49583F583E469
:1017500095F0F5F0E499F9E51B30E715E4C3951829
:10176000F518E49519F519E4951AF51AE4951BF5A1
:101770001BE912152230D512E4C39582F582E49557
:1017800083F583E495F0F5F0E49922FCABF0AA83AD
:10179000A982749EF582C2D1EC30E716D2D1E9F469
:1017A0002401F9EAF43400FAEBF43400FBECF434ED
:1017B00000FC12205F02201020F71030F611888301
:1017C000A88220F507F6A88375830022F280F7F03F
:1017D00022AA82AB10AC11AD128B828C838DF0EA01
:1017E0001217B80510E4B510020511228582108584
:1017F000831185F012851371851472851573851612
:10180000749017D1122149AA82AB83AC10AD11AEEE
:10181000128C828D838EF0E41217B88A828B832219
:10182000C00F85810FE50F24F8F574E50F24FBF850
:101830008610088611088612E50F24F8F8867108CC
:1018400086720886739017D1122149AA82AB83ACA5
:1018500010AD11AE128C828D838EF0E41217B88A0F
:10186000828B83D00F22AC83AB827A007900748E96
:10187000021794AA82BA0A0810990280FB75990D82
:1018800010990280FB8A992212209230D502B2D19F
:10189000BF0009BC0003022054022047BC00030221
:1018A0002031E583B4FF0BE582B4FF03022054022C
:1018B0002031E582B4FF03022047C39583500724FB
:1018C0007F400B0220312480145003022047C0E0E7
:1018D000E4CCCBCAF98D188E198F1AEF54F0C4F5E9
:1018E0001B758306851BF0EB84F582E9C4F9EAC415
:1018F000FAEBC4FBEC540FC47803D6FC18EBD6FB10
:1019000018EAD6FA8582F0EDA4A8F0FD8582F0EE03
:10191000A428FEE435F0F88582F0EFA428FFE43532
:10192000F0F8E99DF9EA9EFAEB9FFBEC98FCAD1804
:10193000AE19AF1A30E7101582E92DF9EA3EFAEB3D
:101940003FFBE43CFC80EDC082D58398C3E933F9CA
:10195000EA33FAEB33FBEC33FCC3E99DEA9EEB9FE1
:10196000EC9400B3E413F9D002D0E0C44AFAD003F7
:10197000D0E0C44BFBD004D0E0F5F0540FC44CFCD5
:10198000D082158230F40FD3EC13FCEB13FBEA1377
:10199000FAE913F90582E930E70A74012AFAE43B0F
:1019A000FBE43CFC0220288563828564831226E0E8
:1019B000858272E572600A056CE4B56C06056D807F
:1019C00002D203857282227A007B0030030578B050
:1019D000760022C002C0031219A7AC82D003D00245
:1019E000BC0002802DBC08028014BC09028023BC0C
:1019F0000A02801EBC0D028019BC20218014EA4B13
:101A000060D11ABAFF011B156C74FFB56C02156D1D
:101A100080C1EA4B60BDEA24B0F8760022EC700980
:101A2000EA24B0F87600D20322ECB57107EA24B0BC
:101A3000F8760022C3EA940FEB940050968A058B47
:101A4000060ABA00010BED24B0F8A6040219D3AAC5
:101A5000827B7FC3EA648094B0401174B98AF063DA
:101A6000F08095F04006EA24D0FB8030C3EA648021
:101A700094C1401174C68AF063F08095F0400674FA
:101A8000C92AFB8017C3EA648094E1400F74E68A98
:101A9000F063F08095F0400474A92AFBC3EB956EC7
:101AA00050038B822275827F22AA82756800756935
:101AB00000756A00756B008A00E6FA60148A82C0BD
:101AC00000121A4FAB82D000C3EB956E4003088022
:101AD000E886038B82C000121A4FAA82D000C3E5A9
:101AE0006E9A4050856E18751900751A00751B00A6
:101AF000856882856983856AF0E56BC002C0001243
:101B000012F0AB82AC83ADF0FED000D0028B688CBB
:101B1000698D6A8E6BE4FBFCFDEA2568FAEB35699A
:101B2000FBEC356AFCED356BFD8A688B698C6A8D40
:101B30006B08809D856882856983856AF0E56B22E4
:101B4000AA82756800756900756A00756B008A0065
:101B5000E6FB60228B82C003C000121A4FAC82D019
:101B600000D003C3EC956E400DBB2D028008BB2B4B
:101B70000280030880DA88028603BB2D03D380012C
:101B8000C39206BB2D028003BB2B010A8A82121A64
:101B9000A9300613C3E49568FAE49569FBE4956AF5
:101BA000FCE4956BFD8008AA68AB69AC6AAD6B8AF2
:101BB000828B838CF0ED22858263858364E4F56CEF
:101BC000F56DF570C203AA73AB74AC758A828B8312
:101BD0008CF01212D4FD74012AF573E43BF5748C79
:101BE00075EDFA7003021F56BA25028003021EEF3C
:101BF000D202C200756E00756F00C204C205AB73DD
:101C0000AC74AD758B828C838DF01212D4FAA3ABB9
:101C100082AC838B738C748D758B828C838DF01268
:101C200012D4F5718A06BE300040168A06EE24C62C
:101C3000400FE56F75F00AA4FEEA24D02EF56F8000
:101C4000C38A06BE6100400A8A06EE24854003531B
:101C500002DFBA250280ADBA2A028045BA4202806C
:101C600036BA43028040BA4403021D6ABA490302ED
:101C70001D6ABA4C028025BA4E03021D7DBA4F037D
:101C8000021D6FBA53028020BA5503021D68BA586C
:101C900003021D76021DA5D200021C04D201021C03
:101CA00004D204021C04D205200417E57624FDF8B2
:101CB0008876860308860408860518188B658C6666
:101CC0008D67E56F700B3005047B0180027BFF8B15
:101CD0006F756E00C3E56E956F50051219A7AA8245
:101CE000300307E56E7003021DA5EA601ABA2002F0
:101CF000800DBA09028008BA0D028003BA0A0330C7
:101D00000505E56FB56E1FE56E60C920041205700C
:101D1000AB65AC66AD678B828C838DF0E41217B82F
:101D2000756E00021DA5BA081CE56E60A72004119F
:101D3000AB65AC66AD671BBBFF011C8B658C668D0C
:101D400067156E808F20041BAB65AC66AD678B8218
:101D50008C838DF0EA1217B80BBB00010C8B658CDD
:101D6000668D67056E021CD4C202756E0A8036C28B
:101D700002756E08802FC202756E108028E57624E9
:101D8000FDF88876860308860408860518188B6592
:101D90008C668D678B828C838DF0E56C1217B8A3EF
:101DA000E56D1217B8E56E7003021EEF1219C778C1
:101DB000B0E67003021EEF300403021EEFE5762446
:101DC000FDF88876860308860408860518188B6552
:101DD0008C668D670570200203021E683001358510
:101DE00065778566788567797582B0121B40AE820B
:101DF000AF83ABF0FC8577828578838579F0EE122E
:101E000017B8A3EF1217B8A3EB1217B8A3EC121769
:101E1000B8021EEF3000268565778566788567797C
:101E20007582B0121B40AE82AF83ABF0FC85778227
:101E30008578838579F0EE1217B8021EEF856577F5
:101E40008566788567797582B0121B40AE82AF8354
:101E5000ABF0FC8577828578838579F0EE1217B830
:101E6000A3EF1217B8021EEF30013485657785663F
:101E7000788567797582B0121AA9AE82AF83ABF00C
:101E8000FC8577828578838579F0EE1217B8A3EF09
:101E90001217B8A3EB1217B8A3EC1217B880503082
:101EA00000258565778566788567797582B0121A11
:101EB000A9AE82AF83ABF0FC857782857883857984
:101EC000F0EE1217B8802885657785667885677982
:101ED0007582B0121AA9AE82AF83ABF0FC8577820F
:101EE0008578838579F0EE1217B8A3EF1217B82022
:101EF0000303021BC6AB73AC74AD758B828C838DF0
:101F0000F01212D4FEA3AB82AC838B738C748D75EC
:101F1000EEFA7003021BC6BA25E18B828C838DF02A
:101F20001212D4FABA6E028003BA4ECFE57624FDBF
:101F3000F88876860208860608860718188A658E4D
:101F4000668F678A828E838FF0E56C1217B8A3E5DF
:101F50006D1217B880A5AA707B008A828B8322FC41
:101F6000ABF0AA83A982749EC2D1F58212205F02CF
:101F700020107901AA82E68F82B5821318E6B5F0A7
:101F80000E18E6B5830918E68A82B5820279002226
:101F9000B4800FE5F0700AE5837006E58270027F79
:101FA00000EFB6801518B6001018B6000B18B60072
:101FB0000608080876002208080822AA82AB83A235
:101FC000F73392D16002D2F7F582ACF0226040F88C
:101FD0002582500274FFF582E824F8501ECCCBCA4B
:101FE000F9E4CC24F85014CBCAF9E4CB24F8500B14
:101FF000CAF9E4CA24F8500379002224086010F8D2
:10200000C3EC13FCEB13FBEA13FAE913F9D8F12242
:10201000B98003EA13B34010EA2401FAE43BFBE47D
:102020003CFC50047C800582BC000EBB000BBA0057
:1020300008E4F5F0F583F58222A2D1E582138CF055
:1020400092F78B838A8222E4F583F58275F080F41F
:10205000A2D11322E4F583F58275F0C0747F227853
:1020600004EC7011E58224F8500AF582E4C9CACB69
:10207000FCD8EF22EC7820058220E713D5820122DC
:10208000C3E933F9EA33FAEB33FBEC33FCD8EA1556
:102090008222AA82AB83A2F73392D16002D2F7F5F3
:1020A00082ACF0E58124F9F8E6FD08E6FE0886F04A
:1020B00008E6A2F73392D56002D2F7F583AFF0229B
:1020C000AA8274D1C0E07420C0E0C063C0648A8278
:1020D00022056AE4B56A02056B22AA8274302AFAE4
:1020E00024C6500A74072AFA3007034302208A8262
:1020F0000220C0E582FAC4540FF582C0021220DA31
:10210000D002740F5AF5820220DAAA65AB66AC677A
:10211000AD68AE69757020EE2EFEED235401FF42CE
:1021200006EA2AFAEB33FBEC33FCED33FDC3EE9504
:102130006C4008EEC3956CFE430201D570D98A65E8
:102140008B668C678D688E6922858263858364E4E3
:10215000F56AF56BAA71AB72AC738A828B838CF0D3
:102160001212D4FD74012AF571E43BF5728C73ED03
:10217000FA70030226D9BA250280030226D1C20BC7
:10218000C20CC20DC20EC20FC210C211C212C208CE
:10219000C209C20A756C00756D00756EFFAB71AC3B
:1021A00072AD738B828C838DF01212D4FAA3AB8242
:1021B000AC838B718C728D73BA25078A821220C012
:1021C00080928A06BE3000402E8A06EE24C6402742
:1021D00074FFB56E13E56D75F00AA4FEEA24D02EE7
:1021E000F56D70BFD20C80BBE56E75F00AA4FEEAF7
:1021F00024D02EF56E80ACBA2E0A74FFB56EA4758D
:102200006E00809F8A06BE6100400E8A06EE24851D
:1022100040075302DFD2078002C207BA200280754E
:10222000BA23030222A4BA2A030222A9BA2B0280EB
:102230005FBA2D028055BA4202805FBA4303022280
:10224000EEBA4403022429BA4503022443BA4603E2
:1022500002243FBA4703022447BA4903022429BA99
:102260004C02803BBA4E0302244BBA4F0302243087
:10227000BA50030223C2BA5303022312BA5503020F
:102280002435BA580302243A022475D20B0221A342
:10229000D20D0221A3D20E0221A3D2100221A3D279
:1022A000110221A3D2120221A374FFB56E203010B7
:1022B0000BE57414F88874866D0221A3E57424FE7E
:1022C000F888748606088607188E6D0221A33010E0
:1022D0000BE57414F88874866E0221A3E57424FE5D
:1022E000F888748606088607188E6E0221A33010BF
:1022F0000AE57414F888748602800FE57424FEF8E9
:1023000088748603088604188B028A821220C00211
:10231000247AE57424FDF888748603088604088608
:102320000518188B658C668D678B828C838DF012F7
:1023300026E2AB82AC838B6F74FFB56E03856F6E44
:10234000200B1DC3E56F956D5016E56DC3956FF5B8
:102350006DAB6D156DEB60087582201220C080F1A9
:102360008565828566838567F01212D4FBFA602941
:10237000AB6E156EC3E464808BF063F08095F05013
:10238000188A821220C0AB65AC66AD670BBB00013A
:102390000C8B658C668D6780C7200B0302247AC383
:1023A000E56F956D400302247AE56DC3956FF56D79
:1023B000AB6D156DEB700302247A7582201220C07C
:1023C00080EEE57424FDF888748603088604088688
:1023D0000518188B658C668D67E567FB30E7047A16
:1023E000438013EB546060047A50800AEB30E604BB
:1023F0007A4980027A588A82C0021220C075823AD5
:102400001220C07582301220C07582781220C0D090
:1024100002BA4902800BBA500280068566821220F9
:10242000F38565821220F38051D20F756C0A804AC1
:10243000756C088045756C0A8040756C10803BD2C5
:10244000088037D2098033D20A802FE57424FDF842
:102450008874860308860408860518188B658C66C0
:102460008D678B828C838DF0E56A1217B8A3E56BBC
:102470001217B880058A821220C02008062009039E
:10248000300A5AE57424FCF8887486030886040828
:1024900086050886061818188B658C668D678E6809
:1024A00075655D7566027567808565758566768577
:1024B000677774012575FEE43576FFAB778E658FFF
:1024C000668B678575828576838577F01212D4FBDB
:1024D000FA70030221548A821220C080CCE56C700D
:1024E000030221547BAF30102BE57414F88874E696
:1024F000FC3395E0FDFEFF8C658D668E678F68204E
:102500000F5EAC657D007E007F008C658D668E67FA
:102510008F68804C30111FE57424FCF888748604A1
:102520000886050886060886071818188C658D66C3
:102530008E678F68802AE57424FEF8887486040804
:10254000860518ED3395E0FEFF8C658D668E678FEE
:1025500068200F0CAC65AD667E007F008E678F68CB
:10256000301243E56545664567456860397408B5CE
:102570006C0C758230C0031220C0D0038028741008
:10258000B56C23758230C0031220C0D00330070C15
:10259000758278C0031220C0D003800A758258C0AB
:1025A000031220C0D003300F25AC65AD66AE67E5E1
:1025B00068FF30E717C3E49CFCE49DFDE49EFEE465
:1025C0009FFF8C658D668E678F688002C20F756F66
:1025D00000D2138B00756900C00012210AD00020C0
:1025E000130DE569C4FCE6FD4CF61888038002A6CD
:1025F00069056FB213E56545664567456870D6881D
:1026000003E56D7003756D01200C1A200B17E56F43
:1026100004FCC3956D500E758220C0031220C0D0FB
:1026200003156D80E9300F0E75822DC0031220C096
:10263000D003156D8024E56F6020300D0E75822B60
:10264000C0031220C0D003156D800F300E0C7582B0
:1026500020C0031220C0D003156D200B1EAC6D15D9
:102660006DC3E56F9C5027300C047C3080027C20C9
:102670008C82C0031220C0D00380E2C3E56F956D49
:102680005009E56DC3956FF56D8003756D008B0086
:10269000AB6F156FEB6022B21320130A08E6C45427
:1026A0000FFB8B6980078603740F5BF56985698270
:1026B000C0001220DAD00080D7200B03022154ABD7
:1026C0006D156DEB70030221547582201220C080BD
:1026D000EE8A821220C0022154856A82856B832291
:1026E000E473AA82AB83ACF07D007E008A828B8388
:1026F0008CF01212D4FFA3AA82AB83EF60070DBD4A
:1027000000EA0E80E78D828E832200000000000028
:00000001FF
