:100000000200960000000000000000000000000058
:1000200000000000000000000000000206EBE4F504
:1000300023F5247525FF7526FFE4F527F528752996
:10004000FF752AFFE4F52BF52CE4F52DF52EE4F5EC
:100050002FF5307531FA7532FA22000000000000E9
:1000800000000000000000000000000206A40000C4
:100090000000000202CF7581B7120227E5826003DB
:1000A000020102780079007A007B007C007D00EC80
:1000B0004D601C88828983E493A3A882A9838A82E5
:1000C0008B83F0A3AA82AB831CBCFFE31D80E07589
:1000D00082007583007C217D00EC4D600AE4F0A372
:1000E0001CBCFFF51D80F27582007583007C007DCD
:1000F00000EC4D600AE4F0A31CBCFFF51D80F21279
:10010000002E120BC380FE436F6D6D616E643A204A
:10011000257300526573706F6E73653A2025730DF9
:100120000A0041542B44564944303030300D0A0007
:10013000303132333435363738394142434445461D
:1001400000204E4F205349474E414C202020202074
:10015000202020202020202020202020202020209F
:100160000D00256C640A0D000D0A45464D384C42C1
:100170003132204A44592D343020536C6176652049
:10018000546573742E0D0A0041542B5645520D0AC6
:100190000041542B424155440D0A0041542B524614
:1001A00049440D0A0041542B445649440D0A00416C
:1001B000542B5246433132300D0A0041542B504FDC
:1001C00057450D0A0041542B434C53530D0A00412F
:1001D000542B44564944464646460D0A00253035C0
:1001E0006C640A0D00410068656C6C6F005300740C
:1001F0006869732073686F756C6420626520746829
:1002000065206D6F746F722066756E6374696F6EB2
:10021000004B25755725754725640A003C4E4F2035
:10022000464C4F41543E0075A7007597DE7597AD5B
:1002300075FF8075EF0675A71075C12075A700754D
:10024000A90075A900E5A930E7FB75A90375A90305
:10025000E5A930E7FB43A41143A60175E10175E26E
:100260000075E341439C8575E341439C8575981077
:10027000758DE6858D8B53890F438920D28ED29957
:1002800075A71075980043A60175A2A875A3FD7502
:10029000A4FF75A5FF43F304D29AD2AF75C80043FB
:1002A0008E1075CAA875CBFD75CEFF75CFFFD2AD88
:1002B000D2CA75A70075A71075C00075D4FF75D593
:1002C000FF43F308D2C2D2AF75A70075820022C0E7
:1002D000E0C002C003C0D075D00075A710C2C775BA
:1002E000D2C475D3FF7401252FF52FE43530F530D6
:1002F00074D0B52F0A7407B53005E4F52FF530AA90
:10030000317B00C3EA952FEB95304004D2938002F5
:10031000C293AA327B00C3EA952FEB95304004D2FA
:10032000948002C294D0D0D003D002D0E032AA820E
:10033000438E407592B87593FF8592948593957519
:1003400091047B00C3EB9A500BE59130E7FB53918E
:100350007F0B80F075910022AA82AB837C007D0028
:10036000C3EC9AED9B502B7E00BE0400501D75829D
:10037000FAC002C003C004C005C00612032ED00696
:10038000D005D004D003D0020E80DE0CBC00D10D0D
:1003900080CE22AA82AB83ACF0FD75A72075930CAA
:1003A00075C8107594008A188B198C1A8D1B90A231
:1003B0000075F04A7404120F7BAA82AB83ACF0FD87
:1003C000751818E4F519F51AF51B8A828B838CF0E1
:1003D000ED120F7BAA82AB83ACF0FDE4C39AFAE482
:1003E0009BFB74019CE49D8A958B96D2C9439440F3
:1003F00075A70022AA8275A72010C90280FB8A92E5
:1004000075A70022AA82AB83ACF08A828B838CF022
:10041000120EF1FD60188D82C002C003C0041203E9
:10042000F4D004D003D0020ABA00DF0B80DC2275BE
:10043000A72010C80280FB53C83F85928275A70091
:100440002275A7207A007B0020C82675A700758238
:1004500014C002C00312032ED003D00275A7200AD5
:10046000BA00010BBAA8E1BB61DE75A70075820A6C
:1004700022C2C853C83F85928275A70022AA82ABC8
:1004800083ACF07D008A068B078C00C002C003C0DD
:1004900004C005C006C007C000120441A982D000F4
:1004A000D007D006D005D004D003D002B90A0A8AFA
:1004B000828B838CF0E4021362C3ED953450180DE7
:1004C0008E828F8388F0E9121362A3AE82AF838E8F
:1004D000028F03880480B48A828B838CF0E4021339
:1004E0006275A720A2C875A70022AA82AB837C00F0
:1004F0007D00C3EC9AED9B50477E00BE040050394E
:10050000C002C003C004C005C0061204E1E433D039
:1005100006D005D004D003D0026001227582FAC053
:1005200002C003C004C005C00612032ED006D005C9
:10053000D004D003D0020E80C20CBC00B50D80B236
:1005400022AA82AB83ACF0C002C003C004C002C0C8
:1005500003C0047407C0E07401C0E07480C0E012FE
:1005600012C5E58124FAF581C2A090000512035856
:10057000D004D003D0028A828B838CF012040475DD
:10058000341390007A75F04012047D90000A120333
:1005900058D2A0747AC0E07400C0E07440C0E07427
:1005A00013C0E07401C0E07480C0E01212C5E581A0
:1005B00024FAF58122C2A090000A12035890012269
:1005C00075F08012040490000A12035853C83FD2F9
:1005D000A0225389F0438901C28C2275A700C2EF83
:1005E00075B28075BC2075B91E75E80075DF3F7562
:1005F000B300D2EF22AA828518F005F074018002C0
:1006000025E0D5F0FBFB75A720BA0002800ABA01ED
:1006100002800FBA021E8014EBF4FA52F1EB42D4BE
:100620008012EBF4FA52F2EB42D58008EBF4FA5266
:10063000F3EB42CC75A700228582BBC2EDD2EC3031
:10064000EDFD85BD8285BE8322120638121044AAB4
:1006500082AB83ACF0FDC002C003C004C005906C47
:100660008B75F053744012115EAA82AB83ACF0FD1F
:10067000E58124FCF581E4C0E074FCC0E0747FC037
:10068000E07446C0E08A828B838CF0ED121425AAB8
:1006900082AB83ACF0FDE58124FCF5818A828B83FB
:1006A0008CF0ED22C0E0C0D075D00075A710C29FBD
:1006B00085232374012524F5247401B52B06E4B5A4
:1006C0002C028002800BC3E5239525E52495269214
:1006D000B0E52B452C700BC3E5239525E524952625
:1006E00092A5E52BE52CD0D0D0E032C0E0C0D0758B
:1006F000D00075A700C2CF85272774012528F528CB
:100700007401B52B06E4B52C028002800BC3E527EB
:100710009529E528952A92B2E52B452C700BC3E567
:10072000279529E528952A92B7E52BE52CD0D0D03E
:10073000E032AA82AB83C28C5389F0438901C28C18
:10074000758A00758C00C28DD28CC28C758A00753A
:100750008C00C28DD28C7C007D00308619108D02F9
:1007600080F80CBC00010DBC0AF0BD00EDC28C90FD
:100770000000E4F5F022C28C758A00758C00C28DF1
:10078000D28C7C007D00208619108D0280F80CBC74
:1007900000010DBC0AF0BD00EDC28C900000E4F534
:1007A000F022C28C758A00758C00C28D7C007D00A1
:1007B000D28C7E008E077800C3EF9AE864808BF0BD
:1007C00063F08095F050298C078D0030860C108DD9
:1007D0000280F80FBF00F40880F120860C108D0213
:1007E00080F80FBF00F40880F18F0488050E80C4E4
:1007F000C28C8D038C027D007C00AF8C7E00EF33B9
:1008000095E0F8F9EE2CFCEF3DFDE83AFAE93BFB08
:10081000AE8AE4FF3395E0F8F9EE2CFCEF3DFDE8FD
:100820003AFAE93B8C828D838AF022AA82AB83ACB0
:10083000F08A828B838CF0120EF1FD60188D82C0DD
:1008400002C003C004121410D004D003D0020ABAAC
:1008500000DF0B80DC2285823985833A85F03BF509
:100860003C900020E4F0E53C30E71B75822D12142B
:1008700010C3E49539F539E4953AF53AE4953BF53A
:100880003BE4953CF53C753D1FE4F53EA837A9389F
:10089000C3E49539E4953AE4953BE46480853CF003
:1008A00063F08095F0E433FEC3E498E4648089F05B
:1008B00063F08095F0E433FF4E7003020950AE3DC3
:1008C000AF3E153D74FFB53D02153EEE2400F53FE9
:1008D000EF3400F540853541E536F5423395E0F5D6
:1008E00043F54485411885421985431A85441B8583
:1008F0003982853A83853BF0E53CC000C001121285
:10090000E6AE82AF83EE2430F582EF3401F583E466
:1009100093853F82854083F0854118854219854340
:100920001A85441B853982853A83853BF0E53C1264
:10093000125E85823985833A85F03BF53CD001D043
:1009400000E849700302089018B8FF0119020890E6
:10095000E53D042400FAE43400FB7C008A828B83AA
:100960008CF002082BAA82AB83ACF0FD7E007F00E6
:1009700078007900C3E49AE49BE49CE464808DF001
:1009800063F08095F0504E8A188B198C1A8D1B904D
:10099000000CE4F5F0120F0D121335AA82AB83ACF4
:1009A000F0FDC002C003C004C0059093A475F056CA
:1009B0007450121425AA82AB83ACF0FDE58124FCAF
:1009C000F5818A828B838CF0ED121080AE82AF832A
:1009D000A8F0F9801990014175F080C006C007C0E9
:1009E00000C00112082BD001D000D007D0068E82A3
:1009F0008F8388F0E9229001F412035875319690A4
:100A00000064120358D2957AFAEA244B50128A32C3
:100A1000900014C002120358D002EA24FBFA80E9C5
:100A20009003E81203587A96BAFA0050128A31906D
:100A30000014C002120358D00274052AFA80E9900B
:100A400003E81203587AB4EA24A550128A329000BF
:100A500014C002120358D002EA24FBFA80E9C295BE
:100A60009000961203587531FA7532FAC29522AA8F
:100A700082AB83ACF0FD752B03E4F52CD2B7C2B288
:100A8000C2B0D2A5C002C003C004C005C049C04A5C
:100A9000C04BC04C7462C0E07401C0E07480C0E020
:100AA0001212C5E58124F9F581E4C0E0C0E0747A52
:100AB000C0E07447C0E0854982854A83854BF0E5F4
:100AC0004C121050AE82E58124FCF581D005D00493
:100AD000D003D002EE7029C2B7D2B2D2B0C2A59074
:100AE0000096C002C003C004C005120358C2B7C2BA
:100AF000B2C2B0C2A51209F6D005D004D003D0020C
:100B000074CDC0E074CCC0E0C0E0743DC0E08A8227
:100B10008B838CF0ED121050AA82E58124FCF581C4
:100B2000EA704AC2B7D2B2D2B0C2A590012C120369
:100B300058E52D452E7015C2B7D2B2C2B0C2A590ED
:100B400002EE120358752D01E4F52E227401B52D25
:100B500006E4B52E0280028014C2B7C2B2D2B0C27F
:100B6000A59002EE120358E4F52DF52E2274CDC0A7
:100B7000E074CCC0E0C0E0743DC0E08545828546AD
:100B8000838547F0E548121050AA82E58124FCF5E0
:100B900081EA702EE52D452E700EC2B7D2B2C2B0DA
:100BA000C2A59002EE0203587401B52D06E4B52EDD
:100BB00002800122C2B7C2B2D2B0C2A59002EE0238
:100BC0000358229001F41203587468C0E07401C005
:100BD000E07480C0E01212C5158115811581902541
:100BE00080E4F5F01203931205B51205D2751801D1
:100BF0007582021205F57518037582021205F51249
:100C000005DB90018875F08012054190019175F027
:100C10008012054190019B75F0801205419001A55D
:100C200075F0801205419001AF75F080120541907A
:100C300001BB75F0801205419001C575F080120569
:100C4000419001CF75F080120541C295C295900088
:100C5000C812073212096585825385835485F05581
:100C6000F556C053C054C055C05674DDC0E0740181
:100C7000C0E07480C0E0748EC0E07400C0E07440D6
:100C8000C0E01213CAE58124F6F58190008E75F05C
:100C90004012040490003212035875820E12064965
:100CA00085825F85836085F061F562855F57856029
:100CB0005885615985625A75821012064985825F8E
:100CC00085836085F061F562855F5B85605C856129
:100CD0005D85625E1204E14003020C4C7534149091
:100CE000007A75F04012047D7518E5751901751AC2
:100CF0008090007A75F040121201E5828583F045FC
:100D0000F06003020E009001F412035890000512E7
:100D10000358752B03E4F52C75820E120649858263
:100D20005F85836085F061F562855F5785605885D2
:100D3000615985625A75821012064985825F8583E2
:100D40006085F061F562855F5B85605C85615D85CE
:100D5000625E9000C812073212096585825385834E
:100D60005485F055F55685575F85586085596185DE
:100D70005A62AE5BAF5CAA5DAB5E855382855483DD
:100D80008555F0E556C002C003C006C007121335F2
:100D900085824985834A85F04BF54CD007D006D033
:100DA00003D0028E458F468A478B48855F828560D7
:100DB000838561F0E562120A6F1204E14003020DBF
:100DC0000C74E7C0E07401C0E07480C0E01212C58A
:100DD00015811581158175341490007A75F04012D3
:100DE000047D7518E5751901751A8090007A75F003
:100DF00040121201E5828583F045F06003020D0C7C
:100E00007518ED751901751A8090007A75F0401209
:100E10001201E5828583F045F0701E1209F674EF29
:100E2000C0E07401C0E07480C0E01212C5158115E5
:100E30008115819001F41203587451C0E07400C010
:100E4000E07440C0E0744FC0E07400C0E07440C083
:100E5000E0744DC0E07400C0E07440C0E07411C0A4
:100E6000E07402C0E07480C0E0747AC0E07400C036
:100E7000E07440C0E0121016E58124F1F581E551DF
:100E80004552700CC2A5C2B7752B01E4F52C800940
:100E9000C2B2C2B0E4F52BF52C854F2585502674DF
:100EA0009FB54D0B7415B54E06754DFF754EFF740D
:100EB000DEB54D0B7413B54E06754DFF754EFF74C0
:100EC00017B54D0B7402B54E06754DFF754EFF7488
:100ED00056B54D06E4B54E0280028006754DFF758D
:100EE0004EFF854D29854E2A900005120358020CAD
:100EF0004C20F71430F6148883A88220F507E6A862
:100F00008375830022E280F7E49322E022AAF0FBBB
:100F1000E5828518F0A4FCADF0E5838518F0A42DDA
:100F2000FDE435F0FEE5828519F0A42DFDE5F03EE7
:100F3000FEE433FFEA8518F0A42EFEE5F03FFFE55E
:100F4000838519F0A42EFEE5F03FFFE582851AF0B7
:100F5000A42EFEE5F03FFFEB8518F0A42FFFEA85F5
:100F600019F0A42FFFE583851AF0A42FFFE58285F1
:100F70001BF0A42F8EF08D838C8222FB7A20E4FC60
:100F8000FDFEFFE5822582F582E58333F583E5F0FA
:100F900033F5F0EB33FB4017DAE98042E582258236
:100FA000F582E58333F583E5F033F5F0EB33FBECC5
:100FB00033FCED33FDEE33FEEF33FFEC9518ED958A
:100FC00019EE951AEF951B4013EC9518FCED951949
:100FD000FDEE951AFEEF951BFF438201DABEEB2270
:100FE000AA08AB09AC0A8A828B838CF0120EF1FA44
:100FF0000508E4B5080205098A82228582088583EE
:101000000985F00A850B73850C74850D75850E7640
:10101000900FE0021754C00F85810FE50F24F8F5FB
:1010200076E50F24FBF8860808860908860AE50F8E
:1010300024F8F88673088674088675900FE01217F6
:1010400054D00F22E4AC83AB82FAF9748E021B05F4
:10105000FFA8811818121B2DD2D133E6400730E7C4
:101060000B7582002220E70675820122C2D1121B75
:101070000FE97003F5822220D101B3E433F5822217
:10108000121B58C3749E958240397900121B6A3036
:10109000D126E9F42401F582EAF43400F583EBF477
:1010A0003400F5F0ECF43400700AE582458345F035
:1010B000700122E430E70F22EC20E71489828A8352
:1010C0008BF02230D10AE4F582F583F5F0748022AA
:1010D00074FFF582F583F5F0747F22F9E518451960
:1010E000451A451B60777800C308E51B20E73BE500
:1010F0001825E0F518E51933F519E51A33F51AE561
:101100001B33F51BE5829518E5839519E5F0951AD3
:10111000E9951B50D4C3E51B13F51BE51A13F51A0B
:10112000E51913F519E51813F518E5829518FCE58E
:10113000839519FDE5F0951AFEE9951B4007F98E98
:10114000F08D838C82C3E51B13F51BE51A13F51A8A
:10115000E51913F519E51813F518D8CEE922121C74
:101160002FBC0003021BCEEF60FA30D502B2D1E5EE
:1011700083B4FF03021BE4E582B4FF03021BE425F2
:101180008340072482400B021BCE248314500302A9
:101190001BE4F582EA8DF0A4A8F0EA8EF0A428F80A
:1011A000E435F0F9EB8DF0A428E935F0F9E433CA21
:1011B0008FF0A429F9EA35F0FAEBF88EF0A429F9BA
:1011C000EA35F0FAE433FBEC8DF0A429F9EA35F0C6
:1011D000FAE43BFBE88FF0A42AFAEB35F0FBE433AA
:1011E000CCFD8EF0A42AFAEB35F0FBE43CFCED8F4D
:1011F000F0A42BFBEC35F0FC20E703121BFC021BD8
:10120000ADAA82AB83ACF0AD18AE19AF1A8A828B4F
:10121000838CF0120EF1F87900C002C003C0048D77
:10122000828E838FF0120EF1FA7B00E8C39AF8E900
:101230009BF9881B891CD004D003D002E8497017A1
:101240008D828E838FF0120EF1600C0ABA00010BB2
:101250000DBD00B90E80B6851B82851C8322FBC2A2
:10126000D530E715D2D5E4C39582F582E49583F5B0
:1012700083E495F0F5F0E49BFBE51B30E717B2D56E
:10128000E4C39518F518E49519F519E4951AF51ABB
:10129000E4951BF51BEB120F7B30D513FBE4C395D4
:1012A00082F582E49583F583E495F0F5F0E49B22E2
:1012B00002141085827185837285F073851774908E
:1012C00012B0021CE6C00F85810FE50F24FBF574F8
:1012D000E50F24FBF886710886720886739012B0B9
:1012E000121CE6D00F22F9C2D530E715D2D5E4C3DF
:1012F0009582F582E49583F583E495F0F5F0E49921
:10130000F9E51B30E715E4C39518F518E49519F5D0
:1013100019E4951AF51AE4951BF51BE91210DB3058
:10132000D512E4C39582F582E49583F583E495F0C4
:10133000F5F0E49922FCABF0AA83A982749EF582B1
:10134000C2D1EC30E716D2D1E9F42401F9EAF43441
:1013500000FAEBF43400FBECF43400FC121BFC024A
:101360001BAD20F71030F6118883A88220F507F610
:10137000A88375830022F280F7F022AA82AB10AC1A
:1013800011AD128B828C838DF0EA1213620510E48A
:10139000B5100205112285821085831185F0128512
:1013A000137185147285157385167490137B121C46
:1013B000E6AA82AB83AC10AD11AE128C828D838E07
:1013C000F0E41213628A828B8322C00F85810FE5BD
:1013D0000F24F8F574E50F24FBF886100886110831
:1013E0008612E50F24F8F8867108867208867390D5
:1013F000137B121CE6AA82AB83AC10AD11AE128C2B
:10140000828D838EF0E41213628A828B83D00F2246
:10141000AA82BA0A0810990280FB75990D109902E8
:1014200080FB8A9922121C2F30D502B2D1BF00094D
:10143000BC0003021BF1021BE4BC0003021BCEE54F
:1014400083B4FF0BE582B4FF03021BF1021BCEE560
:1014500082B4FF03021BE4C395835007247F400B33
:10146000021BCE2480145003021BE4C0E0E4CCCB6A
:10147000CAF98D188E198F1AEF54F0C4F51B7583B5
:1014800006851BF0EB84F582E9C4F9EAC4FAEBC4E3
:10149000FBEC540FC47803D6FC18EBD6FB18EAD645
:1014A000FA8582F0EDA4A8F0FD8582F0EEA428FE76
:1014B000E435F0F88582F0EFA428FFE435F0F8E990
:1014C0009DF9EA9EFAEB9FFBEC98FCAD18AE19AFC4
:1014D0001A30E7101582E92DF9EA3EFAEB3FFBE4FA
:1014E0003CFC80EDC082D58398C3E933F9EA33FA36
:1014F000EB33FBEC33FCC3E99DEA9EEB9FEC9400DD
:10150000B3E413F9D002D0E0C44AFAD003D0E0C467
:101510004BFBD004D0E0F5F0540FC44CFCD0821546
:101520008230F40FD3EC13FCEB13FBEA13FAE9134C
:10153000F90582E930E70A74012AFAE43BFBE43C4E
:10154000FC021BC585638285648312227D858272BD
:10155000E572600A056CE4B56C06056D8002D20385
:10156000857282227A007B0030030578A8760022FB
:10157000C002C003121544AC82D003D002BC0002EA
:10158000802DBC08028014BC09028023BC0A0280A2
:101590001EBC0D028019BC20218014EA4B60D11AB8
:1015A000BAFF011B156C74FFB56C02156D80C1EAA2
:1015B0004B60BDEA24A8F8760022EC7009EA24A862
:1015C000F87600D20322ECB57107EA24A8F8760079
:1015D00022C3EA940FEB940050968A058B060ABA50
:1015E00000010BED24A8F8A604021570AA827B7FE7
:1015F000C3EA648094B0401174B98AF063F08095B6
:10160000F04006EA24D0FB8030C3EA648094C140F5
:101610001174C68AF063F08095F0400674C92AFB05
:101620008017C3EA648094E1400F74E68AF063F0A7
:101630008095F0400474A92AFBC3EB956E50038B90
:10164000822275827F22AA82756800756900756A98
:1016500000756B008A00E6FA60148A82C0001215D9
:10166000ECAB82D000C3EB956E40030880E88603A4
:101670008B82C0001215ECAA82D000C3E56E9A409E
:1016800050856E18751900751A00751B00856882E3
:10169000856983856AF0E56BC002C000120F0DAB4F
:1016A00082AC83ADF0FED000D0028B688C698D6A6D
:1016B0008E6BE4FBFCFDEA2568FAEB3569FBEC3543
:1016C0006AFCED356BFD8A688B698C6A8D6B0880CE
:1016D0009D856882856983856AF0E56B22AA82759B
:1016E0006800756900756A00756B008A00E6FB602A
:1016F000228B82C003C0001215ECAC82D000D00354
:10170000C3EC956E400DBB2D028008BB2B028003FD
:101710000880DA88028603BB2D03D38001C39206BA
:10172000BB2D028003BB2B010A8A821216463006AB
:1017300013C3E49568FAE49569FBE4956AFCE495C3
:101740006BFD8008AA68AB69AC6AAD6B8A828B833B
:101750008CF0ED22858263858364E4F56CF56DF58C
:1017600070C203AA73AB74AC758A828B838CF0123F
:101770000EF1FD74012AF573E43BF5748C75EDFAF6
:101780007003021AF3BA25028003021A8CD202C235
:1017900000756E00756F00C204C205AB73AC74AD0A
:1017A000758B828C838DF0120EF1FAA3AB82AC8321
:1017B0008B738C748D758B828C838DF0120EF1F58A
:1017C000718A06BE300040168A06EE24C6400FE538
:1017D0006F75F00AA4FEEA24D02EF56F80C38A0646
:1017E000BE6100400A8A06EE248540035302DFBA38
:1017F000250280ADBA2A028045BA42028036BA4339
:10180000028040BA4403021907BA4903021907BA11
:101810004C028025BA4E0302191ABA4F0302190C62
:10182000BA53028020BA5503021905BA58030219A7
:1018300013021942D2000217A1D2010217A1D20449
:101840000217A1D205200417E57624FDF8887686D4
:101850000308860408860518188B658C668D67E575
:101860006F700B3005047B0180027BFF8B6F756E00
:1018700000C3E56E956F5005121544AA8230030728
:10188000E56E7003021942EA601ABA2002800DBAAE
:1018900009028008BA0D028003BA0A03300505E583
:1018A0006FB56E1FE56E60C92004120570AB65ACA4
:1018B00066AD678B828C838DF0E4121362756E00C7
:1018C000021942BA081CE56E60A7200411AB65AC92
:1018D00066AD671BBBFF011C8B658C668D67156E43
:1018E000808F20041BAB65AC66AD678B828C838DCB
:1018F000F0EA1213620BBB00010C8B658C668D67DE
:10190000056E021871C202756E0A8036C202756ECB
:1019100008802FC202756E108028E57624FDF888B5
:1019200076860308860408860518188B658C668DF4
:10193000678B828C838DF0E56C121362A3E56D12C8
:101940001362E56E7003021A8C12156478A8E670B3
:1019500003021A8C300403021A8CE57624FDF88801
:1019600076860308860408860518188B658C668DB4
:10197000670570200203021A0530013585657785F9
:1019800066788567797582A81216DDAE82AF83AB63
:10199000F0FC8577828578838579F0EE121362A357
:1019A000EF121362A3EB121362A3EC121362021A7A
:1019B0008C3000268565778566788567797582A87D
:1019C0001216DDAE82AF83ABF0FC8577828578831B
:1019D0008579F0EE121362021A8C85657785667838
:1019E0008567797582A81216DDAE82AF83ABF0FCF5
:1019F0008577828578838579F0EE121362A3EF12E2
:101A00001362021A8C3001348565778566788567A4
:101A1000797582A8121646AE82AF83ABF0FC85774B
:101A2000828578838579F0EE121362A3EF12136238
:101A3000A3EB121362A3EC121362805030002585D1
:101A400065778566788567797582A8121646AE82B5
:101A5000AF83ABF0FC8577828578838579F0EE12D1
:101A6000136280288565778566788567797582A891
:101A7000121646AE82AF83ABF0FC85778285788301
:101A80008579F0EE121362A3EF12136220030302B2
:101A90001763AB73AC74AD758B828C838DF0120EB3
:101AA000F1FEA3AB82AC838B738C748D75EEFA70F0
:101AB00003021763BA25E18B828C838DF0120EF13D
:101AC000FABA6E028003BA4ECFE57624FDF8887626
:101AD000860208860608860718188A658E668F674C
:101AE0008A828E838FF0E56C121362A3E56D121368
:101AF0006280A5AA707B008A828B8322FCABF0AA4D
:101B000083A982749EC2D1F582121BFC021BAD799F
:101B100001AA82E68F82B5821318E6B5F00E18E6A8
:101B2000B5830918E68A82B58202790022B4800F53
:101B3000E5F0700AE5837006E58270027F00EFB67B
:101B4000801518B6001018B6000B18B60006080865
:101B50000876002208080822AA82AB83A2F73392F3
:101B6000D16002D2F7F582ACF0226040F8258250B5
:101B70000274FFF582E824F8501ECCCBCAF9E4CCFD
:101B800024F85014CBCAF9E4CB24F8500BCAF9E47A
:101B9000CA24F8500379002224086010F8C3EC131B
:101BA000FCEB13FBEA13FAE913F9D8F122B980032D
:101BB000EA13B34010EA2401FAE43BFBE43CFC5096
:101BC000047C800582BC000EBB000BBA0008E4F563
:101BD000F0F583F58222A2D1E582138CF092F78B87
:101BE000838A8222E4F583F58275F080F4A2D11312
:101BF00022E4F583F58275F0C0747F227804EC70DE
:101C000011E58224F8500AF582E4C9CACBFCD8EF6A
:101C100022EC7820058220E713D5820122C3E93324
:101C2000F9EA33FAEB33FBEC33FCD8EA158222AA4B
:101C300082AB83A2F73392D16002D2F7F582ACF087
:101C4000E58124F9F8E6FD08E6FE0886F008E6A23C
:101C5000F73392D56002D2F7F583AFF022AA8274EF
:101C60006EC0E0741CC0E0C063C0648A8222056A52
:101C7000E4B56A02056B22AA8274302AFA24C6509F
:101C80000A74072AFA3007034302208A82021C5D85
:101C9000E582FAC4540FF582C002121C77D0027498
:101CA0000F5AF582021C77AA65AB66AC67AD68AEC9
:101CB00069757020EE2EFEED235401FF4206EA2ADC
:101CC000FAEB33FBEC33FCED33FDC3EE956C4008CF
:101CD000EEC3956CFE430201D570D98A658B668C84
:101CE000678D688E6922858263858364E4F56AF571
:101CF0006BAA71AB72AC738A828B838CF0120EF17B
:101D0000FD74012AF571E43BF5728C73EDFA7003F2
:101D1000022276BA2502800302226EC20BC20CC2D6
:101D20000DC20EC20FC210C211C212C208C209C235
:101D30000A756C00756D00756EFFAB71AC72AD739A
:101D40008B828C838DF0120EF1FAA3AB82AC838B65
:101D5000718C728D73BA25078A82121C5D80928AFB
:101D600006BE3000402E8A06EE24C6402774FFB51A
:101D70006E13E56D75F00AA4FEEA24D02EF56D70A1
:101D8000BFD20C80BBE56E75F00AA4FEEA24D02E0B
:101D9000F56E80ACBA2E0A74FFB56EA4756E008025
:101DA0009F8A06BE6100400E8A06EE2485400753D6
:101DB00002DFD2078002C207BA20028075BA23036D
:101DC000021E41BA2A03021E46BA2B02805FBA2DB8
:101DD000028055BA4202805FBA4303021E8BBA44A6
:101DE00003021FC6BA4503021FE0BA4603021FDC06
:101DF000BA4703021FE4BA4903021FC6BA4C028065
:101E00003BBA4E03021FE8BA4F03021FCDBA50037C
:101E1000021F5FBA5303021EAFBA5503021FD2BAA4
:101E20005803021FD7022012D20B021D40D20D020E
:101E30001D40D20E021D40D210021D40D211021DC3
:101E400040D212021D4074FFB56E2030100BE574B5
:101E500014F88874866D021D40E57424FEF88874B9
:101E60008606088607188E6D021D4030100BE5743B
:101E700014F88874866E021D40E57424FEF8887498
:101E80008606088607188E6E021D4030100AE5741B
:101E900014F888748602800FE57424FEF88874862E
:101EA00003088604188B028A82121C5D022017E543
:101EB0007424FDF8887486030886040886051818BB
:101EC0008B658C668D678B828C838DF012227FAB45
:101ED00082AC838B6F74FFB56E03856F6E200B1D14
:101EE000C3E56F956D5016E56DC3956FF56DAB6DE0
:101EF000156DEB6008758220121C5D80F18565828E
:101F00008566838567F0120EF1FBFA6029AB6E15CA
:101F10006EC3E464808BF063F08095F050188A8281
:101F2000121C5DAB65AC66AD670BBB00010C8B652D
:101F30008C668D6780C7200B03022017C3E56F9561
:101F40006D4003022017E56DC3956FF56DAB6D1500
:101F50006DEB7003022017758220121C5D80EEE588
:101F60007424FDF88874860308860408860518180A
:101F70008B658C668D67E567FB30E7047A438013D9
:101F8000EB546060047A50800AEB30E6047A4980B2
:101F9000027A588A82C002121C5D75823A121C5D58
:101FA000758230121C5D758278121C5DD002BA49B0
:101FB00002800BBA50028006856682121C908565ED
:101FC00082121C908051D20F756C0A804A756C0881
:101FD0008045756C0A8040756C10803BD208803754
:101FE000D2098033D20A802FE57424FDF8887486E4
:101FF0000308860408860518188B658C668D678B28
:10200000828C838DF0E56A121362A3E56B12136272
:1020100080058A82121C5D200806200903300A5AB6
:10202000E57424FCF888748603088604088605088D
:1020300086061818188B658C668D678E6875651C0A
:1020400075660275678085657585667685677774C0
:10205000012575FEE43576FFAB778E658F668B675D
:102060008575828576838577F0120EF1FBFA700311
:10207000021CF18A82121C5D80CCE56C7003021C8C
:10208000F17BA730102BE57414F88874E6FC3395C7
:10209000E0FDFEFF8C658D668E678F68200F5EAC5D
:1020A000657D007E007F008C658D668E678F688001
:1020B0004C30111FE57424FCF888748604088605EA
:1020C0000886060886071818188C658D668E678F37
:1020D00068802AE57424FEF888748604088605184A
:1020E000ED3395E0FEFF8C658D668E678F68200F5F
:1020F0000CAC65AD667E007F008E678F6830124342
:10210000E56545664567456860397408B56C0C75CA
:102110008230C003121C5DD00380287410B56C237C
:10212000758230C003121C5DD00330070C758278B5
:10213000C003121C5DD003800A758258C003121CB4
:102140005DD003300F25AC65AD66AE67E568FF3046
:10215000E717C3E49CFCE49DFDE49EFEE49FFF8C36
:10216000658D668E678F688002C20F756F00D2130F
:102170008B00756900C000121CA7D00020130DE56C
:1021800069C4FCE6FD4CF61888038002A669056F59
:10219000B213E56545664567456870D68803E56D09
:1021A0007003756D01200C1A200B17E56F04FCC33A
:1021B000956D500E758220C003121C5DD003156D05
:1021C00080E9300F0E75822DC003121C5DD00315FF
:1021D0006D8024E56F6020300D0E75822BC00312D8
:1021E0001C5DD003156D800F300E0C758220C0036E
:1021F000121C5DD003156D200B1EAC6D156DC3E573
:102200006F9C5027300C047C3080027C208C82C074
:1022100003121C5DD00380E2C3E56F956D5009E5A4
:102220006DC3956FF56D8003756D008B00AB6F15F9
:102230006FEB6022B21320130A08E6C4540FFB8B25
:102240006980078603740F5BF569856982C0001297
:102250001C77D00080D7200B03021CF1AB6D156DED
:10226000EB7003021CF1758220121C5D80EE8A82E5
:10227000121C5D021CF1856A82856B8322E473AABD
:1022800082AB83ACF07D007E008A828B838CF0125F
:102290000EF1FFA3AA82AB83EF60070DBD00EA0E2B
:1022A00080E78D828E832200000000000000000085
:00000001FF
