:10000000020003758164120189E582600302006FBA
:10001000780079007A007B007C007D00EC4D601C4C
:1000200088828983E493A3A882A9838A828B83F040
:10003000A3AA82AB831CBCFFE31D80E07582007520
:1000400083007C007D00EC4D600AE4F0A31CBCFF43
:10005000F51D80F27582007583007C007D00EC4DFB
:10006000600AE4F0A31CBCFFF51D80F212018812A7
:10007000048380FE436F6D6D616E643A20257300CA
:10008000526573706F6E73653A2025730D0A0041D7
:10009000542B44564944303030300D0A000D0A4587
:1000A000464D384C423132204A44592D3430205389
:1000B0006C61766520546573742E0D0A0041542BD3
:1000C0005645520D0A0041542B424155440D0A0039
:1000D00041542B524649440D0A0041542B44564981
:1000E000440D0A0041542B5246433132300D0A0070
:1000F00041542B504F57450D0A0041542B434C534C
:10010000530D0A0041542B44564944464646460D79
:100110000A0031007265633100003200726563329B
:100120000A003300726563330A0034007265633479
:100130000A003500726563350A0053007265635327
:100140000A004600726563460A0042007265634217
:100150000A004C007265634C0A00520072656352DB
:100160000A005000726563500A00440072656344DF
:100170000A005800726563580A006B0A003C4E4F33
:1001800020464C4F41543E002275A7007597DE75FE
:1001900097AD75FF8075EF0675A71075C12075A71F
:1001A0000075A90075A900E5A930E7FB75A90375DD
:1001B000A903E5A930E7FB43A41143A60175E101BA
:1001C00075E20075E341759810758DE6858D8B534A
:1001D000890F438920D28ED299D2A075820022AA9B
:1001E00082438E407592B87593FF8592948593955E
:1001F0007591047B00C3EB9A500BE59130E7FB53FC
:10020000917F0B80F075910022AA82AB837C007DE8
:1002100000C3EC9AED9B502B7E00BE0400501D7570
:1002200082FAC002C003C004C005C0061201DFD0BC
:1002300006D005D004D003D0020E80DE0CBC00D165
:100240000D80CE22AA82AB83ACF0FD75A7207593FA
:100250000C75C8107594008A128B138C148D159030
:10026000A20075F04A74041208ABAA82AB83ACF00A
:10027000FD751218E4F513F514F5158A828B838C3D
:10028000F0ED1208ABAA82AB83ACF0FDE4C39AFA9E
:10029000E49BFB74019CE49D8A958B96D2C94394A0
:1002A0004075A70022AA8275A72010C90280FB8A88
:1002B0009275A70022AA82AB83ACF08A828B838CD2
:1002C000F012088FFD60188D82C002C003C00412B6
:1002D00002A5D004D003D0020ABA00DF0B80DC22D2
:1002E00075A72010C80280FB53C83F85928275A76E
:1002F000002275A7207A007B0020C82675A700750C
:100300008214C002C0031201DFD003D00275A720FF
:100310000ABA00010BBAA8E1BB61DE75A7007582BD
:100320000A22C2C853C83F85928275A70022AA82BA
:10033000AB83ACF07D008A068B078C00C002C00343
:10034000C004C005C006C007C0001202F2A982D0D6
:1003500000D007D006D005D004D003D002B90A0AD5
:100360008A828B838CF0E40209A3C3ED95095018AF
:100370000D8E828F8388F0E91209A3A3AE82AF832A
:100380008E028F03880480B48A828B838CF0E4020F
:1003900009A375A720A2C875A70022AA82AB837CF7
:1003A000007D00C3EC9AED9B50477E00BE040050D8
:1003B00039C002C003C004C005C006120392E43372
:1003C000D006D005D004D003D0026001227582FA95
:1003D000C002C003C004C005C0061201DFD006D0B1
:1003E00005D004D003D0020E80C20CBC00B50D8035
:1003F000B222AA82AB83ACF0C002C003C004C00228
:10040000C003C0047474C0E07400C0E07480C0E035
:10041000120982E58124FAF581C2A090000512023A
:1004200009D004D003D0028A828B838CF01202B5EB
:1004300075091390003775F04012032E90000A12D0
:100440000209D2A07437C0E07400C0E07440C0E07C
:100450007480C0E07400C0E07480C0E0120982E5DE
:100460008124FAF58122C2A090000A1202099000AC
:100470008F75F0801202B590000A12020953C83F2E
:10048000D2A0229001F4120209749DC0E07400C051
:10049000E07480C0E01209821581158115819025D4
:1004A00080E4F5F01202441204669000BD75F080FD
:1004B0001203F29000C675F0801203F29000D0751E
:1004C000F0801203F29000DA75F0801203F29000CF
:1004D000E475F0801203F29000F075F0801203F2E0
:1004E0009000FA75F0801203F290010475F080120A
:1004F00003F212039250FB75091490003775F04017
:1005000012032E7512127513017514809000377541
:10051000F040120910E5828583F045F070247414D0
:10052000C0E07401C0E07480C0E0744BC0E07400AF
:10053000C0E07440C0E0120A0BE58124FAF58102A4
:10054000087D75121A75130175148090003775F0C7
:1005500040120910E5828583F045F07024741CC0B8
:10056000E07401C0E07480C0E0744BC0E07400C06F
:10057000E07440C0E0120A0BE58124FAF58102081C
:100580007D75122275130175148090003775F04047
:10059000120910E5828583F045F070247424C0E0D0
:1005A0007401C0E07480C0E0744BC0E07400C0E02F
:1005B0007440C0E0120A0BE58124FAF58102087D3F
:1005C00075122A75130175148090003775F040126A
:1005D0000910E5828583F045F07024742CC0E07426
:1005E00001C0E07480C0E0744BC0E07400C0E074EF
:1005F00040C0E0120A0BE58124FAF58102087D75FE
:10060000123275130175148090003775F04012098D
:1006100010E5828583F045F070247434C0E07401E5
:10062000C0E07480C0E0744BC0E07400C0E074406F
:10063000C0E0120A0BE58124FAF58102087D7512EB
:100640003A75130175148090003775F04012091047
:10065000E5828583F045F0702CC2B7C2B2C2B0C249
:10066000A5743CC0E07401C0E07480C0E0744BC06D
:10067000E07400C0E07440C0E0120A0BE58124FA87
:10068000F58102087D751242751301751480900082
:100690003775F040120910E5828583F045F0702C23
:1006A000D2B7C2B2C2B0D2A57444C0E07401C0E0F7
:1006B0007480C0E0744BC0E07400C0E07440C0E0DF
:1006C000120A0BE58124FAF58102087D75124A753C
:1006D000130175148090003775F040120910E582FF
:1006E0008583F045F0702CC2B7D2B2D2B0C2A574E7
:1006F0004CC0E07401C0E07480C0E0744BC0E07492
:1007000000C0E07440C0E0120A0BE58124FAF581D4
:1007100002087D75125275130175148090003775AB
:10072000F040120910E5828583F045F0702CC2B7C5
:10073000C2B2D2B0C2A57454C0E07401C0E07480EB
:10074000C0E0744BC0E07400C0E07440C0E0120A26
:100750000BE58124FAF58102087D75125A751301A3
:1007600075148090003775F040120910E58285837A
:10077000F045F0702CC2B7D2B2C2B0C2A5745CC052
:10078000E07401C0E07480C0E0744BC0E07400C04D
:10079000E07440C0E0120A0BE58124FAF5810208FA
:1007A0007D75126275130175148090003775F040E5
:1007B000120910E5828583F045F070247464C0E06E
:1007C0007401C0E07480C0E0744BC0E07400C0E00D
:1007D0007440C0E0120A0BE58124FAF58102087D1D
:1007E00075126A75130175148090003775F0401208
:1007F0000910E5828583F045F07023746CC0E074C5
:1008000001C0E07480C0E0744BC0E07400C0E074CC
:1008100040C0E0120A0BE58124FAF581805F751271
:100820007275130175148090003775F0401209102D
:10083000E5828583F045F070237474C0E07401C0D4
:10084000E07480C0E0744BC0E07400C0E07440C04D
:10085000E0120A0BE58124FAF5818021747AC0E068
:100860007401C0E07480C0E0744BC0E07400C0E06C
:100870007440C0E0120A0BE58124FAF58190004B28
:1008800075F0401202B59000051202090204F22030
:10089000F71430F6148883A88220F507E6A883753C
:1008A000830022E280F7E49322E022FB7A20E4FC3A
:1008B000FDFEFFE5822582F582E58333F583E5F0D1
:1008C00033F5F0EB33FB4017DAE98042E58225820D
:1008D000F582E58333F583E5F033F5F0EB33FBEC9C
:1008E00033FCED33FDEE33FEEF33FFEC9512ED9567
:1008F00013EE9514EF95154013EC9512FCED95133E
:10090000FDEE9514FEEF9515FF438201DABEEB2252
:10091000AA82AB83ACF0AD12AE13AF148A828B8384
:100920008CF012088FF87900C002C003C0048D82D9
:100930008E838FF012088FFA7B00E8C39AF8E99B48
:10094000F988158916D004D003D002E84970178DB4
:10095000828E838FF012088F600C0ABA00010B0D93
:10096000BD00B90E80B685158285168322021071EE
:1009700085823085833185F03285113390096D028F
:100980000ADAC008858108E50824FBF533E5082468
:10099000FBF8863008863108863290096D120ADA33
:1009A000D0082220F71030F6118883A88220F5079E
:1009B000F6A88375830022F280F7F022AA82AB0AA0
:1009C000AC0BAD0C8B828C838DF0EA1209A3050A67
:1009D000E4B50A02050B2285820A85830B85F00C9B
:1009E000850D30850E31850F328510339009BC128C
:1009F0000ADAAA82AB83AC0AAD0BAE0C8C828D8373
:100A00008EF0E41209A38A828B8322C008858108B4
:100A1000E50824F8F533E50824FBF8860A08860B78
:100A200008860CE50824F8F88630088631088632F6
:100A30009009BC120ADAAA82AB83AC0AAD0BAE0CE9
:100A40008C828D838EF0E41209A38A828B83D00876
:100A500022AA827462C0E0740AC0E0C022C0238A65
:100A600082220529E4B52902052A22AA8274302AA5
:100A7000FA24C6500A74072AFA3000034302208A77
:100A800082020A51E582FAC4540FF582C002120AAA
:100A90006BD002740F5AF582020A6BAA24AB25AC04
:100AA00026AD27AE28752F20EE2EFEED235401FF34
:100AB0004206EA2AFAEB33FBEC33FCED33FDC3EEDE
:100AC000952B4008EEC3952BFE430201D52FD98A02
:100AD000248B258C268D278E2822858222858323B0
:100AE000E4F529F52AAA30AB31AC328A828B838CAB
:100AF000F012088FFD74012AF530E43BF5318C3299
:100B0000EDFA700302106ABA25028003021062C275
:100B100004C205C206C207C208C209C20AC20BC289
:100B200001C202C203752B00752C00752DFFAB307E
:100B3000AC31AD328B828C838DF012088FFAA3AB6F
:100B400082AC838B308C318D32BA25078A82120AAF
:100B50005180928A06BE3000402E8A06EE24C6409E
:100B60002774FFB52D13E52C75F00AA4FEEA24D0F6
:100B70002EF52C70BFD20580BBE52D75F00AA4FEC2
:100B8000EA24D02EF52D80ACBA2E0A74FFB52DA420
:100B9000752D00809F8A06BE6100400E8A06EE24F5
:100BA0008540075302DFD2008002C200BA200280D3
:100BB00075BA2303020C35BA2A03020C3ABA2B0287
:100BC000805FBA2D028055BA4202805FBA430302A9
:100BD0000C7FBA4403020DBABA4503020DD4BA46DB
:100BE00003020DD0BA4703020DD8BA4903020DBA69
:100BF000BA4C02803BBA4E03020DDCBA4F03020D21
:100C0000C1BA5003020D53BA5303020CA3BA5503E1
:100C1000020DC6BA5803020DCB020E06D204020B17
:100C200034D206020B34D207020B34D209020B3441
:100C3000D20A020B34D20B020B3474FFB52D2030D4
:100C4000090BE53314F88833862C020B34E5332482
:100C5000FEF888338606088607188E2C020B34307F
:100C6000090BE53314F88833862D020B34E5332461
:100C7000FEF888338606088607188E2D020B34305E
:100C8000090AE53314F888338602800FE53324FE21
:100C9000F888338603088604188B028A82120A5168
:100CA000020E0BE53324FDF888338603088604081A
:100CB000860518188B248C258D268B828C838DF0CD
:100CC000121086AB82AC838B2E74FFB52D03852E5C
:100CD0002D20041DC3E52E952C5016E52CC3952E12
:100CE000F52CAB2C152CEB6008758220120A518074
:100CF000F18524828525838526F012088FFBFA6012
:100D000029AB2D152DC3E464808BF063F08095F042
:100D100050188A82120A51AB24AC25AD260BBB00B9
:100D2000010C8B248C258D2680C7200403020E0B1A
:100D3000C3E52E952C4003020E0BE52CC3952EF532
:100D40002CAB2C152CEB7003020E0B758220120AB3
:100D50005180EEE53324FDF88833860308860408C5
:100D6000860518188B248C258D26E526FB30E70494
:100D70007A438013EB546060047A50800AEB30E6CB
:100D8000047A4980027A588A82C002120A51758216
:100D90003A120A51758230120A51758278120A513C
:100DA000D002BA4902800BBA500280068525821211
:100DB0000A84852482120A848051D208752B0A8005
:100DC0004A752B088045752B0A8040752B10803B97
:100DD000D2018037D2028033D203802FE53324FD45
:100DE000F88833860308860408860518188B248C37
:100DF000258D268B828C838DF0E5291209A3A3E52E
:100E00002A1209A380058A82120A512001062002B3
:100E10000330035AE53324FCF8883386030886043C
:100E20000886050886061818188B248C258D268EB2
:100E30002775247D75250175268085243485253503
:100E400085263674012534FEE43535FFAB368E2415
:100E50008F258B268534828535838536F012088F61
:100E6000FBFA7003020AE58A82120A5180CCE52B54
:100E70007003020AE57B6430092BE53314F88833EC
:100E8000E6FC3395E0FDFEFF8C248D258E268F2712
:100E900020085EAC247D007E007F008C248D258E92
:100EA000268F27804C300A1FE53324FCF8883386D0
:100EB000040886050886060886071818188C248DED
:100EC000258E268F27802AE53324FEF88833860472
:100ED00008860518ED3395E0FEFF8C248D258E26BF
:100EE0008F2720080CAC24AD257E007F008E268F36
:100EF00027300B43E52445254526452760397408EE
:100F0000B52B0C758230C003120A51D003802874AF
:100F100010B52B23758230C003120A51D003300064
:100F20000C758278C003120A51D003800A7582586A
:100F3000C003120A51D003300825AC24AD25AE26DB
:100F4000E527FF30E717C3E49CFCE49DFDE49EFE2B
:100F5000E49FFF8C248D258E268F278002C2087582
:100F60002E00D20C8B00752800C000120A9BD00006
:100F7000200C0DE528C4FCE6FD4CF6188803800221
:100F8000A628052EB20CE52445254526452770D612
:100F90008803E52C7003752C0120051A200417E541
:100FA0002E04FCC3952C500E758220C003120A51EA
:100FB000D003152C80E930080E75822DC003120A6B
:100FC00051D003152C8024E52E602030060E75824A
:100FD0002BC003120A51D003152C800F30070C755B
:100FE0008220C003120A51D003152C20041EAC2C01
:100FF000152CC3E52E9C50273005047C3080027CE4
:10100000208C82C003120A51D00380E2C3E52E95E2
:101010002C5009E52CC3952EF52C8003752C008BE4
:1010200000AB2E152EEB6022B20C200C0A08E6C491
:10103000540FFB8B2880078603740F5BF5288528E7
:1010400082C000120A6BD00080D7200403020AE598
:10105000AB2C152CEB7003020AE5758220120A51A5
:1010600080EE8A82120A51020AE5852982852A8346
:1010700022AA82BA0A0810990280FB75990D10996C
:101080000280FB8A9922AA82AB83ACF07D007E00AD
:101090008A828B838CF012088FFFA3AA82AB83EF26
:1010A00060070DBD00EA0E80E78D828E832200006E
:00000001FF
