:10000000020096E4F523F5247525FF7526FFE4F537
:1000100027F5287529FF752AFFE4F52BF52CE4F563
:100020002DF52E752FFA7530FA22000206EB00002E
:1000800000000000000000000000000206A40000C4
:100090000000000202CF7581B5120227E5826003DD
:1000A000020102780079007A007B007C007D00EC80
:1000B0004D601C88828983E493A3A882A9838A82E5
:1000C0008B83F0A3AA82AB831CBCFFE31D80E07589
:1000D00082007583007C217D00EC4D600AE4F0A372
:1000E0001CBCFFF51D80F27582007583007C007DCD
:1000F00000EC4D600AE4F0A31CBCFFF51D80F21279
:100100000003120B7780FE436F6D6D616E643A20C1
:10011000257300526573706F6E73653A2025730DF9
:100120000A0041542B44564944303030300D0A0007
:10013000303132333435363738394142434445461D
:1001400000204E4F205349474E414C202020202074
:10015000202020202020202020202020202020209F
:100160000D00256C640A0D000D0A45464D384C42C1
:100170003132204A44592D343020536C6176652049
:10018000546573742E0D0A0041542B5645520D0AC6
:100190000041542B424155440D0A0041542B524614
:1001A00049440D0A0041542B445649440D0A00416C
:1001B000542B5246433132300D0A0041542B504FDC
:1001C00057450D0A0041542B434C53530D0A00412F
:1001D000542B44564944464646460D0A00253035C0
:1001E0006C640A0D00410068656C6C6F005300740C
:1001F0006869732073686F756C6420626520746829
:1002000065206D6F746F722066756E6374696F6EB2
:10021000004B25755725754725640A003C4E4F2035
:10022000464C4F41543E0075A7007597DE7597AD5B
:1002300075FF8075EF0675A71075C12075A700754D
:10024000A90075A900E5A930E7FB75A90375A90305
:10025000E5A930E7FB43A41143A60175E10175E26E
:100260000075E341439C8575E341439C8575981077
:10027000758DE6858D8B53890F438920D28ED29957
:1002800075A71075980043A60175A2A875A3FD7502
:10029000A4FF75A5FF43F304D29AD2AF75C80043FB
:1002A0008E1075CAA875CBFD75CEFF75CFFFD2AD88
:1002B000D2CA75A70075A71075C00075D4FF75D593
:1002C000FF43F308D2C2D2AF75A70075820022C0E7
:1002D000E0C002C003C0D075D00075A710C2C775BA
:1002E000D2C475D3FF7401252DF52DE4352EF52EDE
:1002F00074D0B52D0A7407B52E05E4F52DF52EAA98
:100300002F7B00C3EA952DEB952E4004D2938002FB
:10031000C293AA307B00C3EA952DEB952E4004D200
:10032000948002C294D0D0D003D002D0E032AA820E
:10033000438E407592B87593FF8592948593957519
:1003400091047B00C3EB9A500BE59130E7FB53918E
:100350007F0B80F075910022AA82AB837C007D0028
:10036000C3EC9AED9B502B7E00BE0400501D75829D
:10037000FAC002C003C004C005C00612032ED00696
:10038000D005D004D003D0020E80DE0CBC00D10D0D
:1003900080CE22AA82AB83ACF0FD75A72075930CAA
:1003A00075C8107594008A188B198C1A8D1B90A231
:1003B0000075F04A7404120F2FAA82AB83ACF0FDD3
:1003C000751818E4F519F51AF51B8A828B838CF0E1
:1003D000ED120F2FAA82AB83ACF0FDE4C39AFAE4CE
:1003E0009BFB74019CE49D8A958B96D2C9439440F3
:1003F00075A70022AA8275A72010C90280FB8A92E5
:1004000075A70022AA82AB83ACF08A828B838CF022
:10041000120EA5FD60188D82C002C003C004120335
:10042000F4D004D003D0020ABA00DF0B80DC2275BE
:10043000A72010C80280FB53C83F85928275A70091
:100440002275A7207A007B0020C82675A700758238
:1004500014C002C00312032ED003D00275A7200AD5
:10046000BA00010BBAA8E1BB61DE75A70075820A6C
:1004700022C2C853C83F85928275A70022AA82ABC8
:1004800083ACF07D008A068B078C00C002C003C0DD
:1004900004C005C006C007C000120441A982D000F4
:1004A000D007D006D005D004D003D002B90A0A8AFA
:1004B000828B838CF0E4021316C3ED953250180D35
:1004C0008E828F8388F0E9121316A3AE82AF838EDB
:1004D000028F03880480B48A828B838CF0E4021339
:1004E0001675A720A2C875A70022AA82AB837C003C
:1004F0007D00C3EC9AED9B50477E00BE040050394E
:10050000C002C003C004C005C0061204E1E433D039
:1005100006D005D004D003D0026001227582FAC053
:1005200002C003C004C005C00612032ED006D005C9
:10053000D004D003D0020E80C20CBC00B50D80B236
:1005400022AA82AB83ACF0C002C003C004C002C0C8
:1005500003C0047407C0E07401C0E07480C0E012FE
:100560001279E58124FAF581C2A0900005120358A2
:10057000D004D003D0028A828B838CF012040475DD
:10058000321390007875F04012047D90000A120337
:1005900058D2A07478C0E07400C0E07440C0E07429
:1005A00013C0E07401C0E07480C0E0121279E581EC
:1005B00024FAF58122C2A090000A12035890012269
:1005C00075F08012040490000A12035853C83FD2F9
:1005D000A0225389F0438901C28C2275A700C2EF83
:1005E00075B28075BC2075B91E75E80075DF3F7562
:1005F000B300D2EF22AA828518F005F074018002C0
:1006000025E0D5F0FBFB75A720BA0002800ABA01ED
:1006100002800FBA021E8014EBF4FA52F1EB42D4BE
:100620008012EBF4FA52F2EB42D58008EBF4FA5266
:10063000F3EB42CC75A700228582BBC2EDD2EC3031
:10064000EDFD85BD8285BE8322120638120FF8AA01
:1006500082AB83ACF0FDC002C003C004C005906C47
:100660008B75F0537440121112AA82AB83ACF0FD6B
:10067000E58124FCF581E4C0E074FCC0E0747FC037
:10068000E07446C0E08A828B838CF0ED1213D9AA05
:1006900082AB83ACF0FDE58124FCF5818A828B83FB
:1006A0008CF0ED22C0E0C0D075D00075A710C29FBD
:1006B00085232374012524F5247401B52B06E4B5A4
:1006C0002C028002800BC3E5239525E52495269214
:1006D000B0E52B452C700BC3E5239525E524952625
:1006E00092A5E52BE52CD0D0D0E032C0E0C0D0758B
:1006F000D00075A700C2CF85272774012528F528CB
:100700007401B52B06E4B52C028002800BC3E527EB
:100710009529E528952A92B2E52B452C700BC3E567
:10072000279529E528952A92B7E52BE52CD0D0D03E
:10073000E032AA82AB83C28C5389F0438901C28C18
:10074000758A00758C00C28DD28CC28C758A00753A
:100750008C00C28DD28C7C007D00308619108D02F9
:1007600080F80CBC00010DBC0AF0BD00EDC28C90FD
:100770000000E4F5F022C28C758A00758C00C28DF1
:10078000D28C7C007D00208619108D0280F80CBC74
:1007900000010DBC0AF0BD00EDC28C900000E4F534
:1007A000F022C28C758A00758C00C28D7C007D00A1
:1007B000D28C7E008E077800C3EF9AE864808BF0BD
:1007C00063F08095F050298C078D0030860C108DD9
:1007D0000280F80FBF00F40880F120860C108D0213
:1007E00080F80FBF00F40880F18F0488050E80C4E4
:1007F000C28C8D038C027D007C00AF8C7E00EF33B9
:1008000095E0F8F9EE2CFCEF3DFDE83AFAE93BFB08
:10081000AE8AE4FF3395E0F8F9EE2CFCEF3DFDE8FD
:100820003AFAE93B8C828D838AF022AA82AB83ACB0
:10083000F08A828B838CF0120EA5FD60188D82C029
:1008400002C003C0041213C4D004D003D0020ABAF9
:1008500000DF0B80DC2285823785833885F039F50F
:100860003A900020E4F0E53A30E71B75822D121330
:10087000C4C3E49537F537E49538F538E49539F590
:1008800039E4953AF53A753B1FE4F53CA835A936AD
:10089000C3E49537E49538E49539E46480853AF00B
:1008A00063F08095F0E433FEC3E498E4648089F05B
:1008B00063F08095F0E433FF4E7003020950AE3BC5
:1008C000AF3C153B74FFB53B02153CEE2400F53DF3
:1008D000EF3400F53E85333FE534F5403395E0F5E0
:1008E00041F542853F1885401985411A85421B858F
:1008F00037828538838539F0E53AC000C00112128D
:100900009AAE82AF83EE2430F582EF3401F583E4B2
:1009100093853D82853E83F0853F1885401985414A
:100920001A85421B8537828538838539F0E53A126E
:10093000121285823785833885F039F53AD001D097
:1009400000E849700302089018B8FF0119020890E6
:10095000E53B042400FAE43400FB7C008A828B83AC
:100960008CF002082BAA82AB83ACF0FD7E007F00E6
:1009700078007900C3E49AE49BE49CE464808DF001
:1009800063F08095F0504E8A188B198C1A8D1B904D
:10099000000CE4F5F0120EC11212E9AA82AB83AC8E
:1009A000F0FDC002C003C004C0059093A475F056CA
:1009B00074501213D9AA82AB83ACF0FDE58124FCFC
:1009C000F5818A828B838CF0ED121034AE82AF8376
:1009D000A8F0F9801990014175F080C006C007C0E9
:1009E00000C00112082BD001D000D007D0068E82A3
:1009F0008F8388F0E9229001F4120358752F9690A6
:100A00000064120358D2957AFAEA244B50128A30C5
:100A1000900014C002120358D002EA24FBFA80E9C5
:100A20009003E81203587A96BAFA0050128A2F906F
:100A30000014C002120358D00274052AFA80E9900B
:100A400003E81203587AB4EA24A550128A309000C1
:100A500014C002120358D002EA24FBFA80E9C295BE
:100A6000900096120358752FFA7530FAC29522AA93
:100A700082AB83ACF0FD752B03E4F52CD2B7C2B288
:100A8000C2B0D2A5C002C003C004C005C047C04860
:100A9000C049C04A7462C0E07401C0E07480C0E024
:100AA000121279E58124F9F581E4C0E07464C0E0B4
:100AB000747AC0E07447C0E08547828548838549E1
:100AC000F0E54A121004AE82E58124FCF581D005E0
:100AD000D004D003D002EE7029C2B7D2B2D2B0C2D5
:100AE000A5900096C002C003C004C005120358C2FE
:100AF000B7C2B2C2B0C2A51209F6D005D004D00365
:100B0000D00274CDC0E074CCC0E0C0E0743DC0E061
:100B10008A828B838CF0ED121004AA82E58124FC7A
:100B2000F581EA701CC2B7D2B2D2B0C2A590012C36
:100B3000120358C2B7D2B2C2B0C2A59002EE0203ED
:100B40005874CDC0E074CCC0E0C0E0743DC0E08516
:100B500043828544838545F0E546121004AA82E568
:100B60008124FCF581EA700EC2B7D2B2C2B0C2A530
:100B70009002EE020358229001F41203587468C0E8
:100B8000E07401C0E07480C0E01212791581158113
:100B90001581902580E4F5F01203931205B5120536
:100BA000D27518017582021205F575180375820257
:100BB0001205F51205DB90018875F0801205419051
:100BC000019175F08012054190019B75F08012052E
:100BD000419001A575F0801205419001AF75F0803C
:100BE0001205419001BB75F0801205419001C57559
:100BF000F0801205419001CF75F080120541C29539
:100C0000C2959000C812073212096585825185830A
:100C10005285F053F554C051C052C053C05474DDD6
:100C2000C0E07401C0E07480C0E0748CC0E0740067
:100C3000C0E07440C0E012137EE58124F6F5819097
:100C4000008C75F040120404900032120358758233
:100C50000E12064985825D85835E85F05FF56085AD
:100C60005D55855E56855F57856058758210120602
:100C70004985825D85835E85F05FF560855D598578
:100C80005E5A855F5B85605C1204E14003020C00E4
:100C900075321490007875F04012047D7518E57572
:100CA0001901751A8090007875F0401211B5E5822F
:100CB0008583F045F06003020DB49001F4120358EF
:100CC000900005120358752B03E4F52C75820E1263
:100CD000064985825D85835E85F05FF560855D559B
:100CE000855E56855F578560587582101206498566
:100CF000825D85835E85F05FF560855D59855E5A0E
:100D0000855F5B85605C9000C812073212096585BB
:100D1000825185835285F053F55485555D85565E25
:100D200085575F855860AE59AF5AAA5BAB5C855159
:100D3000828552838553F0E554C002C003C006C0CB
:100D4000071212E985824785834885F049F54AD024
:100D500007D006D003D0028E438F448A458B468548
:100D60005D82855E83855FF0E560120A6F1204E1A3
:100D70004003020CC074E7C0E07401C0E07480C09E
:100D8000E012127915811581158175321490007861
:100D900075F04012047D7518E5751901751A80907B
:100DA000007875F0401211B5E5828583F045F0605A
:100DB00003020CC07518ED751901751A8090007842
:100DC00075F0401211B5E5828583F045F0701E1272
:100DD00009F674EFC0E07401C0E07480C0E0121244
:100DE000791581158115819001F4120358744FC053
:100DF000E07400C0E07440C0E0744DC0E07400C016
:100E0000E07440C0E0744BC0E07400C0E07440C0C7
:100E1000E07411C0E07402C0E07480C0E07478C077
:100E2000E07400C0E07440C0E0120FCAE58124F114
:100E3000F581E54F4550700CC2A5C2B7752B01E492
:100E4000F52C8009C2B2C2B0E4F52BF52C854D25F6
:100E5000854E26749FB54B0B7415B54C06754BFF2C
:100E6000754CFF74DEB54B0B7413B54C06754BFF18
:100E7000754CFF7417B54B0B7402B54C06754BFFE0
:100E8000754CFF7456B54B06E4B54C0280028006E3
:100E9000754BFF754CFF854B29854C2A9000051238
:100EA0000358020C0020F71430F6148883A882201F
:100EB000F507E6A88375830022E280F7E49322E039
:100EC00022AAF0FBE5828518F0A4FCADF0E583854D
:100ED00018F0A42DFDE435F0FEE5828519F0A42D6F
:100EE000FDE5F03EFEE433FFEA8518F0A42EFEE5B2
:100EF000F03FFFE5838519F0A42EFEE5F03FFFE506
:100F000082851AF0A42EFEE5F03FFFEB8518F0A4D1
:100F10002FFFEA8519F0A42FFFE583851AF0A42F8F
:100F2000FFE582851BF0A42F8EF08D838C8222FB3F
:100F30007A20E4FCFDFEFFE5822582F582E583331D
:100F4000F583E5F033F5F0EB33FB4017DAE9804247
:100F5000E5822582F582E58333F583E5F033F5F00C
:100F6000EB33FBEC33FCED33FDEE33FEEF33FFEC04
:100F70009518ED9519EE951AEF951B4013EC951801
:100F8000FCED9519FDEE951AFEEF951BFF438201CE
:100F9000DABEEB22AA08AB09AC0A8A828B838CF0FA
:100FA000120EA5FA0508E4B5080205098A82228511
:100FB000820885830985F00A850B71850C72850D81
:100FC00073850E74900F94021708C00F85810FE58A
:100FD0000F24F8F574E50F24FBF886080886090845
:100FE000860AE50F24F8F8867108867208867390E1
:100FF0000F94121708D00F22E4AC83AB82FAF97475
:101000008E021AB9FFA8811818121AE1D2D133E65C
:10101000400730E70B7582002220E7067582012227
:10102000C2D1121AC3E97003F5822220D101B3E4C0
:1010300033F58222121B0CC3749E958240397900CD
:10104000121B1E30D126E9F42401F582EAF43400A3
:10105000F583EBF43400F5F0ECF43400700AE5822B
:10106000458345F0700122E430E70F22EC20E714BD
:1010700089828A838BF02230D10AE4F582F583F5E8
:10108000F074802274FFF582F583F5F0747F22F905
:10109000E5184519451A451B60777800C308E51B1C
:1010A00020E73BE51825E0F518E51933F519E51AB1
:1010B00033F51AE51B33F51BE5829518E583951981
:1010C000E5F0951AE9951B50D4C3E51B13F51BE514
:1010D0001A13F51AE51913F519E51813F518E58231
:1010E0009518FCE5839519FDE5F0951AFEE9951B29
:1010F0004007F98EF08D838C82C3E51B13F51BE549
:101100001A13F51AE51913F519E51813F518D8CEC1
:10111000E922121BE3BC0003021B82EF60FA30D508
:1011200002B2D1E583B4FF03021B98E582B4FF034A
:10113000021B98258340072482400B021B822483D4
:10114000145003021B98F582EA8DF0A4A8F0EA8EF1
:10115000F0A428F8E435F0F9EB8DF0A428E935F097
:10116000F9E433CA8FF0A429F9EA35F0FAEBF88EE6
:10117000F0A429F9EA35F0FAE433FBEC8DF0A42968
:10118000F9EA35F0FAE43BFBE88FF0A42AFAEB35F4
:10119000F0FBE433CCFD8EF0A42AFAEB35F0FBE44F
:1011A0003CFCED8FF0A42BFBEC35F0FC20E70312A8
:1011B0001BB0021B61AA82AB83ACF0AD18AE19AFB5
:1011C0001A8A828B838CF0120EA5F87900C002C0B7
:1011D00003C0048D828E838FF0120EA5FA7B00E887
:1011E000C39AF8E99BF9881B891CD004D003D0026C
:1011F000E84970178D828E838FF0120EA5600C0A5D
:10120000BA00010B0DBD00B90E80B6851B82851C8E
:101210008322FBC2D530E715D2D5E4C39582F5828F
:10122000E49583F583E495F0F5F0E49BFBE51B3052
:10123000E717B2D5E4C39518F518E49519F519E444
:10124000951AF51AE4951BF51BEB120F2F30D513E9
:10125000FBE4C39582F582E49583F583E495F0F58C
:10126000F0E49B220213C485826F85837085F07140
:10127000851772901264021C9AC00F85810FE50FCA
:1012800024FBF572E50F24FBF8866F08867008864C
:1012900071901264121C9AD00F22F9C2D530E71552
:1012A000D2D5E4C39582F582E49583F583E495F085
:1012B000F5F0E499F9E51B30E715E4C39518F51846
:1012C000E49519F519E4951AF51AE4951BF51BE94F
:1012D00012108F30D512E4C39582F582E49583F520
:1012E00083E495F0F5F0E49922FCABF0AA83A9829F
:1012F000749EF582C2D1EC30E716D2D1E9F4240114
:10130000F9EAF43400FAEBF43400FBECF43400FCBA
:10131000121BB0021B6120F71030F6118883A882DF
:1013200020F507F6A88375830022F280F7F022AA41
:1013300082AB10AC11AD128B828C838DF0EA12134C
:10134000160510E4B510020511228582108583115F
:1013500085F01285136F851470851571851672904E
:10136000132F121C9AAA82AB83AC10AD11AE128C53
:10137000828D838EF0E41213168A828B8322C00F33
:1013800085810FE50F24F8F572E50F24FBF8861030
:10139000088611088612E50F24F8F8866F08867013
:1013A00008867190132F121C9AAA82AB83AC10ADE1
:1013B00011AE128C828D838EF0E41213168A828B0A
:1013C00083D00F22AA82BA0A0810990280FB75996D
:1013D0000D10990280FB8A9922121BE330D502B2CC
:1013E000D1BF0009BC0003021BA5021B98BC00036F
:1013F000021B82E583B4FF0BE582B4FF03021BA549
:10140000021B82E582B4FF03021B98C39583500739
:10141000247F400B021B822480145003021B98C0BF
:10142000E0E4CCCBCAF98D188E198F1AEF54F0C4B2
:10143000F51B758306851BF0EB84F582E9C4F9EA98
:10144000C4FAEBC4FBEC540FC47803D6FC18EBD6FB
:10145000FB18EAD6FA8582F0EDA4A8F0FD8582F0AB
:10146000EEA428FEE435F0F88582F0EFA428FFE42E
:1014700035F0F8E99DF9EA9EFAEB9FFBEC98FCAD9C
:1014800018AE19AF1A30E7101582E92DF9EA3EFAC5
:10149000EB3FFBE43CFC80EDC082D58398C3E9338D
:1014A000F9EA33FAEB33FBEC33FCC3E99DEA9EEB3C
:1014B0009FEC9400B3E413F9D002D0E0C44AFAD010
:1014C00003D0E0C44BFBD004D0E0F5F0540FC44C83
:1014D000FCD082158230F40FD3EC13FCEB13FBEA43
:1014E00013FAE913F90582E930E70A74012AFAE4EC
:1014F0003BFBE43CFC021B798561828562831222FE
:1015000031858270E570600A056AE4B56A06056B8C
:101510008002D203857082227A007B003003057836
:10152000A6760022C002C0031214F8AC82D003D009
:1015300002BC0002802DBC08028014BC090280237A
:10154000BC0A02801EBC0D028019BC20218014EA56
:101550004B60D11ABAFF011B156A74FFB56A0215F8
:101560006B80C1EA4B60BDEA24A6F8760022EC70DD
:1015700009EA24A6F87600D20322ECB56F07EA2424
:10158000A6F8760022C3EA940FEB940050968A05E1
:101590008B060ABA00010BED24A6F8A60402152456
:1015A000AA827B7FC3EA648094B0401174B98AF048
:1015B00063F08095F04006EA24D0FB8030C3EA64F3
:1015C0008094C1401174C68AF063F08095F04006A3
:1015D00074C92AFB8017C3EA648094E1400F74E663
:1015E0008AF063F08095F0400474A92AFBC3EB9560
:1015F0006C50038B822275827F22AA8275660075E9
:1016000067007568007569008A00E6FA60148A82CE
:10161000C0001215A0AB82D000C3EB956C4003084C
:1016200080E886038B82C0001215A0AA82D000C376
:10163000E56C9A4050856C18751900751A00751B79
:10164000008566828567838568F0E569C002C00011
:10165000120EC1AB82AC83ADF0FED000D0028B661F
:101660008C678D688E69E4FBFCFDEA2566FAEB3534
:1016700067FBEC3568FCED3569FD8A668B678C6825
:101680008D6908809D8566828567838568F0E56938
:1016900022AA827566007567007568007569008A00
:1016A00000E6FB60228B82C003C0001215A0AC8252
:1016B000D000D003C3EC956C400DBB2D028008BB5D
:1016C0002B0280030880DA88028603BB2D03D380B7
:1016D00001C39206BB2D028003BB2B010A8A821232
:1016E00015FA300613C3E49566FAE49567FBE495B2
:1016F00068FCE49569FD8008AA66AB67AC68AD69D3
:101700008A828B838CF0ED22858261858362E4F589
:101710006AF56BF56EC203AA71AB72AC738A828BE9
:10172000838CF0120EA5FD74012AF571E43BF5726D
:101730008C73EDFA7003021AA7BA25028003021A0D
:1017400040D202C200756C00756D00C204C205ABC8
:1017500071AC72AD738B828C838DF0120EA5FAA3DF
:10176000AB82AC838B718C728D738B828C838DF08A
:10177000120EA5F56F8A06BE300040168A06EE24CA
:10178000C6400FE56D75F00AA4FEEA24D02EF56D73
:1017900080C38A06BE6100400A8A06EE24854003A3
:1017A0005302DFBA250280ADBA2A028045BA42024E
:1017B0008036BA43028040BA44030218BBBA4903D8
:1017C0000218BBBA4C028025BA4E030218CEBA4F9B
:1017D000030218C0BA53028020BA55030218B9BADE
:1017E00058030218C70218F6D200021755D2010298
:1017F0001755D204021755D205200417E57424FDAD
:10180000F88874860308860408860518188B638C8C
:10181000648D65E56D700B3005047B0180027BFFF4
:101820008B6D756C00C3E56C956D50051214F8AAAC
:1018300082300307E56C70030218F6EA601ABA20DA
:1018400002800DBA09028008BA0D028003BA0A03A9
:10185000300505E56DB56C1FE56C60C92004120507
:101860006EAB63AC64AD658B828C838DF0E4121338
:1018700016756C000218F6BA081CE56C60A7200407
:1018800011AB63AC64AD651BBBFF011C8B638C6447
:101890008D65156C808F20041BAB63AC64AD658BCC
:1018A000828C838DF0EA1213160BBB00010C8B6344
:1018B0008C648D65056C021825C202756C0A803631
:1018C000C202756C08802FC202756C108028E57406
:1018D00024FDF88874860308860408860518188B8A
:1018E000638C648D658B828C838DF0E56A12131690
:1018F000A3E56B121316E56C7003021A401215185B
:1019000078A6E67003021A40300403021A40E57418
:1019100024FDF88874860308860408860518188B49
:10192000638C648D65056E2002030219B9300135A0
:101930008563758564768565777582A6121691AE86
:1019400082AF83ABF0FC8575828576838577F0EE78
:10195000121316A3EF121316A3EB121316A3EC1215
:101960001316021A403000268563758564768565F6
:10197000777582A6121691AE82AF83ABF0FC8575A7
:10198000828576838577F0EE121316021A408563FE
:10199000758564768565777582A6121691AE82AFDD
:1019A00083ABF0FC8575828576838577F0EE121324
:1019B00016A3EF121316021A4030013485637585A1
:1019C00064768565777582A61215FAAE82AF83AB11
:1019D000F0FC8575828576838577F0EE121316A369
:1019E000EF121316A3EB121316A3EC12131680506A
:1019F0003000258563758564768565777582A612C6
:101A000015FAAE82AF83ABF0FC857582857683854F
:101A100077F0EE12131680288563758564768565E8
:101A2000777582A61215FAAE82AF83ABF0FC85758E
:101A3000828576838577F0EE121316A3EF121316C4
:101A4000200303021717AB71AC72AD738B828C83CA
:101A50008DF0120EA5FEA3AB82AC838B718C728DC0
:101A600073EEFA7003021717BA25E18B828C838D0F
:101A7000F0120EA5FABA6E028003BA4ECFE57424B6
:101A8000FDF88874860208860608860718188A6397
:101A90008E648F658A828E838FF0E56A121316A397
:101AA000E56B12131680A5AA6E7B008A828B8322B7
:101AB000FCABF0AA83A982749EC2D1F582121BB03E
:101AC000021B617901AA82E68F82B5821318E6B5FE
:101AD000F00E18E6B5830918E68A82B5820279000D
:101AE00022B4800FE5F0700AE5837006E58270028B
:101AF0007F00EFB6801518B6001018B6000B18B6A8
:101B0000000608080876002208080822AA82AB838B
:101B1000A2F73392D16002D2F7F582ACF022604096
:101B2000F82582500274FFF582E824F8501ECCCBD1
:101B3000CAF9E4CC24F85014CBCAF9E4CB24F85009
:101B40000BCAF9E4CA24F850037900222408601073
:101B5000F8C3EC13FCEB13FBEA13FAE913F9D8F121
:101B600022B98003EA13B34010EA2401FAE43BFBF4
:101B7000E43CFC50047C800582BC000EBB000BBA28
:101B80000008E4F5F0F583F58222A2D1E582138CFA
:101B9000F092F78B838A8222E4F583F58275F080D8
:101BA000F4A2D11322E4F583F58275F0C0747F228C
:101BB0007804EC7011E58224F8500AF582E4C9CA71
:101BC000CBFCD8EF22EC7820058220E713D58201E8
:101BD00022C3E933F9EA33FAEB33FBEC33FCD8EAFE
:101BE000158222AA82AB83A2F73392D16002D2F788
:101BF000F582ACF0E58124F9F8E6FD08E6FE0886FA
:101C0000F008E6A2F73392D56002D2F7F583AFF081
:101C100022AA827422C0E0741CC0E0C061C0628A43
:101C200082220568E4B56802056922AA8274302A16
:101C3000FA24C6500A74072AFA3007034302208A9E
:101C400082021C11E582FAC4540FF582C002121CF4
:101C50002BD002740F5AF582021C2BAA63AB64AC22
:101C600065AD66AE67756E20EE2EFEED235401FF66
:101C70004206EA2AFAEB33FBEC33FCED33FDC3EE0C
:101C8000956A4008EEC3956AFE430201D56ED98A73
:101C9000638B648C658D668E672285826185836225
:101CA000E4F568F569AA6FAB70AC718A828B838C9E
:101CB000F0120EA5FD74012AF56FE43BF5708C71EE
:101CC000EDFA700302222ABA25028003022222C200
:101CD0000BC20CC20DC20EC20FC210C211C212C280
:101CE00008C209C20A756A00756B00756CFFAB6F9C
:101CF000AC70AD718B828C838DF0120EA5FAA3AB04
:101D000082AC838B6F8C708D71BA25078A82121C0E
:101D10001180928A06BE3000402E8A06EE24C6400C
:101D20002774FFB56C13E56B75F00AA4FEEA24D0A6
:101D30002EF56B70BFD20C80BBE56C75F00AA4FE6B
:101D4000EA24D02EF56C80ACBA2E0A74FFB56CA4D0
:101D5000756C00809F8A06BE6100400E8A06EE24E4
:101D60008540075302DFD2078002C207BA200280F3
:101D700075BA2303021DF5BA2A03021DFABA2B0213
:101D8000805FBA2D028055BA4202805FBA430302D7
:101D90001E3FBA4403021F7ABA4503021F94BA4693
:101DA00003021F90BA4703021F98BA4903021F7A21
:101DB000BA4C02803BBA4E03021F9CBA4F03021F6B
:101DC00081BA5003021F13BA5303021E63BA5503AC
:101DD000021F86BA5803021F8B021FC6D20B021CB9
:101DE000F4D20D021CF4D20E021CF4D210021CF428
:101DF000D211021CF4D212021CF474FFB56C203014
:101E0000100BE57214F88872866B021CF4E57224DC
:101E1000FEF888728606088607188E6B021CF4305E
:101E2000100BE57214F88872866C021CF4E57224BB
:101E3000FEF888728606088607188E6C021CF4303D
:101E4000100AE57214F888728602800FE57224FE8B
:101E5000F888728603088604188B028A82121C1185
:101E6000021FCBE57224FDF88872860308860408F9
:101E7000860518188B638C648D658B828C838DF03E
:101E8000122233AB82AC838B6D74FFB56C03856D0E
:101E90006C200B1DC3E56D956B5016E56BC3956DFE
:101EA000F56BAB6B156BEB6008758220121C118013
:101EB000F18563828564838565F0120EA5FBFA6067
:101EC00029AB6C156CC3E464808BF063F08095F0F3
:101ED00050188A82121C11AB63AC64AD650BBB0059
:101EE000010C8B638C648D6580C7200B03021FCBB4
:101EF000C3E56D956B4003021FCBE56BC3956DF594
:101F00006BAB6B156BEB7003021FCB758220121C41
:101F10001180EEE57224FDF88872860308860408B5
:101F2000860518188B638C648D65E565FB30E704C6
:101F30007A438013EB546060047A50800AEB30E6F9
:101F4000047A4980027A588A82C002121C11758272
:101F50003A121C11758230121C11758278121C11F4
:101F6000D002BA4902800BBA500280068564821200
:101F70001C44856382121C448051D20F756A0A800A
:101F80004A756A088045756A0A8040756A10803B08
:101F9000D2088037D2098033D20A802FE57224FD1F
:101FA000F88872860308860408860518188B638CE7
:101FB000648D658B828C838DF0E568121316A3E522
:101FC0006912131680058A82121C11200806200946
:101FD00003300A5AE57224FCF888728603088604E6
:101FE0000886050886061818188B638C648D658E24
:101FF0006675631C7564027565808563738564749A
:1020000085657574012573FEE43574FFAB758E63C9
:102010008F648B658573828574838575F0120EA538
:10202000FBFA7003021CA58A82121C1180CCE56A9F
:102030007003021CA57BA530102BE57214F8887282
:10204000E6FC3395E0FDFEFF8C638D648E658F6644
:10205000200F5EAC637D007E007F008C638D648EFC
:10206000658F66804C30111FE57224FCF8887286FB
:10207000040886050886060886071818188C638DDC
:10208000648E658F66802AE57224FEF88872860465
:1020900008860518ED3395E0FEFF8C638D648E6530
:1020A0008F66200F0CAC63AD647E007F008E658F61
:1020B00066301243E56345644565456660397408DA
:1020C000B56A0C758230C003121C11D003802874CD
:1020D00010B56A23758230C003121C11D00330077B
:1020E0000C758278C003121C11D003800A758258C7
:1020F000C003121C11D003300F25AC63AD64AE6574
:10210000E566FF30E717C3E49CFCE49DFDE49EFE1A
:10211000E49FFF8C638D648E658F668002C20F75AD
:102120006D00D2138B00756700C000121C5BD000DD
:1021300020130DE567C4FCE6FD4CF6188803800209
:10214000A667056DB213E56345644565456670D6BF
:102150008803E56B7003756B01200C1A200B17E5E3
:102160006D04FCC3956B500E758220C003121C11C8
:10217000D003156B80E9300F0E75822DC003121C41
:1021800011D003156B8024E56D6020300D0E758233
:102190002BC003121C11D003156B800F300E0C7571
:1021A0008220C003121C11D003156B200B1EAC6BD8
:1021B000156BC3E56D9C5027300C047C3080027C8D
:1021C000208C82C003121C11D00380E2C3E56D9500
:1021D0006B5009E56BC3956DF56B8003756B008BD8
:1021E00000AB6D156DEB6022B21320130A08E6C434
:1021F000540FFB8B6780078603740F5BF567856759
:1022000082C000121C2BD00080D7200B03021CA51B
:10221000AB6B156BEB7003021CA5758220121C11B1
:1022200080EE8A82121C11021CA585688285698352
:1022300022E473AA82AB83ACF07D007E008A828B9D
:10224000838CF0120EA5FFA3AA82AB83EF60070D6B
:10225000BD00EA0E80E78D828E8322000000000020
:00000001FF
