:100000000200960000000000000000000000000058
:100020000000000000000000000000020715E4F5D9
:1000300023F5247525FF7526FFE4F527F528752996
:10004000FF752AFFE4F52BF52CE4F52DF52E752F21
:10005000FA7530FAE4F531F53222000000000000B4
:1000800000000000000000000000000206CE00009A
:100090000000000202F97581B7120251E582600387
:1000A000020102780079007A007B007C007D00EC80
:1000B0004D601C88828983E493A3A882A9838A82E5
:1000C0008B83F0A3AA82AB831CBCFFE31D80E07589
:1000D00082007583007C217D00EC4D600AE4F0A372
:1000E0001CBCFFF51D80F27582007583007C007DCD
:1000F00000EC4D600AE4F0A31CBCFFF51D80F21279
:10010000002E120DE080FE0E04000011150A000002
:100110000E19191F170E000E04000E11110E000407
:10012000040A110A040400040E15140E05150E0E1F
:100130000400150A0A0E00436F6D6D616E643A206B
:10014000257300526573706F6E73653A2025730DC9
:100150000A0041542B44564944303030300D0A00D7
:1001600030313233343536373839414243444546ED
:1001700000204E4F205349474E414C202020202044
:10018000202020202020202020202020202020206F
:100190000D002530356C640A0D000D0A45464D38BA
:1001A0004C423132204A44592D343020536C617610
:1001B0006520546573742E0D0A0041542B56455228
:1001C0000D0A0041542B424155440D0A0041542B65
:1001D000524649440D0A0041542B445649440D0AE5
:1001E0000041542B5246433132300D0A0041542B0A
:1001F000504F57450D0A0041542B434C53530D0AA1
:100200000041542B44564944464646460D0A004197
:100210000068656C6C6F00530074686973207368C4
:100220006F756C6420626520746865206D6F746FF3
:10023000722066756E6374696F6E004B2575572565
:10024000754725640A003C4E4F20464C4F41543EB2
:100250000075A7007597DE7597AD75FF8075EF0681
:1002600075A71075C12075A70075A90075A900E5CF
:10027000A930E7FB75A90375A903E5A930E7FB439E
:10028000A41143A60175E10175E20075E341439CA9
:100290008575E341439C85759810758DE6858D8B3A
:1002A00053890F438920D28ED29975A71075980073
:1002B00043A60175A2A875A3FD75A4FF75A5FF430C
:1002C000F304D29AD2AF75C800438E1075CAA875D0
:1002D000CBFD75CEFF75CFFFD2ADD2CA75A7007525
:1002E000A71075C00075D4FF75D5FF43F308D2C2BF
:1002F000D2AF75A70075820022C0E0C002C003C063
:10030000D075D00075A710C2C775D2C475D3FF745D
:1003100001252DF52DE4352EF52E74D0B52D0A745A
:1003200007B52E05E4F52DF52EAA2F7B00C3EA951F
:100330002DEB952E4004D2938002C293AA307B000D
:10034000C3EA952DEB952E4004D2948002C294D03E
:10035000D0D003D002D0E032AA82438E407592B84A
:100360007593FF8592948593957591047B00C3EBFB
:100370009A500BE59130E7FB53917F0B80F075911C
:100380000022AA82AB837C007D00C3EC9AED9B50D7
:100390002B7E00BE0400501D7582FAC002C003C04F
:1003A00004C005C006120358D006D005D004D003FF
:1003B000D0020E80DE0CBC00D10D80CE22AA82AB12
:1003C00083ACF0FD75A72075930C75C8107594006B
:1003D0008A188B198C1A8D1B90A20075F04A740430
:1003E0001212CFAA82AB83ACF0FD751818E4F51990
:1003F000F51AF51B8A828B838CF0ED1212CFAA823C
:10040000AB83ACF0FDE4C39AFAE49BFB74019CE47B
:100410009D8A958B96D2C943944075A70022AA82E3
:1004200075A72010C90280FB8A9275A70022AA82B4
:10043000AB83ACF08A828B838CF0121245FD60187E
:100440008D82C002C003C00412041ED004D003D0A9
:10045000020ABA00DF0B80DC2275A72010C80280D8
:10046000FB53C83F85928275A7002275A7207A00AA
:100470007B0020C82675A700758214C002C0031235
:100480000358D003D00275A7200ABA00010BBAA8FE
:10049000E1BB61DE75A70075820A22C2C853C83F5E
:1004A00085928275A70022AA82AB83ACF07D008A78
:1004B000068B078C00C002C003C004C005C006C084
:1004C00007C00012046BA982D000D007D006D00567
:1004D000D004D003D002B90A0A8A828B838CF0E45C
:1004E0000216B6C3ED953450180D8E828F8388F0B6
:1004F000E91216B6A3AE82AF838E028F0388048002
:10050000B48A828B838CF0E40216B675A720A2C849
:1005100075A70022AA82AB837C007D00C3EC9AED14
:100520009B50477E00BE04005039C002C003C00487
:10053000C005C00612050BE433D006D005D004D0A8
:1005400003D0026001227582FAC002C003C004C059
:1005500005C006120358D006D005D004D003D0023F
:100560000E80C20CBC00B50D80B222AA82AB83AC57
:10057000F0C002C003C004C002C003C0047437C08E
:10058000E07401C0E07480C0E0121619E58124FA1D
:10059000F581C2A0900005120382D004D003D002DE
:1005A0008A828B838CF012042E75341390007A7536
:1005B000F0401204A790000A120382D2A0747AC0FD
:1005C000E07400C0E07440C0E07443C0E07401C057
:1005D000E07480C0E0121619E58124FAF58122C288
:1005E000A090000A12038290015275F08012042E2E
:1005F00090000A12038253C83FD2A0225389F043CD
:100600008901C28C2275A700C2EF75B28075BC202B
:1006100075B91E75E80075DF3F75B300D2EF22AAE9
:10062000828518F005F07401800225E0D5F0FBFB0F
:1006300075A720BA0002800ABA0102800FBA021E12
:100640008014EBF4FA52F1EB42D48012EBF4FA523C
:10065000F2EB42D58008EBF4FA52F3EB42CC75A7EB
:1006600000228582BBC2EDD2EC30EDFD85BD8285D6
:10067000BE8322120662121398AA82AB83ACF0FDED
:10068000C002C003C004C005906C8B75F053744069
:100690001214B2AA82AB83ACF0FDE58124FCF58193
:1006A000E4C0E074FCC0E0747FC0E07446C0E08A3F
:1006B000828B838CF0ED121779AA82AB83ACF0FDAC
:1006C000E58124FCF5818A828B838CF0ED22C0E0E9
:1006D000C0D075D00075A710C29F85232374012553
:1006E00024F5247401B52B06E4B52C028002800B9E
:1006F000C3E5239525E524952692B0E52B452C707E
:100700000BC3E5239525E524952692A5E52BE52C3D
:10071000D0D0D0E032C0E0C0D075D00075A700C204
:10072000CF85272774012528F5287401B52B06E409
:10073000B52C028002800BC3E5279529E528952A70
:1007400092B2E52B452C700BC3E5279529E528953A
:100750002A92B7E52BE52CD0D0D0E032AA82AB8329
:10076000C28C5389F0438901C28C758A00758C0054
:10077000C28DD28CC28C758A00758C00C28DD28CD1
:100780007C007D00308619108D0280F80CBC0001C1
:100790000DBC0AF0BD00EDC28C900000E4F5F02223
:1007A000C28C758A00758C00C28DD28C7C007D0055
:1007B000208619108D0280F80CBC00010DBC0AF0D7
:1007C000BD00EDC28C900000E4F5F022C28C758A69
:1007D00000758C00C28D7C007D00D28C7E008E075F
:1007E0007800C3EF9AE864808BF063F08095F05056
:1007F000298C078D0030860C108D0280F80FBF0009
:10080000F40880F120860C108D0280F80FBF00F4F0
:100810000880F18F0488050E80C4C28C8D038C0281
:100820007D007C00AF8C7E00EF3395E0F8F9EE2C74
:10083000FCEF3DFDE83AFAE93BFBAE8AE4FF339575
:10084000E0F8F9EE2CFCEF3DFDE83AFAE93B8C824A
:100850008D838AF022AA82AB83ACF08A828B838C50
:10086000F0121245FD60188D82C002C003C0041250
:100870001764D004D003D0020ABA00DF0B80DC2258
:1008800085823985833A85F03BF53C900020E4F081
:10089000E53C30E71B75822D121764C3E49539F5EA
:1008A00039E4953AF53AE4953BF53BE4953CF53C63
:1008B000753D1FE4F53EA837A938C3E49539E495A2
:1008C0003AE4953BE46480853CF063F08095F0E485
:1008D00033FEC3E498E4648089F063F08095F0E42B
:1008E00033FF4E700302097AAE3DAF3E153D74FFF3
:1008F000B53D02153EEE2400F53FEF3400F540858E
:100900003541E536F5423395E0F543F54485411828
:1009100085421985431A85441B853982853A83852A
:100920003BF0E53CC000C00112163AAE82AF83EE48
:100930002460F582EF3401F583E493853F8285409E
:1009400083F085411885421985431A85441B8539F2
:1009500082853A83853BF0E53C1215B28582398564
:10096000833A85F03BF53CD001D000E849700302A2
:1009700008BA18B8FF01190208BAE53D042400FAC4
:10098000E43400FB7C008A828B838CF0020855AA39
:1009900082AB83ACF0FD7E007F0078007900C3E479
:1009A0009AE49BE49CE464808DF063F08095F050C1
:1009B0004E8A188B198C1A8D1B90000CE4F5F012DE
:1009C0001261121689AA82AB83ACF0FDC002C0038B
:1009D000C004C0059093A475F0567450121779AAFC
:1009E00082AB83ACF0FDE58124FCF5818A828B83A8
:1009F0008CF0ED1213D4AE82AF83A8F0F980199079
:100A0000017175F080C006C007C000C00112085512
:100A1000D001D000D007D0068E828F8388F0E922E3
:100A2000D2A6758228120358C2A622AA828AE0A200
:100A3000E79287A2E69290A2E59291A2E49292C0F8
:100A400002120A20758228120358D0028AE0A2E31B
:100A50009287A2E29290A2E19291A2E09292020A7F
:100A600020AA82D2A28A82120A2B9000020203825A
:100A7000AA82C2A28A82120A2B900005020382C2B5
:100A8000A6900014120382758233120A70758233A5
:100A9000120A70758232120A70758228120A7075F5
:100AA000820C120A70758201120A709000140203FF
:100AB00082758240120A707A007B00C3EA9408EBC8
:100AC000648094805020EA2407F582EB3401F5839A
:100AD000E493F582C002C003120A61D003D0020A77
:100AE000BA00D80B80D5758248120A707A007B0054
:100AF000C3EA9408EB648094805020EA240FF582C6
:100B0000EB3401F583E493F582C002C003120A615D
:100B1000D003D0020ABA00D80B80D5758250120AD1
:100B2000707A007B00C3EA9408EB648094805020C4
:100B3000EA2417F582EB3401F583E493F582C002D1
:100B4000C003120A61D003D0020ABA00D80B80D5C4
:100B5000758258120A707A007B00C3EA9408EB642D
:100B60008094805020EA241FF582EB3401F583E461
:100B700093F582C002C003120A61D003D0020ABA00
:100B800000D80B80D5758260120A707A007B00C392
:100B9000EA9408EB648094805020EA2427F582EBE5
:100BA0003401F583E493F582C002C003120A61D0D8
:100BB00003D0020ABA00D80B80D5758268120A7079
:100BC0007A007B00C3EA9408EB648094805020EAAA
:100BD000242FF582EB3401F583E493F582C002C043
:100BE00003120A61D003D0020ABA00D80B80D5756F
:100BF0008287120A70758203120A61758289120A4D
:100C000070758203120A617582C8120A70758202B9
:100C1000120A619001F4120382752F9690006412FB
:100C20000382D2957AFAEA244B50128A309000144B
:100C3000C002120382D002EA24FBFA80E99003E8A2
:100C40001203827A96BAFA0050128A2F900014C0CA
:100C500002120382D00274052AFA80E99003E81296
:100C600003827AB4EA24A550128A30900014C0029C
:100C7000120382D002EA24FBFA80E9C29590009622
:100C8000120382752FFA7530FAC295C3E531940AC2
:100C9000E5329400400B752B01E4F52CE4F531F5B9
:100CA00032758287120A70758201120A6175828913
:100CB000120A70758201120A617582C8120A707573
:100CC0008200020A61AA82AB83ACF0FD752B03E4BB
:100CD000F52CC002C003C004C005C049C04AC04BC7
:100CE000C04C7492C0E07401C0E07480C0E0748EA7
:100CF000C0E07400C0E07440C0E012171EE581241B
:100D0000F6F58190008E75F04012042E900032129C
:100D10000382D005D004D003D002D2B7C2B2C2B091
:100D2000D2A5C3E549940CE54A94F8E54B9400E557
:100D30004C648094804034C2B7D2B2D2B0C2A59085
:100D400000FAC002C003C004C005120382C2B7C2C9
:100D5000B2C2B0C2A5120AB1D005D004D003D002ED
:100D600074012531F531E43532F53274CDC0E074CB
:100D7000CCC0E0C0E0743DC0E08A828B838CF0ED93
:100D80001213A4AA82E58124FCF581EA701CC2B783
:100D9000D2B2D2B0C2A590012C120382C2B7D2B295
:100DA000C2B0C2A59002EE02038274CDC0E074CC42
:100DB000C0E0C0E0743DC0E085458285468385473C
:100DC000F0E5481213A4AA82E58124FCF581EA70BB
:100DD0000EC2B7D2B2C2B0C2A59002EE0203822206
:100DE0009001F4120382749AC0E07401C0E0748030
:100DF000C0E0121619158115811581902580E4F542
:100E0000F01203BD1205DF120A7F1205FC751801EE
:100E100075820212061F75180375820212061F12D0
:100E200006059001BA75F08012056B9001C375F04C
:100E30008012056B9001CD75F08012056B9001D783
:100E400075F08012056B9001E175F08012056B90D2
:100E500001ED75F08012056B9001F775F0801205B9
:100E60006B90020175F08012056B758240120A705A
:100E70007A007B00C3EA9408EB648094805020EAF7
:100E80002407F582EB3401F583E493F582C002C0B8
:100E900003120A61D003D0020ABA00D80B80D575BC
:100EA0008248120A707A007B00C3EA9408EB6480DF
:100EB00094805020EA240FF582EB3401F583E4930B
:100EC000F582C002C003120A61D003D0020ABA0040
:100ED000D80B80D5758250120A707A007B00C3EA65
:100EE0009408EB648094805020EA2417F582EB3458
:100EF00001F583E493F582C002C003120A61D003B6
:100F0000D0020ABA00D80B80D5758258120A707ABE
:100F1000007B00C3EA9408EB648094805020EA24AC
:100F20001FF582EB3401F583E493F582C002C00320
:100F3000120A61D003D0020ABA00D80B80D575829C
:100F400060120A707A007B00C3EA9408EB64809414
:100F5000805020EA2427F582EB3401F583E493F5F1
:100F600082C002C003120A61D003D0020ABA00D8BC
:100F70000B80D5758268120A707A007B00C3EA94F0
:100F800008EB648094805020EA242FF582EB340132
:100F9000F583E493F582C002C003120A61D003D046
:100FA000020ABA00D80B80D5758287120A70758242
:100FB00001120A61758289120A70758201120A6132
:100FC0007582C8120A70758200120A61C295C295B4
:100FD0009000C812075C12098F858253858354855F
:100FE000F055F556C053C054C055C0567492C0E079
:100FF0007401C0E07480C0E0748EC0E07400C0E092
:101000007440C0E012171EE58124F6F58190008E31
:1010100075F04012042E90003212038275820E1277
:10102000067385825F85836085F061F562855F5711
:1010300085605885615985625A75821012067385DC
:10104000825F85836085F061F562855F5B85605CAA
:1010500085615D85625E12050B4003020FCE75341B
:101060001490007A75F0401204A775180F751902D4
:10107000751A8090007A75F040121555E5828583C7
:10108000F045F060030211549001F41203829000C5
:1010900005120382752B03E4F52C75820E1206737C
:1010A00085825F85836085F061F562855F57856025
:1010B0005885615985625A75821012067385825F60
:1010C00085836085F061F562855F5B85605C856125
:1010D0005D85625E9000C812075C12098F858249A7
:1010E00085834A85F04BF54C855B45855C46855D7F
:1010F00047855E488557828558838559F0E55A12A1
:101100000CC57401B52B06E4B52C02804712050B03
:10111000400302108E7411C0E07402C0E07480C0FD
:10112000E012161915811581158175341490007A15
:1011300075F0401204A775180F751902751A809082
:10114000007A75F040121555E5828583F045F06010
:101150000302108E751817751902751A8090007A9F
:1011600075F040121555E5828583F045F0701E122A
:101170000AB17419C0E07402C0E07480C0E01216B5
:10118000191581158115819001F41203827451C0E3
:10119000E07400C0E07440C0E0744FC0E07400C070
:1011A000E07440C0E0744DC0E07400C0E07440C022
:1011B000E0743BC0E07402C0E07480C0E0747AC0A8
:1011C000E07400C0E07440C0E012136AE58124F1CD
:1011D000F581E5514552700CC2A5C2B7752B01E4EB
:1011E000F52C8009C2B2C2B0E4F52BF52C854F2551
:1011F000855026749FB54D0B7415B54E06754DFF81
:10120000754EFF74DEB54D0B7413B54E06754DFF6C
:10121000754EFF7417B54D0B7402B54E06754DFF34
:10122000754EFF7456B54D06E4B54E028002800639
:10123000754DFF754EFF854D29854E2A900005128C
:101240000382020FCE20F71430F6148883A8822080
:10125000F507E6A88375830022E280F7E49322E095
:1012600022AAF0FBE5828518F0A4FCADF0E58385A9
:1012700018F0A42DFDE435F0FEE5828519F0A42DCB
:10128000FDE5F03EFEE433FFEA8518F0A42EFEE50E
:10129000F03FFFE5838519F0A42EFEE5F03FFFE562
:1012A00082851AF0A42EFEE5F03FFFEB8518F0A42E
:1012B0002FFFEA8519F0A42FFFE583851AF0A42FEC
:1012C000FFE582851BF0A42F8EF08D838C8222FB9C
:1012D0007A20E4FCFDFEFFE5822582F582E583337A
:1012E000F583E5F033F5F0EB33FB4017DAE98042A4
:1012F000E5822582F582E58333F583E5F033F5F069
:10130000EB33FBEC33FCED33FDEE33FEEF33FFEC60
:101310009518ED9519EE951AEF951B4013EC95185D
:10132000FCED9519FDEE951AFEEF951BFF4382012A
:10133000DABEEB22AA08AB09AC0A8A828B838CF056
:10134000121245FA0508E4B5080205098A822285C9
:10135000820885830985F00A850B73850C74850DD9
:1013600075850E76901334021AA8C00F85810FE59B
:101370000F24F8F576E50F24FBF88608088609089F
:10138000860AE50F24F8F886730886740886759037
:101390001334121AA8D00F22E4AC83AB82FAF9748A
:1013A0008E021E59FFA8811818121E81D2D133E671
:1013B000400730E70B7582002220E7067582012284
:1013C000C2D1121E63E97003F5822220D101B3E479
:1013D00033F58222121EACC3749E95824039790087
:1013E000121EBE30D126E9F42401F582EAF434005D
:1013F000F583EBF43400F5F0ECF43400700AE58288
:10140000458345F0700122E430E70F22EC20E71419
:1014100089828A838BF02230D10AE4F582F583F544
:10142000F074802274FFF582F583F5F0747F22F961
:10143000E5184519451A451B60777800C308E51B78
:1014400020E73BE51825E0F518E51933F519E51A0D
:1014500033F51AE51B33F51BE5829518E5839519DD
:10146000E5F0951AE9951B50D4C3E51B13F51BE570
:101470001A13F51AE51913F519E51813F518E5828D
:101480009518FCE5839519FDE5F0951AFEE9951B85
:101490004007F98EF08D838C82C3E51B13F51BE5A5
:1014A0001A13F51AE51913F519E51813F518D8CE1E
:1014B000E922121F83BC0003021F22EF60FA30D51D
:1014C00002B2D1E583B4FF03021F38E582B4FF0303
:1014D000021F38258340072482400B021F222483E9
:1014E000145003021F38F582EA8DF0A4A8F0EA8EAA
:1014F000F0A428F8E435F0F9EB8DF0A428E935F0F4
:10150000F9E433CA8FF0A429F9EA35F0FAEBF88E42
:10151000F0A429F9EA35F0FAE433FBEC8DF0A429C4
:10152000F9EA35F0FAE43BFBE88FF0A42AFAEB3550
:10153000F0FBE433CCFD8EF0A42AFAEB35F0FBE4AB
:101540003CFCED8FF0A42BFBEC35F0FC20E7031204
:101550001F50021F01AA82AB83ACF0AD18AE19AFC9
:101560001A8A828B838CF0121245F87900C002C06F
:1015700003C0048D828E838FF0121245FA7B00E83F
:10158000C39AF8E99BF9881B891CD004D003D002C8
:10159000E84970178D828E838FF0121245600C0A15
:1015A000BA00010B0DBD00B90E80B6851B82851CEB
:1015B0008322FBC2D530E715D2D5E4C39582F582EC
:1015C000E49583F583E495F0F5F0E49BFBE51B30AF
:1015D000E717B2D5E4C39518F518E49519F519E4A1
:1015E000951AF51AE4951BF51BEB1212CF30D513A3
:1015F000FBE4C39582F582E49583F583E495F0F5E9
:10160000F0E49B2202176485827185837285F073F2
:1016100085177490160402203AC00F85810FE50FDC
:1016200024FBF574E50F24FBF886710886720886A2
:101630007390160412203AD00F22F9C2D530E71564
:10164000D2D5E4C39582F582E49583F583E495F0E1
:10165000F5F0E499F9E51B30E715E4C39518F518A2
:10166000E49519F519E4951AF51AE4951BF51BE9AB
:1016700012142F30D512E4C39582F582E49583F5D8
:1016800083E495F0F5F0E49922FCABF0AA83A982FB
:10169000749EF582C2D1EC30E716D2D1E9F4240170
:1016A000F9EAF43400FAEBF43400FBECF43400FC17
:1016B000121F50021F0120F71030F6118883A882F4
:1016C00020F507F6A88375830022F280F7F022AA9E
:1016D00082AB10AC11AD128B828C838DF0EA1216A6
:1016E000B60510E4B510020511228582108583111C
:1016F00085F01285137185147285157385167490A3
:1017000016CF12203AAA82AB83AC10AD11AE128C68
:10171000828D838EF0E41216B68A828B8322C00FEC
:1017200085810FE50F24F8F574E50F24FBF886108A
:10173000088611088612E50F24F8F886710886726B
:101740000886739016CF12203AAA82AB83AC10ADF4
:1017500011AE128C828D838EF0E41216B68A828BC3
:1017600083D00F22AA82BA0A0810990280FB7599C9
:101770000D10990280FB8A9922121F8330D502B284
:10178000D1BF0009BC0003021F45021F38BC000383
:10179000021F22E583B4FF0BE582B4FF03021F455D
:1017A000021F22E582B4FF03021F38C3958350074E
:1017B000247F400B021F222480145003021F38C0D4
:1017C000E0E4CCCBCAF98D188E198F1AEF54F0C40F
:1017D000F51B758306851BF0EB84F582E9C4F9EAF5
:1017E000C4FAEBC4FBEC540FC47803D6FC18EBD658
:1017F000FB18EAD6FA8582F0EDA4A8F0FD8582F008
:10180000EEA428FEE435F0F88582F0EFA428FFE48A
:1018100035F0F8E99DF9EA9EFAEB9FFBEC98FCADF8
:1018200018AE19AF1A30E7101582E92DF9EA3EFA21
:10183000EB3FFBE43CFC80EDC082D58398C3E933E9
:10184000F9EA33FAEB33FBEC33FCC3E99DEA9EEB98
:101850009FEC9400B3E413F9D002D0E0C44AFAD06C
:1018600003D0E0C44BFBD004D0E0F5F0540FC44CDF
:10187000FCD082158230F40FD3EC13FCEB13FBEA9F
:1018800013FAE913F90582E930E70A74012AFAE448
:101890003BFBE43CFC021F198563828564831225AF
:1018A000D1858272E572600A056CE4B56C06056D3F
:1018B0008002D203857282227A007B003003057891
:1018C000A8760022C002C003121898AC82D003D0C0
:1018D00002BC0002802DBC08028014BC09028023D7
:1018E000BC0A02801EBC0D028019BC20218014EAB3
:1018F0004B60D11ABAFF011B156C74FFB56C021551
:101900006D80C1EA4B60BDEA24A8F8760022EC7035
:1019100009EA24A8F87600D20322ECB57107EA247C
:10192000A8F8760022C3EA940FEB940050968A053B
:101930008B060ABA00010BED24A8F8A6040218C40D
:10194000AA827B7FC3EA648094B0401174B98AF0A4
:1019500063F08095F04006EA24D0FB8030C3EA644F
:101960008094C1401174C68AF063F08095F04006FF
:1019700074C92AFB8017C3EA648094E1400F74E6BF
:101980008AF063F08095F0400474A92AFBC3EB95BC
:101990006E50038B822275827F22AA827568007541
:1019A0006900756A00756B008A00E6FA60148A8225
:1019B000C000121940AB82D000C3EB956E40030803
:1019C00080E886038B82C000121940AA82D000C32F
:1019D000E56E9A4050856E18751900751A00751BD2
:1019E00000856882856983856AF0E56BC002C00066
:1019F000121261AB82AC83ADF0FED000D0028B68D6
:101A00008C698D6A8E6BE4FBFCFDEA2568FAEB3588
:101A100069FBEC356AFCED356BFD8A688B698C6A75
:101A20008D6B08809D856882856983856AF0E56B8A
:101A300022AA82756800756900756A00756B008A54
:101A400000E6FB60228B82C003C000121940AC820A
:101A5000D000D003C3EC956E400DBB2D028008BBB7
:101A60002B0280030880DA88028603BB2D03D38013
:101A700001C39206BB2D028003BB2B010A8A82128E
:101A8000199A300613C3E49568FAE49569FBE49566
:101A90006AFCE4956BFD8008AA68AB69AC6AAD6B23
:101AA0008A828B838CF0ED22858263858364E4F5E2
:101AB0006CF56DF570C203AA73AB74AC758A828B3A
:101AC000838CF0121245FD74012AF573E43BF57422
:101AD0008C75EDFA7003021E47BA25028003021DC1
:101AE000E0D202C200756E00756F00C204C205AB81
:101AF00073AC74AD758B828C838DF0121245FAA392
:101B0000AB82AC838B738C748D758B828C838DF0E0
:101B1000121245F5718A06BE300040168A06EE2480
:101B2000C6400FE56F75F00AA4FEEA24D02EF56FCB
:101B300080C38A06BE6100400A8A06EE24854003FF
:101B40005302DFBA250280ADBA2A028045BA4202AA
:101B50008036BA43028040BA4403021C5BBA490390
:101B6000021C5BBA4C028025BA4E03021C6EBA4FAF
:101B700003021C60BA53028020BA5503021C59BAF2
:101B80005803021C67021C96D200021AF5D2010209
:101B90001AF5D204021AF5D205200417E57624FDC1
:101BA000F88876860308860408860518188B658CE5
:101BB000668D67E56F700B3005047B0180027BFF4B
:101BC0008B6F756E00C3E56E956F5005121898AA5D
:101BD00082300307E56E7003021C96EA601ABA2091
:101BE00002800DBA09028008BA0D028003BA0A0306
:101BF000300505E56FB56E1FE56E60C9200412055E
:101C000070AB65AC66AD678B828C838DF0E4121689
:101C1000B6756E00021C96BA081CE56E60A720041B
:101C200011AB65AC66AD671BBBFF011C8B658C6699
:101C30008D67156E808F20041BAB65AC66AD678B1E
:101C4000828C838DF0EA1216B60BBB00010C8B65FB
:101C50008C668D67056E021BC5C202756E0A8036E2
:101C6000C202756E08802FC202756E108028E5765C
:101C700024FDF88876860308860408860518188BE4
:101C8000658C668D678B828C838DF0E56C1216B641
:101C9000A3E56D1216B6E56E7003021DE01218B8CA
:101CA00078A8E67003021DE0300403021DE0E5762B
:101CB00024FDF88876860308860408860518188BA4
:101CC000658C668D670570200203021D5930013551
:101CD0008565778566788567797582A8121A31AE31
:101CE00082AF83ABF0FC8577828578838579F0EECF
:101CF0001216B6A3EF1216B6A3EB1216B6A3EC1289
:101D000016B6021DE0300026856577856678856702
:101D1000797582A8121A31AE82AF83ABF0FC857759
:101D2000828578838579F0EE1216B6021DE085650E
:101D3000778566788567797582A8121A31AE82AF89
:101D400083ABF0FC8577828578838579F0EE121677
:101D5000B6A3EF1216B6021DE03001348565778513
:101D600066788567797582A812199AAE82AF83ABBF
:101D7000F0FC8577828578838579F0EE1216B6A31C
:101D8000EF1216B6A3EB1216B6A3EC1216B68050DD
:101D90003000258565778566788567797582A81214
:101DA000199AAE82AF83ABF0FC8577828578838504
:101DB00079F0EE1216B68028856577856678856796
:101DC000797582A812199AAE82AF83ABF0FC857741
:101DD000828578838579F0EE1216B6A3EF1216B6D7
:101DE000200303021AB7AB73AC74AD758B828C837E
:101DF0008DF0121245FEA3AB82AC838B738C748D75
:101E000075EEFA7003021AB7BA25E18B828C838DC6
:101E1000F0121245FABA6E028003BA4ECFE576246C
:101E2000FDF88876860208860608860718188A65EF
:101E30008E668F678A828E838FF0E56C1216B6A34A
:101E4000E56D1216B680A5AA707B008A828B83226C
:101E5000FCABF0AA83A982749EC2D1F582121F50F6
:101E6000021F017901AA82E68F82B5821318E6B5B6
:101E7000F00E18E6B5830918E68A82B58202790069
:101E800022B4800FE5F0700AE5837006E5827002E7
:101E90007F00EFB6801518B6001018B6000B18B604
:101EA000000608080876002208080822AA82AB83E8
:101EB000A2F73392D16002D2F7F582ACF0226040F3
:101EC000F82582500274FFF582E824F8501ECCCB2E
:101ED000CAF9E4CC24F85014CBCAF9E4CB24F85066
:101EE0000BCAF9E4CA24F8500379002224086010D0
:101EF000F8C3EC13FCEB13FBEA13FAE913F9D8F17E
:101F000022B98003EA13B34010EA2401FAE43BFB50
:101F1000E43CFC50047C800582BC000EBB000BBA84
:101F20000008E4F5F0F583F58222A2D1E582138C56
:101F3000F092F78B838A8222E4F583F58275F08034
:101F4000F4A2D11322E4F583F58275F0C0747F22E8
:101F50007804EC7011E58224F8500AF582E4C9CACD
:101F6000CBFCD8EF22EC7820058220E713D5820144
:101F700022C3E933F9EA33FAEB33FBEC33FCD8EA5A
:101F8000158222AA82AB83A2F73392D16002D2F7E4
:101F9000F582ACF0E58124F9F8E6FD08E6FE088656
:101FA000F008E6A2F73392D56002D2F7F583AFF0DE
:101FB00022AA8274C2C0E0741FC0E0C063C0648AF9
:101FC0008222056AE4B56A02056B22AA8274302A6D
:101FD000FA24C6500A74072AFA3007034302208AFB
:101FE00082021FB1E582FAC4540FF582C002121FAB
:101FF000CBD002740F5AF582021FCBAA65AB66AC38
:1020000067AD68AE69757020EE2EFEED235401FFBA
:102010004206EA2AFAEB33FBEC33FCED33FDC3EE68
:10202000956C4008EEC3956CFE430201D570D98AC9
:10203000658B668C678D688E692285826385836473
:10204000E4F56AF56BAA71AB72AC738A828B838CF0
:10205000F0121245FD74012AF571E43BF5728C73A0
:10206000EDFA70030225CABA250280030225C2C216
:102070000BC20CC20DC20EC20FC210C211C212C2DC
:1020800008C209C20A756C00756D00756EFFAB71F0
:10209000AC72AD738B828C838DF0121245FAA3ABB8
:1020A00082AC838B718C728D73BA25078A82121F62
:1020B000B180928A06BE3000402E8A06EE24C640C9
:1020C0002774FFB56E13E56D75F00AA4FEEA24D0FF
:1020D0002EF56D70BFD20C80BBE56E75F00AA4FEC4
:1020E000EA24D02EF56E80ACBA2E0A74FFB56EA429
:1020F000756E00809F8A06BE6100400E8A06EE243F
:102100008540075302DFD2078002C207BA2002804F
:1021100075BA2303022195BA2A0302219ABA2B0227
:10212000805FBA2D028055BA4202805FBA43030233
:1021300021DFBA440302231ABA4503022334BA4604
:1021400003022330BA4703022338BA490302231A91
:10215000BA4C02803BBA4E0302233CBA4F0302231F
:1021600021BA50030222B3BA5303022203BA550321
:10217000022326BA580302232B022366D20B022025
:1021800094D20D022094D20E022094D210022094F8
:10219000D211022094D21202209474FFB56E203026
:1021A000100BE57414F88874866D022094E574248D
:1021B000FEF888748606088607188E6D0220943013
:1021C000100BE57414F88874866E022094E574246C
:1021D000FEF888748606088607188E6E02209430F2
:1021E000100AE57414F888748602800FE57424FEE2
:1021F000F888748603088604188B028A82121FB13D
:1022000002236BE57424FDF88874860308860408AD
:10221000860518188B658C668D678B828C838DF094
:102220001225D3AB82AC838B6F74FFB56E03856FC1
:102230006E200B1DC3E56F956D5016E56DC3956F50
:10224000F56DAB6D156DEB6008758220121FB180C6
:10225000F18565828566838567F0121245FBFA6019
:1022600029AB6E156EC3E464808BF063F08095F04B
:1022700050188A82121FB1AB65AC66AD670BBB000C
:10228000010C8B658C668D6780C7200B0302236B66
:10229000C3E56F956D400302236BE56DC3956FF544
:1022A0006DAB6D156DEB700302236B758220121FF1
:1022B000B180EEE57424FDF888748603088604086E
:1022C000860518188B658C668D67E567FB30E7041B
:1022D0007A438013EB546060047A50800AEB30E656
:1022E000047A4980027A588A82C002121FB175822C
:1022F0003A121FB1758230121FB1758278121FB168
:10230000D002BA4902800BBA50028006856682125A
:102310001FE4856582121FE48051D20F756C0A801C
:102320004A756C088045756C0A8040756C10803B5E
:10233000D2088037D2098033D20A802FE57424FD79
:10234000F88874860308860408860518188B658C3F
:10235000668D678B828C838DF0E56A1216B6A3E5D5
:102360006B1216B680058A82121FB120080620095A
:1023700003300A5AE57424FCF8887486030886043E
:102380000886050886061818188B658C668D678E7A
:1023900068756546756602756780856575856676BC
:1023A00085677774012575FEE43576FFAB778E651A
:1023B0008F668B678575828576838577F0121245E7
:1023C000FBFA70030220458A82121FB180CCE56CB3
:1023D00070030220457BA730102BE57414F8887435
:1023E000E6FC3395E0FDFEFF8C658D668E678F6899
:1023F000200F5EAC657D007E007F008C658D668E53
:10240000678F68804C30111FE57424FCF88874864F
:10241000040886050886060886071818188C658D36
:10242000668E678F68802AE57424FEF888748604B7
:1024300008860518ED3395E0FEFF8C658D668E6786
:102440008F68200F0CAC65AD667E007F008E678FB5
:1024500068301243E565456645674568603974082C
:10246000B56C0C758230C003121FB1D00380287484
:1024700010B56C23758230C003121FB1D003300732
:102480000C758278C003121FB1D003800A75825880
:10249000C003121FB1D003300F25AC65AD66AE6727
:1024A000E568FF30E717C3E49CFCE49DFDE49EFE75
:1024B000E49FFF8C658D668E678F688002C20F7502
:1024C0006F00D2138B00756900C000121FFBD00093
:1024D00020130DE569C4FCE6FD4CF6188803800264
:1024E000A669056FB213E56545664567456870D610
:1024F0008803E56D7003756D01200C1A200B17E53C
:102500006F04FCC3956D500E758220C003121FB17D
:10251000D003156D80E9300F0E75822DC003121F98
:10252000B1D003156D8024E56F6020300D0E7582EB
:102530002BC003121FB1D003156D800F300E0C7528
:102540008220C003121FB1D003156D200B1EAC6D8D
:10255000156DC3E56F9C5027300C047C3080027CE5
:10256000208C82C003121FB1D00380E2C3E56F95B7
:102570006D5009E56DC3956FF56D8003756D008B2A
:1025800000AB6F156FEB6022B21320130A08E6C48C
:10259000540FFB8B6980078603740F5BF5698569AF
:1025A00082C000121FCBD00080D7200B0302204531
:1025B000AB6D156DEB7003022045758220121FB1C3
:1025C00080EE8A82121FB1022045856A82856B8364
:1025D00022E473AA82AB83ACF07D007E008A828BFA
:1025E000838CF0121245FFA3AA82AB83EF60070D24
:1025F000BD00EA0E80E78D828E832200000000007D
:00000001FF
