:1000000002008EE4F523F5247525FF7526FFE4F53F
:1000100027F5287529FF752AFFE4F52BF52CE4F563
:100020002DF52E22000000000000000206AF0000A7
:10008000000000000000000000000002066875810A
:10009000BF120260E58260030200FA780079007AFC
:1000A000007B007C007D00EC4D601C88828983E42D
:1000B00093A3A882A9838A828B83F0A3AA82AB83AD
:1000C0001CBCFFE31D80E07582007583007C237DEE
:1000D00000EC4D600AE4F0A31CBCFFF51D80F27536
:1000E00082007583007C007D00EC4D600AE4F0A383
:1000F0001CBCFFF51D80F2120003120EA580FE430A
:100100006F6D6D616E643A20257300526573706F78
:100110006E73653A2025730D0A0041542B445649ED
:1001200044303030300D0A00303132333435363718
:10013000383941424344454600206600203D2000B6
:10014000487A002044494D4500204E49434B454CD8
:1001500000204C4F4F4E4945000D0A45464D384C46
:10016000423132204A44592D343020536C61766537
:1001700020546573742E0D0A0041542B5645520DC0
:100180000A0041542B424155440D0A0041542B5260
:100190004649440D0A0041542B445649440D0A0077
:1001A00041542B5246433132300D0A0041542B50FA
:1001B0004F57450D0A0041542B434C53530D0A0031
:1001C00041542B44564944464646460D0A00256C88
:1001D000640041006D696368656C6C6520616E64E4
:1001E0002078696E79692073697474696E67206913
:1001F0006E206120747265650A0D005325645425D4
:10020000640070776D5F6475747934203D202575C6
:100210002070776D5F6475747933203D20257520DB
:10022000616463776865656C313D25752061646341
:10023000776865656C323D2575207370656564204F
:100240003D202564207374656572696E67203D20CA
:100250002564000A003C4E4F20464C4F41543E005E
:1002600075A7007597DE7597AD75FF8075EF0675FC
:10027000A71075C12075A70075A90075A900E5A98B
:1002800030E7FB75A90375A903E5A930E7FB43A493
:100290001143A60175E10175E20075E341439C85B8
:1002A00075E341439C85759810758DE6858D8B535C
:1002B000890F438920D28ED29975A7107598004373
:1002C000A60175A2A875A3FD75A4FF75A5FF43F34C
:1002D00004D29AD2AF75C800438E1075CAA875CBE8
:1002E000FD75CEFF75CFFFD2ADD2CA75A70075825E
:1002F0000022AA82438E407592B87593FF8592942E
:100300008593957591047B00C3EB9A500BE5913072
:10031000E7FB53917F0B80F075910022AA82AB839B
:100320007C007D00C3EC9AED9B502B7E00BE040048
:10033000501D7582FAC002C003C004C005C0061279
:1003400002F2D006D005D004D003D0020E80DE0C1D
:10035000BC00D10D80CE22AA82AB83ACF0FD75A784
:100360002075930C75C8107594008A188B198C1A17
:100370008D1B90A20075F04A74041211FDAA82AB85
:1003800083ACF0FD751818E4F519F51AF51B8A828F
:100390008B838CF0ED1211FDAA82AB83ACF0FDE4EF
:1003A000C39AFAE49BFB74019CE49D8A958B96D2D8
:1003B000C943944075A70022AA8275A72010C902DC
:1003C00080FB8A9275A70022AA82AB83ACF08A8256
:1003D0008B838CF0121173FD60188D82C002C003F4
:1003E000C0041203B8D004D003D0020ABA00DF0B55
:1003F00080DC2275A72010C80280FB53C83F85927D
:100400008275A7002275A7207A007B0020C8267578
:10041000A700758214C002C0031202F2D003D002FA
:1004200075A7200ABA00010BBAA8E1BB61DE75A767
:100430000075820A22C2C853C83F85928275A70000
:1004400022AA82AB83ACF07D008A068B078C00C0A9
:1004500002C003C004C005C006C007C000120405E6
:10046000A982D000D007D006D005D004D003D00296
:10047000B90A0A8A828B838CF0E4021657C3ED9581
:100480003050180D8E828F8388F0E9121657A3AE74
:1004900082AF838E028F03880480B48A828B838C20
:1004A000F0E402165775A720A2C875A70022AA82F9
:1004B000AB837C007D00C3EC9AED9B50477E00BE71
:1004C00004005039C002C003C004C005C0061204B5
:1004D000A5E433D006D005D004D003D002600122B9
:1004E0007582FAC002C003C004C005C0061202F241
:1004F000D006D005D004D003D0020E80C20CBC00C0
:10050000B50D80B222AA82AB83ACF0C002C003C09A
:1005100004C002C003C00474FFC0E07400C0E074F3
:1005200080C0E01215BAE58124FAF581C2A09000DE
:100530000512031CD004D003D0028A828B838CF076
:100540001203C875301390007A75F0401204419080
:10055000000A12031CD2A0747AC0E07400C0E074D8
:1005600040C0E0740BC0E07401C0E07480C0E012D1
:1005700015BAE58124FAF58122C2A090000A12037F
:100580001C90011A75F0801203C890000A12031C17
:1005900053C83FD2A0225389F0438901C28C2275EF
:1005A000A700C2EF75B28075BC2075B91E75E80052
:1005B00075DF3F75B300D2EF22AA828518F005F0EF
:1005C0007401800225E0D5F0FBFB75A720BA00027C
:1005D000800ABA0102800FBA021E8014EBF4FA52AC
:1005E000F1EB42D48012EBF4FA52F2EB42D58008E0
:1005F000EBF4FA52F3EB42CC75A700228582BBC222
:10060000EDD2EC30EDFD85BD8285BE83221205FC66
:100610001212C6AA82AB83ACF0FDC002C003C004B4
:10062000C005906C8B75F0537440121444AA82ABD1
:1006300083ACF0FDE58124FCF581E4C0E074FCC0EE
:10064000E0747FC0E07446C0E08A828B838CF0ED5A
:10065000121727AA82AB83ACF0FDE58124FCF5815B
:100660008A828B838CF0ED22C0E0C0D075D00075FB
:10067000A710C29F85232374012524F5247401B596
:100680002B06E4B52C028002800BC3E5239525E5FB
:1006900024952692B0E52B452C700BC3E5239525B8
:1006A000E524952692A5E52BE52CD0D0D0E032C0EC
:1006B000E0C0D075D00075A700C2CF852727740190
:1006C0002528F5287401B52B06E4B52C028002809C
:1006D0000BC3E5279529E528952A92B2E52B452CF1
:1006E000700BC3E5279529E528952A92B7E52BE5F8
:1006F0002CD0D0D0E032AA82AB838A18EBF5193324
:1007000095E0F51AF51B90FFFFE4F5F012118F75D7
:1007100018FF751903751A00751B000211FDAA82D6
:10072000AB8378A2E5312404F6E53234FE08F6EA1C
:100730002408F582EB34FEF5831214E7AA82AB831A
:1007400078A28682088683C002C0031214E7AE82B4
:10075000AF83D003D002C3EA9403EB64809480E4B7
:1007600033F5396041C3EE9403EF648094805036D2
:1007700085333A85343B85353C853A82853B838594
:100780003CF0E4121657A3E412165785363A853723
:100790003B85383C853A82853B83853CF0E41216E4
:1007A00057A3E4021657C006C00778A286820886BF
:1007B00083C002C003121705AE82AF83ACF0FDC048
:1007C00006C007E4C0E0C0E074FEC0E07443C0E0CF
:1007D0008E828F838CF0ED12172778A4A68208A64C
:1007E0008308A6F008F6E58124FCF581E4C0E0C0AA
:1007F000E07480C0E0743FC0E078A48682088683FD
:100800000886F008E61212D2AC82E58124FCF5815C
:10081000D007D006D003D002D007D006EC600D7808
:10082000A4760008760008768008763FC006C007E8
:100830008A828B83C002C003121705AC82AD83AEDF
:10084000F0FF78A4E6C0E008E6C0E008E6C0E008F3
:10085000E6C0E08C828D838EF0EF121444AC82AD42
:1008600083AEF0FFE58124FCF5818C828D838EF0D0
:10087000EFC006C007121302AC82AD83D007D006CA
:10088000D003D002EC2AFEED3BFF900000EEF0A377
:10089000EFF078A8EAC39CF6EB9D08F6C374FB9EC4
:1008A00074818FF063F08095F0D007D006500A90E5
:1008B000000074FBF0A37401F0900000E0FAA3E0E4
:1008C000FB30E707900000E4F0A3F078A8C374FBC6
:1008D0009674810886F063F08095F0500778A876CA
:1008E000FB08760178A9E630E70678A8E4F608F672
:1008F000E5397003020979C374039EE464808FF0C4
:1009000063F08095F0507278A274FB26FA740108A7
:1009100036FB900000EAF0A3EBF078A279A874FB14
:10092000C396F77401089609F7C374FB9A74818B18
:10093000F063F08095F0500A90000074FBF0A3740F
:1009400001F0900000E0FAA3E0FB30E70790000020
:10095000E4F0A3F078A8C374FB9674810886F06372
:10096000F08095F0500778A876FB08760178A9E624
:1009700030E70678A8E4F608F685333A85343B85F7
:10098000353C900000E0FDA3E08D18F5193395E0AB
:10099000F51AF51B9003FFE4F5F012118F7518FBA3
:1009A000751901751A00751B00121553AA82AB83C5
:1009B000853A82853B83853CF0EA121657A3EB12F9
:1009C000165785363A85373B85383C78A88618080F
:1009D0008619E63395E0F51AF51B9003FFE4F5F070
:1009E00012118F7518FB751901751A00751B00120D
:1009F0001553AA82AB83853A82853B83853CF0EA16
:100A0000121657A3EB021657AA82AB83C28C5389E6
:100A1000F0438901C28C758A00758C00C28DD28C1E
:100A2000C28C758A00758C00C28DD28C7C007D00D2
:100A3000308619108D0280F80CBC00010DBC0AF044
:100A4000BD00EDC28C900000E4F5F022C28C758AE6
:100A500000758C00C28DD28C7C007D002086191020
:100A60008D0280F80CBC00010DBC0AF0BD00EDC287
:100A70008C900000E4F5F022C28C758A00758C0021
:100A8000C28D7C007D00D28C7E008E077800C3EF83
:100A90009AE864808BF063F08095F050298C078D84
:100AA0000030860C108D0280F80FBF00F40880F132
:100AB00020860C108D0280F80FBF00F40880F18FA3
:100AC0000488050E80C4C28C8D038C027D007C00DE
:100AD000AF8C7E00EF3395E0F8F9EE2CFCEF3DFD96
:100AE000E83AFAE93BFBAE8AE4FF3395E0F8F9EE29
:100AF0002CFCEF3DFDE83AFAE93B8C828D838AF0CD
:100B000022AA82AB83ACF08A828B838CF0121173A1
:100B1000FD60188D82C002C003C004121712D004F9
:100B2000D003D0020ABA00DF0B80DC228582418527
:100B3000834285F043F544900022E4F0E54430E739
:100B40001B75822D121712C3E49541F541E49542BD
:100B5000F542E49543F543E49544F54475451FE4B7
:100B6000F546A83FA940C3E49541E49542E4954386
:100B7000E464808544F063F08095F0E433FEC3E4E0
:100B800098E4648089F063F08095F0E433FF4E7060
:100B900003020C26AE45AF46154574FFB545021558
:100BA00046EE2402F547EF3400F548853D49E53E21
:100BB000F54A3395E0F54BF54C854918854A19857A
:100BC0004B1A854C1B8541828542838543F0E54461
:100BD000C000C0011215DBAE82AF83EE2428F5827F
:100BE000EF3401F583E493854782854883F0854996
:100BF00018854A19854B1A854C1B8541828542838D
:100C00008543F0E54412155385824185834285F082
:100C100043F544D001D000E8497003020B6618B8D0
:100C2000FF0119020B66E545042402FAE43400FBD7
:100C30007C008A828B838CF0020B01AA82AB83AC8E
:100C4000F0FD7E007F0078007900C3E49AE49BE425
:100C50009CE464808DF063F08095F04003020D1DEC
:100C60008A188B198C1A8D1B90000CE4F5F0121168
:100C70008F12162AAA82AB83ACF0FDC002C003C05B
:100C800004C0059093A475F0567450121727AA82D9
:100C9000AB83ACF0FDE58124FCF5818A828B838CEB
:100CA000F0ED121366AE82AF83A8F0F990013975AA
:100CB000F080C006C007C000C001120B01AA4DE5BC
:100CC0004EFB3395E0FCFD753D0AE4F53E753F01B2
:100CD000E4F5408A828B838CF0ED120B2C90013C62
:100CE00075F080120B01D001D000D007D006753D01
:100CF0000AE4F53E753F07E4F5408E828F8388F065
:100D0000E9C006C007C000C001120B2C900140755D
:100D1000F080120B01D001D000D007D0068E828F58
:100D20008388F0E922AA82AB83ACF0FDC3EA94EC9D
:100D3000EB94DBEC9400ED648094805003020DC9C9
:100D4000C3EA9488EB94DBEC9400ED6480948040DB
:100D500027EA9450EB94DCEC9400ED64809480508E
:100D6000177443C0E07401C0E07480C0E01215BA8B
:100D7000158115811581804DC3EA9450EB94DCEC0C
:100D80009400ED648094804027EA947CEB94DDEC41
:100D90009400ED6480948050177449C0E07401C0E1
:100DA000E07480C0E01215BA158115811581801597
:100DB0007451C0E07401C0E07480C0E01215BA152F
:100DC00081158115819000012290000022AA82AB3A
:100DD00083ACF0FD752B03E4F52CD2B7C2B2C2B0E0
:100DE000D2A574CDC0E074CCC0E0C0E0743DC0E0DA
:100DF0008A828B838CF0ED121336AA82E58124FC63
:100E0000F581EA704AC2B7D2B2D2B0C2A59005DC71
:100E100012031CE52D452E7015C2B7D2B2C2B0C266
:100E2000A59005DC12031C752D01E4F52E2274013A
:100E3000B52D06E4B52E0280028014C2B7C2B2D22C
:100E4000B0C2A59005DC12031CE4F52DF52E22742A
:100E5000CDC0E074CCC0E0C0E0743DC0E0854F82FE
:100E60008550838551F0E552121336AA82E581241C
:100E7000FCF581EA702EE52D452E700EC2B7D2B278
:100E8000C2B0C2A59005DC02031C7401B52D06E4B6
:100E9000B52E02800122C2B7C2B2D2B0C2A590055F
:100EA000DC02031C229001F412031C7459C0E0748C
:100EB00001C0E07480C0E01215BA1581158115815A
:100EC000902580E4F5F01203571205791205967506
:100ED00018017582021205B9751803758202120590
:100EE000B912059F90017975F08012050590018275
:100EF00075F08012050590018C75F0801205059043
:100F0000019675F0801205059001A075F08012051C
:100F1000059001AC75F0801205059001B675F08062
:100F20001205059001C075F0801205059000C812E9
:100F30000A08AA82AB83ACF0FD754D01E4F54E8A38
:100F4000828B838CF0ED120C3BAA82AB83ACF0FD5C
:100F5000C002C003C004C005120D25E5828583F0E0
:100F6000D005D004D003D00245F06042EA2428FA2C
:100F7000EB3429FBEC34FFFCED34FFFDC002C00371
:100F8000C004C00574CEC0E07401C0E07480C0E04D
:100F9000748EC0E07400C0E07440C0E01216BFE57B
:100FA0008124F6F58190008E75F0401203C8758299
:100FB0000E12060DAA82AB83ACF0FD8A5B8B5C8CB3
:100FC0005D8D5E75821012060DAA82AB83ACF0FDBA
:100FD0008A5F8B608C618D621204A54003021167E9
:100FE00075301490007A75F0401204417518D2756E
:100FF0001901751A8090007A75F0401214F6E58296
:101000008583F045F0600302109A9001F412031CEE
:10101000752B03E4F52C75820E12060DAA82AB83A4
:10102000ACF0FD8A5B8B5C8C5D8D5E758210120668
:101030000DAA82AB83ACF0FD8A5F8B608C618D6200
:101040008A4F8B508C518D52855B82855C83855D88
:10105000F0E55E120DCD74D4C0E07401C0E0748080
:10106000C0E01215BA1581158115811204A550A092
:1010700075301490007A75F0401204417518D275DD
:101080001901751A8090007A75F0401214F6E58205
:101090008583F045F060030210107455C0E07400C1
:1010A000C0E07440C0E07453C0E07400C0E074401D
:1010B000C0E074FBC0E07401C0E07480C0E0747AEA
:1010C000C0E07400C0E07440C0E0121298E58124D2
:1010D000F4F581C3E55394F7E55464809481500C92
:1010E000C2A5C2B7752B01E4F52C8009C2B2C2B00B
:1010F000E4F52BF52C75335775340075354075368E
:10110000597537007538408555318556328553827B
:1011100085548312071E8557828558831206F685EB
:101120008225858326855982855A831206F6858213
:101130002985832AC055C056C053C054C059C05ACF
:10114000C057C058C029C02AC025C0267402C0E0BC
:101150007402C0E07480C0E01215BAE58124F1F594
:101160008190000512031C90025375F080120B0150
:10117000020F2C20F71430F6148883A88220F5077C
:10118000E6A88375830022E280F7E49322E022AA96
:10119000F0FBE5828518F0A4FCADF0E5838518F03E
:1011A000A42DFDE435F0FEE5828519F0A42DFDE5C2
:1011B000F03EFEE433FFEA8518F0A42EFEE5F03F92
:1011C000FFE5838519F0A42EFEE5F03FFFE582855B
:1011D0001AF0A42EFEE5F03FFFEB8518F0A42FFFD8
:1011E000EA8519F0A42FFFE583851AF0A42FFFE507
:1011F00082851BF0A42F8EF08D838C8222FB7A20B7
:10120000E4FCFDFEFFE5822582F582E58333F5836C
:10121000E5F033F5F0EB33FB4017DAE98042E58285
:101220002582F582E58333F583E5F033F5F0EB3382
:10123000FBEC33FCED33FDEE33FEEF33FFEC9518A2
:10124000ED9519EE951AEF951B4013EC9518FCEDF2
:101250009519FDEE951AFEEF951BFF438201DABE4C
:10126000EB22AA08AB09AC0A8A828B838CF012119C
:1012700073FA0508E4B5080205098A822285820806
:1012800085830985F00A850B73850C74850D75853A
:101290000E76901262021A56C00F85810FE50F2458
:1012A000F8F576E50F24FBF8860808860908860A13
:1012B000E50F24F8F8867308867408867590126224
:1012C000121A56D00F22E4AC83AB82FAF9748E0264
:1012D0001E07FFA8811818121E2FD2D133E640072F
:1012E00030E70B7582012220E70675820022C2D109
:1012F000121E11E97003F5822230D101B3E433F5F7
:101300008222121366700AE582458345F07001223D
:10131000E430D112F4700BE5F0F47006E58330E7A9
:10132000012290800022700AE5F07006E58320E734
:101330000122907FFF22FFA8811818121E2FD2D100
:1013400033E6400730E70B7582002220E7067582FE
:101350000122C2D1121E11E97003F5822220D101AF
:10136000B3E433F58222121E5AC3749E958240392B
:101370007900121E6C30D126E9F42401F582EAF4DA
:101380003400F583EBF43400F5F0ECF43400700A2B
:10139000E582458345F0700122E430E70F22EC201E
:1013A000E71489828A838BF02230D10AE4F582F532
:1013B00083F5F074802274FFF582F583F5F0747F75
:1013C00022F9E5184519451A451B60777800C308CE
:1013D000E51B20E73BE51825E0F518E51933F5197D
:1013E000E51A33F51AE51B33F51BE5829518E583FD
:1013F0009519E5F0951AE9951B50D4C3E51B13F533
:101400001BE51A13F51AE51913F519E51813F51864
:10141000E5829518FCE5839519FDE5F0951AFEE93E
:10142000951B4007F98EF08D838C82C3E51B13F565
:101430001BE51A13F51AE51913F519E51813F51834
:10144000D8CEE922121F31BC0003021ED0EF60FA91
:1014500030D502B2D1E583B4FF03021EE6E582B4C3
:10146000FF03021EE6258340072482400B021ED0A4
:101470002483145003021EE6F582EA8DF0A4A8F03E
:10148000EA8EF0A428F8E435F0F9EB8DF0A428E911
:1014900035F0F9E433CA8FF0A429F9EA35F0FAEB14
:1014A000F88EF0A429F9EA35F0FAE433FBEC8DF07C
:1014B000A429F9EA35F0FAE43BFBE88FF0A42AFA14
:1014C000EB35F0FBE433CCFD8EF0A42AFAEB35F0DB
:1014D000FBE43CFCED8FF0A42BFBEC35F0FC20E7AB
:1014E00003121EFE021EAFE58330E709F4F583E523
:1014F00082F4F582A322AA82AB83ACF0AD18AE19B8
:10150000AF1A8A828B838CF0121173F87900C002B3
:10151000C003C0048D828E838FF0121173FA7B009A
:10152000E8C39AF8E99BF9881B891CD004D003D042
:1015300002E84970178D828E838FF0121173600C50
:101540000ABA00010B0DBD00B90E80B6851B82855D
:101550001C8322FBC2D530E715D2D5E4C39582F5B2
:1015600082E49583F583E495F0F5F0E49BFBE51BBD
:1015700030E717B2D5E4C39518F518E49519F519B5
:10158000E4951AF51AE4951BF51BEB1211FD30D505
:1015900013FBE4C39582F582E49583F583E495F02B
:1015A000F5F0E49B2202171285827185837285F023
:1015B000738517749015A5021FE8C00F85810FE58C
:1015C0000F24FBF574E50F24FBF88671088672087A
:1015D00086739015A5121FE8D00F22F9C2D530E707
:1015E00015D2D5E4C39582F582E49583F583E4951D
:1015F000F0F5F0E499F9E51B30E715E4C39518F52B
:1016000018E49519F519E4951AF51AE4951BF51BDC
:10161000E91213C130D512E4C39582F582E49583B3
:10162000F583E495F0F5F0E49922FCABF0AA83A9E8
:1016300082749EF582C2D1EC30E716D2D1E9F4244F
:1016400001F9EAF43400FAEBF43400FBECF4340072
:10165000FC121EFE021EAF20F71030F6118883A880
:101660008220F507F6A88375830022F280F7F02226
:10167000AA82AB10AC11AD128B828C838DF0EA1272
:1016800016570510E4B510020511228582108583D6
:101690001185F01285137185147285157385167482
:1016A000901670121FE8AA82AB83AC10AD11AE1277
:1016B0008C828D838EF0E41216578A828B8322C02F
:1016C0000F85810FE50F24F8F574E50F24FBF886EC
:1016D00010088611088612E50F24F8F8867108862E
:1016E00072088673901670121FE8AA82AB83AC1042
:1016F000AD11AE128C828D838EF0E41216578A8261
:101700008B83D00F22AC83AB827A007900748E0277
:101710001633AA82BA0A0810990280FB75990D1037
:10172000990280FB8A9922121F3130D502B2D1BFB3
:101730000009BC0003021EF3021EE6BC0003021EE9
:10174000D0E583B4FF0BE582B4FF03021EF3021E53
:10175000D0E582B4FF03021EE6C395835007247FC1
:10176000400B021ED02480145003021EE6C0E0E4A9
:10177000CCCBCAF98D188E198F1AEF54F0C4F51B13
:10178000758306851BF0EB84F582E9C4F9EAC4FA97
:10179000EBC4FBEC540FC47803D6FC18EBD6FB1853
:1017A000EAD6FA8582F0EDA4A8F0FD8582F0EEA4D9
:1017B00028FEE435F0F88582F0EFA428FFE435F048
:1017C000F8E99DF9EA9EFAEB9FFBEC98FCAD18AEA8
:1017D00019AF1A30E7101582E92DF9EA3EFAEB3F0E
:1017E000FBE43CFC80EDC082D58398C3E933F9EA81
:1017F00033FAEB33FBEC33FCC3E99DEA9EEB9FEC41
:101800009400B3E413F9D002D0E0C44AFAD003D074
:10181000E0C44BFBD004D0E0F5F0540FC44CFCD036
:1018200082158230F40FD3EC13FCEB13FBEA13FAAE
:10183000E913F90582E930E70A74012AFAE43BFB6F
:10184000E43CFC021EC785638285648312257F8584
:101850008272E572600A056CE4B56C06056D800263
:10186000D203857282227A007B0030030578B0763D
:101870000022C002C003121846AC82D003D002BCC2
:101880000002802DBC08028014BC09028023BC0A1F
:1018900002801EBC0D028019BC20218014EA4B601E
:1018A000D11ABAFF011B156C74FFB56C02156D805F
:1018B000C1EA4B60BDEA24B0F8760022EC7009EA78
:1018C00024B0F87600D20322ECB57107EA24B0F810
:1018D000760022C3EA940FEB940050968A058B069B
:1018E0000ABA00010BED24B0F8A604021872AA820D
:1018F0007B7FC3EA648094B0401174B98AF063F0CE
:101900008095F04006EA24D0FB8030C3EA648094DE
:10191000C1401174C68AF063F08095F0400674C926
:101920002AFB8017C3EA648094E1400F74E68AF0D2
:1019300063F08095F0400474A92AFBC3EB956E50C8
:10194000038B822275827F22AA82756800756900E6
:10195000756A00756B008A00E6FA60148A82C0001E
:101960001218EEAB82D000C3EB956E40030880E8FE
:1019700086038B82C0001218EEAA82D000C3E56EE7
:101980009A4050856E18751900751A00751B0085F0
:101990006882856983856AF0E56BC002C000121118
:1019A0008FAB82AC83ADF0FED000D0028B688C6927
:1019B0008D6A8E6BE4FBFCFDEA2568FAEB3569FB6A
:1019C000EC356AFCED356BFD8A688B698C6A8D6B32
:1019D00008809D856882856983856AF0E56B22AA07
:1019E00082756800756900756A00756B008A00E68B
:1019F000FB60228B82C003C0001218EEAC82D000C4
:101A0000D003C3EC956E400DBB2D028008BB2B02AA
:101A100080030880DA88028603BB2D03D38001C3CC
:101A20009206BB2D028003BB2B010A8A8212194841
:101A3000300613C3E49568FAE49569FBE4956AFC03
:101A4000E4956BFD8008AA68AB69AC6AAD6B8A82CD
:101A50008B838CF0ED22858263858364E4F56CF5DD
:101A60006DF570C203AA73AB74AC758A828B838CDC
:101A7000F0121173FD74012AF573E43BF5748C7553
:101A8000EDFA7003021DF5BA25028003021D8ED205
:101A900002C200756E00756F00C204C205AB73AC64
:101AA00074AD758B828C838DF0121173FAA3AB82A7
:101AB000AC838B738C748D758B828C838DF012113B
:101AC00073F5718A06BE300040168A06EE24C640C1
:101AD0000FE56F75F00AA4FEEA24D02EF56F80C3DF
:101AE0008A06BE6100400A8A06EE2485400353023E
:101AF000DFBA250280ADBA2A028045BA420280369A
:101B0000BA43028040BA4403021C09BA4903021CCA
:101B100009BA4C028025BA4E03021C1CBA4F0302BC
:101B20001C0EBA53028020BA5503021C07BA580390
:101B3000021C15021C44D200021AA3D201021AA3ED
:101B4000D204021AA3D205200417E57624FDF888F2
:101B500076860308860408860518188B658C668DC2
:101B600067E56F700B3005047B0180027BFF8B6F94
:101B7000756E00C3E56E956F5005121846AA823047
:101B80000307E56E7003021C44EA601ABA20028063
:101B90000DBA09028008BA0D028003BA0A033005A3
:101BA00005E56FB56E1FE56E60C92004120570ABC8
:101BB00065AC66AD678B828C838DF0E41216577529
:101BC0006E00021C44BA081CE56E60A7200411AB2D
:101BD00065AC66AD671BBBFF011C8B658C668D67B2
:101BE000156E808F20041BAB65AC66AD678B828C55
:101BF000838DF0EA1216570BBB00010C8B658C66C7
:101C00008D67056E021B73C202756E0A8036C202B2
:101C1000756E08802FC202756E108028E57624FD4F
:101C2000F88876860308860408860518188B658C64
:101C3000668D678B828C838DF0E56C121657A3E559
:101C40006D121657E56E7003021D8E12186678B07D
:101C5000E67003021D8E300403021D8EE57624FD1E
:101C6000F88876860308860408860518188B658C24
:101C7000668D670570200203021D073001358565FA
:101C8000778566788567797582B01219DFAE82AF85
:101C900083ABF0FC8577828578838579F0EE121628
:101CA00057A3EF121657A3EB121657A3EC121657B1
:101CB000021D8E3000268565778566788567797583
:101CC00082B01219DFAE82AF83ABF0FC85778285DC
:101CD00078838579F0EE121657021D8E856577851B
:101CE00066788567797582B01219DFAE82AF83ABF3
:101CF000F0FC8577828578838579F0EE121657A3FC
:101D0000EF121657021D8E3001348565778566788F
:101D10008567797582B0121948AE82AF83ABF0FC4B
:101D20008577828578838579F0EE121657A3EF12B6
:101D30001657A3EB121657A3EC121657805030001B
:101D4000258565778566788567797582B01219482B
:101D5000AE82AF83ABF0FC8577828578838579F09E
:101D6000EE121657802885657785667885677975C0
:101D700082B0121948AE82AF83ABF0FC85778285C2
:101D800078838579F0EE121657A3EF1216572003C9
:101D900003021A65AB73AC74AD758B828C838DF0C6
:101DA000121173FEA3AB82AC838B738C748D75EEB2
:101DB000FA7003021A65BA25E18B828C838DF012CA
:101DC0001173FABA6E028003BA4ECFE57624FDF89D
:101DD0008876860208860608860718188A658E6641
:101DE0008F678A828E838FF0E56C121657A3E56D9C
:101DF00012165780A5AA707B008A828B8322FCABC7
:101E0000F0AA83A982749EC2D1F582121EFE021E20
:101E1000AF7901AA82E68F82B5821318E6B5F00E7B
:101E200018E6B5830918E68A82B58202790022B4E1
:101E3000800FE5F0700AE5837006E58270027F008E
:101E4000EFB6801518B6001018B6000B18B60006CD
:101E500008080876002208080822AA82AB83A2F7A5
:101E60003392D16002D2F7F582ACF0226040F825BF
:101E700082500274FFF582E824F8501ECCCBCAF9D8
:101E8000E4CC24F85014CBCAF9E4CB24F8500BCAA4
:101E9000F9E4CA24F8500379002224086010F8C33A
:101EA000EC13FCEB13FBEA13FAE913F9D8F122B9AE
:101EB0008003EA13B34010EA2401FAE43BFBE43C5C
:101EC000FC50047C800582BC000EBB000BBA0008ED
:101ED000E4F5F0F583F58222A2D1E582138CF0922D
:101EE000F78B838A8222E4F583F58275F080F4A271
:101EF000D11322E4F583F58275F0C0747F22780453
:101F0000EC7011E58224F8500AF582E4C9CACBFCD2
:101F1000D8EF22EC7820058220E713D5820122C376
:101F2000E933F9EA33FAEB33FBEC33FCD8EA1582F8
:101F300022AA82AB83A2F73392D16002D2F7F58254
:101F4000ACF0E58124F9F8E6FD08E6FE0886F00825
:101F5000E6A2F73392D56002D2F7F583AFF022AA5A
:101F6000827470C0E0741FC0E0C063C0648A8222C3
:101F7000056AE4B56A02056B22AA8274302AFA2443
:101F8000C6500A74072AFA3007034302208A8202E5
:101F90001F5FE582FAC4540FF582C002121F79D088
:101FA00002740F5AF582021F79AA65AB66AC67AD61
:101FB00068AE69757020EE2EFEED235401FF4206D7
:101FC000EA2AFAEB33FBEC33FCED33FDC3EE956C00
:101FD0004008EEC3956CFE430201D570D98A658B2B
:101FE000668C678D688E6922858263858364E4F5DB
:101FF0006AF56BAA71AB72AC738A828B838CF01218
:102000001173FD74012AF571E43BF5728C73EDFADE
:102010007003022578BA25028003022570C20BC224
:102020000CC20DC20EC20FC210C211C212C208C22F
:1020300009C20A756C00756D00756EFFAB71AC72EC
:10204000AD738B828C838DF0121173FAA3AB82ACCB
:10205000838B718C728D73BA25078A82121F5F8001
:10206000928A06BE3000402E8A06EE24C6402774AF
:10207000FFB56E13E56D75F00AA4FEEA24D02EF5C7
:102080006D70BFD20C80BBE56E75F00AA4FEEA2429
:10209000D02EF56E80ACBA2E0A74FFB56EA4756EA4
:1020A00000809F8A06BE6100400E8A06EE248540AD
:1020B000075302DFD2078002C207BA20028075BA36
:1020C0002303022143BA2A03022148BA2B02805F6C
:1020D000BA2D028055BA4202805FBA430302218DB5
:1020E000BA44030222C8BA45030222E2BA460302F6
:1020F00022DEBA47030222E6BA49030222C8BA4CDA
:1021000002803BBA4E030222EABA4F030222CFBA40
:102110005003022261BA53030221B1BA55030222CD
:10212000D4BA58030222D9022314D20B022042D27D
:102130000D022042D20E022042D210022042D211C1
:10214000022042D21202204274FFB56E2030100BE2
:10215000E57414F88874866D022042E57424FEF854
:1021600088748606088607188E6D02204230100B90
:10217000E57414F88874866E022042E57424FEF833
:1021800088748606088607188E6E02204230100A70
:10219000E57414F888748602800FE57424FEF888CC
:1021A000748603088604188B028A82121F5F02233A
:1021B00019E57424FDF888748603088604088605EA
:1021C00018188B658C668D678B828C838DF0122539
:1021D00081AB82AC838B6F74FFB56E03856F6E200D
:1021E0000B1DC3E56F956D5016E56DC3956FF56DCD
:1021F000AB6D156DEB6008758220121F5F80F18555
:1022000065828566838567F0121173FBFA6029ABDE
:102210006E156EC3E464808BF063F08095F0501807
:102220008A82121F5FAB65AC66AD670BBB00010C09
:102230008B658C668D6780C7200B03022319C3E56D
:102240006F956D4003022319E56DC3956FF56DAB76
:102250006D156DEB7003022319758220121F5F80CC
:10226000EEE57424FDF88874860308860408860564
:1022700018188B658C668D67E567FB30E7047A4339
:102280008013EB546060047A50800AEB30E6047AE5
:102290004980027A588A82C002121F5F75823A1200
:1022A0001F5F758230121F5F758278121F5FD00228
:1022B000BA4902800BBA50028006856682121F92CC
:1022C000856582121F928051D20F756C0A804A7503
:1022D0006C088045756C0A8040756C10803BD20894
:1022E0008037D2098033D20A802FE57424FDF88824
:1022F00074860308860408860518188B658C668D1D
:10230000678B828C838DF0E56A121657A3E56B12FA
:10231000165780058A82121F5F20080620090330A5
:102320000A5AE57424FCF888748603088604088633
:10233000050886061818188B658C668D678E68757B
:1023400065557566027567808565758566768567EE
:102350007774012575FEE43576FFAB778E658F6661
:102360008B678575828576838577F0121173FBFA0A
:102370007003021FF38A82121F5F80CCE56C70032A
:10238000021FF37BAF30102BE57414F88874E6FC61
:102390003395E0FDFEFF8C658D668E678F68200F9C
:1023A0005EAC657D007E007F008C658D668E678FDC
:1023B00068804C30111FE57424FCF888748604088A
:1023C00086050886060886071818188C658D668E9F
:1023D000678F68802AE57424FEF88874860408866E
:1023E0000518ED3395E0FEFF8C658D668E678F686E
:1023F000200F0CAC65AD667E007F008E678F683065
:102400001243E56545664567456860397408B56CF3
:102410000C758230C003121F5FD00380287410B582
:102420006C23758230C003121F5FD00330070C7518
:102430008278C003121F5FD003800A758258C003E0
:10244000121F5FD003300F25AC65AD66AE67E5683F
:10245000FF30E717C3E49CFCE49DFDE49EFEE49F8F
:10246000FF8C658D668E678F688002C20F756F0066
:10247000D2138B00756900C000121FA9D000201371
:102480000DE569C4FCE6FD4CF61888038002A669D8
:10249000056FB213E56545664567456870D68803E4
:1024A000E56D7003756D01200C1A200B17E56F04A4
:1024B000FCC3956D500E758220C003121F5FD003C0
:1024C000156D80E9300F0E75822DC003121F5FD08D
:1024D00003156D8024E56F6020300D0E75822BC0D2
:1024E00003121F5FD003156D800F300E0C75822014
:1024F000C003121F5FD003156D200B1EAC6D156D50
:10250000C3E56F9C5027300C047C3080027C208C0B
:1025100082C003121F5FD00380E2C3E56F956D5048
:1025200009E56DC3956FF56D8003756D008B00AB8C
:102530006F156FEB6022B21320130A08E6C4540F24
:10254000FB8B6980078603740F5BF569856982C020
:1025500000121F79D00080D7200B03021FF3AB6D50
:10256000156DEB7003021FF3758220121F5F80EE62
:102570008A82121F5F021FF3856A82856B8322E4C1
:1025800073AA82AB83ACF07D007E008A828B838C41
:10259000F0121173FFA3AA82AB83EF60070DBD0099
:1025A000EA0E80E78D828E8322000000000000008A
:00000001FF
