:10000000020003758163120129E582600302006F1B
:10001000780079007A007B007C007D00EC4D601C4C
:1000200088828983E493A3A882A9838A828B83F040
:10003000A3AA82AB831CBCFFE31D80E07582007520
:1000400083007C007D00EC4D600AE4F0A31CBCFF43
:10005000F51D80F27582007583007C007D00EC4DFB
:10006000600AE4F0A31CBCFFF51D80F21201281207
:10007000042380FE436F6D6D616E643A202573002A
:10008000526573706F6E73653A2025730D0A0041D7
:10009000542B44564944303030300D0A000D0A4587
:1000A000464D384C423132204A44592D3430205389
:1000B0006C61766520546573742E0D0A0041542BD3
:1000C0005645520D0A0041542B424155440D0A0039
:1000D00041542B524649440D0A0041542B44564981
:1000E000440D0A0041542B5246430D0A0041542B43
:1000F000504F57450D0A0041542B434C53530D0AA2
:100100000041542B44564944414242410D0A005398
:1001100025645425640025642C202564003C4E4F42
:1001200020464C4F41543E002275A7007597DE755E
:1001300097AD75FF8075EF0675A71075C12075A77F
:100140000075A90075A900E5A930E7FB75A903753D
:10015000A903E5A930E7FB43A41143A60175E1011A
:1001600075E20075E341759810758DE6858D8B53AA
:10017000890F438920D28ED299D2A075820022AAFB
:1001800082438E407592B87593FF859294859395BE
:100190007591047B00C3EB9A500BE59130E7FB535C
:1001A000917F0B80F075910022AA82AB837C007D49
:1001B00000C3EC9AED9B502B7E00BE0400501D75D1
:1001C00082FAC002C003C004C005C00612017FD07D
:1001D00006D005D004D003D0020E80DE0CBC00D1C6
:1001E0000D80CE22AA82AB83ACF0FD75A72075935B
:1001F0000C75C8107594008A168B178C188D199081
:10020000A20075F04A740412050BAA82AB83ACF00D
:10021000FD751618E4F517F518F5198A828B838C8D
:10022000F0ED12050BAA82AB83ACF0FDE4C39AFAA1
:10023000E49BFB74019CE49D8A958B96D2C9439400
:100240004075A70022AA8275A72010C90280FB8AE8
:100250009275A70022AA82AB83ACF08A828B838C32
:10026000F01204EFFD60188D82C002C003C00412BA
:100270000245D004D003D0020ABA00DF0B80DC2292
:1002800075A72010C80280FB53C83F85928275A7CE
:10029000002275A7207A007B0020C82675A700756C
:1002A0008214C002C00312017FD003D00275A720C0
:1002B0000ABA00010BBAA8E1BB61DE75A70075821E
:1002C0000A22C2C853C83F85928275A70022AA821B
:1002D000AB83ACF07D008A068B078C00C002C003A4
:1002E000C004C005C006C007C000120292A982D097
:1002F00000D007D006D005D004D003D002B90A0A36
:100300008A828B838CF0E402060AC3ED95105018A4
:100310000D8E828F8388F0E912060AA3AE82AF8326
:100320008E028F03880480B48A828B838CF0E4026F
:10033000060A75A720A2C875A70022AA82AB837CF3
:10034000007D00C3EC9AED9B50477E00BE04005038
:1003500039C002C003C004C005C006120332E43332
:10036000D006D005D004D003D0026001227582FAF5
:10037000C002C003C004C005C00612017FD006D071
:1003800005D004D003D0020E80C20CBC00B50D8095
:10039000B222AA82AB83ACF0C002C003C004C00288
:1003A000C003C0047474C0E07400C0E07480C0E096
:1003B0001205E9E58124FAF581C2A0900005120139
:1003C000A9D004D003D0028A828B838CF01202550C
:1003D00075101390003A75F0401202CE90000A1288
:1003E00001A9D2A0743AC0E07400C0E07440C0E03B
:1003F0007480C0E07400C0E07480C0E01205E9E5DC
:100400008124FAF58122C2A090000A1201A990006D
:100410008F75F08012025590000A1201A953C83F4F
:10042000D2A0229001F41201A9749DC0E07400C012
:10043000E07480C0E01205E91581158115819025D1
:1004400080E4F5F01201E41204069000BD75F0801E
:100450001203929000C675F0801203929000D0753E
:10046000F0801203929000DA75F0801203929000EF
:10047000E475F0801203929000ED75F08012039203
:100480009000F775F08012039290010175F08012D0
:10049000039212033250FB7411C0E07400C0E07488
:1004A00040C0E07413C0E07400C0E07440C0E07469
:1004B0000FC0E07401C0E07480C0E0743AC0E07422
:1004C00000C0E07440C0E01205A6E58124F4F58187
:1004D000C013C014C011C0127416C0E07401C0E093
:1004E0007480C0E01205E9E58124F9F58180A3203C
:1004F000F71430F6148883A88220F507E6A88375E0
:10050000830022E280F7E49322E022FB7A20E4FCDD
:10051000FDFEFFE5822582F582E58333F583E5F074
:1005200033F5F0EB33FB4017DAE98042E5822582B0
:10053000F582E58333F583E5F033F5F0EB33FBEC3F
:1005400033FCED33FDEE33FEEF33FFEC9516ED9506
:1005500017EE9518EF95194013EC9516FCED9517CD
:10056000FDEE9518FEEF9519FF438201DABEEB22EE
:10057000AA08AB09AC0A8A828B838CF01204EFFACA
:100580000508E4B5080205098A8222858208858368
:100590000985F00A850B33850C34850D35850E36BB
:1005A000900570020833C00F85810FE50F24F8F520
:1005B00036E50F24FBF8860808860908860AE50F49
:1005C00024F8F886330886340886359005701208BA
:1005D00033D00F220211FB85823185833285F033BF
:1005E0008515349005D4020C64C00F85810FE50F8A
:1005F00024FBF534E50F24FBF886310886320886A3
:10060000339005D4120C64D00F2220F71030F6116D
:100610008883A88220F507F6A88375830022F280DC
:10062000F7F02285238285248312127E858232E5AB
:1006300032600A052CE4B52C06052D8002D2038514
:100640003282227A007B003003057854760022C083
:1006500002C003120623AC82D003D002BC00028089
:100660002DBC08028014BC09028023BC0A02801E33
:10067000BC0D028019BC20218014EA4B60D11ABA4B
:10068000FF011B152C74FFB52C02152D80C1EA4B00
:1006900060BDEA2454F8760022EC7009EA2454F88C
:1006A0007600D20322ECB53107EA2454F876002212
:1006B000C3EA940FEB940050968A058B060ABA00A1
:1006C000010BED2454F8A60402064FAA827B7FC3D7
:1006D000EA648094B0401174B98AF063F08095F0B8
:1006E0004006EA24D0FB8030C3EA648094C1401104
:1006F00074C68AF063F08095F0400674C92AFB80C6
:1007000017C3EA648094E1400F74E68AF063F080D6
:1007100095F0400474A92AFBC3EB952E50038B82FD
:100720002275827F22AA82752800752900752A0009
:10073000752B008A00E6FA60148A82C0001206CB8C
:10074000AB82D000C3EB952E40030880E886038B74
:1007500082C0001206CBAA82D000C3E52E9A405078
:10076000852E167517007518007519008528828565
:100770002983852AF0E52BC002C000121210AB823B
:10078000AC83ADF0FED000D0028B288C298D2A8E50
:100790002BE4FBFCFDEA2528FAEB3529FBEC352A96
:1007A000FCED352BFD8A288B298C2A8D2B08809D0A
:1007B000852882852983852AF0E52B22AA8275283F
:1007C00000752900752A00752B008A00E6FB60225F
:1007D0008B82C003C0001206CBAC82D000D003C312
:1007E000EC952E400DBB2D028008BB2B0280030828
:1007F00080DA88028603BB2D03D38001C39206BB37
:100800002D028003BB2B010A8A82120725300613B2
:10081000C3E49528FAE49529FBE4952AFCE4952B9A
:10082000FD8008AA28AB29AC2AAD2B8A828B838C49
:10083000F0ED22858223858324E4F52CF52DF53017
:10084000C203AA33AB34AC358A828B838CF012049A
:10085000EFFD74012AF533E43BF5348C35EDFA7085
:1008600003020BD2BA25028003020B6BD202C20034
:10087000752E00752F00C204C205AB33AC34AD3504
:100880008B828C838DF01204EFFAA3AB82AC838B46
:10089000338C348D358B828C838DF01204EFF531DF
:1008A0008A06BE300040168A06EE24C6400FE52FA9
:1008B00075F00AA4FEEA24D02EF52F80C38A06BE66
:1008C0006100400A8A06EE248540035302DFBA2500
:1008D0000280ADBA2A028045BA42028036BA43028B
:1008E0008040BA44030209E6BA49030209E6BA4C59
:1008F000028025BA4E030209F9BA4F030209EBBA86
:1009000053028020BA55030209E4BA58030209F2DF
:10091000020A21D200020880D201020880D2040219
:100920000880D205200417E53624FDF888368603B2
:1009300008860408860518188B258C268D27E52F38
:10094000700B3005047B0180027BFF8B2F752E001E
:10095000C3E52E952F5005120623AA82300307E522
:100960002E7003020A21EA601ABA2002800DBA0929
:10097000028008BA0D028003BA0A03300505E52F8C
:10098000B52E1FE52E60C92004120530AB25AC261C
:10099000AD278B828C838DF0E412060A752E00023F
:1009A0000A21BA081CE52E60A7200411AB25AC264D
:1009B000AD271BBBFF011C8B258C268D27152E8098
:1009C0008F20041BAB25AC26AD278B828C838DF04A
:1009D000EA12060A0BBB00010C8B258C268D27051D
:1009E0002E020950C202752E0A8036C202752E08E8
:1009F000802FC202752E108028E53624FDF8883637
:100A0000860308860408860518188B258C268D27F2
:100A10008B828C838DF0E52C12060AA3E52D12063D
:100A20000AE52E7003020B6B1206437854E670033E
:100A3000020B6B300403020B6BE53624FDF888369D
:100A4000860308860408860518188B258C268D27B2
:100A50000530200203020AE430013585253785265A
:100A6000388527397582541207BCAE82AF83ABF04C
:100A7000FC8537828538838539F0EE12060AA3EFAC
:100A800012060AA3EB12060AA3EC12060A020B6B6B
:100A900030002685253785263885273975825412FA
:100AA00007BCAE82AF83ABF0FC8537828538838587
:100AB00039F0EE12060A020B6B852537852638853C
:100AC00027397582541207BCAE82AF83ABF0FC8528
:100AD00037828538838539F0EE12060AA3EF1206B5
:100AE0000A020B6B30013485253785263885273976
:100AF000758254120725AE82AF83ABF0FC85378236
:100B00008538838539F0EE12060AA3EF12060AA390
:100B1000EB12060AA3EC12060A8050300025852548
:100B200037852638852739758254120725AE82AF5E
:100B300083ABF0FC8537828538838539F0EE120669
:100B40000A802885253785263885273975825412ED
:100B50000725AE82AF83ABF0FC853782853883856D
:100B600039F0EE12060AA3EF12060A200303020868
:100B700042AB33AC34AD358B828C838DF01204EFF5
:100B8000FEA3AB82AC838B338C348D35EEFA7003CD
:100B9000020842BA25E18B828C838DF01204EFFAB1
:100BA000BA6E028003BA4ECFE53624FDF888368649
:100BB0000208860608860718188A258E268F278A37
:100BC000828E838FF0E52C12060AA3E52D12060A09
:100BD00080A5AA307B008A828B8322AA8274ECC013
:100BE000E0740BC0E0C023C0248A8222052AE4B549
:100BF0002A02052B22AA8274302AFA24C6500A74CB
:100C0000072AFA3007034302208A82020BDBE582BF
:100C1000FAC4540FF582C002120BF5D002740F5AB9
:100C2000F582020BF5AA25AB26AC27AD28AE2975B7
:100C30003020EE2EFEED235401FF4206EA2AFAEBA5
:100C400033FBEC33FCED33FDC3EE952C4008EEC3D3
:100C5000952CFE430201D530D98A258B268C278D11
:100C6000288E2922858223858324E4F52AF52BAA60
:100C700031AB32AC338A828B838CF01204EFFD747B
:100C8000012AF531E43BF5328C33EDFA70030211A1
:100C9000F4BA250280030211ECC20BC20CC20DC2D1
:100CA0000EC20FC210C211C212C208C209C20A7516
:100CB0002C00752D00752EFFAB31AC32AD338B821D
:100CC0008C838DF01204EFFAA3AB82AC838B318C52
:100CD000328D33BA25078A82120BDB80928A06BED8
:100CE0003000402E8A06EE24C6402774FFB52E132E
:100CF000E52D75F00AA4FEEA24D02EF52D70BFD2A2
:100D00000C80BBE52E75F00AA4FEEA24D02EF52E49
:100D100080ACBA2E0A74FFB52EA4752E00809F8A6F
:100D200006BE6100400E8A06EE248540075302DFAE
:100D3000D2078002C207BA20028075BA2303020DCF
:100D4000BFBA2A03020DC4BA2B02805FBA2D0280FB
:100D500055BA4202805FBA4303020E09BA44030245
:100D60000F44BA4503020F5EBA4603020F5ABA4750
:100D700003020F62BA4903020F44BA4C02803BBA25
:100D80004E03020F66BA4F03020F4BBA5003020E16
:100D9000DDBA5303020E2DBA5503020F50BA5803A1
:100DA000020F55020F90D20B020CBED20D020CBEE8
:100DB000D20E020CBED210020CBED211020CBED258
:100DC00012020CBE74FFB52E2030100BE53414F85F
:100DD0008834862D020CBEE53424FEF8883486065D
:100DE000088607188E2D020CBE30100BE53414F85F
:100DF0008834862E020CBEE53424FEF8883486063C
:100E0000088607188E2E020CBE30100AE53414F83E
:100E100088348602800FE53424FEF888348603087F
:100E20008604188B028A82120BDB020F95E53424AC
:100E3000FDF88834860308860408860518188B2573
:100E40008C268D278B828C838DF0121280AB82AC26
:100E5000838B2F74FFB52E03852F2E200B1DC3E52A
:100E60002F952D5016E52DC3952FF52DAB2D152D56
:100E7000EB6008758220120BDB80F18525828526C8
:100E8000838527F01204EFFBFA6029AB2E152EC3E1
:100E9000E464808BF063F08095F050188A82120B26
:100EA000DBAB25AC26AD270BBB00010C8B258C26BC
:100EB0008D2780C7200B03020F95C3E52F952D408A
:100EC00003020F95E52DC3952FF52DAB2D152DEBB9
:100ED0007003020F95758220120BDB80EEE534243F
:100EE000FDF88834860308860408860518188B25C3
:100EF0008C268D27E527FB30E7047A438013EB54DB
:100F00006060047A50800AEB30E6047A4980027A05
:100F1000588A82C002120BDB75823A120BDB758293
:100F200030120BDB758278120BDBD002BA490280DB
:100F30000BBA50028006852682120C0E852582127D
:100F40000C0E8051D20F752C0A804A752C088045F2
:100F5000752C0A8040752C10803BD2088037D2094E
:100F60008033D20A802FE53424FDF88834860308C4
:100F7000860408860518188B258C268D278B828C75
:100F8000838DF0E52A12060AA3E52B12060A8005D6
:100F90008A82120BDB200806200903300A5AE53446
:100FA00024FCF8883486030886040886050886062B
:100FB0001818188B258C268D278E2875251D7526CB
:100FC00001752780852535852636852737740125C7
:100FD00035FEE43536FFAB378E258F268B278535DA
:100FE000828536838537F01204EFFBFA7003020C1A
:100FF0006F8A82120BDB80CCE52C7003020C6F7BB6
:101000005330102BE53414F88834E6FC3395E0FDBA
:10101000FEFF8C258D268E278F28200F5EAC257D28
:10102000007E007F008C258D268E278F28804C30F7
:10103000111FE53424FCF8883486040886050886E8
:10104000060886071818188C258D268E278F28806D
:101050002AE53424FEF88834860408860518ED3322
:1010600095E0FEFF8C258D268E278F28200F0CAC57
:1010700025AD267E007F008E278F28301243E52580
:1010800045264527452860397408B52C0C758230F3
:10109000C003120BDBD00380287410B52C2375829B
:1010A00030C003120BDBD00330070C758278C0030D
:1010B000120BDBD003800A758258C003120BDBD001
:1010C00003300F25AC25AD26AE27E528FF30E71706
:1010D000C3E49CFCE49DFDE49EFEE49FFF8C258D13
:1010E000268E278F288002C20F752F00D2138B0007
:1010F000752900C000120C25D00020130DE529C46D
:10110000FCE6FD4CF61888038002A629052FB213D1
:10111000E52545264527452870D68803E52D70032B
:10112000752D01200C1A200B17E52F04FCC3952DFB
:10113000500E758220C003120BDBD003152D80E901
:10114000300F0E75822DC003120BDBD003152D80DE
:1011500024E52F6020300D0E75822BC003120BDBAF
:10116000D003152D800F300E0C758220C003120B9A
:10117000DBD003152D200B1EAC2D152DC3E52F9CA8
:101180005027300C047C3080027C208C82C00312FB
:101190000BDBD00380E2C3E52F952D5009E52DC36D
:1011A000952FF52D8003752D008B00AB2F152FEBA0
:1011B0006022B21320130A08E6C4540FFB8B298067
:1011C000078603740F5BF529852982C000120BF591
:1011D000D00080D7200B03020C6FAB2D152DEB70C8
:1011E00003020C6F758220120BDB80EE8A82120BD9
:1011F000DB020C6F852A82852B8322AA82BA0A0819
:1012000010990280FB75990D10990280FB8A992232
:10121000AAF0FBE5828516F0A4FCADF0E583851607
:10122000F0A42DFDE435F0FEE5828517F0A42DFD38
:10123000E5F03EFEE433FFEA8516F0A42EFEE5F06D
:101240003FFFE5838517F0A42EFEE5F03FFFE58222
:101250008518F0A42EFEE5F03FFFEB8516F0A42FD5
:10126000FFEA8517F0A42FFFE5838518F0A42FFF70
:10127000E5828519F0A42F8EF08D838C8222E47391
:10128000AA82AB83ACF07D007E008A828B838CF0D7
:101290001204EFFFA3AA82AB83EF60070DBD00EA43
:1012A0000E80E78D828E8322000000000000000087
:00000001FF
